:020000040000FA
:0400000053EF00F0CA
:020006000102F5
:0400080006EF04F00B
:080018007F6603EF04F0F0A085
:100020002DD0F09080A80DD083CFDEFF80A603D026
:100030007E82800E29D88A8681A2FED795688A960C
:10004000110080500F0B04E1010E8C6E956AF3D7FE
:10005000080A04E1020E8C6E956AEDD70C0A04E1E1
:100060007DC08CFF956AE7D7080A04E17CC08CFF4D
:10007000956AE1D74F0E8C6E956ADDD7F2A403D056
:10008000F2947B667B061100C96EC7A0FED78B80F9
:10009000C9508B901200DF38DEBC8F0FDF24DEBC2E
:1000A000F90FCD0F12007F6A7E6A8EEC01F0FE0E12
:1000B000F66EFF0EF76EF86A0900F5507D627E8CD1
:1000C0000900F5507C627E8C7EBC26D0030EAA6EA1
:1000D000FE0EA96EA69EA69CA680A8507D627E8E6E
:1000E000A92AA69EA69CA680A8507C627E8E7EBE73
:1000F00013D07F6800EF04F0030EAA6EFE0EA96E07
:100100007DC0A8FF040EA66EC3D8A92A7CC0A8FF94
:10011000040EA66EBDD8FF0094900F0EC16E8A9695
:100120009396F086F09CF19A8A9E939E8A9C939C6B
:100130009496949A400EC76E210EC66E870ED56EA9
:10014000F194F28A120E7B6ED08E8A8E8A8C856B29
:10015000846B21EE00F0F28CF28E400E95DF7EB2C1
:1001600005D87EBCFCD77B66FAD7C6D77E9221EE37
:1001700000F0DE503A0A37E18EDF806F040F816FA6
:100180008ADF8027812FFCD7806726D021EE01F0FF
:1001900082DF816F80DF836F7EDF826F7CDF866F1F
:1001A000070B88EC01F0F5EF00F064EF01F0EAEFE7
:1001B00000F0EAEF00F05BEF01F0EAEF00F066EF2D
:1001C00001F0EAEF00F040095FDF21EE00F01200DD
:1001D000000EF9D7020EF7D7030EF5D77E84050E71
:1001E000F2D7010EF0D7040EEED77EB4F3D78551C7
:1001F000F1E1845105E033D88451F00A18E0EAD7E0
:100200008251F65C876F8351F75808E38713E6E164
:1002100042DF8107F56E7E8649D801D0F5680D0072
:10022000F6503F0BD8B424D88167EAD7D1D7A6B20D
:10023000FED78451F008876F8351FC0B871185111D
:10024000D0E18351AA6E8251A96E25DF8107A86E85
:10025000040EA66E1DD82AD88167E9D7B9D77EA625
:100260001200F5680D00F6503F0BFCE101D81200BA
:100270007EA60CD07E960A00FF0EF65C070EF7589D
:1002800004E37E8C840EA66E03D80900A66A1200D1
:10029000F29EF29C550EA76EAA0EA76EA682F28C55
:1002A000F28E0000A6B2FED7A6941200E86A822B56
:1002B0008323842312008105E82C95D7ECDE856F1B
:1002C000EADE846F000E7FD7CADFFF0083298BE14F
:1002D000825101E00FD07E8C000EF66E080EF76E94
:1002E000F86A940EA66ED4DF400EF626E86AF7226E
:1002F000F8E16ED7A868AA6AA96A040EA66EC8DFDC
:10030000A6B2FED7A93EF9D7AA2AAA50F6E160D72D
:10031000E844E844FD26000EFE221200000EF66EB0
:10032000080EF76EF86A7C6A7D6A0900F55007D8F6
:10033000F750FF08FAE1F650FE08F7E112007C18CA
:100340007D187D1A7D187C6E7D507D3A7D1A7D3238
:100350007DB0D8707DB2D8707DB4D8707D6E010E3E
:10036000D8B07C1A400E7D32D8B07C1A7D347D1A0C
:0A0370007D32800ED8B07C1A000C1C
:06080000ECEF72F01200A3
:06080600A7EF6EF01200E6
:04080C0080500062B6
:1008100010D0956A8A8681A2FED7F09095688A9654
:10082000C7A0FED7C9CF1EF0C9681EC08CFF258F98
:100830001100F090046679D0002807E0C7A0FED729
:10084000C9CF1FF0898AFF0E006E80501F0B1D62FA
:1008500006D083380F0B106E116A126A1F0F91ECCD
:1008600004F09AEF04F0A0EF04F045EF05F0D3EFA9
:1008700004F0C2EF05F0D0EF04F0E3EF04F0D9EF9D
:1008800004F09DEF04F0C7EF04F0CAEF04F0D6EFD8
:1008900004F0C4EF04F0CDEF04F0E3EF04F034EF24
:1008A00005F034EF05F0F4EF04F0B2EF05F05BEF84
:1008B00005F016EF05F055EF05F0C1EF05F062EF1A
:1008C00005F0E4EF04F034EF05F0BDEF05F05EEF66
:1008D00005F082EF05F058EF05F0C1EF05F034EFB9
:1008E00005F088EF05F08EEF05F095EF05F0A2EF2B
:1008F00005F0A9EF05F0A9EF05F0A2EF05F0A9EFCB
:1009000005F0ADEF05F0A9EF05F0A9EF05F0A9EFAF
:1009100005F0A9EF05F0A9EF05F0A9EF05F0A9EFA3
:1009200005F0E844E844FD26120080B89DD005C0DB
:100930008CFF99D00FC08CFF96D007C08CFF93D04E
:10094000E9CF52F0EACF53F007EE52F01150E9260A
:100950001250EA22EFCF8CFF114A122A1150145C78
:100960007EE11250155C7BE1500EC96E056E72D0AF
:10097000E9CF52F0EACF53F00BEE00F01AC0E9FFD6
:100980001A2AEFCF8CFF6BD018C08CFF6CD008C038
:100990008CFF69D017C08CFF66D00AC08CFF63D073
:1009A00009C08CFF60D00BC08CFF5DD00CC08CFFE9
:1009B0005AD01344E838246E0D44E844E8440E103D
:1009C00024108C6E50D050D08350076EE8B64CD0B7
:1009D000066606D0510EC96E056E100E086E4AD01E
:1009E000500EC96E056E46D01050030A3DE1E9CFA6
:1009F00052F0EACF53F007EE52F01150E9261250B0
:100A0000EA2283CFEFFF52C0E9FF53C0EAFF114A49
:100A1000122A1150145C28E11250155C25E1820E57
:100A2000C96E056E030E026E018424D0E9CF52F028
:100A3000EACF53F00BEE00F01AC0E9FF83CFEFFFCF
:100A400052C0E9FF53C0EAFF1A2A18501A620CD0AC
:100A5000400E8CD0C7A0FED78B8000008B9052C078
:100A6000E9FF53C0EAFF956A8A8681A2FED795689E
:100A70008A961100C7A0FED78B808A8681A2FED7F6
:100A80009568C9508B908A961100020E1B6203D0A4
:100A90001CC08CFF08D01BC0A9FFAA6AA69EA69CFA
:100AA000A680A8CF8CFF1B2ADED783CF09F0DCD726
:100AB00083CF0AF0D9D783CF0BF0D6D78350030B5F
:100AC0000C6ED2D7500EC96E056E146A156A83403B
:100AD000E838030B136E02E1152A0CD0010A03E17A
:100AE000020E156E07D0030A03E1040E156E02D044
:100AF000800E146E8344E838030B0D6E8350070B91
:100B00000E6EB8D7196A8350186EAEE1192AACD7A9
:100B1000500EC96E056E0B6A0C6AACD7820EC96E98
:100B2000056E020E026E0184A5D78350040B04E10A
:100B3000580EC96E056E9ED7510EC96E056E040E15
:100B4000086E98D7820EC96E056E010E026E018482
:100B500091D7500EC96E056E8DD7086A400EC96ECA
:100B6000056E88D783CF16F01A6A800E1610026EB3
:100B7000820EC96E056E01847DD783CF1CF01B6A7F
:100B800073D772D720A0F4D61EC08CFF956A8A86D0
:100B900080501F0B006E81A2FED7F09095688A9658
:100BA000899A200EC66E1FC01EF0C9681EC08CFF39
:040BB000258F11007C
:0C0BB400010028E60000050F0000010011
:020BC000000033
:0E0BC200D9CFE6FFDACFE6FFE1CFD9FFE2CFD1
:100BD000DAFFE652E652E652E652FC0EDBCFDEFFCB
:100BE000DBCFDDFFFA0EDBCF46F0FB0EDBCF47F0AD
:100BF000020E46C0DBFF030E47C0DBFFF80EDBCF63
:100C000026F0F90EDBCF27F0020E265C000E2758E7
:100C10002BE3020EDBCFE9FF030EDBCFEAFFEECFC3
:100C200026F0EFCF27F0DECFE9FFDDCFEAFF26C0C9
:100C3000EEFF27C0EDFF020EDE26000EDD22D950AA
:100C4000020FE96E000EDA20EA6E020EEE26000EAA
:100C5000ED22D950F80FE96EFF0EDA20EA6E020E8F
:100C6000EE5E000EED5ACAD7F80EDBCF26F0DB069B
:100C7000F90EDBCF27F001E2DB062650271017E044
:100C8000020EDBCFE9FFDB2A030EDBCFEAFF01E335
:100C9000DB2AEF50E66EDFCFE9FFDF2A010EDBCF64
:100CA000EAFF01E3DB2AE552E750EF6EDDD7040EE1
:100CB000E15C02E2E16AE552E16EE552E5CFDAFF7E
:100CC000E7CFD9FF1200D9CFE6FFDACFE6FFE1CFB9
:100CD000D9FFE2CFDAFFE652E652FC0EDBCFDEFFB1
:100CE000DBCFDDFFF80EDBCF26F0DB06F90EDBCF26
:100CF00027F001E2DB06265027100CE0DFCFE9FFEA
:100D0000DF2A010EDBCFEAFF01E3DB2AFA0EDBCF9D
:100D1000EFFFE8D7E552E552E552E5CFDAFFE7CF3E
:100D2000D9FF1200D9CFE6FFDACFE6FFE1CFD9FF36
:100D3000E2CFDAFF060EE12402E3E168E652E16E5B
:100D4000FC0EDBCFDEFFDBCFDDFFFA0EDBCF46F0A4
:100D5000FB0EDBCF47F0020E46C0DBFF030E47C0A1
:100D6000DBFF040EDB6A050EDB6AF80EDBCF26F034
:100D7000DB06F90EDBCF27F001E2DB062650271059
:100D800020E0DFCFE9FFDF2A010EDBCFEAFF01E33E
:100D9000DB2AEFCF2AF0020EDBCFE9FFDB2A030EBE
:100DA000DBCFEAFF01E3DB2AEF502A5C286E296AD9
:100DB000040E28C0DBFF050E29C0DBFF28502910D8
:100DC000D4E0040EDBCF26F0050EDBCF27F026C0E3
:100DD000F3FF27C0F4FF060EE15C02E2E16AE55290
:100DE000E16EE552E5CFDAFFE7CFD9FF1200D9CFA8
:100DF000E6FFDACFE6FFE1CFD9FFE2CFDAFFFC0E64
:100E0000DBCFF6FFFD0EDBCFF7FF0800F5501AE051
:100E1000FC0EDBCFF6FFFD0EDBCFF7FF0800F5CFB2
:100E200026F0276A26BE2768FA0EDB50261803E153
:100E3000FB0EDB50271806E0FC0EDB2AFD0EDFE37D
:100E4000DB2ADDD7FC0EDBCFF6FFFD0EDBCFF7FF95
:100E50000800F5CF26F0276A26BE276826C0F3FFD4
:100E600027C0F4FFE552E5CFDAFFE7CFD9FF120044
:100E7000D9CFE6FFDACFE6FFE1CFD9FFE2CFDAFF45
:100E8000060EE12402E3E168E652E16EFC0EDBCFE0
:100E9000E9FFFD0EDBCFEAFF040EE926000EEA2291
:100EA000EF5001E11ED1FC0EDBCFE9FFFD0EDBCFE1
:100EB000EAFF2E0EE926000EEA22EECFDFFF010E3A
:100EC000EECFDBFF020EEECFDBFF030EEECFDBFF3C
:100ED000010EE66ED9CFE9FFDACFEAFFEECFE6FFEB
:100EE000EECFE6FFEECFE6FFEFCFE6FFFC0EDBCF67
:100EF000E9FFFD0EDBCFEAFF320EE926000EEA2203
:100F0000E9CF26F0EACF27F0E9CFE6FFEACFE6FF08
:100F1000FC0EDBCFE9FFFD0EDBCFEAFFEE52EF5018
:100F2000E66EB2EC5FF0286E080EE15C02E2E16A68
:100F3000E552E16E2850000902E0010ED3D0FC0E0C
:100F4000DBCFE9FFFD0EDBCFEAFF040EE926000E42
:100F5000EA22EF6AFC0EDBCFE9FFFD0EDBCFEAFFF2
:100F6000220EE926000EEA22EECF26F0EECF27F081
:100F7000EECF28F0EFCF29F0D9CFE9FFDACFEAFFA3
:100F80002650EE5C2750EE582850EE582950EE5867
:100F900001E2A7D0FC0EDBCFE9FFFD0EDBCFEAFFBD
:100FA0001A0EE926000EEA22EECF2AF0EECF2BF041
:100FB000EECF2CF0EFCF2DF0FC0EDBCFE9FFFD0ED6
:100FC000DBCFEAFF220EE926000EEA22EE502A26A7
:100FD000EE502B22EE502C22EE502D22D9CFE9FFDD
:100FE000DACFEAFF2A50EE5C2B50EE582C50EE5828
:100FF0002D50EE5876E2FC0EDBCFE9FFFD0EDBCF85
:10100000EAFF030EE926000EEA22EF50E66ED95001
:10101000040FE96E000EDA20EA6EE552E750EE6E3C
:10102000ED6A040EDBCF26F0050EDBCF27F0020EB3
:10103000265C000E275855E3FC0EDBCFE9FFFD0EC2
:10104000DBCFEAFF1A0EE926000EEA22EECF26F0E9
:10105000EECF27F0EECF28F0EFCF29F02650DE2696
:101060002750DE222850DE222950DD22DD52DD52BB
:10107000010EE66ED9CFE9FFDACFEAFFEECFE6FF49
:10108000EECFE6FFEECFE6FFEFCFE6FFFC0EDBCFC5
:10109000E9FFFD0EDBCFEAFF320EE926000EEA2261
:1010A000E9CF26F0EACF27F0E9CFE6FFEACFE6FF67
:1010B000FC0EDBCFE9FFFD0EDBCFEAFFEE52EF5077
:1010C000E66EB2EC5FF0286E080EE15C02E2E16AC7
:1010D000E552E16E2850040EDB06050EA2E2DB06A7
:1010E000A0D7000E266E060EE15C02E2E16AE55230
:1010F000E16E2650E552E5CFDAFFE7CFD9FF1200C7
:10110000D9CFE6FFDACFE6FFE1CFD9FFE2CFDAFFB2
:10111000F80EDBCF26F0F90EDBCF27F0FA0EDBCF8F
:1011200028F0FB0EDBCF29F0FC0EDBCFE9FFFD0E34
:10113000DBCFEAFF2E0EE926000EEA222650EE183B
:1011400008E12750EE1805E12850EE1802E1295079
:10115000EE185AE0FC0EDBCFE6FFFD0EDBCFE6FF1C
:1011600087DEE552E552000937E1010EE66ED950FF
:10117000F80FE96EFF0EDA20EA6EEECFE6FFEECF53
:10118000E6FFEECFE6FFEFCFE6FFFC0EDBCFE9FF99
:10119000FD0EDBCFEAFF320EE926000EEA22E9CF90
:1011A00026F0EACF27F0E9CFE6FFEACFE6FFFC0E14
:1011B000DBCFE9FFFD0EDBCFEAFFEE52EF50E66E2C
:1011C000D5EC5EF0286E080EE15C02E2E16AE552C1
:1011D000E16E2850000902E0010E17D0FC0EDBCFB3
:1011E000E9FFFD0EDBCFEAFF2E0EE926000EEA2214
:1011F000F80EDBCFEEFFF90EDBCFEEFFFA0EDBCF02
:10120000EEFFFB0EDBCFEEFF000EE552E5CFDAFF7F
:10121000E7CFD9FF1200D9CFE6FFDACFE6FFE1CF63
:10122000D9FFE2CFDAFFE652FC0EDBCFE6FFFD0E80
:10123000DBCFE6FF1DDEE552E552DF6EDF5001E059
:1012400028D1FC0EDBCFE9FFFD0EDBCFEAFFEF502C
:10125000030801E007D1FC0EDBCFE9FFFD0EDBCF79
:10126000EAFF050EE926000EEA22EF5001E1FAD06E
:10127000FC0EDBCFE9FFFD0EDBCFEAFF2E0EE926E9
:10128000000EEA22EE6AEE6AEE6AEE6AE66A020E84
:10129000E66E000EE66EE66AFC0EDBCFE9FFFD0EA1
:1012A000DBCFEAFF320EE926000EEA22E9CF26F074
:1012B000EACF27F0E9CFE6FFEACFE6FF04DD286EAC
:1012C000060EE15C02E2E16AE552E16E2850FC0E96
:1012D000DBCFE9FFFD0EDBCFEAFF320EE926000E81
:1012E000EA22FE0EE926010EEA22550EEE6EAA0E45
:1012F000ED6EFC0EDBCFE9FFFD0EDBCFEAFF320E19
:10130000E926000EEA22520EEE6EEE6E610EEE6ED1
:10131000410EEE6EFC0EDBCFE9FFFD0EDBCFEAFFE8
:10132000320EE926000EEA22E40EE926010EEA2238
:10133000720EEE6EEE6E410EEE6E610EEE6EFC0EF5
:10134000DBCFE9FFFD0EDBCFEAFF0E0EE926000E34
:10135000EA22EECF26F0EECF27F0EECF28F0EFCF47
:1013600029F0FC0EDBCFE9FFFD0EDBCFEAFF320EEA
:10137000E926000EEA22E80EE926010EEA2226C03E
:10138000EEFF27C0EEFF28C0EEFF29C0EEFFFC0EE7
:10139000DBCFE9FFFD0EDBCFEAFF0A0EE926000EE8
:1013A000EA22EECF26F0EECF27F0EECF28F0EFCFF7
:1013B00029F0FC0EDBCFE9FFFD0EDBCFEAFF320E9A
:1013C000E926000EEA22EC0EE926010EEA2226C0EA
:1013D000EEFF27C0EEFF28C0EEFF29C0EEFFE66E4D
:1013E000FC0EDBCFE9FFFD0EDBCFEAFF120EE92694
:1013F000000EEA22EECFE6FFEECFE6FFEECFE6FFED
:10140000EFCFE6FFFC0EDBCFE9FFFD0EDBCFEAFFFF
:10141000320EE926000EEA22E9CF26F0EACF27F0C5
:10142000E9CFE6FFEACFE6FFFC0EDBCFE9FFFD0EDA
:10143000DBCFEAFFEE52EF50E66EB2EC5FF0286EC3
:10144000080EE15C02E2E16AE552E16E2850FC0E12
:10145000DBCFE9FFFD0EDBCFEAFF050EE926000E2C
:10146000EA22EF6A000EE66EE66AE66AFC0EDBCF61
:10147000E9FFFD0EDBCFEAFFEE52EF50E66E25EC02
:1014800060F0E552E552E552E552000902E0010E36
:10149000DF6EDF50E552E552E5CFDAFFE7CFD9FF47
:1014A0001200D9CFE6FFDACFE6FFE1CFD9FFE2CFD6
:1014B000DAFFE150F80FE96EFF0EE220EA6E020E4D
:1014C000EE5E000EEE5AEE5AEE5AFC0EDBCFE9FF4E
:1014D000FD0EDBCFEAFF160EE926000EEA22EECF64
:1014E00026F0EECF27F0EECF28F0EFCF29F0020E56
:1014F000265E000E275A285A295AD950F80FE96E4D
:10150000FF0EDA20EA6E2650EE5C2750EE58285087
:10151000EE582950EE5805E3446A456A466A476A20
:101520004AD0FC0EDBCFE9FFFD0EDBCFEAFF2A0E2F
:10153000E926000EEA22EECF2EF0EECF2FF0EECF0E
:1015400030F0EFCF31F0FC0EDBCFE9FFFD0EDBCF4B
:10155000EAFF020EE926000EEA22EFCF2AF02B6AFC
:101560002C6A2D6A2AC044F02BC045F02CC046F0EE
:101570002DC047F0F80EDBCF49F0F90EDBCF4AF073
:10158000FA0EDBCF4BF0FB0EDBCF4CF0ECEC71F046
:1015900040502E24266E41502F20276E425030207E
:1015A000286E43503120296E26C044F027C045F0F4
:1015B00028C046F0476EE552E5CFDAFFE7CFD9FF06
:1015C0001200D9CFE6FFDACFE6FFE1CFD9FFE2CFB5
:1015D000DAFF060EE12402E3E168E652E16ED9503B
:1015E000F80FE96EFF0EDA20EA6E020EEE5C000ED6
:1015F000EE58000EEE58000EEE581FE3F80EDBCF4B
:1016000026F0F90EDBCF27F0FA0EDBCF28F0FB0E29
:10161000DBCF29F0FC0EDBCFE9FFFD0EDBCFEAFFCD
:10162000160EE926000EEA22EE50265CEE502758F0
:10163000EE502858EE50295806E3010E446E456AD4
:10164000466A476A29D2FC0EDBCFE9FFFD0EDBCFED
:10165000EAFFEF50030A01E18AD1010A01E108D152
:10166000030A01E015D2F80EDBCF46F0F90EDBCF0E
:1016700047F0020E46C0DBFF030E47C0DBFF020E41
:10168000DBCF26F0030EDBCF27F0010E0F0B05E0BA
:10169000D89027322632E806FBE1D950020FE96ED6
:1016A000000EDA20EA6E2650EE262750ED22020EBA
:1016B000DBCF26F0030EDBCF27F0090E0F0B05E082
:1016C000D89027322632E806FBE1286A296AFC0E08
:1016D000DBCFE9FFFD0EDBCFEAFF220EE926000E8D
:1016E000EA22EE502626EE502722EE502822EE5017
:1016F000292226C0E6FF27C0E6FF28C0E6FF29C052
:10170000E6FFFC0EDBCFE6FFFD0EDBCFE6FFF8DCED
:101710002A6E060EE15C02E2E16AE552E16E2A50B1
:10172000000901E0B5D1FC0EDBCFE9FFFD0EDBCFF8
:10173000EAFF320EE926000EEA22020EDBCF28F085
:10174000030EDBCF29F00001010E2916E9502824F1
:10175000E96EEA502920EA6EEF50DE6EDD6A020E75
:10176000DB2A030E01E3DB2A020EDBCF26F0030E99
:10177000DBCF27F0090E0F0B05E0D8902732263279
:10178000E806FBE1286A296AFC0EDBCFE9FFFD0EC3
:10179000DBCFEAFF220EE926000EEA22EE502626D3
:1017A000EE502722EE502822EE50292226C0E6FFD6
:1017B00027C0E6FF28C0E6FF29C0E6FFFC0EDBCF0E
:1017C000E6FFFD0EDBCFE6FF9BDC2A6E060EE15C3A
:1017D00002E2E16AE552E16E2A50000901E058D1C7
:1017E000FC0EDBCFE9FFFD0EDBCFEAFF320EE92670
:1017F000000EEA22020EDBCF28F0030EDBCF29F029
:10180000010E2916E9502824E96EEA502920EA6ED3
:10181000EF50000EF350DF12010E2A6E2B6A2C6A75
:101820002D6AD950F80FE96EFF0EDA20EA6EEE50FD
:101830002A16EE502B16EE502C16EE502D162A506E
:101840002B102C102D100BE0DECF26F0DDCF27F073
:10185000040ED89027322632E804FBE185D0DECF93
:1018600026F0DDCF27F0FF0E26160F0E27167CD0B0
:10187000F80EDBCF26F0F90EDBCF27F0FA0EDBCF28
:1018800028F0FB0EDBCF29F0080ED8902932283241
:1018900027322632E806F9E1FC0EDBCFE9FFFD0E28
:1018A000DBCFEAFF220EE926000EEA22EE502626C2
:1018B000EE502722EE502822EE50292226C0E6FFC5
:1018C00027C0E6FF28C0E6FF29C0E6FFFC0EDBCFFD
:1018D000E6FFFD0EDBCFE6FF13DC2A6E060EE15CB1
:1018E00002E2E16AE552E16E2A50000901E0D0D03F
:1018F000FC0EDBCFE9FFFD0EDBCFEAFF320EE9265F
:10190000000EEA22E9CF28F0EACF29F0F80EDBCF6B
:1019100044F0F90EDBCF45F0FA0EDBCF46F0FB0EBC
:10192000DBCF47F0D8904436453646364736496ACD
:10193000020E4A6E4B6A4C6A49EC72F02850402401
:10194000266E29504120276E040E26C0DBFF050EAF
:1019500027C0DBFF040EDBCFE9FF050EDBCFEAFF7C
:10196000EECF26F0EFCF27F0286A296A88D0F80E4C
:10197000DBCF26F0F90EDBCF27F0FA0EDBCF28F015
:10198000FB0EDBCF29F0070ED89029322832273200
:101990002632E806F9E1FC0EDBCFE9FFFD0EDBCFD6
:1019A000EAFF220EE926000EEA22EE502626EE502D
:1019B0002722EE502822EE50292226C0E6FF27C01B
:1019C000E6FF28C0E6FF29C0E6FFFC0EDBCFE6FFFE
:1019D000FD0EDBCFE6FF80EC08F02A6E060EE15C20
:1019E00002E2E16AE552E16E2A50000951E1FC0E83
:1019F000DBCFE9FFFD0EDBCFEAFF320EE926000E5A
:101A0000EA22E9CF28F0EACF29F0F80EDBCF44F044
:101A1000F90EDBCF45F0FA0EDBCF46F0FB0EDBCF45
:101A200047F0020ED8904436453646364736E8062B
:101A3000F9E1496A020E4A6E4B6A4C6A49EC72F04F
:101A400028504024266E29504120276E040E26C0BF
:101A5000DBFF050E27C0DBFF2668276828680F0E0E
:101A6000296E040EDBCFE9FF050EDBCFEAFFEE5057
:101A70002616EE502716EE502816EE50291626C0D0
:101A800044F027C045F028C046F029C047F004D0F4
:101A90004468456846684768060EE15C02E2E16A10
:101AA000E552E16EE552E5CFDAFFE7CFD9FF12004C
:101AB000D9CFE6FFDACFE6FFE1CFD9FFE2CFDAFFF9
:101AC000E652E652E652E652E652D950F80FE96E77
:101AD000FF0EDA20EA6E020EEE5C000EEE58000EEB
:101AE000EE58000EEE581FE3F80EDBCF26F0F90E8D
:101AF000DBCF27F0FA0EDBCF28F0FB0EDBCF29F08F
:101B0000FC0EDBCFE9FFFD0EDBCFEAFF160EE92668
:101B1000000EEA22EE50265CEE502758EE50285870
:101B2000EE50295806E3020EF36E040EF3CFDBFFEE
:101B3000BDD2FC0EDBCFE9FFFD0EDBCFEAFFEF509D
:101B4000030A01E1F5D1010A01E16ED1030A01E0C6
:101B50009CD2F80EDBCFDEFFDBCFDDFFDECF26F041
:101B6000DDCF27F0010E0F0B05E0D890273226328B
:101B7000E806FBE1D9CFE9FFDACFEAFF2650EE26EF
:101B80002750ED22DECF26F0DDCF27F0090E0F0B18
:101B900005E0D89027322632E806FBE1286A296A58
:101BA000FC0EDBCFE9FFFD0EDBCFEAFF220EE926BC
:101BB000000EEA22EE502626EE502722EE50282272
:101BC000EE50292226C0E6FF27C0E6FF28C0E6FF28
:101BD00029C0E6FFFC0EDBCFE6FFFD0EDBCFE6FF04
:101BE00080EC08F02A6E060EE15C02E2E16AE55242
:101BF000E16E2A50E76E040EE7CFDBFFDB5001E019
:101C000049D2FC0EDBCFE9FFFD0EDBCFEAFF320E3F
:101C1000E926000EEA22DECF2AF0DDCF2BF000010C
:101C2000010E2B16E9502A24266EEA502B20276E2F
:101C3000020E26C0DBFF030E27C0DBFF010E266E5F
:101C4000276A286A296AD950F80FE96EFF0EDA2050
:101C5000EA6EEE502616EE502716EE502816EE507D
:101C6000291626502710281029100EE0F40EDB3814
:101C7000F00B2A6E020EDBCFE9FF030EDBCFEAFF8B
:101C8000EF500F0B2A1002D0F40EDB50E66E020E5E
:101C9000DBCFE9FF030EDBCFEAFFE552E750EF6E43
:101CA000DF2A010E01E3DB2AFC0EDBCFE9FFFD0E8C
:101CB000DBCFEAFF040EE926000EEA22010EEF6EEA
:101CC000DECF26F0DDCF27F0090E0F0B05E0D89010
:101CD00027322632E806FBE1286A296AFC0EDBCFB0
:101CE000E9FFFD0EDBCFEAFF220EE926000EEA2215
:101CF000EE502626EE502722EE502822EE502922C2
:101D000026C0E6FF27C0E6FF28C0E6FF29C0E6FFA1
:101D1000FC0EDBCFE6FFFD0EDBCFE6FF80EC08F02C
:101D20002A6E060EE15C02E2E16AE552E16E2A509B
:101D3000E76E040EE7CFDBFFDB5001E0ABD1FC0E1A
:101D4000DBCFE9FFFD0EDBCFEAFF320EE926000E06
:101D5000EA22DECF2AF0DDCF2BF0010E2B16E95060
:101D60002A24266EEA502B20276E020E26C0DBFFA7
:101D7000030E27C0DBFF010E266E276A286A296A38
:101D8000D950F80FE96EFF0EDA20EA6EEE502616F3
:101D9000EE502716EE502816EE5029162650271022
:101DA0002810291016E0F40EDBCF2AF0F50EDBCF59
:101DB0002BF0F60EDBCF2CF0F70EDBCF2DF0040E60
:101DC000D8902D322C322B322A32E806F9E12A50F3
:101DD00020D0F40EDBCF2FF0F50EDBCF30F0F60E77
:101DE000DBCF31F0F70EDBCF32F0080ED890323275
:101DF000313230322F32E806F9E10F0E2F142E6EF9
:101E0000020EDBCFE9FF030EDBCFEAFFEF50F00B52
:101E10002E10E66E020EDBCFE9FF030EDBCFEAFFEA
:101E2000E552E750EF6E36D1F80EDBCF26F0F90E13
:101E3000DBCF27F0FA0EDBCF28F0FB0EDBCF29F04B
:101E4000080ED8902932283227322632E806F9E1E6
:101E5000FC0EDBCFE9FFFD0EDBCFEAFF220EE92609
:101E6000000EEA22EE502626EE502722EE502822BF
:101E7000EE50292226C0E6FF27C0E6FF28C0E6FF75
:101E800029C0E6FFFC0EDBCFE6FFFD0EDBCFE6FF51
:101E900080EC08F02A6E060EE15C02E2E16AE5528F
:101EA000E16E2A50E76E040EE7CFDBFFDB5001E066
:101EB000F1D0FC0EDBCFE9FFFD0EDBCFEAFF320EE7
:101EC000E926000EEA22E9CF28F0EACF29F0F80E41
:101ED000DBCF44F0F90EDBCF45F0FA0EDBCF46F056
:101EE000FB0EDBCF47F0D8904436453646364736B2
:101EF000496A020E4A6E4B6A4C6A49EC72F02850ED
:101F00004024266E29504120276E020E26C0DBFF9A
:101F1000030E27C0DBFF020EDBCFE9FF030EDBCF92
:101F2000EAFFF40EDBCFEEFFF50EDBCFEDFFB2D014
:101F3000F80EDBCF26F0F90EDBCF27F0FA0EDBCF61
:101F400028F0FB0EDBCF29F0070ED890293228327B
:101F500027322632E806F9E1FC0EDBCFE9FFFD0E61
:101F6000DBCFEAFF220EE926000EEA22EE502626FB
:101F7000EE502722EE502822EE50292226C0E6FFFE
:101F800027C0E6FF28C0E6FF29C0E6FFFC0EDBCF36
:101F9000E6FFFD0EDBCFE6FF80EC08F02A6E060EB2
:101FA000E15C02E2E16AE552E16E2A50E76E040E5E
:101FB000E7CFDBFFDB506EE1FC0EDBCFE9FFFD0E70
:101FC000DBCFEAFF320EE926000EEA22E9CF28F045
:101FD000EACF29F0F80EDBCF44F0F90EDBCF45F065
:101FE000FA0EDBCF46F0FB0EDBCF47F0020ED890A7
:101FF0004436453646364736E806F9E1496A020E68
:102000004A6E4B6A4C6A49EC72F028504024266EA6
:1020100029504120276E020E26C0DBFF030E27C089
:10202000DBFF266A276A286AF00E296E020EDBCFD4
:10203000E9FF030EDBCFEAFFEE502616EE5027161F
:10204000EE502816EE502916D950F40FE96EFF0E07
:10205000DA20EA6E2650EE122750EE122850EE12C9
:102060002950EE12020EDBCFE9FF030EDBCFEAFFB1
:10207000F40EDBCFEEFFF50EDBCFEEFFF60EDBCF7F
:10208000EEFFF70EDBCFEEFF05D0020EF36E040E6F
:10209000F3CFDBFFFC0EDBCFE9FFFD0EDBCFEAFF6A
:1020A000040EE926000EEA22010EEF6E040EDB504C
:1020B000266E050EE15C02E2E16AE552E16E265011
:1020C000E552E5CFDAFFE7CFD9FF1200D9CFE6FF1F
:1020D000DACFE6FFE1CFD9FFE2CFDAFFE652E652F0
:1020E000E652E652E652D950F80FE96EFF0EDA20BA
:1020F000EA6E020EEE5C000EEE58000EEE58000E78
:10210000EE5801E28BD0F80EDBCF26F0F90EDBCFD4
:1021100027F0FA0EDBCF28F0FB0EDBCF29F0FC0E08
:10212000DBCFE9FFFD0EDBCFEAFF160EE926000E3E
:10213000EA22EE50265CEE502758EE502858EE501A
:1021400029586CE2DF6AF80EDBCF26F0F90EDBCF00
:1021500027F0FA0EDBCF28F0FB0EDBCF29F0FC0EC8
:10216000DBCFE9FFFD0EDBCFEAFF160EE926000EFE
:10217000EA22EE50265CEE502758EE502858EE50DA
:10218000295801E3C9D0D950F80FE96EFF0EDA20C3
:10219000EA6EEECFE6FFEECFE6FFEECFE6FFEFCF43
:1021A000E6FFFC0EDBCFE6FFFD0EDBCFE6FFE1EC4A
:1021B0000AF0266E060EE15C02E2E16AE552E16E8B
:1021C0002650010E44C0DBFF020E45C0DBFF030EAC
:1021D00046C0DBFF040E47C0DBFF010EDBCF26F05D
:1021E000020EDBCF27F0030EDBCF28F0040EDBCF8F
:1021F00029F0265027102810291001E18DD0D95040
:10220000010FE96E000EDA20EA6E010EEE1808E109
:10221000EE5006E1EE5004E1EE5002E1020E13D062
:10222000D950010FE96E000EDA20EA6EE868EE1868
:102230000CE1E868EE1809E1E868EE1806E1E868E4
:10224000EE1803E1010EDF6E67D0E66AE66AE66A21
:10225000E66AD950F80FE96EFF0EDA20EA6EEECF8B
:10226000E6FFEECFE6FFEECFE6FFEFCFE6FFFC0E98
:10227000DBCFE6FFFD0EDBCFE6FF1ADC266E0A0E93
:10228000E15C02E2E16AE552E16E2650DF6EDF506A
:1022900043E1FC0EDBCFE9FFFD0EDBCFEAFF0E0EC4
:1022A000E926000EEA22E868EE1808E1E868EE1870
:1022B00005E1E868EE1802E1E868EE181AE0FC0EA5
:1022C000DBCFE9FFFD0EDBCFEAFF0E0EE926000EA5
:1022D000EA22EE2AEE22EE22EE22FC0EDBCFE9FF0E
:1022E000FD0EDBCFEAFF050EE926000EEA22010E05
:1022F000EF6ED950010FE96E000EDA20EA6EF80E8B
:10230000EECFDBFFF90EEECFDBFFFA0EEECFDBFFF9
:10231000FB0EEECFDBFF17D7DF50266E050EE15C1C
:1023200002E2E16AE552E16E2650E552E5CFDAFFBE
:10233000E7CFD9FF1200D9CFE6FFDACFE6FFE1CF32
:10234000D9FFE2CFDAFF0D0EE12402E3E168E652A5
:10235000E16EF80EDBCF26F0F90EDBCF27F0FA0E98
:10236000DBCF28F0FB0EDBCF29F0265027102810FA
:10237000291053E1FC0EDBCFE9FFFD0EDBCFEAFFB6
:102380000A0EE926000EEA22080EEECFDBFF090E48
:10239000EECFDBFF0A0EEECFDBFF0B0EEECFDBFF47
:1023A000080EDBCF26F0090EDBCF27F00A0EDBCFBD
:1023B00028F00B0EDBCF29F026502710281029100B
:1023C00020E0080EDBCF2AF0090EDBCF2BF00A0E3F
:1023D000DBCF2CF00B0EDBCF2DF0FC0EDBCFE9FFBB
:1023E000FD0EDBCFEAFF160EE926000EEA22EE50C4
:1023F0002A5CEE502B58EE502C58EE502D5801E22E
:1024000076D0010EF36E080EF3CFDBFF090EDB6A08
:102410000A0EDB6A0B0EDB6A6AD0D950F80FE96E40
:10242000FF0EDA20EA6EEECFE6FFEECFE6FFEECF4C
:10243000E6FFEFCFE6FFFC0EDBCFE6FFFD0EDBCFC6
:10244000E6FFE1EC0AF0266E060EE15C02E2E16ACC
:10245000E552E16E265044C0DEFF45C0DEFF46C0B7
:10246000DEFF47C0DDFFDD52DD52D9CFE9FFDACF15
:10247000EAFF020EEE5C000EEE58000EEE58000E63
:10248000EE5803E2010E446E3CD1FC0EDBCFE9FFB7
:10249000FD0EDBCFEAFF160EE926000EEA22EECF94
:1024A00026F0EECF27F0EECF28F0EFCF29F0D9CFEE
:1024B000E9FFDACFEAFF2650EE5C2750EE582850AD
:1024C000EE582950EE5801E2ECD0D950F80FE96EE1
:1024D000FF0EDA20EA6E080EEECFDBFF090EEECF1C
:1024E000DBFF0A0EEECFDBFF0B0EEECFDBFFD9508A
:1024F000080FE96E000EDA20EA6E040EEECFDBFF65
:10250000050EEECFDBFF060EEECFDBFF070EEECFA4
:10251000DBFFD950040FE96E000EDA20EA6EEE2AD6
:10252000000EEE22EE22EE22040EDBCF26F0050E88
:10253000DBCF27F0060EDBCF28F0070EDBCF29F02C
:10254000FC0EDBCFE9FFFD0EDBCFEAFF160EE9261E
:10255000000EEA22EE50265CEE502758EE50285826
:10256000EE50295828E3020EF36E040EF3CFDBFF82
:10257000050EDB6A060EDB6A070EDB6A080EDBCF90
:1025800026F0090EDBCF27F00A0EDBCF28F00B0E6A
:10259000DBCF29F0D950040FE96E000EDA20EA6E85
:1025A000EE50265CEE502758EE502858EE50295831
:1025B00002E2446AA6D0D950040FE96E000EDA2078
:1025C000EA6EEECFE6FFEECFE6FFEECFE6FFEFCF0F
:1025D000E6FFFC0EDBCFE6FFFD0EDBCFE6FFE1EC16
:1025E0000AF0266E060EE15C02E2E16AE552E16E57
:1025F000265044C0DEFF45C0DEFF46C0DEFF47C0B8
:10260000DDFFDD52DD52D9CFE9FFDACFEAFFEECFB1
:1026100026F0EECF27F0EECF28F0EFCF29F02650AE
:1026200027102810291020E1E668E668E6680F0EFA
:10263000E66ED950040FE96E000EDA20EA6EEECF96
:10264000E6FFEECFE6FFEECFE6FFEFCFE6FFFC0EB4
:10265000DBCFE6FFFD0EDBCFE6FF58EC0DF0266E7C
:102660000A0EE15C54E251D0D9CFE9FFDACFEAFF9C
:10267000E868EE1808E1E868EE1805E1E868EE1889
:1026800002E1E868EE180DE0D9CFE9FFDACFEAFF02
:10269000010EEE1811E1EE500FE1EE500DE1EE509B
:1026A0000BE1DECF44F0DECF45F0DECF46F0DDCFEC
:1026B00047F0DD52DD52EBD0040EDBCF26F0050EE5
:1026C000DBCF27F0060EDBCF28F0070EDBCF29F09B
:1026D000D950080FE96E000EDA20EA6E2650EE1887
:1026E00001E017D72750EE1801E013D72850EE1855
:1026F00001E00FD72950EE1801E00BD701E009D710
:10270000446A456A466A476AC2D0E16AE552E16EA8
:102710002650E76E0C0EE7CFDBFFDB5041E1F80EF1
:10272000DBCF26F0F90EDBCF27F0FA0EDBCF28F057
:10273000FB0EDBCF29F0265027102810291030E09F
:10274000D950040FE96E000EDA20EA6EEECFE6FFF4
:10275000EECFE6FFEECFE6FFEFCFE6FFD950F80F62
:10276000E96EFF0EDA20EA6EEECFE6FFEECFE6FF6F
:10277000EECFE6FFEFCFE6FFFC0EDBCFE6FFFD0E70
:10278000DBCFE6FF58EC0DF0266E0A0EE15C02E2AC
:10279000E16AE552E16E2650E76E0C0EE7CFDBFFF3
:1027A0000C0EDB5047E1FC0EDBCFE9FFFD0EDBCF6B
:1027B000EAFF0A0EE926000EEA22040EDBCFEEFF46
:1027C000050EDBCFEEFF060EDBCFEEFF070EDBCFF5
:1027D000EEFFFC0EDBCFE9FFFD0EDBCFEAFF0E0EB6
:1027E000E926000EEA22E868EE1808E1E868EE182B
:1027F00005E1E868EE1802E1E868EE1834E0FC0E46
:10280000DBCFE9FFFD0EDBCFEAFF0E0EE926000E5F
:10281000EA22EE06EE5AEE5AEE5AFC0EDBCFE9FF44
:10282000FD0EDBCFEAFF050EE926000EEA22010EBF
:10283000EF6E19D00C0EDB0405E1266827682868C6
:10284000296805D0010E266E276A286A296A040EB7
:1028500026C0DBFF050E27C0DBFF060E28C0DBFF0E
:10286000070E29C0DBFF040EDBCF26F0050EDBCF01
:1028700027F0060EDBCF28F0070EDBCF29F026C0AD
:1028800044F027C045F028C046F029C047F00D0E9F
:10289000E15C02E2E16AE552E16EE552E5CFDAFF82
:1028A000E7CFD9FF1200D9CFE6FFDACFE6FFE1CFBD
:1028B000D9FFE2CFDAFF0A0EE12402E3E168E65233
:1028C000E16EFC0EDBCFE9FFFD0EDBCFEAFF200E51
:1028D000E926000EEA22EECF26F0EFCF27F0040E15
:1028E0002626000E2722080E26C0DBFF090E27C071
:1028F000DBFFFC0EDBCFE9FFFD0EDBCFEAFFEE5086
:10290000EFCFEAFFE96E020EE926000EEA22EFCFD2
:1029100026F0276A286A296AF80EDBCF44F0F90E00
:10292000DBCF45F0FA0EDBCF46F0FB0EDBCF47F0F6
:10293000496A020E4A6E4B6A4C6A49EC72F026C034
:1029400049F027C04AF028C04BF029C04CF049ECB0
:1029500072F044C0DEFF45C0DEFF46C0DEFF47C068
:10296000DDFFDD52DD52D950080FE96E000EDA208E
:10297000EA6EEECFF3FFEDCFF4FF040EEE26000E6D
:10298000EF22F3CFE9FFF4CFEAFF040EEECFDBFF37
:10299000050EEECFDBFF060EEECFDBFF070EEECF10
:1029A000DBFF040EDBCF26F0050EDBCF27F0060E93
:1029B000DBCF28F0070EDBCF29F026502710281098
:1029C000291005E1446A456A466A476A56D0040EF2
:1029D000DBCF26F0050EDBCF27F0060EDBCF28F08D
:1029E000070EDBCF29F0D9CFE9FFDACFEAFF265077
:1029F000EE5C2750EE582850EE582950EE581BE355
:102A0000D9CFE9FFDACFEAFF040EDB50EE5E050E08
:102A1000DB50EE5A060EDB50EE5A070EDB50EE5A34
:102A2000D950080FE96E000EDA20EA6E040EEE2689
:102A3000000EEF2298D7080EDBCFE9FF090EDBCF9F
:102A4000EAFFEECF26F0EECF27F0EECF28F0EFCF63
:102A500029F0D9CFE9FFDACFEAFFEE502626EE5073
:102A60002722EE502822EE50292226C044F027C00B
:102A700045F028C046F029C047F00A0EE15C02E2AA
:102A8000E16AE552E16EE552E5CFDAFFE7CFD9FF23
:102A90001200D9CFE6FFDACFE6FFE1CFD9FFE2CFD0
:102AA000DAFF060EE12402E3E168E652E16EFC0E75
:102AB000DBCFE9FFFD0EDBCFEAFF040EE926000EB7
:102AC000EA22FA0EDBCFEEFFFB0EDBCFEDFFFC0EB2
:102AD000DBCFE9FFFD0EDBCFEAFF060EE926000E95
:102AE000EA22EECFDFFF010EEECFDBFF020EEECFCC
:102AF000DBFF030EEECFDBFFD9CFE9FFDACFEAFF32
:102B0000010EEE1805E1EE5003E1EE5001E1EE504A
:102B100001E164D1FC0EDBCFE9FFFD0EDBCFEAFF64
:102B2000EE50EFCFEAFFE96E160EE926000EEA221C
:102B3000EECF26F0EECF27F0EECF28F0EFCF29F042
:102B4000D9CFE9FFDACFEAFF2650EE5C2750EE58E6
:102B50002850EE582950EE5801E340D1D9CFE9FF73
:102B6000DACFEAFFEECF26F0EECF27F0EECF28F057
:102B7000EFCF29F0265027102810291026E1FC0E4F
:102B8000DBCFE9FFFD0EDBCFEAFFEE50EFCFEAFF30
:102B9000E96EEF50030819E1FC0EDBCFE9FFFD0EF3
:102BA000DBCFEAFFEE50EFCFEAFFE96E260EE92613
:102BB000000EEA22EECFDFFF010EEECFDBFF020EAA
:102BC000EECFDBFF030EEECFDBFFD9CFE9FFDACF8D
:102BD000EAFFEECF26F0EECF27F0EECF28F0EFCFD2
:102BE00029F026502710281029105AE1FC0EDBCFBF
:102BF000E9FFFD0EDBCFEAFF0A0EE926000EEA220E
:102C0000DFCFEEFF010EDBCFEEFF020EDBCFEEFFDC
:102C1000030EDBCFEEFFFA0EDBCF26F0FB0EDBCF91
:102C200027F0FC0EDBCFE9FFFD0EDBCFEAFFEE5015
:102C3000EFCFEAFFE96E080EE926000EEA22EECF9A
:102C400028F0EFCF29F02850265C2950275801E3BF
:102C5000C5D0FA0EDBCF26F0FB0EDBCF27F0040E3B
:102C60000F0B05E0D89027322632E806FBE1286AF0
:102C7000296AFC0EDBCFE9FFFD0EDBCFEAFFEE5049
:102C8000EFCFEAFFE96E260EE926000EEA22EE50AB
:102C90002626EE502722EE502822EE50292216D169
:102CA000FC0EDBCFE9FFFD0EDBCFEAFFEE50EFCFEE
:102CB000EAFFE96E020EE926000EEA22EF50266EC8
:102CC000276A100E466E476A26C04BF027C04CF0AC
:102CD0006DEC72F0040E44C0DBFF050E45C0DBFF57
:102CE000FA0EDBCF26F0FB0EDBCF27F0040EDBCF96
:102CF00028F0050EDBCF29F02850265C29502758F4
:102D000001E27FD0D9CFE9FFDACFEAFFEECFE6FFCD
:102D1000EECFE6FFEECFE6FFEFCFE6FFFC0EDBCF18
:102D2000E9FFFD0EDBCFEAFFEECFE6FFEFCFE6FFD8
:102D3000E1EC0AF0266E060EE15C02E2E16AE55281
:102D4000E16E265044C0DEFF45C0DEFF46C0DEFF18
:102D500047C0DDFFDD52DD52D9CFE9FFDACFEAFF10
:102D6000E868EE180BE1E868EE1808E1E868EE188C
:102D700005E1E868EE1802E1010EEDD0D9CFE9FFD8
:102D8000DACFEAFF020EEE5C000EEE58000EEE58AF
:102D9000000EEE5823E3FC0EDBCFE9FFFD0EDBCF88
:102DA000EAFFEE50EFCFEAFFE96E160EE926000EBD
:102DB000EA22EECF26F0EECF27F0EECF28F0EFCFCD
:102DC00029F0D9CFE9FFDACFEAFF2650EE5C275091
:102DD000EE582850EE582950EE5802E3020EBBD0B0
:102DE000040EDBCF26F0050EDBCF27F0D950FA0F0B
:102DF000E96EFF0EDA20EA6E2650EE5E2750ED5A9D
:102E00006FD7FC0EDBCFE9FFFD0EDBCFEAFF0A0E2A
:102E1000E926000EEA22DFCFEEFF010EDBCFEEFF48
:102E2000020EDBCFEEFF030EDBCFEEFFFA0EDBCFA1
:102E30002BF0FB0EDBCF2CF0040E0F0B05E0D8902F
:102E40002C322B32E806FBE12D6A2E6A2BC0E6FFFE
:102E50002CC0E6FF2DC0E6FF2EC0E6FFD9CFE9FF6C
:102E6000DACFEAFFEECFE6FFEECFE6FFEECFE6FFEA
:102E7000EFCFE6FFFC0EDBCFE9FFFD0EDBCFEAFF75
:102E8000EECFE6FFEFCFE6FF51EC0AF02A6E060E1A
:102E9000E15C02E2E16AE552E16E2A50E552E7CFD9
:102EA0002EF0E552E7CF2DF0E552E7CF2CF0E552BA
:102EB000E7CF2BF044502B24266E45502C20276E54
:102EC00046502D20286E47502E20296EFC0EDBCF59
:102ED000E9FFFD0EDBCFEAFF0E0EE926000EEA2227
:102EE00026C0EEFF27C0EEFF28C0EEFF29C0EEFF90
:102EF000FC0EDBCFE9FFFD0EDBCFEAFFEE50EFCF9C
:102F0000EAFFE96E320EE926000EEA22E9CF28F048
:102F1000EACF29F0FA0EDBCF2AF0FB0E2B6A0F0E58
:102F20002A16050ED8902A362B36E806FBE12850E3
:102F30002A24266E29502B20276EFC0EDBCFE9FFBA
:102F4000FD0EDBCFEAFF120EE926000EEA2226C0B4
:102F5000EEFF27C0EDFF266E060EE15C02E2E16A9D
:102F6000E552E16E2650E552E5CFDAFFE7CFD9FF13
:102F70001200D9CFE6FFDACFE6FFE1CFD9FFE2CFEB
:102F8000DAFF070EE12402E3E168E652E16EFA0E91
:102F9000DBCF46F0FB0EDBCF47F0FA0E46C0DBFF7F
:102FA000FB0E47C0DBFFFC0EDBCFE9FFFD0EDBCFE6
:102FB000EAFF040EE926000EEA22EECF26F0EFCF5C
:102FC00027F0010E2626000E2722040E26C0DBFF66
:102FD000050E27C0DBFFD950040FE96E000EDA2082
:102FE000EA6EEE50ED1001E109D1FC0EDBCFE9FFF6
:102FF000FD0EDBCFEAFF0E0EE926000EEA22EECF31
:1030000026F0EECF27F0EECF28F0EFCF29F02650B4
:1030100027102810291001E1F1D0040EDBCF26F093
:10302000050E276A0F0E26162650271001E078D2CB
:10303000FC0EDBCFE9FFFD0EDBCFEAFF0E0EE9262B
:10304000000EEA22EE2AEE22EE22EE22FC0EDBCF6A
:10305000E9FFFD0EDBCFEAFF0A0EE926000EEA22A9
:10306000EECF26F0EECF27F0EECF28F0EFCF29F00D
:1030700026502710281029101FE1040EDBCF26F060
:10308000050EDBCF27F0FC0EDBCFE9FFFD0EDBCF1B
:10309000EAFFEE50EFCFEAFFE96E080EE926000ED8
:1030A000EA22EECF28F0EFCF29F02850265C2950F5
:1030B000275801E235D2A2D0040EDBCF28F0050E4E
:1030C000DBCF29F0040E0F0B05E0D890293228320F
:1030D000E806FBE1FC0EDBCFE9FFFD0EDBCFEAFFEC
:1030E000EE50EFCFEAFFE96E020EE926000EEA226B
:1030F000EF0400012814266E276AE850271001E02B
:103100000FD2FC0EDBCFE9FFFD0EDBCFEAFF0A0E8C
:10311000E926000EEA22EECFE6FFEECFE6FFEECF85
:10312000E6FFEFCFE6FFFC0EDBCFE9FFFD0EDBCFC6
:10313000EAFFEECFE6FFEFCFE6FFE1EC0AF0266E06
:10314000060EE15C02E2E16AE552E16E265044C0FF
:10315000DEFF45C0DEFF46C0DEFF47C0DDFFDD52BB
:10316000DD52D9CFE9FFDACFEAFFD880010EEE5465
:10317000000EEE54000EEE54000EEE5401E390D01B
:10318000D9CFE9FFDACFEAFFE868EE180AE1E8688C
:10319000EE1807E1E868EE1804E1E868EE1801E1CE
:1031A0003FD1FC0EDBCFE9FFFD0EDBCFEAFFEE5097
:1031B000EFCFEAFFE96E160EE926000EEA22EECF07
:1031C00026F0EECF27F0EECF28F0EFCF29F0D9CFC1
:1031D000E9FFDACFEAFF2650EE5C2750EE58285080
:1031E000EE582950EE5801E24ED1D950FA0FE96E4F
:1031F000FF0EDA20EA6EEE50ED1002E1040ED3D19C
:10320000FC0EDBCFE9FFFD0EDBCFEAFF0A0EE9265D
:10321000000EEA22EECFE6FFEECFE6FFEECFE6FFAE
:10322000EFCFE6FFFC0EDBCFE9FFFD0EDBCFEAFFC1
:10323000EECFE6FFEFCFE6FF9BEC11F0266E060E19
:10324000E15C02E2E16AE552E16E265044C0DEFF35
:1032500045C0DEFF46C0DEFF47C0DDFFDD52DD5268
:10326000D9CFE9FFDACFEAFFEECF26F0EECF27F095
:10327000EECF28F0EFCF29F0265027102810291084
:1032800002E1070E90D1D9CFE9FFDACFEAFF010EB4
:10329000EE1808E1EE5006E1EE5004E1EE5002E1D6
:1032A000020E81D1D9CFE9FFDACFEAFFE868EE1844
:1032B0000AE1E868EE1807E1E868EE1804E1E8685A
:1032C000EE1801E1ADD0FC0EDBCFE9FFFD0EDBCF48
:1032D000EAFFEECFE6FFEFCFE6FF38EC07F0E5526E
:1032E000E552000901E09CD0E66A020EE66E000E8F
:1032F000E66EE66AFC0EDBCFE9FFFD0EDBCFEAFFF0
:10330000EE50EFCFEAFFE96E320EE926000EEA2218
:10331000E9CF26F0EACF27F0E9CFE6FFEACFE6FFD4
:1033200063EC06F0286E060EE15C02E2E16AE5520B
:10333000E16E2850D9CFE9FFDACFEAFFEECFE6FF02
:10334000EECFE6FFEECFE6FFEFCFE6FFFC0EDBCFE2
:10335000E9FFFD0EDBCFEAFFEECFE6FFEFCFE6FFA2
:1033600051EC0AF02A6E060EE15C02E2E16AE552D7
:10337000E16E2A5044C026F045C027F046C028F030
:1033800047C029F0FC0EDBCFE9FFFD0EDBCFEAFFE3
:10339000EE50EFCFEAFFE96E2E0EE926000EEA228C
:1033A00044C0EEFF27C0EEFF28C0EEFF29C0EEFFAD
:1033B000060EDB6AFC0EDBCFE9FFFD0EDBCFEAFF7A
:1033C000EE50EFCFEAFFE96E020EE926000EEA2288
:1033D000EF50F36E060EDBCFF4FFF350F45C37E2F0
:1033E000FC0EDBCFE9FFFD0EDBCFEAFFEE50EFCFA7
:1033F000EAFFE96E040EE926000EEA22010EEF6EE6
:10340000FC0EDBCFE9FFFD0EDBCFEAFFEECFE6FFE0
:10341000EFCFE6FF38EC07F0E552E552000902E095
:10342000010EC1D0FC0EDBCFE9FFFD0EDBCFEAFFC2
:10343000EE50EFCFEAFFE96E2E0EE926000EEA22EB
:10344000EE2AEE22EE22EE22060EDB2AB3D7060E7D
:10345000DBCF26F0276A286A296AFC0EDBCFE9FF5A
:10346000FD0EDBCFEAFFEE50EFCFEAFFE96E2E0E46
:10347000E926000EEA222650EE5E2750EE5A28502A
:10348000EE5A2950EE5AFC0EDBCFE9FFFD0EDBCFE2
:10349000EAFF0A0EE926000EEA22DFCFEEFF010E58
:1034A000DBCFEEFF020EDBCFEEFF030EDBCFEEFF36
:1034B000D9CFE9FFDACFEAFFEECFE6FFEECFE6FFA6
:1034C000EECFE6FFEFCFE6FFFC0EDBCFE9FFFD0E10
:1034D000DBCFEAFFEECFE6FFEFCFE6FF51EC0AF0DD
:1034E0002A6E060EE15C02E2E16AE552E16E2A50C4
:1034F00045C027F046C028F047C029F0FC0EDBCFBE
:10350000E9FFFD0EDBCFEAFF0E0EE926000EEA22F0
:1035100044C0EEFF27C0EEFF28C0EEFF29C0EEFF3B
:10352000FC0EDBCFE9FFFD0EDBCFEAFF040EE92640
:10353000000EEA22040EDBCFEEFF050EDBCFEDFF1F
:10354000FC0EDBCFE9FFFD0EDBCFEAFFEE50EFCF45
:10355000EAFFE96E320EE926000EEA22E9CF28F0F2
:10356000EACF29F0040EDBCF2AF0050E2B6A0F0EEE
:103570002A16050ED8902A362B36E806FBE128508D
:103580002A24266E29502B20276EFC0EDBCFE9FF64
:10359000FD0EDBCFEAFF120EE926000EEA2226C05E
:1035A000EEFF27C0EDFF266E070EE15C02E2E16A46
:1035B000E552E16E2650E552E5CFDAFFE7CFD9FFBD
:1035C0001200D9CFE6FFDACFE6FFE1CFD9FFE2CF95
:1035D000DAFFE652E652E652000EE66EE66AFC0EAE
:1035E000DBCFE6FFFD0EDBCFE6FF49EC15F0E55241
:1035F000E552E552E552DF6EDF5075E1010EDB6A00
:10360000020EDB6AFC0EDBCFE9FFFD0EDBCFEAFF2B
:103610000E0EE926000EEA22EECFE6FFEECFE6FF21
:10362000EECFE6FFEFCFE6FFFC0EDBCFE9FFFD0EAE
:10363000DBCFEAFFEECFE6FFEFCFE6FF80EC08F04E
:10364000266E060EE15C02E2E16AE552E16E26506A
:10365000DF6EDF5048E1FC0EDBCFE9FFFD0EDBCF74
:10366000EAFF120EE926000EEA22EE50EFCFEAFF43
:10367000E96EEF50E50810E0FC0EDBCFE9FFFD0E30
:10368000DBCFEAFF120EE926000EEA22EE50EFCF62
:10369000EAFFE96EEF5012E1010EDB2ADBCF26F0E4
:1036A000020E01E3DB2ADBCF27F0FA0EDB502618EF
:1036B00009E1FB0EDB50271805E115D0010EDB6A8E
:1036C000020EDB6A010EE66EE66AFC0EDBCFE6FF59
:1036D000FD0EDBCFE6FF4DDCE552E552E552E5524B
:1036E000DF6EDF508FE0040EDF5C02E1070EDF6E5D
:1036F000DF50E552E552E552E552E5CFDAFFE7CF7C
:10370000D9FF1200D9CFE6FFDACFE6FFE1CFD9FF2C
:10371000E2CFDAFFE652E652E652E6521A0EE76EC2
:10372000FA0EDBCFE9FFFB0EDBCFEAFFE750E9261D
:10373000000EEA22EECF26F0EFCF27F026C0DFFF03
:10374000010E27C0DBFF020EDB6A030EDB6AFC0EF4
:10375000DBCFE9FFFD0EDBCFEAFFEF50030826E1E8
:10376000140EE76EFA0EDBCFE9FFFB0EDBCFEAFFAC
:10377000E750E926000EEA22EECF26F0EFCF27F041
:10378000286A296A100E1F0B07E0D89026362736C4
:1037900028362936E806F9E12650DE122750DE12D7
:1037A0002850DE122950DD12DD52DD52DECF44F00A
:1037B000DECF45F0DECF46F0DDCF47F0DD52DD5203
:1037C000040EE15C02E2E16AE552E16EE552E5CF0A
:1037D000DAFFE7CFD9FF1200D9CFE6FFDACFE6FF55
:1037E000E1CFD9FFE2CFDAFF1A0EE76EFC0EDBCF96
:1037F000E9FFFD0EDBCFEAFFE750E926000EEA22E3
:10380000F80EDBCFEEFFF90EDBCFEDFFF80EDBCFCE
:1038100026F0F90EDBCF27F0FA0EDBCF28F0FB0EF7
:10382000DBCF29F0100ED8902932283227322632E9
:10383000E806F9E1140EE76EFC0EDBCFE9FFFD0EA2
:10384000DBCFEAFFE750E926000EEA2226C0EEFFB2
:1038500027C0EDFFE552E5CFDAFFE7CFD9FF120031
:10386000D9CFE6FFDACFE6FFE1CFD9FFE2CFDAFF2B
:10387000E652E652E652E652000EE66EE66AFC0EAC
:10388000DBCFE6FFFD0EDBCFE6FF49EC15F0E5529E
:10389000E552E552E552DF6EDF5002E0DF5092D094
:1038A000FC0EDBCFE9FFFD0EDBCFEAFF0E0EE926B3
:1038B000000EEA22EECFE6FFEECFE6FFEECFE6FF08
:1038C000EFCFE6FFFC0EDBCFE9FFFD0EDBCFEAFF1B
:1038D000EECFE6FFEFCFE6FF80EC08F0266E060E97
:1038E000E15C02E2E16AE552E16E2650DF6EDF50F4
:1038F00068E1FC0EDBCFE9FFFD0EDBCFEAFF120E25
:10390000E926000EEA22020EEECFDBFF030EEDCF1A
:10391000DBFF020EDBCFE9FF030EDBCFEAFF010E78
:10392000EFCFDBFFDB5003E1040EDF6E4AD00B0E5E
:10393000E76E020EDBCFE9FF030EDBCFEAFFE750B5
:10394000E926000EEA22EF50080B28E10B0EE66E86
:10395000E66AFC0EDBCFE9FFFD0EDBCFEAFF140EBB
:10396000E926000EEA22EECFE6FFEFCFE6FF020ED9
:10397000DBCFE6FF030EDBCFE6FF92EC06F0286E0E
:10398000060EE15C02E2E16AE552E16E2850F3CFF7
:1039900026F0F4CF27F0F350F41013E0000EE66E9B
:1039A000E66AFC0EDBCFE6FFFD0EDBCFE6FFB9ECEF
:1039B00017F0E552E552E552E552DF6EDF5001E1C6
:1039C0006FD7DF50266E040EE15C02E2E16AE55239
:1039D000E16E2650E552E5CFDAFFE7CFD9FF1200BE
:1039E000D9CFE6FFDACFE6FFE1CFD9FFE2CFDAFFAA
:1039F000E652E652E652E652E652040EDF6EFC0E46
:103A0000DBCFE9FFFD0EDBCFEAFF0E0EE926000E4D
:103A1000EA22EECF26F0EECF27F0EECF28F0EFCF60
:103A200029F0265027102810291001E18BD0FC0E18
:103A3000DBCFE9FFFD0EDBCFEAFF0E0EE926000E1D
:103A4000EA22EECFE6FFEECFE6FFEECFE6FFEFCFC6
:103A5000E6FFFC0EDBCFE9FFFD0EDBCFEAFFEECF8A
:103A6000E6FFEFCFE6FF80EC08F0266E060EE15C85
:103A700002E2E16AE552E16E2650DF6EDF5062E15C
:103A8000FC0EDBCFE9FFFD0EDBCFEAFF120EE926CD
:103A9000000EEA22030EEECFDBFF040EEDCFDBFFBC
:103AA000030EDBCFE9FF040EDBCFEAFF020EEFCF00
:103AB000DBFFDB5003E1040EDF6E44D00B0EE76E3C
:103AC000030EDBCFE9FF040EDBCFEAFFE750E92668
:103AD000000EEA22EF503F0BE76E010EE7CFDBFF4F
:103AE000020EDB50E5081BE0020EDB502E0817E04B
:103AF000010EDB500F0813E0010EDB50080802E056
:103B0000000E01D0010E266E276A26BE2768FA0E27
:103B1000DB50261804E1FB0EDB50271813E0000EE3
:103B2000E66EE66AFC0EDBCFE6FFFD0EDBCFE6FFBE
:103B3000B9EC17F0E552E552E552E552DF6EDF5081
:103B400001E15DD7DF500EE0FC0EDBCFE9FFFD0E9B
:103B5000DBCFEAFF0E0EE926000EEA22EE6AEE6ADD
:103B6000EE6AEE6ADF50266E050EE15C02E2E16A63
:103B7000E552E16E2650E552E5CFDAFFE7CFD9FFF7
:103B80001200D9CFE6FFDACFE6FFE1CFD9FFE2CFCF
:103B9000DAFFE652010EE66EE66AFC0EDBCFE6FFC8
:103BA000FD0EDBCFE6FF0DDDE552E552E552E552B5
:103BB000DF6EDF5001E080D0FC0EDBCFE9FFFD0EB1
:103BC000DBCFEAFF0E0EE926000EEA22EECFE6FF7B
:103BD000EECFE6FFEECFE6FFEFCFE6FFFC0EDBCF4A
:103BE000E9FFFD0EDBCFEAFFEECFE6FFEFCFE6FF0A
:103BF00080EC08F0266E060EE15C02E2E16AE55216
:103C0000E16E2650DF6EDF5057E1200EE66EE66A69
:103C1000000EE66EE66AFC0EDBCFE9FFFD0EDBCFA1
:103C2000EAFF120EE926000EEA22EECFE6FFEFCF02
:103C3000E6FF63EC06F0266E060EE15C02E2E16A46
:103C4000E552E16E26500B0EE66EE66AFC0EDBCF07
:103C5000E9FFFD0EDBCFEAFF140EE926000EEA2293
:103C6000EECFE6FFEFCFE6FFFC0EDBCFE9FFFD0E68
:103C7000DBCFEAFF120EE926000EEA22EECFE6FFC6
:103C8000EFCFE6FFE1EC05F0266E060EE15C02E206
:103C9000E16AE552E16E2650FC0EDBCFE9FFFD0E36
:103CA000DBCFEAFFEE50EFCFEAFFE96E040EE92624
:103CB000000EEA22010EEF6EDF50E552E552E5CF2D
:103CC000DAFFE7CFD9FF1200D9CFE6FFDACFE6FF60
:103CD000E1CFD9FFE2CFDAFF0D0EE12402E3E16884
:103CE000E652E16EFA0EDBCFE9FFFB0EDBCFEAFF17
:103CF0000B0EEECFDBFF0C0EEDCFDBFF0B0EDBCFA1
:103D0000E9FF0C0EDBCFEAFFEF502F0809E00B0EA6
:103D1000DBCFE9FF0C0EDBCFEAFFEF505C0806E1DA
:103D20000B0EDB2A0C0EEAE3DB2AE8D7FC0EDBCF16
:103D3000E9FFFD0EDBCFEAFF140EE926000EEA22B2
:103D4000030EEECFDBFF040EEDCFDBFF0B0EE66EB6
:103D5000E66A200EE66EE66A030EDBCFE6FF040E8F
:103D6000DBCFE6FF63EC06F0266E060EE15C02E2B6
:103D7000E16AE552E16E2650000EDF6EE66ED95024
:103D8000090FE96E000EDA20EA6EE552E750EE6E9A
:103D9000ED6AE66ED950070FE96E000EDA20EA6E82
:103DA000E552E750EE6EED6A080EF36E050EF3CFA6
:103DB000DBFF060EDB6A070EDBCF26F0DB2A080EE0
:103DC000DBCF27F001E3DB2A0B0EDB502624E96E64
:103DD0000C0EDB502720EA6E010EEFCFDBFFDB502D
:103DE000200801E39CD0010EDB502F0801E197D0A1
:103DF000010EDB505C0801E192D0010EDB502E0871
:103E000011E0090EDBCF26F00A0EDBCF27F0050EFE
:103E1000DBCF28F0060EDBCF29F02850265C295096
:103E2000275825E3D950050FE96E000EDA20EA6E17
:103E3000080EEE1801E09FD0ED5001E09CD0010E7D
:103E4000DB502E0801E097D0080EF36E090EF3CF79
:103E5000DBFF0A0EDB6A0B0EF36E050EF3CFDBFF02
:103E6000060EDB6A040EDF02F3CFDFFFA4D7800E5D
:103E7000F36E010EDBCFF4FFF350F45C04E3000EAD
:103E8000DF80DF8278D0010EDBCFE6FFE66A780EB6
:103E9000E66EE50EE66EF7EC06F0E552E552E55209
:103EA000E552F350F41067E1410EF36E010EDBCFE3
:103EB000F4FFF350F45C06E3010EDB505A0802E312
:103EC000DF8218D0610EF36E010EDBCFF4FFF350EA
:103ED000F45C10E3010EDB507A080CE3000EDF8087
:103EE000200E266E010EDBCFE7FF2650E75E010EA7
:103EF000E7CFDBFF090EDBCF26F0DB2A0A0EDBCF94
:103F000027F001E3DB2A030EDB502624E96E040EC2
:103F1000DB502720EA6E010EDBCFEFFF4CD7070EF8
:103F2000DBCF28F0080EDBCF29F00B0EDB50282466
:103F3000266E0C0EDB502920276EFA0EDBCFE9FF30
:103F4000FB0EDBCFEAFF26C0EEFF27C0EDFF010E20
:103F5000DB50200802E3040E01D0000EE76E010ED4
:103F6000E7CFDBFFD950090FE96E000EDA20EA6EC9
:103F7000EE50ED1002E1060E3CD0030EDBCFE9FF60
:103F8000040EDBCFEAFFEF50E50808E1030EDBCFBC
:103F9000E9FF040EDBCFEAFF050EEF6ED950050FE7
:103FA000E96E000EDA20EA6E080EEE1806E1ED501A
:103FB00004E1040EDF02F3CFDFFF030EDF1401087C
:103FC00002E1010EDB880C0EDF14040802E1010E91
:103FD000DB860B0EE76E030EDBCFE9FF040EDBCFB3
:103FE000EAFFE750E926000EEA22010EDBCFEFFFE1
:103FF000000E266E0D0EE15C02E2E16AE552E16E12
:104000002650E552E5CFDAFFE7CFD9FF1200D9CF2E
:10401000E6FFDACFE6FFE1CFD9FFE2CFDAFF080E05
:10402000E12402E3E168E652E16EFA0EDBCFE9FF3C
:10403000FB0EDBCFEAFF090EE926000EEA22050E91
:10404000E9CFDBFF060EEACFDBFFFC0EDBCFE9FF9B
:10405000FD0EDBCFEAFF0E0EE926000EEA22EECFC0
:1040600026F0EECF27F0EECF28F0EFCF29F0265044
:1040700027102810291001E118D1FC0EDBCFE9FF31
:10408000FD0EDBCFEAFF120EE926000EEA22030E38
:10409000EECFDBFF040EEDCFDBFF0C0EE76E030E61
:1040A000DBCFE9FF040EDBCFEAFFE750E926000E85
:1040B000EA22020EEFCFDBFFDE6ADD6ADECF26F0FA
:1040C000DDCF27F0080E265C000E27582CE2030EE9
:1040D000DBCF26F0040EDBCF27F0DE502624E96E7E
:1040E000DD502720EA6E070EEFCFDBFFDB50200804
:1040F0001AE0070EDB50050805E1E50EF36E070E2A
:10410000F3CFDBFF050EDBCFE9FFDB2A060EDBCFAB
:10411000EAFF01E3DB2A070EDBCFEFFFDF2A010E08
:10412000CDE3DB2ACBD7080EE76E030EDBCFE9FF2A
:10413000040EDBCFEAFFE750E926000EEA22EF503B
:1041400020083AE0050EDBCFE9FFDB2A060EDBCFC5
:10415000EAFF01E3DB2A2E0EEF6E080EDE6EDD6A4B
:10416000DECF26F0DDCF27F00B0E265C000E2758A1
:1041700023E2030EDBCF26F0040EDBCF27F0DE5068
:104180002624E96EDD502720EA6E070EEFCFDBFF15
:10419000DB50200811E0050EDBCFE9FFDB2A060E1D
:1041A000DBCFEAFF01E3DB2A070EDBCFEFFFDF2ADD
:1041B000010ED6E3DB2AD4D70B0EE76E030EDBCF5E
:1041C000E9FF040EDBCFEAFFE750E926000EEA2202
:1041D000EF50E66EFA0EDBCFE9FFFB0EDBCFEAFF16
:1041E000080EE926000EEA22E552E750EF6E1C0E9B
:1041F000E76E030EDBCFE9FF040EDBCFEAFFE750EB
:10420000E926000EEA22EECF26F0EECF27F0EECF21
:1042100028F0EFCF29F0FA0EDBCFE9FFFB0EDBCF62
:10422000EAFF26C0EEFF27C0EEFF28C0EEFF29C040
:10423000EEFF180EE76E030EDBCFE9FF040EDBCFB7
:10424000EAFFE750E926000EEA22EECF26F0EFCF94
:1042500027F0FA0EDBCFE9FFFB0EDBCFEAFF040EFF
:10426000E926000EEA2226C0EEFF27C0EDFF160E5B
:10427000E76E030EDBCFE9FF040EDBCFEAFFE7506A
:10428000E926000EEA22EECF26F0EFCF27F0FA0E55
:10429000DBCFE9FFFB0EDBCFEAFF060EE926000EBF
:1042A000EA2226C0EEFF27C0EDFF050EDBCFE9FFB7
:1042B000060EDBCFEAFFEF6A080EE15C02E2E16A7C
:1042C000E552E16EE552E5CFDAFFE7CFD9FF120004
:1042D000D9CFE6FFDACFE6FFE1CFD9FFE2CFDAFFB1
:1042E000E652E652E652E652FA0EDBCFE9FFFB0E4B
:1042F000DBCFEAFFEF502F0809E0FA0EDBCFE9FF32
:10430000FB0EDBCFEAFFEF505C0805E1FA0EDB2A7B
:10431000FB0E01E3DB2AFC0EDBCFE9FFFD0EDBCF5A
:10432000EAFF060EE926000EEA22EE6AEE6AEE6A5F
:10433000EE6AFA0EDBCFE9FFFB0EDBCFEAFFEFCF31
:1043400026F0276A26BE2768200E265C000E275816
:104350001BE2000EE66EE66AFC0EDBCFE6FFFD0E0A
:10436000DBCFE6FF49EC15F0E552E552E552E552A8
:10437000DF6EFC0EDBCFE9FFFD0EDBCFEAFF120E96
:10438000EB6A130EEB6A94D0D950FA0FE66EFF0E6B
:10439000DA20E66EFC0EDBCFE6FFFD0EDBCFE6FF9C
:1043A00093DCE552E552E552E552DF6EDF5001E065
:1043B0007FD0FC0EDBCFE6FFFD0EDBCFE6FF30EC5F
:1043C0001CF0E552E552DF6EFC0EDBCFE9FFFD0E7F
:1043D000DBCFEAFF140EE926000EEA22EE50EFCF03
:1043E000EAFFE96E0B0EE926000EEA22030EEFCF7C
:1043F000DBFFDF5007E0040EDF5C5AE1030EDBB4A5
:1044000057D022D0030EDBB453D0FC0EDBCFE9FF34
:10441000FD0EDBCFEAFF120EE926000EEA22010EA6
:10442000EECFDBFF020EEDCFDBFF0B0EE76E010ED2
:10443000DBCFE9FF020EDBCFEAFFE750E926000EF3
:10444000EA22EF50100B03E1050EDF6E31D0010EB2
:10445000DBCFE6FF020EDBCFE6FFFC0EDBCFE9FF92
:10446000FD0EDBCFEAFFEECFE6FFEFCFE6FF82ECFB
:104470001BF0E552E552E552E55244C026F045C036
:1044800027F046C028F047C029F0FC0EDBCFE9FF3B
:10449000FD0EDBCFEAFF060EE926000EEA2244C03D
:1044A000EEFF27C0EEFF28C0EEFF29C0EEFF6CD75D
:1044B000DF50266E040EE15C02E2E16AE552E16E35
:1044C0002650E552E5CFDAFFE7CFD9FF1200D9CF6A
:1044D000E6FFDACFE6FFE1CFD9FFE2CFDAFF010E48
:1044E000E66ED950F80FE96EFF0EDA20EA6EEECFD5
:1044F000E6FFEECFE6FFEECFE6FFEFCFE6FFFC0EE6
:10450000DBCFE9FFFD0EDBCFEAFF320EE926000E1E
:10451000EA22E9CF26F0EACF27F0E9CFE6FFEACF9B
:10452000E6FFFC0EDBCFE9FFFD0EDBCFEAFFEE522C
:10453000EF50E66ED5EC5EF0286E080EE15C02E20C
:10454000E16AE552E16E2850000902E0030E63D0F3
:10455000FC0EDBCFE9FFFD0EDBCFEAFF320EE926D2
:10456000000EEA22FE0EE926010EEA22550EEE1892
:1045700002E1AA0EED1802E0020E4DD0266827686F
:104580002868296AFC0EDBCFE9FFFD0EDBCFEAFFCE
:10459000320EE926000EEA22360EE926000EEA2245
:1045A000EE502616EE502716EE502816EE5029161D
:1045B000460E261808E1410E271805E1540E28186A
:1045C00002E1295025E0266827682868296AFC0E40
:1045D000DBCFE9FFFD0EDBCFEAFF320EE926000E4E
:1045E000EA22520EE926000EEA22EE502616EE507E
:1045F0002716EE502816EE502916460E26180AE108
:10460000410E271807E1540E281804E1295002E151
:10461000000E01D0010EE552E5CFDAFFE7CFD9FF5A
:104620001200D9CFE6FFDACFE6FFE1CFD9FFE2CF24
:10463000DAFF260EE12402E3E168E652E16EFC0EA9
:10464000DBCFE9FFFD0EDBCFEAFF220EEECFDBFF73
:10465000230EEDCFDBFF220EDBCFE9FF230EDBCFF6
:10466000EAFFEF50D00FE66ED950050FE96E000E4D
:10467000DA20EA6EE552E750EE6EED6AD950050F8A
:10468000E96E000EDA20EA6E090ED880EE54000EB4
:10469000ED5426E3010EE76E220EDBCFE9FF230E79
:1046A000DBCFEAFFE750E926000EEA22EF503A0896
:1046B00017E1D950220FE96E000EDA20EA6E020EE1
:1046C000EE26000EED22FC0EDBCFE9FFFD0EDBCF68
:1046D000EAFF220EDBCFEEFF230EDBCFEDFF04D08F
:1046E000050EDB6A060EDB6AFA0EDBCFE9FFFB0E76
:1046F000DBCFEAFFEE6AED6A050EDBCF26F0060E91
:10470000DBCF27F0010E265C000E275803E30B0ECB
:1047100036EF2AF0050EDBCFE9FF060EDBCFEAFF0E
:10472000010ED890E936EA36E806FBE1000EE926EC
:104730000F0EEA22240EEECFDBFF250EEDCFDBFFBE
:10474000D950240FE96E000EDA20EA6EEE50ED101B
:1047500003E10C0E36EF2AF0FA0EDBCFE9FFFB0E79
:10476000DBCFEAFF240EDBCFEEFF250EDBCFEDFF24
:10477000240EDBCFE9FF250EDBCFEAFFEF501CE074
:10478000240EDBCFE9FF250EDBCFEAFFEE52EF5020
:10479000E66EC0EC5EF0E552E76E070EE7CFDBFF9A
:1047A000DBB00AD0F90EDB5004E0070EDB50040B3F
:1047B00030E1000E36EF2AF0240EDBCFE9FF250EA4
:1047C000DBCFEAFFEF6A240EDBCFE9FF250EDBCF5C
:1047D000EAFFEE52050EDBCFEFFF240EDBCFE9FF41
:1047E000250EDBCFEAFFEE52EF50E66E7FEC5DF078
:1047F000E552E76E070EE7CFDBFFDBA003D0030E29
:1048000036EF2AF0F90EDB5007E0070EDB50040B01
:1048100003E00A0E36EF2AF0080EDB6A090EDB6AA7
:104820000A0EDB6A0B0EDB6AE66AE66AE66AE66A8D
:10483000240EDBCFE6FF250EDBCFE6FF48DE266E3B
:10484000060EE15C02E2E16AE552E16E2650DF6E9F
:10485000DF046CE1020EDB6ADB5002E0020EDB06D5
:10486000240EDBCFE9FF250EDBCFEAFF320EE9266F
:10487000000EEA22E9CF28F0EACF29F0020EDB5041
:10488000100DF3502B6ABE0F2A6E010E2B22E95039
:104890002A24266EEA502B20276E030E26C0DBFF4B
:1048A000040E27C0DBFFE76E030EDBCFE9FF040E2B
:1048B000DBCFEAFFE750E926000EEA22EF5036E0B0
:1048C000080EE76E030EDBCFE9FF040EDBCFEAFF35
:1048D000E750E926000EEA22080EEECFDBFF090EB4
:1048E000EECFDBFF0A0EEECFDBFF0B0EEECFDBFFD2
:1048F000D950080FE96E000EDA20EA6EEECFE6FF1F
:10490000EECFE6FFEECFE6FFEFCFE6FF240EDBCFE4
:10491000E6FF250EDBCFE6FFDADD266E060EE15C54
:1049200002E2E16AE552E16E2650DF6E030EDF5CC3
:1049300003E1010E36EF2AF0DF5002E0D0EF28F05D
:10494000240EDBCFE9FF250EDBCFEAFF320EE9268E
:10495000000EEA220B0EE926000EEA22EE5002E0DB
:10496000D0EF28F0020EED1802E0D0EF28F0240E70
:10497000DBCFE9FF250EDBCFEAFF320EE926000E82
:10498000EA22160EE926000EEA22EECF26F0EFCF3D
:1049900027F00C0E26C0DBFF0D0E27C0DBFF0E0E2E
:1049A000DB6A0F0EDB6A0C0EDBCF26F00D0EDBCFC1
:1049B00027F00E0EDBCF28F00F0EDBCF29F02650AC
:1049C0002710281029101AE1240EDBCFE9FF250E4D
:1049D000DBCFEAFF320EE926000EEA22240EE9269A
:1049E000000EEA220C0EEECFDBFF0D0EEECFDBFF4A
:1049F0000E0EEECFDBFF0F0EEECFDBFF240EDBCF74
:104A0000E9FF250EDBCFEAFF1A0EE926000EEA22A7
:104A10000C0EDBCFEEFF0D0EDBCFEEFF0E0EDBCF6D
:104A2000EEFF0F0EDBCFEEFF240EDBCFE9FF250EEE
:104A3000DBCFEAFF320EE926000EEA22100EE9264D
:104A4000000EEA22010EEFCFDBFF240EDBCFE9FFE1
:104A5000250EDBCFEAFF030EE926000EEA22010E47
:104A6000DBCFEFFFDB0405E0010EDB50020801E0C5
:104A700097D3010EDBCF26F0276A286A296AD9501E
:104A80000C0FE96E000EDA20EA6E26C049F027C04E
:104A90004AF028C04BF029C04CF0EECF44F0EECFE6
:104AA00045F0EECF46F0EFCF47F0ECEC71F043C0AD
:104AB000EDFF42C0EDFF41C0EDFF40C0EFFF240E0F
:104AC000DBCFE9FF250EDBCFEAFF320EE926000E31
:104AD000EA220D0EE926000EEA22010EEFCFDBFFDF
:104AE000240EDBCFE9FF250EDBCFEAFF020EE9261D
:104AF000000EEA22010EDBCFEFFFDB5001E150D3C5
:104B0000010EDBCFE6FFDB04E552E71401E048D3FA
:104B1000240EDBCFE9FF250EDBCFEAFF320EE926BC
:104B2000000EEA22110EE926000EEA22EECF26F050
:104B3000EFCF27F0240EDBCFE9FF250EDBCFEAFF16
:104B4000080EE926000EEA2226C0EEFF27C0EDFF80
:104B5000240EDBCFE9FF250EDBCFEAFF080EE926A6
:104B6000000EEA22EECF26F00001276A0F0E26166D
:104B70002650271001E014D3240EDBCFE9FF250EC9
:104B8000DBCFEAFF320EE926000EEA22130EE926F9
:104B9000000EEA22EECF26F0EFCF27F0100E26C04F
:104BA000DBFF110E27C0DBFF120EDB6A130EDB6A80
:104BB000100EDBCF26F0110EDBCF27F0120EDBCF6D
:104BC00028F0130EDBCF29F02650271028102910CB
:104BD0001AE1240EDBCFE9FF250EDBCFEAFF320E10
:104BE000E926000EEA22200EE926000EEA22100E27
:104BF000EECFDBFF110EEECFDBFF120EEECFDBFFB1
:104C0000130EEECFDBFF240EDBCFE9FF250EDBCF4B
:104C1000EAFF320EE926000EEA220E0EE926000E09
:104C2000EA22200EEECFDBFF210EEDCFDBFFD950C5
:104C3000200FE96E000EDA20EA6EEE50ED1001E171
:104C4000AFD2200EDBCF2AF0210EDBCF2BF02C6A67
:104C50002D6AD9500C0FE96E000EDA20EA6E2A5048
:104C6000EE24266E2B50EE20276E2C50EE20286E60
:104C70002D50EE20296E240EDBCFE9FF250EDBCF71
:104C8000EAFF080EE926000EEA22EECF2EF0EFCF63
:104C90002FF0040E0F0B05E0D8902F322E32E806CD
:104CA000FBE1306A316A2E5026262F5027223050E1
:104CB000282231502922140E26C0DBFF150E27C0F2
:104CC000DBFF160E28C0DBFF170E29C0DBFF140E1A
:104CD000DBCF26F0150EDBCF27F0160EDBCF28F04A
:104CE000170EDBCF29F0D950100FE96E000EDA2035
:104CF000EA6E2650EE5C2750EE582850EE582950A8
:104D0000EE5801E24DD2240EDBCFE9FF250EDBCFBA
:104D1000EAFF020EE926000EEA22EFCF2EF02F6AFC
:104D2000306A316A100EDBCF2AF0110EDBCF2BF088
:104D3000120EDBCF2CF0130EDBCF2DF0D950140F59
:104D4000E96E000EDA20EA6EEE502A5C266EEE5016
:104D50002B58276EEE502C58286EEE502D58296E89
:104D600026C044F027C045F028C046F0476E2EC04C
:104D700049F02FC04AF030C04BF031C04CF049EC44
:104D800072F0180E44C0DBFF190E45C0DBFF1A0E8F
:104D900046C0DBFF1B0E47C0DBFF180EDBCF26F043
:104DA000190EDBCF27F01A0EDBCF28F01B0EDBCF5E
:104DB00029F0265027102810291001E1F1D1010E09
:104DC000DF6ED950180FE96E000EDA20EA6EF60E8B
:104DD000EE5C0F0EEE58000EEE58000EEE5802E399
:104DE000020EDF6ED950180FE96E000EDA20EA6E5F
:104DF000F60EEE5CFF0EEE58000EEE58000EEE586A
:104E000002E3030EDF6E020E266E276A286A296A05
:104E1000D950180FE96E000EDA20EA6EEE50262601
:104E2000EE502722EE502822EE502922240EDBCF0E
:104E3000E9FF250EDBCFEAFF160EE926000EEA2277
:104E400026C0EEFF27C0EEFF28C0EEFF29C0EEFF10
:104E5000240EDBCFE9FF250EDBCFEAFF1E0EE9268D
:104E6000000EEA22080EDBCFEEFF090EDBCFEEFFCD
:104E70000A0EDBCFEEFF0B0EDBCFEEFF200EDBCFFB
:104E800026F0210EDBCF27F0286A296AD950080FB7
:104E9000E96E000EDA20EA6EEE502626EE5027224A
:104EA000EE502822EE502922240EDBCFE9FF250EFA
:104EB000DBCFEAFF220EE926000EEA2226C0EEFF33
:104EC00027C0EEFF28C0EEFF29C0EEFF140EDBCF97
:104ED00026F0150EDBCF27F0160EDBCF28F0170ECD
:104EE000DBCF29F0D950080FE96E000EDA20EA6E08
:104EF000EE502626EE502722EE502822EE50292290
:104F0000240EDBCFE9FF250EDBCFEAFF2A0EE926D0
:104F1000000EEA2226C0EEFF27C0EEFF28C0EEFFFB
:104F200029C0EEFF030EDF5C5CE1240EDBCFE9FF5E
:104F3000250EDBCFEAFF080EE926000EEA22EE502E
:104F4000ED1001E02DD1240EDBCFE9FF250EDBCFE4
:104F5000EAFF320EE926000EEA222C0EE926000EA8
:104F6000EA22EECF26F0EECF27F0EECF28F0EFCFFB
:104F700029F0240EDBCFE9FF250EDBCFEAFF260E5A
:104F8000E926000EEA2226C0EEFF27C0EEFF28C069
:104F9000EEFF29C0EEFF240EDBCFE9FF250EDBCFAD
:104FA000EAFF160EE926000EEA22EECF44F0EECF1D
:104FB00045F0EECF46F0EFCF47F0040E496E4A6A57
:104FC0004B6A4C6AECEC71F01C0E40C0DBFF1D0E0E
:104FD00041C0DBFF1E0E42C0DBFF1F0E43C0DBFFE4
:104FE000B1D0240EDBCFE9FF250EDBCFEAFF080EA0
:104FF000E926000EEA22EE50ED1001E1D1D00C0EB0
:10500000DBCF26F00D0EDBCF27F00E0EDBCF28F026
:105010000F0EDBCF29F0240EDBCFE9FF250EDBCF0F
:10502000EAFF220EE926000EEA22EE502626EE5076
:105030002722EE502822EE502922240EDBCFE9FF52
:10504000250EDBCFEAFF260EE926000EEA2226C057
:10505000EEFF27C0EEFF28C0EEFF29C0EEFF020ED4
:10506000DF5C18E1240EDBCFE9FF250EDBCFEAFF82
:10507000160EE926000EEA22EECF26F0EECF27F03C
:10508000EECF28F0EFCF29F0D890263627362836F5
:1050900029364CD0010E2A6E2B6A2C6A2D6A240EFA
:1050A000DBCFE9FF250EDBCFEAFF160EE926000E67
:1050B000EA22EE502A16EE502B16EE502C16EE5029
:1050C0002D16240EDBCFE9FF250EDBCFEAFF160EEF
:1050D000E926000EEA22EECF44F0EECF45F0EECF07
:1050E00046F0EFCF47F0030E496E4A6A4B6A4C6AAE
:1050F000ECEC71F040C044F041C045F042C046F0D5
:1051000043C047F0020E496E4A6A4B6A4C6A49EC4A
:1051100072F0445000012A24266E45502B20276E41
:1051200046502C20286E47502D20296E1C0E26C07C
:10513000DBFF1D0E27C0DBFF1E0E28C0DBFF1F0E8E
:1051400029C0DBFF1C0EDBCF26F01D0EDBCF27F0C6
:105150001E0EDBCF28F01F0EDBCF29F0FF0E262618
:10516000010E2722000E28222922090ED89029326A
:10517000283227322632E806F9E1240EDBCFE9FF98
:10518000250EDBCFEAFF1A0EE926000EEA22265092
:10519000EE5C2750EE582850EE582950EE5802E2A7
:1051A0000D0E64D1240EDBCFE9FF250EDBCFEAFF25
:1051B0000E0EE926000EEA22EE68EE68EE68EE6852
:1051C000240EDBCFE9FF250EDBCFEAFF0A0EE9262E
:1051D000000EEA22EE6AEE6AEE6AEE6A030EDF5C09
:1051E00001E011D1240EDBCFE9FF250EDBCFEAFF72
:1051F000050EE926000EEA22EF6A240EDBCFE9FF56
:10520000250EDBCFEAFF320EE926000EEA22300E31
:10521000E926000EEA22EECF26F0EFCF27F0286A2B
:10522000296AD950080FE96E000EDA20EA6EEE50B6
:105230002626EE502722EE502822EE502922240E58
:10524000DBCFE9FF250EDBCFEAFF120EE926000EC9
:10525000EA2226C0EEFF27C0EEFF28C0EEFF29C0DD
:10526000EEFF010EE66E240EDBCFE9FF250EDBCF4D
:10527000EAFF120EE926000EEA22EECFE6FFEECF9D
:10528000E6FFEECFE6FFEFCFE6FF240EDBCFE9FF30
:10529000250EDBCFEAFF320EE926000EEA22E9CF27
:1052A00026F0EACF27F0E9CFE6FFEACFE6FF240EAB
:1052B000DBCFE9FF250EDBCFEAFFEE52EF50E66EC3
:1052C000D5EC5EF0286E080EE15C02E2E16AE55280
:1052D000E16E2850000901E096D0240EDBCFE9FFF3
:1052E000250EDBCFEAFF320EE926000EEA22FE0E83
:1052F000E926010EEA22550EEE1801E084D0AA0E2E
:10530000ED1801E080D0240EDBCFE9FF250EDBCFC6
:10531000EAFF320EE926000EEA22520EEE1873E181
:10532000520EEE1870E1610EEE186DE1410EEE18AE
:105330006AE1240EDBCFE9FF250EDBCFEAFF320E58
:10534000E926000EEA22E40EE926010EEA22720E98
:10535000EE1859E1720EEE1856E1410EEE1853E1C7
:10536000610EEE1850E1240EDBCFE9FF250EDBCFF6
:10537000EAFF320EE926000EEA22EC0EE926010EC3
:10538000EA22EECF26F0EECF27F0EECF28F0EFCFD7
:1053900029F0240EDBCFE9FF250EDBCFEAFF0A0E52
:1053A000E926000EEA2226C0EEFF27C0EEFF28C045
:1053B000EEFF29C0EEFF240EDBCFE9FF250EDBCF89
:1053C000EAFF320EE926000EEA22E80EE926010E77
:1053D000EA22EECF26F0EECF27F0EECF28F0EFCF87
:1053E00029F0240EDBCFE9FF250EDBCFEAFF0E0EFE
:1053F000E926000EEA2226C0EEFF27C0EEFF28C0F5
:10540000EEFF29C0EEFF240EDBCFE9FF250EDBCF38
:10541000EAFFDFCFEFFF0F01022B000E0323240E64
:10542000DBCFE9FF250EDBCFEAFF060EE926000EF3
:10543000EA2202CFEEFF03CFEDFF240EDBCFE9FF20
:10544000250EDBCFEAFF2E0EE926000EEA22EE6AD9
:10545000EE6AEE6AEE6A240EDBCFE9FF250EDBCFA3
:10546000EAFF040EE926000EEA22EF6A266E260EF7
:10547000E15C02E2E16AE552E16E2650E552E5CFD9
:10548000DAFFE7CFD9FF1200D9CFE6FFDACFE6FF88
:10549000E1CFD9FFE2CFDAFFE652E652FC0EDBCFD6
:1054A000DEFFDBCFDDFFD9CFE9FFDACFEAFFEE5039
:1054B000ED1033E0DECFE9FFDDCFEAFFEE50ED1077
:1054C0002CE0DECFE9FFDDCFEAFFEE50EFCFEAFFC1
:1054D000E96EEF5022E0DECFE9FFDDCFEAFFEE50CC
:1054E000EFCFEAFFE96E060EE926000EEA22EECFC4
:1054F00026F0EFCF27F0DECFE9FFDDCFEAFF020E87
:10550000E926000EEA22EECF28F0EFCF29F028504E
:10551000261802E12950271802E0090E13D0DECF29
:10552000E9FFDDCFEAFFEE50EFCFEAFFE96EEE5282
:10553000EF50E66EC0EC5EF0E552010B02E0030EA8
:1055400001D0000EE552E552E552E5CFDAFFE7CF94
:10555000D9FF1200D9CFE6FFDACFE6FFE1CFD9FFBE
:10556000E2CFDAFFE652E652010EF36EFD0EDBCF1C
:10557000F4FFF350F45C02E30B0E3BD0FD0EEA6A3D
:10558000DB34FE0BEA36E96E000EE9260F0EEA2246
:10559000EECFDEFFEDCFDDFFD9CFE9FFDACFEAFFB7
:1055A000EE50ED1005E0DECFE9FFDDCFEAFFEF6A58
:1055B000D950FB0FE96EFF0EDA20EA6EEE50ED10C7
:1055C00007E0FB0EDBCFE9FFFC0EDBCFEAFFEF6A63
:1055D000FD0EEA6ADB34FE0BEA36E96E000EE926C0
:1055E0000F0EEA22FB0EDBCFEEFFFC0EDBCFEDFF52
:1055F000000EE552E552E552E5CFDAFFE7CFD9FFDD
:105600001200D9CFE6FFDACFE6FFE1CFD9FFE2CF34
:10561000DAFF2D0EE12402E3E168E652E16ED95093
:10562000FC0FE96EFF0EDA20EA6EEE50ED1002E19B
:10563000090EBFD2FC0EDBCFE9FFFD0EDBCFEAFF88
:10564000EE6AED6AF90EDB9ADB9CDB9EDB50FE0B0B
:10565000E66ED950010FE66E000EDA20E66ED950E4
:10566000FA0FE66EFF0EDA20E66E11EC23F0266EDE
:10567000050EE15C02E2E16AE552E16E2650DF6E62
:10568000DF5001E095D2D950190F266E000EDA20B6
:10569000276E150E26C0DBFF160E27C0DBFFFA0EA5
:1056A000DBCFE6FFFB0EDBCFE6FFD950010FE66E46
:1056B000000EDA20E66E68EC21F0E552E552E55284
:1056C000E552DF6E130EDBCF46F0140EDBCF47F052
:1056D000170E46C0DBFF180E47C0DBFFDF500BE1A3
:1056E000D950170FE96E000EDA20EA6EEE50ED1079
:1056F00002E1060EDF6EF90EDB501C0B01E149D111
:10570000DF501DE0040EDF5C0BE1D950010FE66EA7
:10571000000EDA20E66EC1EC1DF0E552E552DF6EB8
:10572000F90EDB86130EDBCF46F0140EDBCF47F00D
:10573000170E46C0DBFF180E47C0DBFF16D00B0E5E
:10574000E76E170EDBCFE9FF180EDBCFEAFFE7505D
:10575000E926000EEA22EF50110B02E0070E04D0FA
:10576000F90EDBA402D0080EDF6EDF5001E039D164
:10577000F90EDB50080B01E134D185EC6AF0250EFF
:1057800044C0DBFF260E45C0DBFF270E46C0DBFF13
:10579000280E47C0DBFF0E0EE76E170EDBCFE9FFCA
:1057A000180EDBCFEAFFE750E926000EEA22250EAD
:1057B000DBCFEEFF260EDBCFEEFF270EDBCFEEFFBB
:1057C000280EDBCFEEFF0B0EE76E170EDBCFE9FFE7
:1057D000180EDBCFEAFFE750E926000EEA22EF6A57
:1057E0001C0EE76E170EDBCFE9FF180EDBCFEAFFCA
:1057F000E750E926000EEA22EE6AEE6AEE6AEE6AE9
:10580000170EDBCFE6FF180EDBCFE6FF010EDBCF76
:10581000E6FF020EDBCFE6FF82EC1BF0E552E5521D
:10582000E552E552290E44C0DBFF2A0E45C0DBFFDE
:105830002B0E46C0DBFF2C0E47C0DBFFE66AE66A94
:10584000E66AE66A170EDBCFE6FF180EDBCFE6FF4F
:10585000ECEC1BF0266E060EE15C02E2E16AE5521A
:10586000E16E2650010EDBCFE9FF020EDBCFEAFF2F
:10587000040EE926000EEA22010EEF6E290EDBCFA0
:1058800026F02A0EDBCF27F02B0EDBCF28F02C0ED4
:10589000DBCF29F0265027102810291001E1A1D0D4
:1058A000010EDBCFE9FF020EDBCFEAFF2E0EE92669
:1058B000000EEA22250EEECFDBFF260EEECFDBFF39
:1058C000270EEECFDBFF280EEECFDBFFD950290FDE
:1058D000E96E000EDA20EA6EEECFE6FFEECFE6FFCD
:1058E000EECFE6FFEFCFE6FF010EDBCFE6FF020EC5
:1058F000DBCFE6FF66EC10F0266E060EE15C02E2FE
:10590000E16AE552E16E2650DF6EDF506AE1290E52
:10591000DBCF26F02A0EDBCF27F02B0EDBCF28F0D3
:105920002C0EDBCF29F02606000E275A285A295ABA
:10593000010EDBCFE9FF020EDBCFEAFF0A0EE926FC
:10594000000EEA2226C0EEFF27C0EEFF28C0EEFFC1
:1059500029C0EEFFD950250FE96E000EDA20EA6E5D
:10596000EECFE6FFEECFE6FFEECFE6FFEFCFE6FFAE
:10597000010EDBCFE6FF020EDBCFE6FF80EC08F086
:10598000266E060EE15C02E2E16AE552E16E265007
:1059900027D0DF5026E10B0EE76E170EDBCFE9FFB5
:1059A000180EDBCFEAFFE750E926000EEA22EF509F
:1059B000100B02E0040E14D0F90EDB50020B11E0C4
:1059C0000B0EE76E170EDBCFE9FF180EDBCFEAFFF9
:1059D000E750E926000EEA22EF50010B02E0070E25
:1059E000DF6EDF5037E1F90EDBB6DB8A010EDBCF6D
:1059F000E9FF020EDBCFEAFF2E0EE926000EEA22B7
:105A0000EECF26F0EECF27F0EECF28F0EFCF29F043
:105A1000FC0EDBCFE9FFFD0EDBCFEAFF1A0EE92615
:105A2000000EEA2226C0EEFF27C0EEFF28C0EEFFE0
:105A300029C0EEFFFC0EDBCFE9FFFD0EDBCFEAFF56
:105A40001E0EE926000EEA22170EDBCFEEFF180E1F
:105A5000DBCFEDFFDF5001E0ABD0FC0EDBCFE9FF89
:105A6000FD0EDBCFEAFF040EE926000EEA22F90E56
:105A7000DBCFEFFF170EDBCFE6FF180EDBCFE6FF25
:105A8000010EDBCFE6FF020EDBCFE6FF82EC1BF060
:105A9000E552E552E552E55245C027F046C028F0F0
:105AA00047C029F0FC0EDBCFE9FFFD0EDBCFEAFF9C
:105AB0000E0EE926000EEA2244C0EEFF27C0EEFFDC
:105AC00028C0EEFF29C0EEFF1C0EE76E170EDBCFDD
:105AD000E9FF180EDBCFEAFFE750E926000EEA22C5
:105AE000EECF26F0EECF27F0EECF28F0EFCF29F063
:105AF000FC0EDBCFE9FFFD0EDBCFEAFF0A0EE92645
:105B0000000EEA2226C0EEFF27C0EEFF28C0EEFFFF
:105B100029C0EEFFFC0EDBCFE9FFFD0EDBCFEAFF75
:105B2000060EE926000EEA22EE6AEE6AEE6AEE6AD8
:105B3000FC0EDBCFE9FFFD0EDBCFEAFF160EE926F8
:105B4000000EEA22EE6AEE6AEE6AEE6AFC0EDBCF27
:105B5000E9FFFD0EDBCFEAFF200EEB6A210EEB6AB8
:105B6000FC0EDBCFE9FFFD0EDBCFEAFF010EDBCF42
:105B7000EEFF020EDBCFEDFF010EDBCFE9FF020EE1
:105B8000DBCFEAFF060EE926000EEA22EECF26F072
:105B9000EFCF27F0FC0EDBCFE9FFFD0EDBCFEAFFF6
:105BA000020EE926000EEA2226C0EEFF27C0EDFF16
:105BB000DF50266E2D0EE15C02E2E16AE552E16EF5
:105BC0002650E552E5CFDAFFE7CFD9FF1200D9CF53
:105BD000E6FFDACFE6FFE1CFD9FFE2CFDAFF140E1E
:105BE000E12402E3E168E652E16EFA0EDBCF46F013
:105BF000FB0EDBCF47F0120E46C0DBFF130E47C093
:105C0000DBFFF60EDBCFE9FFF70EDBCFEAFFEE6A34
:105C1000ED6AFC0EDBCFE6FFFD0EDBCFE6FF34DCEA
:105C2000E552E552DF6EDF5003E0DF5074EF32F0F3
:105C3000FC0EDBCFE9FFFD0EDBCFEAFF040EE92609
:105C4000000EEA22EF50800B01E0D6D1FC0EDBCF34
:105C5000E9FFFD0EDBCFEAFF040EE926000EEA2283
:105C6000EF50010B03E1070E74EF32F0FC0EDBCFB7
:105C7000E9FFFD0EDBCFEAFF0A0EE926000EEA225D
:105C8000EECF2AF0EECF2BF0EECF2CF0EFCF2DF0B1
:105C9000FC0EDBCFE9FFFD0EDBCFEAFF060EE926A7
:105CA000000EEA22EE502A5C266EEE502B58276E2C
:105CB000EE502C58286EEE502D58296E090E26C035
:105CC000DBFF0A0E27C0DBFF0B0E28C0DBFF0C0E2C
:105CD00029C0DBFFF80EDBCF26F0F90EDBCF27F073
:105CE000286A296AD950090FE96E000EDA20EA6E97
:105CF0002650EE5C2750EE582850EE582950EE58AA
:105D00000CE2090EDBCF46F00A0EDBCF47F0F80EAF
:105D100046C0DBFFF90E47C0DBFFD950F80FE96E34
:105D2000FF0EDA20EA6EEE50ED1001E1DCD3FC0E3E
:105D3000DBCFE9FFFD0EDBCFEAFF060EE926000E02
:105D4000EA22EECF26F0EECF27F0010E2716286AC2
:105D5000296A265027102810291001E0C1D2FC0E14
:105D6000DBCFE9FFFD0EDBCFEAFF060EE926000ED2
:105D7000EA22EECF26F0EECF27F0EECF28F0EFCFDD
:105D800029F0090ED8902932283227322632E80627
:105D9000F9E1FC0EDBCFE9FFFD0EDBCFEAFFEE50B1
:105DA000EFCFEAFFE96E020EE926000EEA22EF04C9
:105DB0002A6E2B6A2C6A2D6AE85026162B5027165D
:105DC0002C5028162D502916110E26C0DBFFDB5053
:105DD00001E0C4D0FC0EDBCFE9FFFD0EDBCFEAFF14
:105DE000060EE926000EEA22EECF26F0EECF27F0CF
:105DF000EECF28F0EFCF29F02650271028102910D9
:105E000017E1FC0EDBCFE9FFFD0EDBCFEAFF0E0E44
:105E1000E926000EEA22010EEECFDBFF020EEECFE6
:105E2000DBFF030EEECFDBFF040EEECFDBFF5ED019
:105E3000FC0EDBCFE9FFFD0EDBCFEAFF200EE926EB
:105E4000000EEA22EE50ED101FE0FC0EDBCFE9FF62
:105E5000FD0EDBCFEAFF060EE926000EEA22EECFAA
:105E6000E6FFEECFE6FFEECFE6FFEFCFE6FFFC0E5C
:105E7000DBCFE6FFFD0EDBCFE6FF53EC14F0266E22
:105E8000060EE15C25E222D0FC0EDBCFE9FFFD0E21
:105E9000DBCFEAFF120EE926000EEA22EECFE6FF84
:105EA000EECFE6FFEECFE6FFEFCFE6FFFC0EDBCF57
:105EB000E9FFFD0EDBCFEAFFEECFE6FFEFCFE6FF17
:105EC000E1EC0AF0266E060EE15C02E2E16AE552C0
:105ED000E16E2650010E44C0DBFF020E45C0DBFF21
:105EE000030E46C0DBFF040E47C0DBFFD950010F95
:105EF000E96E000EDA20EA6E020EEE5C000EEE583D
:105F0000000EEE58000EEE586CE3D950010FE96E0A
:105F1000000EDA20EA6EE868EE180AE1E868EE188A
:105F200007E1E868EE1804E1E868EE1801E139D20B
:105F3000FC0EDBCFE9FFFD0EDBCFEAFF120EE926F8
:105F4000000EEA22010EDBCFEEFF020EDBCFEEFFEA
