:040000000EEF00F00F
:020006000102F5
:1000180072EF02F00000446A000EF66E100EF76EE2
:10002800000EF86E406A416A0900F55027D8F8506A
:100038000108FAE1F750FF08F7E1F650FE08F4E18D
:100048000900F5504062448C0900F5504162448C27
:1000580044BC12D0FE0EF66E030EF76E380EF86E24
:100068000900F5504062448E0900F5504162448E03
:1000780044BE02D000EF08F060EF00F040184118CD
:10008800411A4118406E4150413A411A413241B03B
:10009800D87041B2D87041B4D870416E010ED8B052
:1000A800401A400E4132D8B0401A4134411A413208
:1000B800800ED8B0401A000C83EF05F04A0C0000FF
:1000C80000000000A20D000045726173696E672090
:1000D800454550524F4D0045726173696E67204621
:0500E8006C617368006B
:1000EE00000E246E4492000E2F24D96EDA6A070E8B
:1000FE00DA22DF6A000E0D6E070E0E6E0D500E1018
:10010E00D8A4200E0F6E7CEC06F0000E2F6E2F2A58
:10011E002F041C6E1D6A000E1C24D96E070E1D20A6
:10012E00DA6E3A0EDE18D8A48AD1A9EC05F0316E3B
:10013E0031C532F5040E312603D0A9EC05F0322676
:10014E0031063128D8A4F9D73250D8A4BBD1010E2C
:10015E002F6EA9EC05F0316E000E2516000E261638
:10016E00FF0E2716FF0E2816A9EC05F01C6E1CC5F7
:10017E001DF51E6A1F6A206A1FC520F51EC51FF5D4
:10018E001DC51EF51D6A1D5025121E5026121F502C
:10019E00271220502812A9EC05F01C6E1C502512B7
:1001AE00A9EC05F0306E78D144B409D125C51CF503
:1001BE0026C51DF527C51EF528C51FF5190E05D038
:1001CE00D8901F321E321D321C32E82EF9D71C5029
:1001DE000009D8A4F4D025C51CF526C51DF527C5E4
:1001EE001EF528C51FF5110E05D0D8901F321E32F0
:1001FE001D321C32E82EF9D7FE0E1C14206E000E96
:10020E001D14216E000E1E14226E000E1F14236E7E
:10021E002050211022102310D8A44FD03D50255C21
:10022E003E5026583F502758D8B040D043D0255086
:10023E003D5C26503E5827503F58D8B00FD03D5009
:10024E002DEE00F3D926000EDA22FF0EDF6E010E20
:10025E003D26000E3E22000E3F2219D0A9EC05F0DD
:10026E001C6E3D502DEE00F3D926000EDA221CC571
:10027E00DFF4010E3D26000E3E22000E3F22310617
:10028E004486010E2526000E262227222822FF0E46
:10029E003D141C6E000E3E141D6E000E3F141E6E9D
:1002AE001C501D101E10D8B4AEEC03F03150D8B453
:1002BE000BD1BDD74484050E06D1CBEC05F025C578
:1002CE001CF526C51DF527C51EF528C51FF5110EF3
:1002DE0005D0D8901F321E321D321C32E82EF9D7AF
:1002EE00FF0E1C14206E000E1D14216E000E1E1427
:1002FE00226E000E1F14236E380E201821102210AD
:10030E002310D8A45CD025C50CF526C50DF5BEEC82
:10031E0006F02D0E3EEC06F0315025241C6E000E1C
:10032E0026201D6EFF0E1C240C6EFF0E1D200D6E62
:10033E00BEEC06F00D0E3EEC06F00A0E3EEC06F09C
:10034E00FC0E25C51CF526C51DF527C51EF528C5B1
:10035E001FF51DC51CF51EC51DF51FC51EF51F6A13
:10036E001C14206E000E1D14216E000E1E14226E23
:10037E00000E1F14236E2050211022102310D8B40B
:10038E0018D01BD025C50BF526C50CF527C50DF5C8
:10039E00A9EC05F00E6E04EC05F0010E2526000EFC
:1003AE00262227222822C5EC06F00009D8A4FBD766
:1003BE0031063150D8B488D0E5D7010E84D0020E64
:1003CE0082D0CBEC05F0CCEC06F0FF007DD0020E17
:1003DE003118D8A434D0FF0E2516FF0E2616000EA7
:1003EE002716000E2816A9EC05F01C6E1CC51DF56F
:1003FE001E6A1F6A206A1DC520F51F6A1E6A1D6AC5
:10040E001D5025121E5026121F5027122050281242
:10041E00A9EC05F01C6E1CC51DF51E6A1F6A206A2C
:10042E001EC520F51DC51FF51E6A1D6A1D5025121D
:10043E001E5026121F5027122050281245D0040E8F
:10044E0042D0FF0E25C51CF526C51DF527C51EF588
:10045E0028C51FF51DC51CF51EC51DF51FC51EF5AE
:10046E001F6A1C14206E000E1D14216E000E1E1429
:10047E00226E000E1F14236E20282110221023102E
:10048E00D8A4DDD725500009D8A403D0AAEC04F0D7
:10049E001BD030EC05F018D03050070B1C6E1D6AC7
:1004AE001D50000AD8A48BD71C50000AD8B47CD695
:1004BE00010AD8B486D7050AD8B489D7020AD8B4A7
:1004CE00C0D77DD7030E246E000E2F6E2450400928
:1004DE006DEC06F01200D8C404F5F6C405F5F7C4A9
:1004EE0006F5F8C407F5F5C408F5B4A051D0B490DC
:1004FE00CEA810D0000E2F24D96EDA6A070EDA229B
:10050E00D1C4DFF42F2ACEA63ED04482800E8BECCF
:10051E0006F039D0CEC402F50F0E0216D8A411D0B3
:10052E00060EF66E000EF76E000EF86E0900F5C49C
:10053E0002F50900F5C403F503C502F5036A02507E
:10054E001FD0CE500F0BE806D8A40AD0060EF66EBA
:10055E00000EF76E000EF86E0800F5C4C1F411D04F
:10056E00CE500F0B020AD8A402D0415009D0CE5063
:10057E000F0B030AD8A403D040C5C1F402D04F0E0E
:10058E00C16E000EC96EBF86CFA2FED7C968BF96D8
:10059E00A1BEB1AE04D0B19E3350D8A43306A2B2E0
:1005AE00B2A202D056EC06F0A2B0B2A002D00AEC73
:1005BE0006F008C5F5F407C5F8F406C5F7F405C549
:1005CE00F6F404C5D8F41100000EBE6E080EBF6E10
:1005DE00460EC06E000EC16E000EC26EDF0EC66EEF
:1005EE00370EC76E980EC86EC968030ECA6EC00E5F
:1005FE000401006F000E086F000E106F000E186FD2
:10060E00030E206F1F0E016F070E096F960E116FEE
:10061E001969000E216F000E0201896F000E886F9E
:10062E00000E876F000E866F000E0401026F000E23
:10063E000A6F060E126F000E1A6F000E226FDF0E7B
:10064E00036F0B69C60E136F1B69070E236FC00E67
:10065E00046F000E0C6F000E146F000E1C6F0B0E4D
:10066E00246F170E0201726F140E6B6F200E176F30
:10067E00320E166F130E6A6F310E146F000E0401D8
:10068E00056F000E066F000E076F000E0D6F000E49
:10069E000E6F000E0F6F000E156F000E166F000E10
:1006AE00176F000E256F000E266F000E276F1200BB
:1006BE00000E146E370E156E010E126E000E116EB8
:1006CE00000ED6BE010E136E370E0D180C10D8A4E8
:1006DE000FD016D00CC5D9F40DC5DAF414C5E1F45B
:1006EE0015C5E2F4DFC4E7F40C4A0D2A144A152AA4
:1006FE001106D8A012061128EDE11228D8A4EAD7C7
:10070E000BC545F009C50EF50AC50FF50BC510F55D
:10071E000FC50EF510C50FF5106A0E500001446F8F
:10072E0009C543F04151F80B0509416FD69E0001F2
:10073E003CC542F03B50426F408113B002D0D69E72
:10074E0001D0D68EF80E000141174151120044A679
:10075E0012004496010E3D5E000E3E5A000E3F5AA8
:10076E003F5004E1100E3E5CD8A034D0000E3D1474
:10077E00166EFF0E3E14176EFF0E3F14186E1650B7
:10078E000C6E17500D6E18500E6E0F6AA8EC06F018
:10079E002D0E3EEC06F03D500C6E3E500D6E3F5051
:1007AE000E6E0F6AA8EC06F00D0E3EEC06F00A0E69
:1007BE003EEC06F0448C000E3D14096EFF0E3E1406
:1007CE000A6EFF0E3F140B6E000E0C6E370E0D6E82
:1007DE005FEC03F0010E3D26000E3E22000E3F227E
:1007EE001200B5EC06F07CEC04F040EC04F0000EC8
:1007FE00256E000E266E000E276E000E286E000E61
:10080E002F6ED68CD68EBF96400E6DEC06F0AA0ECD
:10081E000A6E550E096ED6EC06F003D044B277EC94
:10082E0000F044BCFBD73350D8A4F8D7FE0E0B6EA5
:10083E00030E0C6E380E0D6E40C50EF504EC05F071
:10084E00C5EC06F00009D8A4FBD7FF0E0B6E030E05
:10085E000C6E380E0D6E41500E6E04EC05F0C5ECAC
:10086E0006F00009D8A4FBD7CCEC06F0FF0060EF31
:10087E0000F0C89CC88ECA90CA8203016693669126
:10088E00000E0201A16F000EA26F000EA36F000EEC
:10089E00A46F000EA56F000EA66F000EA76F000EC0
:1008AE00A86F000EA96F000EAA6FB00EAB6F800E70
:1008BE00AC6F080EAD6F8A0EAE6F000EAF6F2E0EC0
:1008CE00B06F000EB16F800EB26F000EB36FA280CC
:1008DE00000E3A6E000E396E000E386E000E376E38
:1008EE00000E366E000E356E1200C69AC78AC78885
:1008FE00C896C888C89ABE8AC890C0900F0EC612F5
:10090E00C796BF96C688C782D69203016891B490E7
:10091E00A480C784C750C79EC750C79CBF50BF8E08
:10092E00BF50BF8C200E336E659F020E0001846F88
:10093E00400E856F000E866F020E896F000E8C6F53
:10094E00848FD68A1200DF0E0D6E000E0E6E000E14
:10095E000F6E7CEC06F0448C000E3D6E100E3E6E5B
:10096E00000E3F6EFE0E3D5CFF0E3E58010E3F58D0
:10097E00D8B00FD03DC509F53EC50AF53FC50BF5FC
:10098E005AEC05F0000E3D26010E3E22000E3F22CF
:10099E00E9D7000E3D6E000E3E6E000E3F6E120049
:1009AE0018D00AC5F6F40BC5F7F40CC5F8F4F8BA6E
:1009BE0003D00800F55005D0F6C4E9F4F7C4EAF404
:1009CE00EF503EEC06F0010E0A26000E0B22000E32
:1009DE000C220AC5F6F40BC5F7F40CC5F8F4F8BAF8
:1009EE0003D00800F55005D0F6C4E9F4F7C4EAF4D4
:1009FE00EF500009D8B41200D4D7000ED6BE010EA7
:100A0E00126E0DC545F00BC50FF50CC510F50DC5D5
:100A1E0011F510C50FF511C510F5116A0F50000133
:100A2E00446F0BC543F00EC546F04151F80B030958
:100A3E00416FD69E00013CC542F03B50426F408153
:100A4E0012B002D0D69E01D0D68EF80E00014117FC
:100A5E001200D00E0D6E000E0E6E000E0F6E7CECA0
:100A6E0006F0000E176E000E166E16C513F517C59E
:100A7E0014F5156A000E13240B6E000E14200C6E66
:100A8E00380E15200D6EFF0E0E6E04EC05F0C5EC43
:100A9E0006F00009D8A4FBD7164A172A040E175CD5
:100AAE00D8B01200E2D7000ED6BE010E0F6E0BC5E7
:100ABE0045F009C50CF50AC50DF50BC50EF50DC5AE
:100ACE000CF50EC50DF50E6A0C500001446F415128
:100ADE00F80B0609416FD69E00013CC542F03B5013
:100AEE00426F40810FB002D0D69E01D0D68EF80E46
:100AFE00000141174151120001EE00F310EE00F11A
:100B0E00EE6AE550E150FCE1E250FAE101EE00F24E
:100B1E00800EEE6AE806FDE101EE60F1800EEE6AEF
:100B2E00E806FDE101EE25F11B0EEE6AE806FDE199
:100B3E000401080E5D6F000E5E6F000E5F6F000108
:100B4E00F8EF03F0000E2F24D96EDA6A070EDA22C0
:100B5E00DF50D00F096E2F2A090E096402D0070E3E
:100B6E00095E000E2F24D96EDA6A070EDA22DF50E4
:100B7E00D00F0A6E2F2A090E0A6402D0070E0A5EE3
:100B8E000938F00B0A10120044A612000ED03D5088
:100B9E002DEE00F3D926000EDA22FF0EDF6E010EC7
:100BAE003D26000E3E22000E3F22FF0E3D14196E12
:100BBE00000E3E141A6E000E3F141B6E19501A10C2
:100BCE001B10D8A4E4D7AEEC03F012000A6E0A385C
:100BDE000F0B0F0B0B6E090E0B6402D0370E01D0EC
:100BEE00300E0B260B503EEC06F00A500F0B0B6E20
:100BFE00090E0B6402D0370E01D0300E0B260B50AF
:100C0E003EEC06F012000201B251B2B714D0800EC3
:100C1E00376011D0000E3624D96EDA6A060EDA224B
:100C2E00A1C2DFF4362A800E3618D8A402D0000EE8
:100C3E00366E372A1200A1C234F51200000E0301DF
:100C4E00196F000E186F580E1B6F19510B6E18513D
:100C5E00296E0BC52AF5000E096E000E0A6ED1EC38
:100C6E0006F0B19EA18E900E03011A6F1200096E4E
:100C7E00800E3A60FDD7D69C600E3924D96EDA6AA2
:100C8E00050EDA2209C5DFF4392A800E3918D8A4E8
:100C9E0002D0000E396E3A2AA282D68C12003A5039
:100CAE00D8A402D0A2921200600E3824D96EDA6A4D
:100CBE00050EDA22DF500201A36F382A800E381893
:100CCE00D8A402D0000E386E3A061200096E030E3A
:100CDE000001866F010E826F09C581F0B1A0FED7AB
:100CEE00C08000018051C09012000DC50AF50EC5DE
:100CFE000BF50FC50CF5D7EC04F00D0E3EEC06F01F
:100D0E000A0E3EEC06F01200016E030E0001866F15
:100D1E00010E826F01C581F0B1A0FED7C080000127
:100D2E008051C0901200600E0001AD6F000EAF6FCB
:100D3E00000EB36F080EB16F000EB06F000EAC6FE9
:100D4E0012000F50EDEC05F00E50EDEC05F00D50CD
:100D5E00EDEC05F00C50EDEC05F012009AEC06F0FF
:100D6E00EBEC02F0DBEC06F025EC06F012000D5079
:100D7E00EDEC05F00C50EDEC05F01200000140A179
:100D8E0002D0010E1200000E1200000E3B6E000E7D
:100D9E003C6E120009C542F50AC543F512000A5011
:100DAE003B6E09C53CF51200DEEC06F012000001A8
:040DBE00419F12003F
:020000040030CA
:10000000AAEFF7FF9FFFFFFFFFFFFFFFFFFFFFFFCD
:10001000FFFFFFFFFFFFFFFFFFFFFFFFFFFFFFFFF0
:03002000FFFFFFE0
:00000001FF
