:040000000EEF00F00F
:020006000102F5
:1000180064EF02F00000386A000EF66E100EF76EFC
:10002800000EF86E346A356A0900F55027D8F85082
:100038000108FAE1F750FF08F7E1F650FE08F4E18D
:100048000900F5503462388C0900F5503562388C57
:1000580038BC12D0FE0EF66E030EF76E380EF86E30
:100068000900F5503462388E0900F5503562388E33
:1000780038BE02D000EF08F060EF00F034183518F1
:10008800351A3518346E3550353A351A353235B09B
:10009800D87035B2D87035B4D870356E010ED8B076
:1000A800341A400E3532D8B0341A3534351A353250
:1000B800800ED8B0341A000CADEF04F01E0B00000F
:1000C800000000005A0C000045726173696E6720D9
:1000D800454550524F4D0045726173696E67204621
:0500E8006C617368006B
:1000EE00000E1E6E3892000E2524D96EDA6A070EA7
:1000FE00DA22DF6A000E0D6E070E0E6E0D500E1018
:10010E00D8A4200E0F6EE6EC05F0000E256E252A03
:10011E002504166E176A000E1624D96E070E1720C8
:10012E00DA6E3A0EDE18D8A47CD1F6EC04F0276E07
:10013E0027C528F5040E272603D0F6EC04F0282652
:10014E0027062728D8A4F9D72850D8A4ADD1010E58
:10015E00256EF6EC04F0276E000E1F16000E20160C
:10016E00FF0E2116FF0E2216F6EC04F0166E16C5C3
:10017E0017F5186A196A1A6A19C51AF518C519F504
:10018E0017C518F5176A17501F121850201219505C
:10019E0021121A502212F6EC04F0166E16501F128F
:1001AE00F6EC04F0266E6AD138B4FDD01FC516F5F4
:1001BE0020C517F521C518F522C519F5190E05D05C
:1001CE00D8901932183217321632E82EF9D7165047
:1001DE000009D8A4E8D01FC516F520C517F521C50E
:1001EE0018F522C519F5110E05D0D890193218320E
:1001FE0017321632E82EF9D7FE0E16141A6E000EAE
:10020E0017141B6E000E18141C6E000E19141D6EA2
:10021E001A501B101C101D10D8A44FD031501F5C4B
:10022E003250205833502158D8B040D043D01F50B0
:10023E00315C2050325821503358D8B00FD0315045
:10024E002DEE00F3D926000EDA22FF0EDF6E010E20
:10025E003126000E3222000E332219D0F6EC04F0B5
:10026E00166E31502DEE00F3D926000EDA2216C589
:10027E00DFF4010E3126000E3222000E3322270645
:10028E003886010E1F26000E202221222222FF0E6A
:10029E003114166E000E3214176E000E3314186ED3
:1002AE00165017101810D8B451EC03F02750D8B4CC
:1002BE00FDD0BDD73884050EF8D018EC05F01FC55B
:1002CE0016F520C517F521C518F522C519F5110E1D
:1002DE0005D0D8901932183217321632E82EF9D7C7
:1002EE00FF0E16141A6E000E17141B6E000E181445
:1002FE001C6E000E19141D6E380E1A181B101C10D1
:10030E001D10D8A450D01FC50CF520C50DF51FEC3F
:10031E0006F02D0EA8EC05F027501F24166E000EC9
:10032E002020176EFF0E16240C6EFF0E17200D6E7A
:10033E001FEC06F00D0EA8EC05F00A0EA8EC05F069
:10034E00FC0E1FC516F520C517F521C518F522C5DB
:10035E0019F517C516F518C517F519C518F5196A43
:10036E0016141A6E000E17141B6E000E18141C6E47
:10037E00000E19141D6E1A501B101C101D10D8B42F
:10038E000CD00FD0F6EC04F03AEC05F0010E1F265F
:10039E00000E20222122222227062750D8B486D0F2
:1003AE00F1D7010E82D0020E80D018EC05F0FF00BE
:1003BE007DD0020E2718D8A434D0FF0E1F16FF0EC4
:1003CE002016000E2116000E2216F6EC04F0166E04
:1003DE0016C517F5186A196A1A6A17C51AF5196A31
:1003EE00186A176A17501F1218502012195021122E
:1003FE001A502212F6EC04F0166E16C517F5186A8E
:10040E00196A1A6A18C51AF517C519F5186A176AFE
:10041E0017501F1218502012195021121A50221262
:10042E0045D0040E42D0FF0E1FC516F520C517F598
:10043E0021C518F522C519F517C516F518C517F5F6
:10044E0019C518F5196A16141A6E000E17141B6EBC
:10045E00000E18141C6E000E19141D6E1A281B1097
:10046E001C101D10D8A4DDD71F500009D8A403D02E
:10047E005EEC04F01BD086EC04F018D02650070B6F
:10048E00166E176A1750000AD8A48DD71650000A98
:10049E00D8B48AD6010AD8B488D7050AD8B489D771
:1004AE00020AD8B4C0D77FD7030E1E6E000E256E7B
:1004BE001E504009D7EC05F01200D8C404F5F6C45E
:1004CE0005F5F7C406F5F8C407F5F5C408F5B4A0AC
:1004DE0051D0B490CEA810D0000E2524D96EDA6A71
:1004EE00070EDA22D1C4DFF4252ACEA63ED03882FA
:1004FE00800EF5EC05F039D0CEC402F50F0E0216C3
:10050E00D8A411D0060EF66E000EF76E000EF86E21
:10051E000900F5C402F50900F5C403F503C502F59B
:10052E00036A02501FD0CE500F0BE806D8A40AD093
:10053E00060EF66E000EF76E000EF86E0800F5C48D
:10054E00C1F411D0CE500F0B020AD8A402D03550F0
:10055E0009D0CE500F0B030AD8A403D034C5C1F472
:10056E0002D04F0EC16E000EC96EBF86CFA2FED74F
:10057E00C968BF96A1BEB1AE04D0B19E2950D8A411
:10058E002906A2B2B2A202D0C0EC05F0A2B0B2A06F
:10059E0002D074EC05F008C5F5F407C5F8F406C5ED
:1005AE00F7F405C5F6F404C5D8F41100000EBE6EBE
:1005BE00080EBF6E460EC06E000EC16E000EC26EED
:1005CE00DF0EC66E370EC76E980EC86EC968030E64
:1005DE00CA6EC00E0401006F000E086F000E106F81
:1005EE00000E186F030E206F1F0E016F070E096F9E
:1005FE00960E116F1969000E216F000E0201896FA0
:10060E00000E886F000E876F000E866F000E0401BD
:10061E00026F000E0A6F060E126F000E1A6F000E9A
:10062E00226FDF0E036F0B69C60E136F1B69070E69
:10063E00236FC00E046F000E0C6F000E146F000EB1
:10064E001C6F0B0E246F170E0201726F140E6B6F60
:10065E00200E176F320E166F130E6A6F310E146F57
:10066E00000E0401056F000E066F000E076F000EE0
:10067E000D6F000E0E6F000E0F6F000E156F000E39
:10068E00166F000E176F000E256F000E266F000EF0
:10069E00276F120038A612003896010E315E000E3A
:1006AE00325A000E335A335004E1100E325CD8A089
:1006BE0028D0000E3114106EFF0E3214116EFF0E84
:1006CE003314126E10500C6E11500D6E12500E6EC1
:1006DE000F6A12EC06F02D0EA8EC05F031500C6EE0
:1006EE0032500D6E33500E6E0F6A12EC06F00D0E78
:1006FE00A8EC05F00A0EA8EC05F0388C050ED3EC2C
:10070E0004F0010E3126000E3222000E33221200AA
:10071E00C89CC88ECA90CA82030166936691000E69
:10072E000201A16F000EA26F000EA36F000EA46F48
:10073E00000EA56F000EA66F000EA76F000EA86F1D
:10074E00000EA96F000EAA6FB00EAB6F800EAC6FCD
:10075E00080EAD6F8A0EAE6F000EAF6F2E0EB06F1D
:10076E00000EB16F800EB26F000EB36FA280000E3E
:10077E00306E000E2F6E000E2E6E000E2D6E000EC1
:10078E002C6E000E2B6E120026EC06F001EC04F01F
:10079E008FEC03F0000E1F6E000E206E000E216E09
:1007AE00000E226E000E256ED68CD68EBF96400E93
:1007BE00D7EC05F003D038B277EC00F038BCFBD79D
:1007CE002950D8A4F8D7FE0E1F6E030E206E380ED9
:1007DE00216E000E226E34503AEC05F0010E1F26EB
:1007EE00000E20222122222235503AEC05F0FF0085
:1007FE0060EF00F00001419FC69AC78AC788C8966D
:10080E00C888C89ABE8AC890C0900F0EC612C796E6
:10081E00BF96C688C782D69203016891B490A48011
:10082E00C784C750C79EC750C79CBF50BF8EBF500E
:10083E00BF8C200E296E659F020E0001846F400E44
:10084E00856F000E866F020E896F000E8C6F848F7F
:10085E00D68A120018D00AC5F6F40BC5F7F40CC5EB
:10086E00F8F4F8BA03D00800F55005D0F6C4E9F450
:10087E00F7C4EAF4EF50A8EC05F0010E0A26000EBC
:10088E000B22000E0C220AC5F6F40BC5F7F40CC5AC
:10089E00F8F4F8BA03D00800F55005D0F6C4E9F420
:1008AE00F7C4EAF4EF500009D8B41200D4D7DF0E23
:1008BE000D6E000E0E6E000E0F6EE6EC05F0388C0F
:1008CE00000E316E100E326E000E336EFE0E315C67
:1008DE00FF0E3258010E3358D8B00AD0060ED3ECA4
:1008EE0004F0000E3126010E3222000E3322EED716
:1008FE00000E316E000E326E000E336E1200D00EF0
:10090E000D6E000E0E6E000E0F6EE6EC05F0000E74
:10091E001F6E000E206E380E216E000E226E000E1F
:10092E00276E040E266E0ED0FF0E3AEC05F0010E69
:10093E001F26000E20222122222227062750D8A46D
:10094E00F3D726062650D8B41200EED701EE00F3E8
:10095E0010EE00F1EE6AE550E150FCE1E250FAE1F2
:10096E0001EE00F2800EEE6AE806FDE101EE60F1A6
:10097E00800EEE6AE806FDE101EE1FF1150EEE6A3D
:10098E00E806FDE10401080E5D6F000E5E6F000EBD
:10099E005F6F0001CBEF03F00C6E33C545F031C530
:1009AE0009F532C50AF533C50BF50AC509F50BC5B0
:1009BE000AF50B6A09500001446F41510C18F80BEF
:1009CE000C18416FD69E0001550E0001426FAA0E03
:1009DE00426F4081D68EF80E000141171200000EB4
:1009EE002524D96EDA6A070EDA22DF50D00F096E8F
:1009FE00252A090E096402D0070E095E000E252471
:100A0E00D96EDA6A070EDA22DF50D00F0A6E252A67
:100A1E00090E0A6402D0070E0A5E0938F00B0A109E
:100A2E00120038A612000ED031502DEE00F3D9264A
:100A3E00000EDA22FF0EDF6E010E3126000E32227C
:100A4E00000E3322FF0E3114136E000E3214146E8C
:100A5E00000E3314156E135014101510D8A4E4D7CD
:100A6E0051EC03F01200096E21C545F020C544F08B
:100A7E001FC543F009C546F000014151F80B0309AB
:100A8E00416FD69E0001550E0001426FAA0E426FB5
:100A9E004081D68EF80E0001411740A11200FDD7FD
:100AAE000A6E0A380F0B0F0B0B6E090E0B6402D079
:100ABE00370E01D0300E0B260B50A8EC05F00A5065
:100ACE000F0B0B6E090E0B6402D0370E01D0300ED9
:100ADE000B260B50A8EC05F012000201B251B2B772
:100AEE0014D0800E2D6011D0000E2C24D96EDA6A2F
:100AFE00060EDA22A1C2DFF42C2A800E2C18D8A4FE
:100B0E0002D0000E2C6E2D2A1200A1C22AF5120060
:100B1E00000E0301196F000E186F580E1B6F19513E
:100B2E000B6E1851236E0BC524F5000E096E000EC8
:100B3E000A6E2DEC06F0B19EA18E900E03011A6F77
:100B4E001200096E800E3060FDD7D69C600E2F24E9
:100B5E00D96EDA6A050EDA2209C5DFF42F2A800E65
:100B6E002F18D8A402D0000E2F6E302AA282D68C57
:100B7E0012003050D8A402D0A2921200600E2E2481
:100B8E00D96EDA6A050EDA22DF500201A36F2E2A21
:100B9E00800E2E18D8A402D0000E2E6E3006120033
:100BAE00096E030E0001866F010E826F09C581F07A
:100BBE00B1A0FED7C08000018051C09012000DC5BB
:100BCE000AF50EC50BF50FC50CF531EC04F00D0E44
:100BDE00A8EC05F00A0EA8EC05F01200016E030E4B
:100BEE000001866F010E826F01C581F0B1A0FED7A4
:100BFE00C08000018051C0901200600E0001AD6FE8
:100C0E00000EAF6F000EB36F080EB16F000EB06F17
:100C1E00000EAC6F12000F5057EC05F00E5057EC53
:100C2E0005F00D5057EC05F00C5057EC05F0120086
:100C3E000D5057EC05F00C5057EC05F0120004EC7B
:100C4E0006F0DDEC02F08FEC05F0120009C536F56A
:060C5E000AC537F5120083
:020000040030CA
:10000000AAEFF7FF9FFFFFFFFFFFFFFFFFFFFFFFCD
:10001000FFFFFFFFFFFFFFFFFFFFFFFFFFFFFFFFF0
:03002000FFFFFFE0
:00000001FF
