:040000000EEF08F007
:041000000EEF08F0F7
:04100800F4EF97F07A
:081018002EEFD6F000EFCFF03F
:10FAFA0000809A45418E418F804545454949498E46
:10FB0A008F9092924F994F555559999A9B9C9D9EC9
:10FB1A009F41494F55A5A5A6A7A8A9AAABACADAECA
:10FB2A00AFB0B1B2B3B4B5B6B7B8B9BABBBCBDBE63
:10FB3A00BFC0C1C2C3C4C5C6C7C8C9CACBCCCDCE53
:10FB4A00CFD0D1D2D3D4D5D6D7D8D9DADBDCDDDE43
:10FB5A00DFE0E1E2E3E4E5E6E7E8E9EAEBECEDEE33
:10FB6A00EFF0F1F2F3F4F5F6F7F8F9FAFBFCFDFE23
:10FB7A00FF74A40120AE0172AA01948E0136A50178
:10FB8A00A6A301F4AD0190A80196A501429C010E1D
:10FB9A00A401449901527A0138B101D89C01AC9B65
:10FBAA0001C4AD01FAB101000000000000A8B101D2
:10FBBA0000000001030507090E10121416181C1E76
:10FBCA0061001A03E0001703F8000703FF000100B1
:10FBDA0078010001300132010601390110014A01A0
:10FBEA002E017901060180014D0043028101820143
:10FBFA0082018401840186018701870189018A01C2
:10FC0A008B018B018D018E018F0190019101910170
:10FC1A0093019401F60196019701980198013D021A
:10FC2A009B019C019D0120029F01A001A001A2014C
:10FC3A00A201A401A401A601A701A701A901AA0181
:10FC4A00AB01AC01AC01AE01AF01AF01B101B20130
:10FC5A00B301B301B501B501B701B801B801BA01E1
:10FC6A00BB01BC01BC01BE01F701C001C101C20157
:10FC7A00C301C401C501C401C701C801C701CA0142
:10FC8A00CB01CA01CD011001DD0101008E01DE01A7
:10FC9A001201F3010300F101F401F401F801280152
:10FCAA00220212013A020900652C3B023B023D0284
:10FCBA00662C3F0240024102410246020A015302F7
:10FCCA00400081018601550289018A0158028F018B
:10FCDA005A0290015C025D025E025F0293016102B8
:10FCEA006202940164026502660267029701960144
:10FCFA006A02622C6C026D026E029C017002710231
:10FD0A009D01730274029F017602770278027902DA
:10FD1A007A027B027C02642C7E027F02A6018102A7
:10FD2A008202A9018402850286028702AE01440288
:10FD3A00B101B20145028D028E028F029002910238
:10FD4A00B7017B030300FD03FE03FF03AC030400BA
:10FD5A008603880389038A03B1031103C2030200DD
:10FD6A00A303A303C4030803CC0303008C038E0379
:10FD7A008F03D8031801F2030A00F903F303F4030B
:10FD8A00F503F603F703F703F903FA03FA0330045A
:10FD9A00200350041007600422018A043601C104BA
:10FDAA000E01CF040100C004D004440161052604F9
:10FDBA000000C700FC00E900E200E400E000E50002
:10FDCA00E700EA00EB00E800EF00EE00EC00C400F8
:10FDDA00C500C900E600C600F400F600F200FB0008
:10FDEA00F900FF00D600DC00A200A300A500A720AE
:10FDFA009201E100ED00F300FA00F100D100AA003F
:10FE0A00BA00BF001023AC00BD00BC00A100AB00CB
:10FE1A00BB0091259225932502252425612562257B
:10FE2A00562555256325512557255D255C255B25D6
:10FE3A001025142534252C251C2500253C255E2556
:10FE4A005F255A25542569256625602550256C2588
:10FE5A006725682564256525592558255225532582
:10FE6A006B256A2518250C25882584258C2590253F
:10FE7A008025B103DF009303C003A303C303B500C6
:10FE8A00C403A6039803A903B4031E22C603B50339
:10FE9A0029226122B1006522642220232123F7004E
:10FEAA004822B0001922B7001A227F20B200A025EA
:10FEBA00A0007D1D0100632C001E9601A01E5A01A0
:10FECA00001F0806101F0606201F0806301F080616
:10FEDA00401F0606511F0700591F521F5B1F541F60
:10FEEA005D1F561F5F1F601F0806701F0E00BA1F96
:10FEFA00BB1FC81FC91FCA1FCB1FDA1FDB1FF81F72
:10FF0A00F91FEA1FEB1FFA1FFB1F801F0806901F2D
:10FF1A000806A01F0806B01F0400B81FB91FB21FA9
:10FF2A00BC1FCC1F0100C31FD01F0206E01F020620
:10FF3A00E51F0100EC1FF31F0100FC1F4E21010009
:10FF4A00322170211002842101008321D0241A0554
:10FF5A00302C2F04602C0201672C0601752C02013B
:10FF6A00802C6401002D260841FF1A03000043611A
:10FF7A00726420696E697469616C697A65642100CA
:10FF8A004361726420696E6974206661696C656494
:10FF9A002E004361726420696E7365727465642110
:10FFAA0000447269766573206D6F756E74656400BE
:10FFBA00436172642072656D6F7665642100464103
:10FFCA0054206D6F756E7465640065747273686130
:10FFDA007264004641543332202020002A3A3C3EC3
:10FFEA007C223F7F002F68617264342D002B2C3BEA
:05FFFA003D5B5D00000D
:020000040001F9
:10000000A4C507F5A5C508F5E10E096E050E0A6E33
:10001000E7ECC8F00501DC6FDC51D8A408D020EE75
:100020000FF0A451D926A551DA22DF50DC6FDC5144
:10003000D8B402D0DC51120020EE22F0A451D9260F
:10004000A551DA22DE50DE10D8B407D2A62906E187
:10005000A72904E1A82902E1A929D8A415D120EEF5
:1000600022F0A451D926A551DA22DEC4DAF5DDC486
:10007000DBF5DAC5D9F4DBC5DAF4DEC4C6F5DEC4D7
:10008000C7F5DEC4C8F5DEC4C9F5040EDA27000ED4
:10009000DB23020ECE6F000ECF6F000ED06F000E6E
:1000A000D16F20EE06F0A451D926A551DA22DEC484
:1000B000E3F5DEC4E4F5DEC4E5F5DEC4E6F5E351C0
:1000C000E411E511E611D8B4B3D0E3C5BEF5E4C53B
:1000D000BFF5E5C5C0F5E6C5C1F5000EC26F000E5F
:1000E000C36F000EC46F000EC56F020ECE27000E48
:1000F000CF23D023D123E3C5BAF5E4C5BBF5E5C5CD
:10010000BCF5E6C5BDF5010EC227000EC323C4230E
:10011000C523A4C566F5A5C567F5E3C568F5E4C5BF
:1001200069F5E5C56AF5E6C56BF542ECA5F066C56F
:10013000E3F567C5E4F568C5E5F569C5E6F50501CC
:10014000E651E511E4110EE1020EE35DD8B00AD0EC
:1001500020EE0FF0A451D926A551DA22020EDF6E4F
:10016000020E1200E32911E1E4290FE1E5290DE176
:10017000E629D8A40AD020EE0FF0A451D926A55123
:10018000DA22010EDF6E010E1200010EBA25AA6FEF
:10019000000EBB21AB6F000EBC21AC6F000EBD2169
:1001A000AD6FE351AA190AE1E451AB1907E1E5513A
:1001B000AC1904E1E651AD19D8B49DD7CE51C65D56
:1001C000CF51C759D051C859D151C959D8A020D001
:1001D000DAC5D9F4DBC5DAF4C2C5DEF4C3C5DEF492
:1001E000C4C5DEF4C5C5DEF4040EDA27000EDB2339
:1001F000DAC5D9F4DBC5DAF4BEC5DEF4BFC5DEF47A
:10020000C0C5DEF4C1C5DEF4040EDA27000EDB2320
:1002100020EE16F0E151D926E251DA22DE50E35DFC
:10022000DE50E459DE50E559DE50E659D8A04DD7EE
:1002300020EE22F0A451D926A551DA22DEC4AAF577
:10024000DDC4ABF5AAC5D9F4ABC5DAF4CEC5DEF48E
:10025000CFC5DEF4D0C5DEF4D1C5DEF4CE51C65D27
:10026000CF51C759D051C859D151C959D8A009D077
:10027000DAC5D9F4DBC5DAF4DE6ADE6ADE6ADD6A85
:10028000D9D6110EDC6FD6D620EE0AF0A451D926AD
:10029000A551DA22A651DE5CA751DE58A851DE58DE
:1002A000A951DE58D8B00ED020EE0AF0A451D926BC
:1002B000A551DA22DEC4A6F5DEC4A7F5DEC4A8F592
:1002C000DEC4A9F520EE10F0A451D926A551DA22FA
:1002D000A6C5DEF4A7C5DEF4A8C5DEF4A9C5DEF424
:1002E000A651A711A811A911D8B4A4D6A4C513F575
:1002F000A5C514F5FF0EA625156EFF0EA721166ED7
:10030000FF0EA821176EFF0EA921186E17ECC1F081
:10031000050120EE14F0A451D926A551DA2213C507
:10032000DEF414C5DEF415C5DEF416C5DEF4E1C551
:1003300012F5E2C513F520EE14F0A451D926A5510B
:10034000DA22DEC414F5DEC415F5DEC416F5DEC40B
:1003500017F587ECC8F012C5D2F513C5D3F514C54F
:10036000D4F515C5D5F50501D251D311D411D51148
:10037000D8B4EED620EE0AF0E151D926E251DA22C5
:10038000DEC4AAF5DDC4ABF5FF0EAA25AC6FFF0EE7
:10039000AB21AD6FFF0EA625AE6FFF0EA721AF6F8D
:1003A000FF0EA821B06FFF0EA921B16F0A0E05D074
:1003B000D890B133B033AF33AE33E82EF9D7AC5168
:1003C000AE15B26FAD51AF15B36F000EB015B46F6F
:1003D000000EB115B56FB251D227B351D323B4512A
:1003E000D423B551D52320EE10F0A451D926A55120
:1003F000DA22FF0EDE14AA6F010EDE14AB6F000EC0
:10040000DE14AC6F000EDE14AD6FAA51AB11AC114F
:10041000AD11D8B40FD620EE18F0A451D926A551AD
:10042000DA22D251DE180AE1D351DE1807E1D451A5
:10043000DE1804E1D551DE18D8B4FCD520EE18F052
:10044000A451D926A551DA22D2C5DEF4D3C5DEF4F3
:10045000D4C5DEF4D5C5DEF4EDD520EE0AF0A45106
:10046000D926A551DA22A651DE5CA751DE58A85143
:10047000DE58A951DE58D8B016D020EE0EF0A451A7
:10048000D926A551DA22DFB20ED020EE0AF0A4510F
:10049000D926A551DA22DEC4A6F5DEC4A7F5DEC44E
:1004A000A8F5DEC4A9F520EE10F0A451D926A55177
:1004B000DA22DEC4CAF5DEC4CBF5DEC4CCF5DEC478
:1004C000CDF5000ED66F000ED76F000ED86F000E60
:1004D000D96F20EE10F0A451D926A551DA22D6C545
:1004E000DEF4D7C5DEF4D8C5DEF4D9C5DEF4A651F6
:1004F000A711A811A911D8B404D220EE0AF0E15135
:10050000D926E251DA22DEC4AAF5DDC4ABF5AA5140
:10051000AC6FAB51AD6FAE6BAF6B090ED890AC3713
:10052000AD37AE37AF37E82EF9D7ACC5DDF5ADC581
:10053000DEF5AEC5DFF5AFC5E0F5CA51CB11CC1184
:10054000CD11D8B497D0FF0EA625066EFF0EA721B9
:10055000076EFF0EA821086EFF0EA921096EDDC5EA
:100560000AF5DEC50BF5DFC50CF5E0C50DF58CEC25
:10057000CFF006C5AAF507C5ABF508C5ACF509C5AA
:10058000ADF5FF0E0501CA25066EFF0ECB21076EE5
:10059000FF0ECC21086EFF0ECD21096EDDC50AF5D8
:1005A000DEC50BF5DFC50CF5E0C50DF58CECCFF025
:1005B00006500501AA5D0750AB590850AC590950C7
:1005C000AD59D8A057D0FF0EDD25AA6FFF0EDE2152
:1005D000AB6FFF0EDF21AC6FFF0EE021AD6FAA1DE8
:1005E000AE6FAB1DAF6FAC1DB06FAD1DB16FFF0E29
:1005F000CA25B26FFF0ECB21B36FFF0ECC21B46FB3
:10060000FF0ECD21B56FAE51B215B66FAF51B31518
:10061000B76FB051B415B86FB151B515B96F20EEC1
:1006200010F0A451D926A551DA22B6C5DEF4B7C51B
:10063000DEF4B8C5DEF4B9C5DEF420EE10F0A45146
:10064000D926A551DA22DE50A65FDE50A75BDE5028
:10065000A85BDD50A95B20EE14F0A451D926A5516A
:10066000DA22DEC4E7F5DEC4E8F5DEC4E9F5DEC46F
:10067000EAF556D020EE06F0A451D926A551DA228B
:10068000DEC4E7F5DEC4E8F5DEC4E9F5DEC4EAF56C
:10069000E751E811E911EA11D8A434D0A4C587F5CF
:1006A000A5C588F5000E896F000E8A6F000E8B6F4E
:1006B000000E8C6F1DEC9FF087C5E7F588C5E8F547
:1006C00089C5E9F58AC5EAF50501E705E811E911EB
:1006D000EA11D8B43DD5E72907E1E82905E1E92980
:1006E00003E1EA29D8B447D520EE06F0A451D92673
:1006F000A551DA22E7C5DEF4E8C5DEF4E9C5DEF48B
:10070000EAC5DEF420EE14F0A451D926A551DA2270
:10071000E7C5DEF4E8C5DEF4E9C5DEF4EAC5DEF4DB
:10072000E751E811E911EA11D8A48BD0EAD0DD51E4
:10073000A65FDE51A75BDF51A85BE051A95B20EE0D
:1007400010F0A451D926A551DA22DD51DE26DE5162
:10075000DE22DF51DE22E051DE2220EE0EF0A45137
:10076000D926A551DA22DFA226D0A4C587F5A5C5D2
:1007700088F5E7C589F5E8C58AF5E9C58BF5EAC5C9
:100780008CF51DEC9FF087C5E7F588C5E8F589C5B0
:10079000E9F58AC5EAF50501E751E811E911EA1121
:1007A000D8A41FD0000EA66F000EA76F000EA86F72
:1007B000000EA96F50D0A4C566F5A5C567F5E7C5BD
:1007C00068F5E8C569F5E9C56AF5EAC56BF542EC77
:1007D000A5F066C5E7F567C5E8F568C5E9F569C53B
:1007E000EAF50501E72907E1E82905E1E92903E13F
:1007F000EA29D8B4C0D4EA51E911E81104E1020EA3
:10080000E75DD8A0A5D420EE16F0E151D926E2513B
:10081000DA22DE50E75DDE50E859DE50E959DE505D
:10082000EA59D8B095D420EE14F0A451D926A55198
:10083000DA22E7C5DEF4E8C5DEF4E9C5DEF4EAC590
:10084000DEF4A651DD5DA751DE59A851DF59A9514B
:10085000E059D8A06CD720EE10F0A451D926A551AC
:10086000DA22A651DE26A751DE22A851DE22A951A6
:10087000DE22FF0EA615AA6F010EA715AB6F000EA4
:10088000A815AC6F000EA915AD6FAA51AB11AC1134
:10089000AD11D8B436D0E1C512F5E2C513F5E7C500
:1008A00014F5E8C515F5E9C516F5EAC517F587ECA1
:1008B000C8F012C5D6F513C5D7F514C5D8F515C5BA
:1008C000D9F50501D651D711D811D911D8B440D4D2
:1008D000A6C5AAF5A7C5ABF5A8C5ACF5A9C5ADF5E4
:1008E0000A0E05D0D890AD33AC33AB33AA33E82E23
:1008F000F9D7AA51D627AB51D723AC51D823AD5144
:10090000D92320EE10F0A451D926A551DA2210EEF9
:100910000AF0A451E126A551E222DE50E65CDE5049
:10092000E658DE50E658DE50E658D8B01CD020EE2F
:1009300010F0A451D926A551DA2210EE0AF0A451E4
:10094000E126A551E222DEC4E6F4DEC4E6F4DEC40C
:10095000E6F4DEC4E6F420EE0EF0A451D926A5514B
:10096000DA22000EDB8C20EE10F0A451D926A5511E
:10097000DA22FF0EDE14AA6F010EDE14AB6F000E3A
:10098000DE14AC6F000EDE14AD6FAA51AB11AC11CA
:10099000AD11D8B41AEF80F020EE18F0A451D9268A
:1009A000A551DA22D651DE180BE1D751DE1808E145
:1009B000D851DE1805E1D951DE18D8B41AEF80F00D
:1009C00020EE18F0A451D926A551DA22D6C5DEF4BE
:1009D000D7C5DEF4D8C5DEF4D9C5DEF41AEF80F051
:1009E00094C5D9F495C5DAF4DE6ADD6A92C506F5D8
:1009F00093C507F52FECBFF006C5A3F507C5A4F511
:100A00000501A4AF02D00B0E1200D890A335D96E09
:100A1000A435DA6E180ED926060EDA22DEC4BEF52B
:100A2000DDC4BFF5BE51BF11D8A402D00C0E120018
:100A300094C5D9F495C5DAF4BEC5DEF4BFC5DDF4BE
:100A40009691BEC5D9F4BFC5DAF4DF50D8B415D03D
:100A500020EE01F0BE51D926BF51DA22DF50B7ECAB
:100A6000D8F00501B36FB3B108D09651D8A4B3A59F
:100A700002D00A0E1200000E1200BEC5D9F4BFC586
:100A8000DAF4DF6A20EE01F0BE51D926BF51DA2236
:100A9000DF50CCECB1F00501B36FB3A102D0030E6F
:100AA00012009651D8B402D0B3B5E3D7BEC574F5E1
:100AB000BFC575F5000E776F000E766FBEECB8F00F
:100AC00074C5BCF575C5BDF5040E0501BC19BD1195
:100AD000D8A402D0010E1200BD5104E1020EBC5D8B
:100AE000D8A002D00D0E120020EE2EF0BE51D92655
:100AF000BF51DA22DEC4AFF5DEC4B0F5DEC4B1F515
:100B0000DEC4B2F53D0EBE25066E000EBF21076E97
:100B100012ECD6F0020E07180610D8A4E3D7480E40
:100B20000501BE25066E000EBF21076E12ECD6F041
:100B300006C5B8F507C5B9F50501BA6BBB6BB85169
:100B4000B911BA11BB11D8A410D0560EBE25066E2D
:100B5000000EBF21076E47ECC9F006C5B8F507C502
:100B6000B9F508C5BAF509C5BBF5050120EE1AF0BF
:100B7000BE51D926BF51DA22B8C5DEF4B9C5DEF4BC
:100B8000BAC5DEF4BBC5DEF420EE42F0BE51D92674
:100B9000BF51DA2210EE03F0BE51E126BF51E2222E
:100BA000DFC4E7F420EE03F0BE51D926BF51DA22AC
:100BB000DE04D8B40AD020EE03F0BE51D926BF51CE
:100BC000DA22020EDE18D8A48DD7B8C506F5B9C54D
:100BD00007F5BAC508F5BBC509F520EE03F0BE510F
:100BE000D926BF51DA22DF50976F97510A6E0B6AF0
:100BF0000C6A0D6A53ECD3F006C5B8F507C5B9F514
:100C000008C5BAF509C5BBF5050120EE3FF0BE5198
:100C1000D926BF51DA22DF50976F986B20EE0AF089
:100C2000BE51D926BF51DA2297C5DEF498C5DDF44E
:100C300020EE0AF0BE51D926BF51DA22DE50DE1076
:100C4000D8B450D720EE0AF0BE51D926BF51DA22CF
:100C5000DEC497F5DDC498F520EE0AF0BE51D92622
:100C6000BF51DA22DEC499F5DDC49AF5FF0E99254D
:100C70009B6FFF0E9A219C6F97519B159D6F98510A
:100C80009C159E6F9D519E11D8A42CD7430EBE2556
:100C9000066E000EBF21076E12ECD6F0050120EEA5
:100CA00008F0BE51D926BF51DA2206C5DEF407C5C9
:100CB000DDF420EE08F0BE51D926BF51DA22DEC4A1
:100CC00097F5DDC498F50F0E9717000E98179751FA
:100CD0009811D8A407D7450EBE25066E000EBF2179
:100CE000076E12ECD6F006C5ABF507C5ACF50501ED
:100CF000AD6BAE6BAB51AC11AD11AE11D8A410D031
:100D0000520EBE25066E000EBF21076E47ECC9F0DD
:100D100006C5ABF507C5ACF508C5ADF509C5AEF51B
:100D2000400E0501BE25066E000EBF21076E12ECB7
:100D3000D6F006C5A9F507C5AAF50501A951AA115E
:100D4000D8B4D0D620EE08F0BE51D926BF51DA2251
:100D5000DEC497F5DDC498F5040E996FD8909833EA
:100D60009733992FFBD7A95197259A6FAA519821AC
:100D70009B6F9C6BD8B09C2B9D6BB8519A25A56F2F
:100D8000B9519B21A66FBA519C21A76FBB519D21E0
:100D9000A86FA551AB5DA651AC59A751AD59A8514B
:100DA000AE59D8A09FD6A551AB5D066EA651AC59E1
:100DB000076EA751AD59086EA851AE59096E20EEC5
:100DC0000AF0BE51D926BF51DA22DEC497F5DDC440
:100DD00098F597C50AF598C50BF50C6A0D6A8CEC69
:100DE000CFF006C5B4F507C5B5F508C5B6F509C514
:100DF000B7F50501B451B511B611B711D8B472D613
:100E0000000EBD6F000EBC6FF60EB45DFF0EB5593F
:100E1000FF0EB6590F0EB759D8B004D0000EBD6FF3
:100E2000030EBC6FB751B6110AE1F60EB45DFF0EAA
:100E3000B559D8B004D0000EBD6F020EBC6FB751CB
:100E4000B6110AE1F60EB45D0F0EB559D8B004D054
:100E5000000EBD6F010EBC6FBC51BD11D8B442D69F
:100E6000020EB425976F000EB521986F000EB621C3
:100E7000996F000EB7219A6F20EE16F0BE51D92659
:100E8000BF51DA2297C5DEF498C5DEF499C5DEF4C9
:100E90009AC5DEF420EE1EF0BE51D926BF51DA22EB
:100EA000AFC5DEF4B0C5DEF4B1C5DEF4B2C5DEF424
:100EB000A951AF25976FAA51B021986F000EB121AB
:100EC000996F000EB2219A6F20EE22F0BE51D92602
:100ED000BF51DA2297C5DEF498C5DEF499C5DEF479
:100EE0009AC5DEF4A551AF25976FA651B021986F32
:100EF000A751B121996FA851B2219A6F20EE2AF023
:100F0000BE51D926BF51DA2297C5DEF498C5DEF46A
:100F100099C5DEF49AC5DEF4030EBC19BD11D8A440
:100F20004DD05C0EBE25066E000EBF21076E12EC82
:100F3000D6F006500710D8A4D5D5050120EE08F04C
:100F4000BE51D926BF51DA22DE50DE10D8A4CAD550
:100F50005E0EBE25066E000EBF21076E47ECC9F07F
:100F6000050120EE26F0BE51D926BF51DA2206C572
:100F7000DEF407C5DEF408C5DEF409C5DEF420EEB4
:100F800016F0BE51D926BF51DA22DEC497F5DEC471
:100F900098F5DEC499F5DEC49AF5020ED89097371D
:100FA000983799379A37E82EF9D797C59FF598C59E
:100FB000A0F599C5A1F59AC5A2F592D020EE08F04A
:100FC000BE51D926BF51DA22DE50DE10D8B48AD500
:100FD00020EE22F0BE51D926BF51DA22DEC497F5A9
:100FE000DEC498F5DEC499F5DEC49AF5B8519725AC
:100FF0009B6FB95198219C6FBA5199219D6FBB513C
:101000009A219E6F20EE26F0BE51D926BF51DA22DA
:101010009BC5DEF49CC5DEF49DC5DEF49EC5DEF402
:10102000020EBC19BD11D8B444D020EE16F0BE514A
:10103000D926BF51DA22DEC497F5DEC498F5DEC4A6
:1010400099F5DEC49AF5010E97159B6F000E981561
:101050009C6F000E99159D6F000E9A159E6F20EEE5
:1010600016F0BE51D926BF51DA22DEC406F5DEC421
:1010700007F5DEC408F5DEC409F5030E0A6E000E9E
:101080000B6E000E0C6E000E0D6E53ECD3F0D8906C
:10109000093208320732063205019B5106249F6F40
:1010A0009C510720A06F9D510820A16F9E510920DF
:1010B00016D020EE16F0BE51D926BF51DA22DEC47A
:1010C00097F5DEC498F5DEC499F5DEC49AF5D8909C
:1010D00097359F6F9835A06F9935A16F9A35A26F9C
:1010E000FF0E9F25976F010EA021986F000EA12182
:1010F000996F000EA2219A6F0A0E05D0D8909A33EC
:10110000993398339733E82EF9D720EE1AF0BE5171
:10111000D926BF51DA229751DE5C9851DE58995199
:10112000DE589A51DE58D8A0DDD420EE12F0BE5120
:10113000D926BF51DA22FF0EDE6EFF0EDE6EFF0EE5
:10114000DE6EFF0EDD6EDD52DD5210EE0EF0BE5192
:10115000E126BF51E222DEC4E6F4DEC4E6F4DEC4DA
:10116000E6F4DEC4E6F420EE05F0BE51D926BF5108
:10117000DA22800EDF6E030EBC19BD11D8A494D004
:10118000620EBE25066E000EBF21076E12ECD6F071
:1011900006040710D8A488D0BEC560F5BFC561F5A8
:1011A000010E0501AF25626F000EB021636F000EC6
:1011B000B121646F000EB221656F54ECCAF00009D2
:1011C000D8A472D0050120EE05F0BE51D926BF513A
:1011D000DA22DF6A300EBE25066E020EBF21076ED0
:1011E00012ECD6F0550E06185FE1AA0E0718D8A427
:1011F0005BD0320E0501BE25066E000EBF21076EC4
:1012000047ECC9F0520E06184FE1520E07184CE198
:10121000610E081849E1410E0918D8A445D0160EF0
:101220000501BE25066E020EBF21076E47ECC9F010
:10123000720E061839E1720E071836E1410E0818D1
:1012400033E1610E0918D8A42FD01A0E0501BE256E
:10125000066E020EBF21076E47ECC9F0050120EEB5
:1012600012F0BE51D926BF51DA2206C5DEF407C5F9
:10127000DEF408C5DEF409C5DEF41E0EBE25066EDA
:10128000020EBF21076E47ECC9F0050120EE0EF0FB
:10129000BE51D926BF51DA2206C5DEF407C5DEF4F9
:1012A00008C5DEF409C5DEF4BEC5D9F4BFC5DAF45D
:1012B000BCC5DFF40601164B172B050120EE06F026
:1012C000BE51D926BF51DA2216C6DEF417C6DDF4A8
:1012D00020EE0CF0BE51D926BF51DA22800EDE6E10
:1012E000090EDD6E3BEF85F0A6C5BDF5A7C5BEF5C1
:1012F000AAC5D9F4ABC5DAF4DE6ADD6AA4C507F580
:10130000A5C508F5CD0E096E050E0A6EE7ECC8F00E
:101310000501BC6FBC51D8A40BD020EE0FF0A45136
:10132000D926A551DA22DF50BC6FBC51D8B402D007
:10133000BC51120020EE0EF0A451D926A551DA229C
:10134000DFB202D0070E120020EE10F0A451D92611
:10135000A551DA2210EE10F0A451E126A551E222A7
:10136000E6C4B0F5E6C4B1F5E6C4B2F5E6C4B3F53B
:10137000A851B025B46FA951B121B56F000EB221AB
:10138000B66F000EB321B76FDE50B45DDE50B559B5
:10139000DE50B659DE50B759D8B00ED020EE10F05E
:1013A000A451D926A551DA22DEC4ACF5DDC4ADF5D1
:1013B000AC1DA86FAD1DA96FA851A911D8B40ED34B
:1013C00020EE10F0A451D926A551DA22FF0EDE142A
:1013D000AC6F010EDE14AD6F000EDE14AE6F000EAA
:1013E000DE14AF6FAC51AD11AE11AF11D8A438D22D
:1013F00020EE10F0A451D926A551DA22DEC4ACF5B6
:10140000DEC4ADF5DEC4AEF5DEC4AFF50A0E05D020
:10141000D890AF33AE33AD33AC33E82EF9D720EEEE
:101420000AF0CD51D926CE51DA22DEC4B0F5DDC4A2
:10143000B1F5FF0EB025B26FFF0EB121B36FAC5105
:10144000B215BF6FAD51B315C06FBF51C011D8A455
:10145000C4D020EE10F0A451D926A551DA22DE50D6
:10146000DE10DE10DE10D8A423D020EE06F0A4514A
:10147000D926A551DA22DEC4C9F5DEC4CAF5DEC418
:10148000CBF5DEC4CCF5C951CA11CB11CC11D8A40F
:1014900052D0A4C587F5A5C588F5000E896F000E4A
:1014A0008A6F000E8B6F000E8C6F1DEC9FF03BD08F
:1014B00020EE22F0A451D926A551DA22DE50DE100A
:1014C000D8B41DD0A4C513F5A5C514F520EE10F0B1
:1014D000A451D926A551DA22DEC415F5DEC416F5CD
:1014E000DEC417F5DEC418F517ECC1F013C5C9F555
:1014F00014C5CAF515C5CBF516C5CCF51CD0A4C5C9
:1015000087F5A5C588F520EE14F0A451D926A5517C
:10151000DA22DEC489F5DEC48AF5DEC48BF5DEC4CA
:101520008CF51DEC9FF087C5C9F588C5CAF589C53E
:10153000CBF58AC5CCF50501C951CA11CB11CC1127
:10154000D8B44CD2C905CA11CB11CC11D8A40AD039
:1015500020EE0FF0A451D926A551DA22020EDF6E3B
:10156000020E1200C92911E1CA290FE1CB290DE1B0
:10157000CC29D8A40AD020EE0FF0A451D926A55129
:10158000DA22010EDF6E010E120020EE14F0A451DB
:10159000D926A551DA22C9C5DEF4CAC5DEF4CBC509
:1015A000DEF4CCC5DEF420EE06F0A451D926A55118
:1015B000DA22DE50DE10DE10DE10D8A40ED020EECF
:1015C00006F0A451D926A551DA22C9C5DEF4CAC550
:1015D000DEF4CBC5DEF4CCC5DEF420EE18F0A45169
:1015E000D926A551DA2210EE2EF0CD51E126CE51AA
:1015F000E222DE50E61813E1DE50E61810E1DE507C
:10160000E6180DE1DE50E618D8A409D0CDC51BF5CB
:10161000CEC51CF571ECBCF00009D8A45AD1CDC5DB
:1016200012F5CEC513F5050120EE14F0A451D9260C
:10163000A551DA22DEC414F5DEC415F5DEC416F5B4
:10164000DEC417F587ECC8F012C5C3F513C5C4F5A1
:1016500014C5C5F515C5C6F50501C351C411C5119D
:10166000C611D8B475D7BF51C327C051C423000ECB
:10167000C523000EC623A8C5ACF5A9C5ADF5090E56
:10168000AE6FD890AD33AC33AE2FFBD7ACC5C1F540
:10169000ADC5C2F5C151C211D8B4A6D0C151BF2544
:1016A000AC6FC251C021AD6F20EE0AF0CD51D926EA
:1016B000CE51DA22AC51DE5CAD51DE58D8B010D03C
:1016C00020EE0AF0CD51D926CE51DA22DEC4ACF597
:1016D000DDC4ADF5BF51AC5DC16FC051AD59C26F36
:1016E000BDC512F5BEC513F5C3C514F5C4C515F5C2
:1016F000C5C516F5C6C517F5C1C518F5C2C519F596
:1017000020EE01F0CD51D926CE51DA22DF5053EC34
:10171000CCF00009D8A4DDD00501C151AC6FC25195
:10172000AD6FAE6BAF6B20EE2EF0CD51D926CE5102
:10173000DA22DEC4B0F5DEC4B1F5DEC4B2F5DEC433
:10174000B3F5C351B05DB46FC451B159B56FC55154
:10175000B259B66FC651B359B76FAC51B45DAD5104
:10176000B559AE51B659AF51B759D8B02ED0320E87
:10177000CD25066E000ECE21076E20EE2EF0CD5147
:10178000D926CE51DA22DEC4ACF5DDC4ADF5C351A5
:10179000AC5FC451AD5B090ED890AC37AD37E82EC5
:1017A000FBD7AC51BD25086EAD51BE21096E020EAE
:1017B0000B6E000E0A6ED3ECD4F0050120EE04F09F
:1017C000CD51D926CE51DA22DF6AC1C5ACF5C2C5EA
:1017D000ADF5090ED890AC37AD37E82EFBD7ACC5C8
:1017E000C7F5ADC5C8F5A7D020EE0AF0A451D9269B
:1017F000A551DA2210EE10F0A451E126A551E22203
:10180000DE50E65CDE50E658DE50E658DE50E65824
:10181000D8A018D0CDC51BF5CEC51CF571ECBCF019
:101820000009D8A456D0050120EE2EF0CD51D926BE
:10183000CE51DA22C3C5DEF4C4C5DEF4C5C5DEF47C
:10184000C6C5DEF420EE18F0A451D926A551DA223F
:10185000C3C5DEF4C4C5DEF4C5C5DEF4C6C5DEF41A
:1018600020EE10F0A451D926A551DA22DEC4ACF541
:10187000DDC4ADF5FF0EAC15AE6F010EAD15AF6F4B
:10188000AE510008C76FAF51D8A0E82A0208C86F50
:10189000C751A85DC851A959D8B004D0A8C5C7F58B
:1018A000A9C5C8F5CDC560F5CEC561F520EE18F027
:1018B000A451D926A551DA22DEC462F5DEC463F54F
:1018C000DEC464F5DEC465F554ECCAF00009D8B492
:1018D00002D0050150D6050120EE10F0A451D92602
:1018E000A551DA22DEC4ACF5DDC4ADF5FF0EAC15B2
:1018F000AE6F010EAD15AF6FAE51CD25B06FAF51CC
:10190000CE21B16F320EB025066E000EB121076EEA
:10191000BDC508F5BEC509F5C7C50AF5C8C50BF5AF
:10192000D3ECD4F0050120EE04F0CD51D926CE51F0
:10193000DA22010EDF6EC751A85FC851A95BAAC5A4
:10194000D9F4ABC5DAF4C751DE26C851DD22C75140
:10195000BD27C851BE2320EE10F0A451D926A551B1
:10196000DA22C751DE26C851DE22000EDE22DE2238
:1019700020EE10F0A451D926A551DA2210EE0AF07B
:10198000A451E126A551E222DE50E65CDE50E65885
:10199000DE50E658DE50E658D8A003D020EE0AF01C
:1019A00002D020EE10F0A451D926A551DA22DEC4CF
:1019B000B8F5DEC4B9F5DEC4BAF5DEC4BBF520EE79
:1019C0000AF0A451D926A551DA22B8C5DEF4B9C56A
:1019D000DEF4BAC5DEF4BBC5DEF4EED420EE0EF0C4
:1019E000A451D926A551DA22000EDB8C000E12007C
:1019F0000501ED51EE11D8A402D0090E12003F0EE0
:101A0000F117EF0E926F050E936FA10E946F060EF5
:101A1000956FF1C596F5F0EC84F00601A36FA35124
:101A2000D8A4E7D2A1C6A4F6A2C6A5F6A40E0501C5
:101A3000CB6F060ECC6FEFC5CDF5F0C5CEF51BEC28
:101A4000B7F00601A36FA351D8B4CBAF02D0060EF6
:101A5000A36FF1C5F2F51C0E0501F217D8B4F5D04D
:101A60000601A351D8B410D0040EA319D8A409D0EC
:101A7000A40E0501CB6F060ECC6F85ECA3F006011A
:101A8000A36F0501F1870ED0A8C6F2F5110E05016E
:101A9000F217D8B402D0070E03D0F1A503D0080E78
:101AA0000601A36F0601A351D8A4DFD00501F1A759
:101AB000DCD00E0E0601BE25066E000EBF21076E9D
:101AC000000E086E000E096E210E0A6E540E0B6E8B
:101AD00068ECD1F0160E0601BE25066E000EBF2181
:101AE000076E000E086E000E096E210E0A6E540E6F
:101AF0000B6E68ECD1F0A1C60DF5A2C60EF5BEC600
:101B00000FF5BFC610F587ECD0F00DC591F60EC5E8
:101B100092F60FC593F610C594F6060120EE0BF071
:101B2000BE51D926BF51DA22200EDF6EA1C60AF5BA
:101B3000A2C60BF5BEC60CF5BFC60DF5000E0E6EA7
:101B4000000E0F6E000E106E000E116E5AECD5F0E6
:101B50001C0E0601BE25066E000EBF21076E000E8C
:101B6000086E000E096E000E0A6E000E0B6E68EC19
:101B7000D1F0060120EE04F0A151D926A251DA22BB
:101B8000010EDF6E9151921193119411D8B46DD062
:101B900020EE2EF0A151D926A251DA22DEC495F60C
:101BA000DEC496F6DEC497F6DEC498F6A40E0501F0
:101BB000876F060E886F91C689F592C68AF593C61F
:101BC0008BF594C68CF5000E8D6F000E8E6F000E97
:101BD0008F6F000E906F65ECB5F00601A36FA351F7
:101BE000D8A443D0A1C660F5A2C661F595C662F53A
:101BF00096C663F597C664F598C665F554ECCAF0C9
:101C00000601A36FFF0E91250501F26FFF0E06017D
:101C100092210501F36FFF0E060193210501F46F78
:101C2000FF0E060194210501F56F060120EE0EF06E
:101C3000A151D926A251DA22F2C5DEF4F3C5DEF4B1
:101C4000F4C5DEF4F5C5DEF410D00601A351D8A426
:101C50000CD0A8A902D0040E07D00501F1A305D02D
:101C60000601A8A102D0070EA36F0601A351D8A4B4
:101C700023D00501F1B7F18D060120EE2EF0A15120
:101C8000D926A251DA22050110EE1CF0ED51E12611
:101C9000EE51E222DEC4E6F4DEC4E6F4DEC4E6F48D
:101CA000DEC4E6F420EE20F0ED51D926EE51DA2222
:101CB000BEC6DEF4BFC6DDF40601A351D8A499D197
:101CC000A1C60DF5A2C60EF5BEC60FF5BFC610F52E
:101CD00087ECD0F0050120EE06F0ED51D926EE514B
:101CE000DA220DC5DEF40EC5DEF40FC5DEF410C534
:101CF000DEF41C0E0601BE25066E000EBF21076E27
:101D000047ECC9F0050120EE0AF0ED51D926EE515D
:101D1000DA2206C5DEF407C5DEF408C5DEF409C51F
:101D2000DEF420EE22F0ED51D926EE51DA22DE6A01
:101D3000DD6AEDC5D9F4EEC5DAF4A1C6DEF4A2C6BB
:101D4000DDF4060120EE06F0A151D926A251DA22D7
:101D5000050110EE02F0ED51E126EE51E222DEC463
:101D6000E6F4DDC4E5F420EE0EF0ED51D926EE5197
:101D7000DA22F1C5DFF420EE0FF0ED51D926EE5155
:101D8000DA22DF6A20EE18F0ED51D926EE51DA2280
:101D9000DE6ADE6ADE6ADD6A20EE10F0ED51D926D9
:101DA000EE51DA22DE6ADE6ADE6ADD6AF1AB21D14B
:101DB00020EE0AF0ED51D926EE51DA22DE50DE1087
:101DC000DE10DE10D8B415D120EE0AF0ED51D92680
:101DD000EE51DA2210EE10F0ED51E126EE51E22242
:101DE000DEC4E6F4DEC4E6F4DEC4E6F4DEC4E6F403
:101DF000060120EE0AF0A151D926A251DA22DEC452
:101E0000F2F5DDC4F3F50501F251F46FF351F56F0E
:101E1000F66BF76B090ED890F437F537F637F737CE
:101E2000E82EF9D7F4C58DF6F5C58EF6F6C58FF612
:101E3000F7C590F620EE06F0ED51D926EE51DA22E4
:101E4000DEC49DF6DEC49EF6DEC49FF6DEC4A0F6B8
:101E500020EE0AF0ED51D926EE51DA22DEC499F6D1
:101E6000DEC49AF6DEC49BF6DEC49CF634D0EDC523
:101E700066F5EEC567F59DC668F59EC669F59FC611
:101E80006AF5A0C66BF542ECA5F066C59DF667C580
:101E90009EF668C59FF669C5A0F60601A0519F1180
:101EA0009E1106E1020E9D5DD8B002D0020EA36F16
:101EB0009D2909E19E2907E19F2905E1A029D8A4D0
:101EC00002D0010EA36F8D51995F8E519A5B8F5195
:101ED0009B5B90519C5B0601A351D8A40AD09951F9
:101EE0008D5D9A518E599B518F599C519059D8A014
:101EF000BED7050120EE14F0ED51D926EE51DA22BD
:101F00009DC6DEF49EC6DEF49FC6DEF4A0C6DEF4F7
:101F10000601A351D8A46DD0FF0E99150501F26FEB
:101F2000010E06019A150501F36F000E06019B15BF
:101F30000501F46F000E06019C150501F56FF251C5
:101F4000F311F411F511D8B454D0A1C612F5A2C6FC
:101F500013F59DC614F59EC615F59FC616F5A0C6C9
:101F600017F587ECC8F012C595F613C596F614C59B
:101F700097F615C598F60601955196119711981187
:101F8000D8A403D0020EA36F34D099C6F2F59AC636
:101F9000F3F59BC6F4F59CC6F5F50A0E06D00501CF
:101FA000D890F533F433F333F233E82EF8D7060143
:101FB00095510501F225F66F060196510501F321B1
:101FC000F76F060197510501F421F86F060198514A
:101FD0000501F521F96F20EE18F0ED51D926EE51EB
:101FE000DA22F6C5DEF4F7C5DEF4F8C5DEF4F9C58D
:101FF000DEF40601A351D8B406D0EDC5D9F4EEC580
:10200000DAF4DE6ADD6AA351120082C599F583C550
:102010009AF586C5D9F487C5DAF4DE6ADD6A80C52B
:1020200007F581C508F5A90E096E050E0A6EE7ECE5
:10203000C8F00501986F9851D8A40BD020EE0FF08E
:102040008051D9268151DA22DF50986F9851D8B447
:1020500002D09851120020EE0EF08051D926815105
:10206000DA22DFB002D0070E120020EE10F080510D
:10207000D9268151DA22DEC488F5DEC489F5DEC4B2
:102080008AF5DEC48BF520EE0AF08051D926815105
:10209000DA22DEC48CF5DEC48DF5DEC48EF5DEC436
:1020A0008FF588518C5D946F89518D59956F8A5148
:1020B0008E59966F8B518F59976F8451886F8551C8
:1020C000896F8A6B8B6B8851945D895195598A51C0
:1020D00096598B519759D8B004D094C584F595C5BD
:1020E00085F584518511D8B450D220EE10F080517E
:1020F000D9268151DA22FF0EDE14886F010EDE141C
:10210000896F000EDE148A6F000EDE148B6F88510B
:1021100089118A118B11D8A4B7D120EE10F080510B
:10212000D9268151DA22DEC488F5DEC489F5DEC401
:102130008AF5DEC48BF50A0E05D0D8908B338A332E
:1021400089338833E82EF9D720EE0AF0A951D92631
:10215000AA51DA22DEC48CF5DDC48DF5FF0E8C2584
:102160008E6FFF0E8D218F6F88518E159F6F895155
:102170008F15A06F9F51A011D8A492D020EE10F01F
:102180008051D9268151DA22DE50DE10DE10DE10B9
:10219000D8A40FD020EE06F08051D9268151DA2242
:1021A000DEC49BF5DEC49CF5DEC49DF5DEC49EF561
:1021B00043D020EE22F08051D9268151DA22DE5020
:1021C000DE10D8B41DD080C513F581C514F520EEFE
:1021D00010F08051D9268151DA22DEC415F5DEC413
:1021E00016F5DEC417F5DEC418F517ECC1F013C5FB
:1021F0009BF514C59CF515C59DF516C59EF51CD01F
:1022000080C566F581C567F520EE14F08051D926AA
:102210008151DA22DEC468F5DEC469F5DEC46AF5F0
:10222000DEC46BF542ECA5F066C59BF567C59CF571
:1022300068C59DF569C59EF505019E519D119C11CE
:102240000EE1020E9B5DD8B00AD020EE0FF0805157
:10225000D9268151DA22020EDF6E020E12009B296E
:1022600011E19C290FE19D290DE19E29D8A40AD0F6
:1022700020EE0FF08051D9268151DA22010EDF6E57
:10228000010E120020EE14F08051D9268151DA227D
:102290009BC5DEF49CC5DEF49DC5DEF49EC5DEF470
:1022A000A9C512F5AAC513F520EE14F08051D92660
:1022B0008151DA22DEC414F5DEC415F5DEC416F54C
:1022C000DEC417F587ECC8F012C5A1F513C5A2F559
:1022D00014C5A3F515C5A4F50501A151A211A311BB
:1022E000A411D8B4B2D79F51A127A051A223000EA8
:1022F000A323000EA42384C588F585C589F5090E9E
:102300008A6FD890893388338A2FFBD788C5A5F583
:1023100089C5A6F5A551A611D8B4A8D0A5519F2569
:10232000886FA651A021896F20EE0AF0A951D92605
:10233000AA51DA228851DE5C8951DE58D8B010D01B
:1023400020EE0AF0A951D926AA51DA22DEC488F576
:10235000DDC489F59F51885DA56FA0518959A66F8D
:1023600099C512F59AC513F5A1C514F5A2C515F5C1
:10237000A3C516F5A4C517F5A5C518F5A6C519F585
:1023800020EE01F0A951D926AA51DA22DF503DEC06
:10239000CDF00009D8A4B1D0050120EE04F0A95178
:1023A000D926AA51DA22DF50D8B450D0A551886F6F
:1023B000A651896F8A6B8B6B20EE2EF0A951D9261E
:1023C000AA51DA22DEC48CF5DEC48DF5DEC48EF5AA
:1023D000DEC48FF5A1518C5D906FA2518D59916F24
:1023E000A3518E59926FA4518F59936F8851905D6C
:1023F000895191598A5192598B519359D8B026D00D
:1024000020EE2EF0A951D926AA51DA22DEC488F591
:10241000DDC489F5A151885FA251895B090ED8906E
:1024200088378937E82EFBD788519925066E895160
:102430009A21076E320EA925086E000EAA21096E98
:10244000020E0B6E000E0A6ED3ECD4F0A5C588F513
:10245000A6C589F5090ED890050188378937E82E79
:10246000FAD788C5A7F589C5A8F570D020EE18F071
:102470008051D9268151DA22A1C5DEF4A2C5DEF44D
:10248000A3C5DEF4A4C5DEF420EE10F08051D926F9
:102490008151DA22DEC488F5DDC489F5FF0E881586
:1024A0008A6F010E89158B6F8A510008A76F8B51B7
:1024B000D8A0E82A0208A86FA751845DA8518559C1
:1024C000D8B004D084C5A7F585C5A8F5A9C560F521
:1024D000AAC561F520EE18F08051D9268151DA2283
:1024E000DEC462F5DEC463F5DEC464F5DEC465F502
:1024F00054ECCAF00009D8B402D00501B9D699C588
:1025000006F59AC507F5050120EE10F08051D92691
:102510008151DA22DEC488F5DDC489F5FF0E881505
:102520008A6F010E89158B6F8A51A9258C6F8B518B
:10253000AA218D6F320E8C25086E000E8D21096E3A
:10254000A7C50AF5A8C50BF5D3ECD4F00501A75132
:10255000845FA851855B86C5D9F487C5DAF4A75195
:10256000DE26A851DD22A7519927A8519A2320EEF3
:1025700010F08051D9268151DA22A751DE26A851C8
:10258000DE22000EDE22DE22ACD5000E120025C5B2
:10259000D9F426C5DAF4DEC46CF5DDC46DF523C5C7
:1025A000D9F424C5DAF410EE0CF0DE50E126DD504B
:1025B000E222E6C46EF5E5C46FF5000E0501736F07
:1025C000000E726F6C0E146E050E156E74ECC5F075
:1025D00014C562F515C563F516C564F517C565F52F
:1025E0000501622909E1632907E1642905E16529FB
:1025F000D8A402D0060E1200655103E16405D8A0EC
:102600000FD0D8907235D96E7335DA6E6E51D926E7
:102610006F51DA2264C5DEF465C5DDF4724B732BAD
:1026200062C574F563C575F5755104E1200E745DDE
:10263000D8A035D02F0E74197511D8B430D05C0ED7
:1026400074197511D8B42BD0755112E1800E745DD8
:10265000D8B00ED0E60E066EFF0E076E74C508F5F4
:1026600075C509F5B1ECD4F006500710D8A4C2D74F
:1026700005017351BFE1170E725DD8B0BBD7D8907A
:102680007235D96E7335DA6E6E51D9266F51DA22F2
:1026900074C5DEF475C5DDF4724B732B93D7755199
:1026A0000AE1200E745DD8B006D0040E6B6F4CD0DA
:1026B00005016C4B6D2B6CC5F6F46DC5F7F4000E7F
:1026C000F86E360EF76403D00800F55005D0F6C456
:1026D000E9F4F7C4EAF4EF502F0AD8B4E9D76CC58F
:1026E000F6F46DC5F7F4000EF86E360EF76403D0FD
:1026F0000800F55005D0F6C4E9F4F7C4EAF4EF5049
:102700005C0AD8B4D5D7000E05016B6F000E616F5F
:10271000200E606F6CC5F6F46DC5F7F4000EF86E10
:10272000360EF76403D00800F55005D0F6C4E9F47E
:10273000F7C4EAF4EF50276E286A05016051275C60
:1027400061512858D8A0B1D725C5D9F426C5DAF4E7
:102750006CC5DEF46DC5DDF424D072C527F573C5F4
:1027600028F5D8902736283627506E25296E285010
:102770006F212A6EFE0E2924D96EFF0E2A20DA6EF2
:10278000DEC474F5DDC475F5200E74197511D8B466
:1027900005D02E0E74197511D8A407D07207D8A0D1
:1027A000730772517311D8A4D8D7D8907235D96EE7
:1027B0007335DA6E6E51D9266F51DA22DE6ADD6A20
:1027C00072517311D8B416D7000E716F000E706F6E
:1027D00002D0704B712BD8907035D96E7135DA6E8E
:1027E0006E51D9266F51DA22200EDE18DE10D8B4D1
:1027F000F0D770517111D8A40ED0D8907035D96E21
:102800007135DA6E6E51D9266F51DA222E0EDE182E
:10281000DE10D8A406D0030E6B1303D07207D8A025
:10282000730772517311D8B418D072C527F573C5E8
:1028300028F5D8902736283627506E25296E28503F
:102840006F212A6EFE0E2924D96EFF0E2A20DA6E21
:102850002E0EDE18DE10D8A4E1D71C0E2324066E3F
:10286000000E2420076E000E096E200E086E000E6A
:102870000B6E0B0E0A6E3CECD7F0000E05016A6F72
:102880006AC566F5676B000E696F080E686FD890B1
:102890007035D96E7135DA6E6E51D9266F51DA22E4
:1028A000DEC474F5DDC475F5704B712B7451751170
:1028B000D8B4E6D0200E74197511D8B40CD02E0EF1
:1028C00074197511D8A40AD07251701904E17351AA
:1028D0007119D8B403D0030E6B13D9D76851665D54
:1028E00069516759D8B007D0725170192CE17351F2
:1028F0007119D8A428D00B0E68196911D8A403D077
:10290000030E6B13BDD07251701904E1735171192C
:10291000D8B402D0030E6B137051725D71517359AC
:10292000D8A0AED072C570F573C571F5000E676F93
:10293000080E666F000E696F0B0E686FD8906A37CD
:10294000D8906A37A4D7755104E1800E745DD8A081
:1029500027D06B8374C506F575C507F5086A096A43
:10296000010E0B6EB50E0A6EA3ECC9F006C574F528
:1029700007C575F5050174AF13D07F0E7415276E6A
:10298000000E7515286EFB0E2724F66EFA0E282011
:10299000F76EF86A000EF8220800F550746F756B38
:1029A0007505D8A024D0FF0E6825276EFF0E69217B
:1029B000286E2750665D28506759D8A007D0030EAF
:1029C0006B1368C566F569C567F561D76651232441
:1029D000276E67512420286E1C0E2724D96E000E06
:1029E0002820DA6E7551DF6E664B672B38D0745134
:1029F0007511D8B40ED0F70E066EFF0E076E74C5B3
:102A000008F575C509F5B1ECD4F006500710D8B437
:102A100008D0000E0501756F5F0E746F030E6B1307
:102A20001ED00501755104E1410E745DD8A006D099
:102A3000755104E15B0E745DD8A06A83755104E1A1
:102A4000610E745DD8A00BD0755109E17B0E745DE9
:102A5000D8B005D06A81200E745F000E755B665198
:102A60002324276E67512420286E1C0E2724D96E3C
:102A7000000E2820DA6E74C5DFF4664B672B07D78B
:102A800020EE1CF02350D9262450DA22E50EDE1861
:102A9000D8A408D020EE1CF02350D9262450DA22E6
:102AA000050EDF6E080E68196911D8A404D0D890FD
:102AB0006A37D8906A376A510C0B0C0AD8B404D024
:102AC0006A51030B030AD8B46B836BB304D06AB1A9
:102AD0006B896AB56B8720EE27F02350D9262450E6
:102AE000DA226BC5DFF4000E12000601996F0601B1
:102AF0009951240DCB0EF324A56F0E0EF420A66F72
:102B000020EE06F0A551D926A651DA22DE500501A5
:102B1000FA5DD8A002D0010E01D0000E0601A16F0F
:102B2000A151D8B409D020EE06F0A551D926A6515E
:102B3000DA22DF500501FA5F060120EE02F0A5510E
:102B4000D926A651DA220501F951DE18D8A40BD0F6
:102B5000060120EE03F0A551D926A651DA22A15193
:102B6000DE18D8B40FD0F9C5EBF5A1C6ECF5060117
:102B7000995100ECBBF00501EB510601AA6FAA5177
:102B8000D8A42FD2000EA26F000EA225D96EDA6A49
:102B9000080EDA22DF508D6F010EA225D96EDA6A97
:102BA000080EDA22DF508E6F8D51A36F8EC6A4F609
:102BB000A351A411D8B415D2A4AF02D0010E01D0F4
:102BC000000E9A6FFF0EA3173F0EA41720EE05F01C
:102BD000A551D926A651DA22DF50D8A407D09A51A0
:102BE000D8A404D0000E946F020E03D0000E946F90
:102BF000010E936F93C6ACF6350E0501A46F060E59
:102C0000A56F060120EE07F0A551D926A651DA22BC
:102C1000DEC48DF6DEC48EF6DEC48FF6DEC490F61A
:102C2000A3518D250501A66F0601A4518E21050132
:102C3000A76F000E06018F210501A86F000E060187
:102C400090210501A96F00EC80F00601AA6FAA513E
:102C5000D8A415D0350E0501806F060E816F000EC9
:102C6000826F070E836F000E856F0E0E846FA80EA5
:102C7000866F060E876F05EC90F00601AA6FAA51C9
:102C8000D8A4AFD1A95104E10E0EA85DD8A0A9D156
:102C9000000EA76F000EA725D96EDA6A070EDA229A
:102CA000FE0EDE18D8A497D1AC51A727000EA72599
:102CB000D96EDA6A070EDA220501F951DE18D8A4B6
:102CC0008AD10601AC51A727000EA725D96EDA6A72
:102CD000070EDA22DF50010BA119D8A47CD1AC5128
:102CE000A727000EA725D96EDA6A070EDA2205019A
:102CF000FA51DE18D8A46FD10601AC51A727AC5108
:102D0000A727AC51A727AC51A7279A51D8A404D024
:102D1000000E966F1E0E03D0000E966F2B0E956F51
:102D200095C69FF6AC519F03F3509F6F350E05017A
:102D3000A46F060EA56F060120EE07F0A551D92657
:102D4000A651DA22DEC48DF6DEC48EF6DEC48FF61E
:102D5000DEC490F6A751A325916F000EA421926FB7
:102D600091518D250501A66F060192518E21050115
:102D7000A76F000E06018F210501A86F000E060146
:102D800090210501A96F00EC80F00601AA6FAA51FD
:102D9000D8A414D0350E0501806F060E816F000E89
:102DA000826F070E836F9FC684F5856BA80E866FB2
:102DB000060E876F05EC90F00601AA6FAA51D8A401
:102DC00010D19F51A85D000EA959D8A00AD1A069C1
:102DD000000EAB6F1DD0000EAB25D96EDA6A070E60
:102DE000DA22F70EDF6412D0000EAB25D96EDA6A54
:102DF000070EDA22FC0EDF6009D0000EAB25D96E7B
:102E0000DA6A070EDA22DF50A06F06D0AC51AB278A
:102E10009F51AB5DD8A0DFD7A029D8B4E2D0AC5188
:102E2000AB27350E0501A46F060EA56F060120EE37
:102E300007F0A551D926A651DA22DEC48DF6DEC4EC
:102E40008EF6DEC48FF6DEC490F6AB51A7C691F6BF
:102E5000926B9127000E9223A3519127A4519223A4
:102E600091518D250501A66F060192518E21050114
:102E7000A76F000E06018F210501A86F000E060145
:102E800090210501A96F00EC80F00601AA6FAA51FC
:102E9000D8A4A7D0AC05D8A414D0350E0501806FF6
:102EA000060E816F000E826F070E836F010E856F15
:102EB000000E846FA80E866F060E876F05EC90F0EB
:102EC00072D0000E9B6F070E9C6F350E0501806F50
:102ED000060E816FB20E826F0C0E836F010E856F2E
:102EE000000E846FA80E866F060E876F05EC90F0BB
:102EF0000601AA6FAA51D8A474D0A905D8A071D090
:102F0000B20E9D6F0C0E9E6F000EAB6F7F0EAB6509
:102F100001D012D09DC6D9F49EC6DAF49BC6E1F466
:102F20009CC6E2F4DFC4E7F49D4B9E2B9B4B9C2B8D
:102F30009D4B9E2BAB2BEAD7350E0501806F060EFD
:102F4000816FB20E826F0C0E836F010E856F000EC3
:102F5000846FA80E866F060E876F05EC90F0060151
:102F6000AA6FAA51D8A43DD0A905D8A03AD0B20ED4
:102F70009D6F0C0E9E6F000EAB6F7F0EAB6501D088
:102F800012D09DC6D9F49EC6DAF49BC6E1F49CC665
:102F9000E2F4DFC4E7F49D4B9E2B9B4B9C2B9D4B97
:102FA0009E2BAB2BEAD7F80E0601A019D8B408D097
:102FB000FA0EA019D8B404D0000E986F000E03D0FA
:102FC000000E986F060E976F97C645F5010E3A6E84
:102FD000000E396E1200020E0601A2273F0EA265F6
:102FE000D3D5050E456E1200CE505E6216D0C96A6A
:102FF000BF86CFA2FED7B490C968BF96B1A0FED756
:10300000600000F241F50001010E826FFF0E816F3A
:10301000610004F5C1F43D8E1100B49052667BD07E
:103020005E2808E0B1A0FED7600000F240F5BE8A3D
:10303000FF0E5E6ECE501F0B5D6206D0D1380F0BB7
:10304000486E356A366A1F0F84EC98F093EF98F05B
:103050009DEF98F077EF99F0E9EF98F04CEF9AF048
:10306000E5EF98F0FBEF98F0F1EF98F098EF98F01B
:10307000D6EF98F0DBEF98F0EDEF98F0D1EF98F005
:10308000E0EF98F0FBEF98F066EF99F066EF99F0BB
:1030900016EF99F032EF9AF0ACEF99F041EF99F01A
:1030A000A4EF99F04AEF9AF0B4EF99F0FCEF98F0A2
:1030B00066EF99F044EF9AF0B0EF99F0D9EF99F0FC
:1030C000A8EF99F04AEF9AF066EF99F0DFEF99F0E8
:1030D000EAEF99F0F7EF99F010EF9AF01DEF9AF000
:1030E0001DEF9AF010EF9AF01DEF9AF027EF9AF08B
:1030F0001DEF9AF01DEF9AF01DEF9AF01DEF9AF078
:103100001DEF9AF01DEF9AF0E844E844FD26E86AC6
:10311000FE22FF221200CEB866EF99F0610044F55E
:10312000C1F465EF99F0610024F5C1F465EF99F001
:1031300061003CF5C1F465EF99F06100A4F300F083
:103140006100A8F301F003EEB2F03550E9263650E5
:10315000EA22EFC4C1F4354A362A3550335C02E026
:103160005FEF99F03650345C02E05FEF99F00001B8
:10317000030E866F010E826F500E816F516E5AEFF3
:1031800099F06100A4F300F06100A8F301F001EEF2
:1031900000F3610010F5E9F4442AEFC4C1F45FEFD5
:1031A00099F06100E4F4C1F465EF99F0610038F53D
:1031B000C1F465EF99F0610014F5C1F465EF99F081
:1031C000610030F5C1F465EF99F0610034F5C1F4A8
:1031D0007CD06100DCF4C1F478D06100E0F4C1F48B
:1031E00074D04744E8383E6E4B44E844E8444A1003
:1031F0003E10C16E6AD06AD0D1504F6EE8B666D02C
:1032000050660BD00001030E866F010E826F510EC7
:10321000816F516E100E4E6E5FD00001030E866FEF
:10322000010E826F500E816F516F56D04850030AC5
:103230004DE16100A4F300F06100A8F301F003EE9A
:10324000B2F03550E9263650EA22D1C4EFF46000DE
:1032500000F0E9F4600004F0EAF4354A362A35500B
:10326000335C34E13650345C31E10001030E866F8B
:10327000010E826F820E816F516E030E546E558463
:103280002BD06100A4F300F06100A8F301F001EE7F
:1032900000F3610010F5E9F4D1C4EFF4600000F030
:1032A000E9F4600004F0EAF4442A395044620ED094
:1032B000400EDDD0B1A0FED7C0808051C09060002C
:1032C00000F0E9F4600004F0EAF4C96ABF86CFA216
:1032D000FED7C968BF961100B1A0FED7C080BF86D7
:1032E000CFA2FED7C9688051C090BF961100020ED0
:1032F000436204D0610008F5C1F424D06100D8F322
:1033000000F06100DCF301F06100E0F302F0610025
:10331000D4F33EF5000E4324F66EF76A000EF72252
:10332000F86A380EF8220800F550C16E600000F00F
:10333000F6F4600004F0F7F4600008F0F8F46100BF
:10334000F8F4F5F4432AC1D7610044F34DF5BED734
:10335000610044F34CF5BAD7610044F337F5B6D7B2
:10336000D150030B386EB2D70001030E866F010EE9
:10337000826F500E816F516E336A346AD140E838E3
:10338000030B476E02E1342A0CD0010A03E1020E5E
:10339000346E07D0030A03E1040E346E02D0800EAF
:1033A000336ED144E838030B4B6ED150070B4A6E95
:1033B00093D73A6AD150396E89E13A2A87D700010A
:1033C000030E866F010E826F500E816F516E376A49
:1033D000386A82D70001030E866F010E826F820E5B
:1033E000816F516E020E546E55846CEF99F0D1507E
:1033F000040B0AE10001030E866F010E826F580E66
:10340000816F516E6CEF99F00001030E866F010E13
:10341000826F510E816F516E040E4E6E6CEF99F0FB
:103420000001030E866F010E826F820E816F516E56
:10343000010E546E55846CEF99F00001030E866FF7
:10344000010E826F500E816F516E6CEF99F04E6AD3
:103450000001030E866F010E826F400E816F516E68
:103460006CEF99F0610044F346F5446A800E461013
:10347000546E0001030E866F010E826F820E816F03
:10348000516E55846CEF99F0610044F342F5436A44
:1034900066EF99F066EF99F03FA073D6610004F5EE
:1034A000C1F4C96ABF86CE501F0B5E6ECFA2FED795
:1034B000B490C968BF96BE9A0001020E896F610080
:1034C00000F541F5030E866F010E826FFF0E816FCE
:1034D000610004F5C1F43D8E11000501726F13C542
:1034E00060F514C561F505017251D8B402D0040E1F
:1034F00012005FA002D0030E1200010E776F2CD2D3
:10350000BE9A14ECD8F0FF0AD8A443D2000E0501ED
:1035100021D2000E0D6E000E0E6E000E0F6E000E0C
:10352000106E490E17ECD5F00009D8A432D2620E05
:10353000076E050E086E000E0A6E100E096E47EC3F
:10354000CFF00009D8B425D205016245E846030B47
:10355000E806D8A448D069C515F53F0E151615C55F
:1035600016F5176A186A196A17C519F516C518F5F8
:10357000176A166A6A511B6E6B511A6E1A5016241E
:103580001C6E1B5017201D6E000E18201E6E000EA4
:1035900019201F6E010E1C24736F000E1D20746F06
:1035A000000E1E20756F000E1F20766F73C515F577
:1035B00074C516F575C517F576C518F50A0ED890B9
:1035C0001536163617361836E82EF9D713C5D9F43E
:1035D00014C5DAF415C5DEF416C5DEF417C5DEF43D
:1035E00018C5DEF493D7156A6CAF01D0152A010E09
:1035F000151667C516F50F0E16166B51030B020D47
:10360000F35016241524020F786F6851030B156EC2
:10361000166A0A0ED89015361636E82EFBD7695171
:10362000176E186AD89017361836D890173618368D
:103630006AC519F5060E1A6ED89019321A2EFCD7E3
:10364000195017241B6E000E18201C6E15501B24D9
:103650001D6E16501C201E6E010E1D26000E1E2211
:103660001DC573F51EC574F5756B766B78C515F5BC
:10367000F70E152673C516F574C517F575C518F53B
:1036800076C519F5152A05D0D8901636173618368E
:103690001936152EF9D748D013C5D9F414C5DAF464
:1036A000000EDE6E020EDD6E31D759A44AD0000E38
:1036B0000D6E000E0E6E000E0F6E000E106ECD0E13
:1036C00017ECD5F00009D8A464D1FF0E74ECD8F043
:1036D000620E076E050E086E000E0A6E100E096E61
:1036E00047ECCFF00009D8B454D1300E0501786F03
:1036F00005D0FF0E74ECD8F0050178077851D8A4F6
:10370000F8D76CC515F5153A0F0E1516100E166E76
:10371000176A186A196A152A05D0D890163617360E
:1037200018361936152EF9D713C5D9F414C5DAF49D
:1037300016C5DEF417C5DEF418C5DEF419C5DEF4CF
:10374000E5D6000E0D6E000E0E6E000E0F6E000E12
:10375000106E490E17ECD5F00009D8A41AD1620EEC
:10376000076E050E086E000E0A6E100E096E47EC0D
:10377000CFF00009D8B40DD159A22BD06FC515F5E3
:10378000060E166ED8901532162EFCD7FF0E152693
:1037900005016C513F0B176E186AD8901736183612
:1037A000196A6DAF01D0192A010E19161950172682
:1037B000000E1822010E1726000E1822152A03D01B
:1037C000D89017361836152EFBD717501A6E18508A
:1037D00035D06CC515F5D8901532D89015321F0E1E
:1037E0001516010E1524066E076A000E0722050144
:1037F0006D51030B166E176AD89016361736D8908F
:1038000016361736D890163617366DC518F5050ECC
:10381000196ED8901832192EFCD7070E18161850AA
:103820001626000E1722010E1624086E000E172011
:10383000096EB8ECD7F006501A6E07501B6E1C6A62
:103840001D6A13C5D9F414C5DAF41AC5DEF41BC514
:10385000DEF41CC5DEF41DC5DEF458D660C5D9F40F
:1038600061C5DAF459C5DFF451D6000E0D6E000EB5
:103870000E6E000E0F6E000E106E490E17ECD5F096
:103880000009D8A486D013C507F514C508F5000EA5
:103890000A6E100E096E47ECCFF00009D8A436D698
:1038A00078D0000E0D6E000E0E6E000E0F6E000E24
:1038B000106E4A0E17ECD5F00009D8A46AD013C5D3
:1038C00007F514C508F5000E0A6E100E096E47ECD8
:1038D000CFF0E3D7000E0D6E000E0E6E000E0F6ED1
:1038E000000E106E7A0E17ECD5F00009D8A451D056
:1038F000000E0501786F78511324D96E000E142044
:10390000DA6EFF0E74ECD8F0DF6E0501782B030E33
:103910007865F1D7FBD559A43CD0000E0D6E000E92
:103920000E6E000E0F6E000E106ECD0E17ECD5F061
:103930000009D8A42ED0FF0E74ECD8F013C507F5FB
:1039400014C508F5000E0A6E400E096E47ECCFF064
:10395000A4D7040E776F1DD01250000AD8B4D0D56A
:10396000010AD8B4D6D5030AD8B496D6010AD8B479
:103970009CD6090AD8B472D7010AD8B476D7070AF8
:10398000D8B48FD7010AD8B4A5D7030AD8B4C3D7FF
:10399000E0D7F5ECD8F00501775112001EC5D9F437
:1039A0001FC5DAF4DEC461F5DDC462F520EE16F061
:1039B0002050D9262150DA22DF6A20EE16F01E5060
:1039C000D9261F50DA22DE50DE10DE10DE10D8B409
:1039D000120020EE28F01E50D9261F50DA22DE28D1
:1039E00007E1DE2805E1DE2803E1DE28D8B4A6D011
:1039F000000E05016C6F000E6B6F6BC567F56CC533
:103A000068F56CD020EE0CF06151D9266251DA22B3
:103A1000DEC422F5DDC423F5D8906735D96E68354C
:103A2000DA6E2250D9262350DA22DEC469F5DDC4CD
:103A30006AF5674B682B65516611D8A40DD0D80E76
:103A40006A5DD8A009D0E00E6A5DD8B005D069C51E
:103A500065F56AC566F546D06551226E6651236EDE
:103A6000246A256A23C525F522C524F5236A226A1E
:103A700069512210146E6A512310156E000E241025
:103A8000166E000E2510176E6B512024266E6C5199
:103A90002120276E160E2624186E000E2720196E80
:103AA0006B510601E55D1A6E05016C51D8A06C29B9
:103AB0001B6A1B5EB6ECCEF014C563F515C564F544
:103AC000050163516411D8A405D0000E6C6F000E7F
:103AD0006B6F1FD063516B2764516C23000E666FB0
:103AE000000E656F20EE0CF06151D9266251DA228A
:103AF000DEC422F5DDC423F5D8906735D96E68356C
:103B0000DA6E2250D9262350DA22DE50DE10D8A4F5
:103B100079D765516611D8B404D0000E6C6F000ED1
:103B20006B6F6B512024226E6C512120236E160E78
:103B30002224D96E000E2320DA6EDF6A000E050102
:103B40006C6F000E6B6F6BC567F56CC568F550D078
:103B500020EE1AF01E50D9261F50DA22DEC422F5BC
:103B6000DDC423F567512224D96E68512320DA6E13
:103B7000DF50246E2450696F6A6B674B682B200EF0
:103B800069196A11D8B434D0050E69196A11D8A41C
:103B900004D0000E6A6FE50E696F090E671968118F
:103BA000D8A416D06C5114E10C0E6B5DD8B010D0B7
:103BB0006B512024226E6C512120236E090E222489
:103BC000D96E000E2320DA6E2E0EDF6E6B4B6C2B3F
:103BD0006B512024226E6C512120236E090E222469
:103BE000D96E000E2320DA6E69C5DFF46B4B6C2BA7
:103BF000685104E10B0E675DD8A0AAD76B51202451
:103C0000226E6C512120236E090E2224D96E000EE3
:103C10002320DA6EDF6A20EE16F02050D9262150DC
:103C2000DA22DF50D8A49DD06B516C11D8A411D0EA
:103C30006B512024226E6C512120236E160E2224FB
:103C4000D96E000E2320DA6E3F0EDF6E6B4B6C2BAD
:103C500065D0000E6C6F000E6B6F6BC567F56CC5A1
:103C600068F5080E606F4BD067512024226E6851B2
:103C70002120236E090E2224D96E000E2320DA6E35
:103C8000DF50246E2450696F6A6B2E0E69196A1119
:103C9000D8A402D0100E606F6A5104E1410E695D34
:103CA000D8A01BD06A5119E15B0E695DD8B015D060
:103CB00020EE1AF01E50D9261F50DA2210EE0CF01A
:103CC000DE50E126DD50E222E75060150009D8B44D
:103CD00004D0200E6927000E6A236B512024226E27
:103CE0006C512120236E160E2224D96E000E232043
:103CF000DA6E69C5DFF4674B682B6B4B6C2B675131
:103D00002024226E68512120236E090E2224D96EB0
:103D1000000E2320DA6EDF50D8A4A6D76B512024E2
:103D2000226E6C512120236E160E2224D96E000EB5
:103D30002320DA6EDF6A20EE1AF01E50D9261F50BB
:103D4000DA2210EE0CF0DE50E126DD50E222E750E0
:103D5000D8A407D020EE09F02050D9262150DA222D
:103D6000DF6A20EE08F02050D9262150DA2210EE2A
:103D70001AF01E50E1261F50E22200EE0BF0E65032
:103D8000E926E550EA22EF503F0BDF6E20EE1AF0F5
:103D90001E50D9261F50DA22DEC422F5DDC423F5D9
:103DA0001C0E2224066E000E2320076E47ECC9F07D
:103DB00020C5D9F421C5DAF406C5DEF407C5DEF462
:103DC00008C5DEF409C5DEF420EE1AF01E50D9262F
:103DD0001F50DA22DEC422F5DDC423F5160E22249C
:103DE000066E000E2320076E12ECD6F020EE06F0D1
:103DF0002050D9262150DA2206C5DEF407C5DDF4AD
:103E000020EE1AF01E50D9261F50DA22DEC422F509
:103E1000DDC423F5180E2224066E000E2320076E43
:103E200012ECD6F020EE04F02050D9262150DA22F0
:103E300006C5DEF407C5DDF4120087C5D9F488C5D0
:103E4000DAF4DEC49EF5DDC49FF5050189518A11BF
:103E50008B118C11D8A42DD020EE0EF09E51D926B6
:103E60009F51DA22DEC496F5DEC497F5DEC498F5DC
:103E7000DEC499F59651971198119911D8B410D0C4
:103E800020EE16F09E51D9269F51DA22DE50965D23
:103E9000DE509759DE509859DE509959D8A05BD022
:103EA000010E966F000E976F000E986F000E996FBF
:103EB00052D087C566F588C567F589C568F58AC596
:103EC00069F58BC56AF58CC56BF542ECA5F066C546
:103ED000A0F567C5A1F568C5A2F569C5A3F50501FB
:103EE000A351A211A1110DE1020EA05DD8B009D01D
:103EF000010E876F000E886F000E896F000E8A6FAB
:103F00001200A02910E1A1290EE1A2290CE1A329A8
:103F1000D8A409D0A0C587F5A1C588F5A2C589F5A3
:103F2000A3C58AF5120020EE16F09E51D9269F51A6
:103F3000DA22DE50A05DDE50A159DE50A259DE50DB
:103F4000A359D8A0E7D789C596F58AC597F58BC53B
:103F500098F58CC599F520EE12F09E51D9269F5107
:103F6000DA22DE50DE10DE10DE10D8A409D0000EFA
:103F7000876F000E886F000E896F000E8A6F120027
:103F8000000E9A6F000E9B6F000E9C6F000E9D6FCF
:103F90008951961909E18A51971906E18B519819AF
:103FA00003E18C519919D8A486D0010E96259A6FF9
:103FB000000E97219B6F000E98219C6F000E992197
:103FC0009D6F20EE16F09E51D9269F51DA22DE50C9
:103FD0009A5DDE509B59DE509C59DE509D59D8A009
:103FE00008D0020E9A6F000E9B6F000E9C6F000EA1
:103FF0009D6F87C566F588C567F59AC568F59BC549
:1040000069F59CC56AF59DC56BF542ECA5F066C5E2
:10401000A0F567C5A1F568C5A2F569C5A3F50501B9
:10402000A005A111A211A311D8B474D7A02907E14A
:10403000A12905E1A22903E1A329D8B46BD7A05196
:10404000A111A211A311D8B436D020EE0EF09E51CA
:10405000D9269F51DA22DEC4A0F5DEC4A1F5DEC464
:10406000A2F5DEC4A3F5A351A211A11104E1020E31
:10407000A05DD8A018D020EE16F09E51D9269F51F1
:10408000DA22DE50A05DDE50A159DE50A259DE508A
:10409000A359D8B008D0A0C596F5A1C597F5A2C57B
:1040A00098F5A3C599F5000E9A6F000E9B6F000E50
:1040B0009C6F000E9D6F9A519B119C119D11D8A46D
:1040C00068D096C59AF597C59BF598C59CF599C596
:1040D0009DF5010E9A27000E9B239C239D2320EE25
:1040E00016F09E51D9269F51DA22DE509A5DDE509D
:1040F0009B59DE509C59DE509D59D8A010D0020E1D
:104100009A6F000E9B6F000E9C6F000E9D6F995171
:104110009811971104E1020E965DD8A028D787C5A3
:1041200066F588C567F59AC568F59BC569F59CC5B0
:104130006AF59DC56BF542ECA5F066C5A0F567C5AF
:10414000A1F568C5A2F569C5A3F50501A051A111A6
:10415000A211A311D8B41DD0A005A111A211A311C1
:10416000D8B4D8D6A02907E1A12905E1A22903E105
:10417000A329D8B4CFD696519A19ABE197519B1980
:10418000A8E198519C19A5E199519D19D8B4EFD691
:10419000A0D79EC566F59FC567F59AC568F59BC50E
:1041A00069F59CC56AF59DC56BF5FF0E6C6FFF0E3A
:1041B0006D6FFF0E6E6FFF0E6F6F62ECA1F0050169
:1041C000956F9551D8A41ED089518A118B118C11ED
:1041D000D8B418D09EC566F59FC567F589C568F542
:1041E0008AC569F58BC56AF58CC56BF59AC56CF502
:1041F0009BC56DF59CC56EF59DC56FF562ECA1F094
:104200000501956F9551D8A444D020EE0EF09E5133
:10421000D9269F51DA229AC5DEF49BC5DEF49CC5EF
:10422000DEF49DC5DEF420EE12F09E51D9269F519A
:10423000DA2210EE16F09E51E1269F51E222FE0E88
:10424000E624916FFF0EE620926FFF0EE620936F3B
:10425000FF0EE620946FDE50915DDE509259DE50E5
:104260009359DE509459D8A00BD020EE12F09E51F5
:10427000D9269F51DA22DE06000EDE5ADE5ADE5AB9
:1042800020EE05F09E51D9269F51DA22000EDB80E8
:1042900010D09505D8B409D0010E9A6F000E9B6F0F
:1042A000000E9C6F000E9D6F04D09A699B699C69FB
:1042B0009D699AC587F59BC588F59CC589F59DC5FF
:1042C0008AF51200020E0501866F6B516A116911A1
:1042D00004E1020E685DD8A016D220EE16F06651F9
:1042E000D9266751DA22DE50685DDE506959DE500A
:1042F0006A59DE506B59D8A0F8D105D268C584F54B
:1043000069C585F5D8908531716F8431706F7051B2
:1043100084277151852366C560F567C561F520EE78
:1043200022F06651D9266751DA22DEC470F5DEC468
:1043300071F5DEC472F5DEC473F584C574F585C508
:1043400075F5090E766FD89075337433762FFBD7D9
:1043500074517025626F75517121636F000E722167
:10436000646F000E7321656F54ECCAF00501866F0F
:104370008651D8A4C8D1FF0E8415706F010E851523
:10438000716F70516625726F71516721736F320EB4
:104390007225826F000E7321836F844B852B68B169
:1043A00004D06CC57EF57F6B1AD06C51706F716B49
:1043B000703B713BF00E711770510F0B7113F00EC3
:1043C000701782C5D9F483C5DAF4DF500F0B726F12
:1043D000736B705172117E6F715173117F6F82C553
:1043E000D9F483C5DAF47EC5DFF420EE04F066511B
:1043F000D9266751DA22010EDF6E66C560F567C502
:1044000061F520EE22F06651D9266751DA22DEC42A
:1044100070F5DEC471F5DEC472F5DEC473F584C5D3
:1044200074F585C575F5090E766FD89075337433BC
:10443000762FFBD774517025626F75517121636FB0
:10444000000E7221646F000E7321656F54ECCAF088
:104450000501866F8651D8A456D1FF0E8415706F62
:10446000010E8515716F70516625726F715167214C
:10447000736F320E7225826F000E7321836F68B1E5
:104480001BD06CC570F56DC571F56EC572F56FC545
:1044900073F571C570F572C571F573C572F5736BFF
:1044A0000F0E701782C5D9F483C5DAF4DF50F00B14
:1044B0007011746F745112D06CC570F56DC571F5C3
:1044C0006EC572F56FC573F5050E05D0D8907333C0
:1044D000723371337033E82EF9D77051806F816B6E
:1044E00082C5D9F483C5DAF480C5DFF454D066C53B
:1044F00060F567C561F520EE22F06651D926675157
:10450000DA22DEC470F5DEC471F5DEC472F5DEC4F5
:1045100073F568C574F569C575F56AC576F56BC53B
:1045200077F575C574F576C575F577C576F5776B4E
:1045300070517425626F71517521636F72517621CC
:10454000646F73517721656F54ECCAF00501866F73
:104550008651D8A4D8D068C570F569C571F5D890D2
:1045600070377137FF0E7015726F010E7115736F12
:1045700072516625746F73516721756F320E742501
:10458000066E000E7521076E6CC508F56DC509F540
:1045900091ECD7F0A8D020EE04F06651D9266751EF
:1045A000DA22010EDF6EAFD066C560F567C561F532
:1045B00020EE22F06651D9266751DA22DEC470F56A
:1045C000DEC471F5DEC472F5DEC473F568C574F53A
:1045D00069C575F56AC576F56BC577F5080E05D022
:1045E000D8907733763375337433E82EF9D770511A
:1045F0007425626F71517521636F72517621646FFA
:1046000073517721656F54ECCAF00501866F8651AE
:10461000D8A479D068C570F569C571F5D8907037A0
:104620007137D89070377137FF0E7015726F010EA9
:104630007115736F72516625746F73516721756FB1
:10464000320E7425066E000E7521076E47ECC9F018
:10465000000E06140501766F000E0714776F000E2A
:104660000814786FF00E0914796FFF0E6C157A6FCD
:10467000FF0E6D157B6FFF0E6E157C6F0F0E6F15A5
:104680007D6F76517A116C6F77517B116D6F785118
:104690007C116E6F79517D116F6F68C570F569C5BA
:1046A00071F5D89070377137D89070377137FF0E29
:1046B0007015726F010E7115736F72516625746FEC
:1046C00073516721756F320E7425066E000E7521C9
:1046D000076E6CC508F56DC509F56EC50AF56FC5A1
:1046E0000BF568ECD1F0050156D766C5D9F467C55E
:1046F000DAF4DF50010AD8B401D6030AD8B4F7D6E9
:10470000010AD8B451D786511200CBC5D9F4CCC513
:10471000DAF4DEC4EAF5DDC4EBF5050120EE27F09E
:10472000CB51D926CC51DA22DF50CD6FA00ECD1758
:10473000D8B402D0060E1200000EE56F000EE46F32
:1047400002D0E44BE52B20EE0CF0EA51D926EB51D8
:10475000DA22DEC4CDF5DDC4CEF5D890E435D96ECD
:10476000E535DA6ECD51D926CE51DA22DE50DE1093
:10477000D8A4E7D7D70E066E050E076E1C0ECB2504
:10478000086E000ECC21096E000E0B6E0C0E0A6E28
:10479000D3ECD4F00501E2A14ED020EE27F0CB51AE
:1047A000D926CC51DA22400EDF6E000EE76F010EE3
:1047B000E66F1C0ECB25116E000ECC21126ED70EAB
:1047C000136E050E146E20EE0CF0EA51D926EB5153
:1047D000DA22DEC415F5DDC416F5E6C517F5E7C522
:1047E00018F5D3ECB0F0CBC5BEF5CCC5BFF555EC94
:1047F000ADF00501EC6FEC51D8A408D0E64BE72BE7
:10480000E75104E1640EE65DD8A0D3D7640EE61943
:10481000E711D8A402D0070E1200040EEC19D8B488
:1048200002D0EC51120020EE27F0CB51D926CC510A
:10483000DA22E2C5DFF4E2B305D0000EE96F010E23
:10484000E86F13D00C0EE425066E000EE521076E0E
:10485000000E096E0D0E086ED2ECD3F0010E062488
:104860000501E86F000E0720E96FCBC5BEF5CCC58A
:10487000BFF5E8C5C0F5E9C5C1F5FBECC3F005011E
:10488000EC6FEC51D8A498D0E807D8A0E907E8511C
:10489000E911D8B491D0CBC580F5CCC581F5E8C578
:1048A000CDF5E9C5CEF5050ED890CD37CE37E82E3B
:1048B000FBD7CD51CF6FCE51D06FD16BD26B20EEE5
:1048C0000EF0CB51D926CC51DA22DEC4D3F5DEC4AA
:1048D000D4F5DEC4D5F5DEC4D6F5CF51D35D826FF5
:1048E000D051D459836FD151D559846FD251D659F3
:1048F000856F59ECAAF00501EC6FEC51D8A45CD09F
:104900001C0ECB25066E000ECC21076EBBECD5F03D
:104910000501E36FEAC560F5EBC561F520EE16F021
:10492000CB51D926CC51DA22DEC462F5DEC463F560
:10493000DEC464F5DEC465F554ECCAF00501EC6F25
:10494000EC51D8A439D020EE0CF0EA51D926EB5125
:10495000DA22DEC40CF5DDC40DF520EE1AF0CB51E1
:10496000D926CC51DA22DEC40EF5DDC40FF5E8C538
:1049700010F5E3C511F56DECC3F0050120EE04F070
:10498000EA51D926EB51DA22010EDF6ECBC5A4F530
:10499000CCC5A5F5000EA76F000EA66FFBECA6F028
:1049A0000501EC6FEC51D8A407D0E807D8A0E907BF
:1049B000E851E911D8A4AED7EC51D8A432D7EAC552
:1049C00060F5EBC561F520EE16F0CB51D926CC5140
:1049D000DA22DEC462F5DEC463F5DEC464F5DEC44B
:1049E00065F554ECCAF00501EC6FEC51D8A419D769
:1049F00020EE1AF0CB51D926CC51DA22DEC406F5CE
:104A0000DDC407F5000E096E000E086E000E0B6E79
:104A1000200E0A6E3CECD7F0050120EE1AF0CB51C7
:104A2000D926CC51DA22DEC406F5DDC407F51C0E0A
:104A3000CB25086E000ECC21096E000E0B6E0B0EFE
:104A40000A6ED3ECD4F0050120EE1AF0CB51D92632
:104A5000CC51DA2210EE0CF0DE50E126DD50E222DD
:104A600020EE27F0CB51D926CC51DA22DF50180B9B
:104A7000E76E20EE04F0EA51D926EB51DA22010E5E
:104A8000DF6ECFD666C5D9F467C5DAF4DEC47EF52D
:104A9000DDC47FF505016B516A11691104E1020E55
:104AA000685DD8A010D020EE16F07E51D9267F5137
:104AB000DA22DE50685DDE506959DE506A59DE50F8
:104AC0006B59D8A008D0010E766F000E776F000EDC
:104AD000786F000E76D1766977697869796973D1D4
:104AE00068C57CF569C57DF5D8907D316D6F7C31E9
:104AF0006C6F6C517C276D517D237EC560F57FC541
:104B000061F520EE22F07E51D9267F51DA22DEC4F3
:104B10006CF5DEC46DF5DEC46EF5DEC46FF57CC5E4
:104B200070F57DC571F5090E726FD89071337033D1
:104B3000722FFBD770516C25626F71516D21636FBD
:104B4000000E6E21646F000E6F21656F54ECCAF089
:104B50000009D8A447D1FF0E05017C156C6F010E2A
:104B60007D156D6F6C517E256E6F6D517F216F6F5E
:104B7000320E6E25D96E000E6F21DA6EDF50706F27
:104B800070517A6F7B6B7C4B7D2B7EC560F57FC54A
:104B900061F520EE22F07E51D9267F51DA22DEC463
:104BA0006CF5DEC46DF5DEC46EF5DEC46FF57CC554
:104BB00070F57DC571F5090E726FD8907133703341
:104BC000722FFBD770516C25626F71516D21636F2D
:104BD000000E6E21646F000E6F21656F54ECCAF0F9
:104BE0000009D8A4FFD0FF0E05017C156C6F010EE3
:104BF0007D156D6F6C517E256E6F6D517F216F6FCE
:104C0000320E6E25D96E000E6F21DA6EDF50706F96
:104C10007051726F716B71517A1372517B1368B15D
:104C200007D0FF0E7A15746F0F0E7B15756F0FD0BE
:104C30007AC56CF57BC56DF5040E6E6FD8906D333B
:104C40006C336E2FFBD76CC574F56DC575F574C5E7
:104C500076F575C577F553D07EC560F57FC561F5EE
:104C600020EE22F07E51D9267F51DA22DEC46CF587
:104C7000DEC46DF5DEC46EF5DEC46FF568C570F593
:104C800069C571F56AC572F56BC573F571C570F5C7
:104C900072C571F573C572F5736B6C517025626FD7
:104CA0006D517121636F6E517221646F6F51732169
:104CB000656F54ECCAF00009D8A494D068C56CF5AF
:104CC00069C56DF5D89005016C376D37FF0E6C1511
:104CD0006E6F010E6D156F6F6E517E25706F6F5187
:104CE0007F21716F320E7025066E000E7121076EE6
:104CF00012ECD6F006C576F507C577F50501786B99
:104D0000796B70D07EC560F57FC561F520EE22F02D
:104D10007E51D9267F51DA22DEC46CF5DEC46DF5F2
:104D2000DEC46EF5DEC46FF568C570F569C571F552
:104D30006AC572F56BC573F5080E05D0D89073334C
:104D4000723371337033E82EF9D76C517025626F6E
:104D50006D517121636F6E517221646F6F517321B8
:104D6000656F54ECCAF00009D8A43CD068C56CF556
:104D700069C56DF50501D8906C376D37D8906C37E3
:104D80006D37FF0E6C156E6F010E6D156F6F6E51E6
:104D90007E25706F6F517F21716F320E7025066E08
:104DA000000E7121076E47ECC9F0FF0E06140501D5
:104DB000766FFF0E0714776FFF0E0814786F0F0ED3
:104DC0000914796F0FD07EC5D9F47FC5DAF4DF50AE
:104DD000010AD8B485D6030AD8B43ED7010AD8B49C
:104DE00091D771D676C566F577C567F578C568F54C
:104DF00079C569F51200A4C5D9F4A5C5DAF4DEC4F5
:104E0000B8F5DDC4B9F5050120EE0EF0A451D926A0
:104E1000A551DA22DEC4A8F5DEC4A9F5DEC4AAF5E0
:104E2000DEC4ABF5200EA825B46F000EA921B56F26
:104E3000000EAA21B66F000EAB21B76FB75104E187
:104E4000200EB65DD8A00AD020EE16F0A451D926C7
:104E5000A551DA22DE6ADE6ADE6ADD6A20EE16F02D
:104E6000A451D926A551DA22DE50DE10DE10DE1064
:104E7000D8A402D0040E1200FF0EB415A86F010EC4
:104E8000B515A96F000EB615AA6F000EB715AB6F5A
:104E9000A851A911AA11AB11D8A438D120EE16F04F
:104EA000A451D926A551DA22DE2A000EDE22DE2206
:104EB000DE2220EE12F0A451D926A551DA22DE50CE
:104EC000DE10DE10DE10D8A42CD020EE08F0B85191
:104ED000D926B951DA22DEC4A8F5DDC4A9F5A85156
:104EE000AA6FA951AB6FAC6BAD6BB4C5AEF5B5C5D0
:104EF000AFF5B6C5B0F5B7C5B1F5060E05D0D8907B
:104F0000B133B033AF33AE33E82EF9D7AA51AE5D2B
:104F1000AB51AF59AC51B059AD51B159D8A0F6D041
:104F200079D020EE0AF0B851D926B951DA22DEC480
:104F3000A8F5DDC4A9F5FF0EA825AA6FFF0EA921CB
:104F4000AB6FB4C5ACF5B5C5ADF5B6C5AEF5B7C577
:104F5000AFF50A0E05D0D890AF33AE33AD33AC33D6
:104F6000E82EF9D7AA51AC15B06FAB51AD15B16FA2
:104F7000000EAE15B26F000EAF15B36FB051B11188
:104F8000B211B311D8A4C2D0A4C566F5A5C567F502
:104F900020EE12F0A451D926A551DA22DEC468F51C
:104FA000DEC469F5DEC46AF5DEC46BF542ECA5F03B
:104FB00066C5BAF567C5BBF568C5BCF569C5BDF57D
:104FC0000501BD51BC11BB1106E1020EBA5DD8B09E
:104FD00002D0020E1200BA2909E1BB2907E1BC295F
:104FE00005E1BD29D8A402D0010E120020EE16F072
:104FF000B851D926B951DA22DE50BA5DDE50BB591C
:10500000DE50BC59DE50BD59D8A054D0A651A711CE
:10501000D8A40BD020EE16F0A451D926A551DA223F
:10502000DE6ADE6ADE6ADD6A25D7A4C587F5A5C516
:1050300088F520EE12F0A451D926A551DA22DEC45B
:1050400089F5DEC48AF5DEC48BF5DEC48CF51DEC73
:105050009FF087C5BAF588C5BBF589C5BCF58AC57B
:10506000BDF50501BA51BB11BC11BD11D8A402D0C8
:10507000070E1200BA05BB11BC11BD11D8B4A9D7D7
:10508000BA2907E1BB2905E1BC2903E1BD29D8B450
:10509000ABD7B8C560F5B9C561F5BAC562F5BBC592
:1050A00063F5BCC564F5BDC565F5DAECC2F0000971
:1050B000D8A49AD7050120EE12F0A451D926A55103
:1050C000DA22BAC5DEF4BBC5DEF4BCC5DEF4BDC56C
:1050D000DEF4B8C512F5B9C513F5BAC514F5BBC5EC
:1050E00015F5BCC516F5BDC517F587ECC8F005016B
:1050F00020EE16F0A451D926A551DA2212C5DEF40D
:1051000013C5DEF414C5DEF415C5DEF420EE0EF092
:10511000A451D926A551DA22B4C5DEF4B5C5DEF412
:10512000B6C5DEF4B7C5DEF4FF0EB415A86F010EE8
:10513000B515A96FA851B825AA6FA951B921AB6FB0
:10514000320EAA27000EAB2320EE1AF0A451D92666
:10515000A551DA22AAC5DEF4ABC5DDF4000E1200BB
:105160000601D56F0601D551440DD20EF324DB6F35
:105170000F0EF420DC6F20EE3CF0DB51D926DC5121
:10518000DA22DF50D8B402D0000E1200D551440DFF
:10519000F60EF324D66F0F0EF420D76FD6C6D9F4CF
:1051A000D7C6DAF4DF50D8A41BD0D6C606F5D7C6CA
:1051B00007F5EF0E086EFF0E096E22ECD4F0060123
:1051C00020EE07F0D651D926D751DA22D551300F2B
:1051D000DF6E20EE08F0D651D926D751DA22DF6AE9
:1051E000030ED06F0501FAA302D0070E03D0FAA573
:1051F00003D0010E0601D06FDBC6EDF5DCC6EEF57F
:10520000D6C6EFF5D7C6F0F5D0C6F1F5F8EC8CF0C0
:105210000601D86FD851D8B403D00601D851120076
:105220000501FAA30BD0DBC6EBF5DCC6ECF5F0EC20
:10523000B7F00601D86FD851D8A434D1DBC680F5B9
:10524000DCC681F5B20E0501826F0C0E836F010E74
:10525000856F000E846FD30E866F060E876F05EC88
:1052600090F00601D86FD851D8A41CD1D405D31121
:10527000D8B404D0090E0601D86F14D1B20ED96F7C
:105280000C0EDA6FD9C6D9F4DAC6DAF4560EDE1887
:10529000D8A4F0D720EE01F0D951D926DA51DA227C
:1052A000CB0EDE18D8A4E6D720EE02F0D951D926CD
:1052B000DA51DA22100EDE18D8B40AD020EE02F04D
:1052C000D951D926DA51DA22110EDE18D8A4D2D754
:1052D0000501FAA509D0060120EE3FF0DB51D926E1
:1052E000DC51DA22010E12D0060120EE3FF0DB5134
:1052F000D926DC51DA2210EE07F0D951E126DA5135
:10530000E222E7AE02D0010E01D0000EDF6E20EEE9
:105310001BF0D951D926DA51DA22DF500501FB6F93
:10532000030EFB17FB51FD6FFC6B060120EE40F0F6
:10533000DB51D926DC51DA22FCC5DEF4FDC5DDF4F3
:1053400020EE40F0DB51D926DC51DA2210EE1CF0C1
:10535000D951E126DA51E222E7500501FB6FFB51FA
:10536000DE26000EDD22060120EE1DF0D951D926E1
:10537000DA51DA22DF50D8A405D0010ED26F000E28
:10538000D16F0DD020EE1DF0D951D926DA51DA2295
:10539000DF500501FB6FFB510601D16FD26B20EE90
:1053A0001AF0D951D926DA51DA22DF50D8A421D007
:1053B00020EE43F0DB51D926DC51DA22200EDF6EDD
:1053C00020EE42F0DB51D926DC51DA22D1C606F5B7
:1053D000D2C607F510EE43F0DB51E126DC51E222A4
:1053E000E7500501FB6FFB51086E096AD2ECD3F060
:1053F00026D020EE1AF0D951D926DA51DA2210EE51
:1054000042F0DB51E126DC51E222DFC4E7F420EE7A
:1054100043F0DB51D926DC51DA22D1C606F5D2C6DB
:1054200007F510EE42F0DB51E126DC51E222E750B5
:105430000501FB6FFB51086E096AD2ECD3F00650F0
:10544000DF6E060120EE43F0DB51D926DC51DA2273
:10545000DF50066E20EE1DF0D951D926DA51DA223E
:10546000DF5067ECD7F00009D8A404D7060120EE7E
:1054700042F0DB51D926DC51DA22080EDF6401D07C
:10548000F9D620EE3DF0DB51D926DC51DA22DE6A76
:10549000DD6A20EE3CF0DB51D926DC51DA22000E29
:1054A000DB8072D6DBC688F5DCC689F5F5ECD4F076
:1054B000B4D680C5D9F481C5DAF4DEC498F5DDC46C
:1054C00099F50501855116E1200E845DD8B012D002
:1054D0001F0E8215866F000E8315876F000E8415D0
:1054E000886F000E8515896F865187118811891183
:1054F000D8B402D0020E120020EE0EF08051D92650
:105500008151DA2282C5DEF483C5DEF484C5DEF47F
:1055100085C5DEF420EE06F08051D9268151DA22CD
:10552000DEC494F5DEC495F5DEC496F5DEC497F5C9
:105530009451951196119711D8A415D098C5D9F406
:1055400099C5DAF4020EDF640ED020EE26F09851F1
:10555000D9269951DA22DEC494F5DEC495F5DEC46D
:1055600096F5DEC497F59451951196119711D8A42C
:1055700040D020EE08F09851D9269951DA22DEC4A5
:1055800086F5DDC487F58651886F8751896F8A6BF0
:105590008B6B82C58CF583C58DF584C58EF585C56D
:1055A0008FF5060E05D0D8908F338E338D338C3324
