:040000000EEF08F007
:041000000EEF08F0F7
:0410080075EF95F0FB
:08101800F5EFD5F0F8EFCEF082
:10FB0C0000809A45418E418F804545454949498E33
:10FB1C008F9092924F994F555559999A9B9C9D9EB7
:10FB2C009F41494F55A5A5A6A7A8A9AAABACADAEB8
:10FB3C00AFB0B1B2B3B4B5B6B7B8B9BABBBCBDBE51
:10FB4C00BFC0C1C2C3C4C5C6C7C8C9CACBCCCDCE41
:10FB5C00CFD0D1D2D3D4D5D6D7D8D9DADBDCDDDE31
:10FB6C00DFE0E1E2E3E4E5E6E7E8E9EAEBECEDEE21
:10FB7C00EFF0F1F2F3F4F5F6F7F8F9FAFBFCFDFE11
:10FB8C00FF62A401AEAD0108AA01808E0124A5017B
:10FB9C0094A30182AD0126A80184A501329C01FC2D
:10FBAC00A301CE9901367A01C6B001C89C019C9B79
:10FBBC000101030507090E10121416181C1E610012
:10FBCC001A03E0001703F8000703FF000100780197
:10FBDC000001300132010601390110014A012E01E8
:10FBEC007901060180014D004302810182018201ED
:10FBFC008401840186018701870189018A018B01B7
:10FC0C008B018D018E018F01900191019101930166
:10FC1C009401F60196019701980198013D029B0110
:10FC2C009C019D0120029F01A001A001A201A20143
:10FC3C00A401A401A601A701A701A901AA01AB0176
:10FC4C00AC01AC01AE01AF01AF01B101B201B30126
:10FC5C00B301B501B501B701B801B801BA01BB01D7
:10FC6C00BC01BC01BE01F701C001C101C201C3014D
:10FC7C00C401C501C401C701C801C701CA01CB0138
:10FC8C00CA01CD011001DD0101008E01DE0112015E
:10FC9C00F3010300F101F401F401F801280122023F
:10FCAC0012013A020900652C3B023B023D02662C14
:10FCBC003F0240024102410246020A015302400047
:10FCCC0081018601550289018A0158028F015A026D
:10FCDC0090015C025D025E025F02930161026202AE
:10FCEC0094016402650266026702970196016A023A
:10FCFC00622C6C026D026E029C01700271029D01FD
:10FD0C00730274029F0176027702780279027A02FA
:10FD1C007B027C02642C7E027F02A601810282029D
:10FD2C00A9018402850286028702AE014402B10158
:10FD3C00B20145028D028E028F0290029102B70130
:10FD4C007B030300FD03FE03FF03AC0304008603E7
:10FD5C00880389038A03B1031103C2030200A303BE
:10FD6C00A303C4030803CC0303008C038E038F038B
:10FD7C00D8031801F2030A00F903F303F403F503A3
:10FD8C00F603F703F703F903FA03FA03300420032D
:10FD9C0050041007600422018A043601C1040E01CC
:10FDAC00CF040100C004D004440161052604000006
:10FDBC00C700FC00E900E200E400E000E500E70019
:10FDCC00EA00EB00E800EF00EE00EC00C400C50018
:10FDDC00C900E600C600F400F600F200FB00F900D2
:10FDEC00FF00D600DC00A200A300A500A720920112
:10FDFC00E100ED00F300FA00F100D100AA00BA0016
:10FE0C00BF001023AC00BD00BC00A100AB00BB00C8
:10FE1C0091259225932502252425612562255625B9
:10FE2C0055256325512557255D255C255B2510251A
:10FE3C00142534252C251C2500253C255E255F2505
:10FE4C005A25542569256625602550256C2567257E
:10FE5C0068256425652559255825522553256B257C
:10FE6C006A2518250C25882584258C259025802528
:10FE7C00B103DF009303C003A303C303B500C403A2
:10FE8C00A6039803A903B4031E22C603B5032922B3
:10FE9C006122B1006522642220232123F70048222D
:10FEAC00B0001922B7001A227F20B200A025A000B2
:10FEBC007D1D0100632C001E9601A01E5A01001F1F
:10FECC000806101F0606201F0806301F0806401FD4
:10FEDC000606511F0700591F521F5B1F541F5D1F41
:10FEEC00561F5F1F601F0806701F0E00BA1FBB1F36
:10FEFC00C81FC91FCA1FCB1FDA1FDB1FF81FF91F32
:10FF0C00EA1FEB1FFA1FFB1F801F0806901F080635
:10FF1C00A01F0806B01F0400B81FB91FB21FBC1FDA
:10FF2C00CC1F0100C31FD01F0206E01F0206E51FF5
:10FF3C000100EC1FF31F0100FC1F4E2101003221B8
:10FF4C0070211002842101008321D0241A05302C49
:10FF5C002F04602C0201672C0601752C0201802CE9
:10FF6C006401002D260841FF1A03000043617264EE
:10FF7C0020696E697469616C697A656421004361FA
:10FF8C00726420696E6974206661696C65642E0008
:10FF9C004361726420696E736572746564210044F8
:10FFAC007269766573206D6F756E7465640043615C
:10FFBC0072642072656D6F76656421004641542031
:10FFCC006D6F756E746564006574727368617264CC
:10FFDC00004641543332202020002A3A3C3E7C22F9
:10FFEC003F7F002F68617264342D002B2C3B3D5BEE
:03FFFC005D0000A5
:020000040001F9
:10000000A2C507F5A3C508F5DF0E096E050E0A6E39
:10001000DFECC8F00501DA6FDA51D8A408D020EE81
:100020000FF0A251D926A351DA22DF50DA6FDA514C
:10003000D8B402D0DA51120020EE22F0A251D92613
:10004000A351DA22DE50DE10D8B407D2A42906E18B
:10005000A52904E1A62902E1A729D8A415D120EEFB
:1000600022F0A251D926A351DA22DEC4D8F5DDC48C
:10007000D9F5D8C5D9F4D9C5DAF4DEC4C4F5DEC4DF
:10008000C5F5DEC4C6F5DEC4C7F5040ED827000EDC
:10009000D923020ECC6F000ECD6F000ECE6F000E76
:1000A000CF6F20EE06F0A251D926A351DA22DEC48A
:1000B000E1F5DEC4E2F5DEC4E3F5DEC4E4F5E151CA
:1000C000E211E311E411D8B4B3D0E1C5BCF5E2C547
:1000D000BDF5E3C5BEF5E4C5BFF5000EC06F000E6B
:1000E000C16F000EC26F000EC36F020ECC27000E50
:1000F000CD23CE23CF23E1C5B8F5E2C5B9F5E3C5DD
:10010000BAF5E4C5BBF5010EC027000EC123C2231A
:10011000C323A2C564F5A3C565F5E1C566F5E2C5CF
:1001200067F5E3C568F5E4C569F538ECA5F064C585
:10013000E1F565C5E2F566C5E3F567C5E4F50501DA
:10014000E451E311E2110EE1020EE15DD8B00AD0F4
:1001500020EE0FF0A251D926A351DA22020EDF6E53
:10016000020E1200E12911E1E2290FE1E3290DE17C
:10017000E429D8A40AD020EE0FF0A251D926A35129
:10018000DA22010EDF6E010E1200010EB825A86FF3
:10019000000EB921A96F000EBA21AA6F000EBB2173
:1001A000AB6FE151A8190AE1E251A91907E1E35146
:1001B000AA1904E1E451AB19D8B49DD7CC51C45D60
:1001C000CD51C559CE51C659CF51C759D8A020D00D
:1001D000D8C5D9F4D9C5DAF4C0C5DEF4C1C5DEF49A
:1001E000C2C5DEF4C3C5DEF4040ED827000ED92341
:1001F000D8C5D9F4D9C5DAF4BCC5DEF4BDC5DEF482
:10020000BEC5DEF4BFC5DEF4040ED827000ED92328
:1002100020EE16F0DF51D926E051DA22DE50E15D02
:10022000DE50E259DE50E359DE50E459D8A04DD7F4
:1002300020EE22F0A251D926A351DA22DEC4A8F57D
:10024000DDC4A9F5A8C5D9F4A9C5DAF4CCC5DEF496
:10025000CDC5DEF4CEC5DEF4CFC5DEF4CC51C45D31
:10026000CD51C559CE51C659CF51C759D8A009D083
:10027000D8C5D9F4D9C5DAF4DE6ADE6ADE6ADD6A89
:10028000D9D6110EDA6FD6D620EE0AF0A251D926B1
:10029000A351DA22A451DE5CA551DE58A651DE58E6
:1002A000A751DE58D8B00ED020EE0AF0A251D926C0
:1002B000A351DA22DEC4A4F5DEC4A5F5DEC4A6F59A
:1002C000DEC4A7F520EE10F0A251D926A351DA2200
:1002D000A4C5DEF4A5C5DEF4A6C5DEF4A7C5DEF42C
:1002E000A451A511A611A711D8B4A4D6A2C513F57F
:1002F000A3C514F5FF0EA425156EFF0EA521166EDD
:10030000FF0EA621176EFF0EA721186E0DECC1F08F
:10031000050120EE14F0A251D926A351DA2213C50B
:10032000DEF414C5DEF415C5DEF416C5DEF4DFC553
:1003300012F5E0C513F520EE14F0A251D926A35111
:10034000DA22DEC414F5DEC415F5DEC416F5DEC40B
:1003500017F57FECC8F012C5D0F513C5D1F514C55B
:10036000D2F515C5D3F50501D051D111D211D31154
:10037000D8B4EED620EE0AF0DF51D926E051DA22C9
:10038000DEC4A8F5DDC4A9F5FF0EA825AA6FFF0EEF
:10039000A921AB6FFF0EA425AC6FFF0EA521AD6F99
:1003A000FF0EA621AE6FFF0EA721AF6F0A0E05D07C
:1003B000D890AF33AE33AD33AC33E82EF9D7AA5172
:1003C000AC15B06FAB51AD15B16F000EAE15B26F7D
:1003D000000EAF15B36FB051D027B151D123B25138
:1003E000D223B351D32320EE10F0A251D926A3512A
:1003F000DA22FF0EDE14A86F010EDE14A96F000EC4
:10040000DE14AA6F000EDE14AB6FA851A911AA1159
:10041000AB11D8B40FD620EE18F0A251D926A351B3
:10042000DA22D051DE180AE1D151DE1807E1D251AB
:10043000DE1804E1D351DE18D8B4FCD520EE18F054
:10044000A251D926A351DA22D0C5DEF4D1C5DEF4FB
:10045000D2C5DEF4D3C5DEF4EDD520EE0AF0A2510C
:10046000D926A351DA22A451DE5CA551DE58A6514B
:10047000DE58A751DE58D8B016D020EE0EF0A251AB
:10048000D926A351DA22DFB20ED020EE0AF0A25113
:10049000D926A351DA22DEC4A4F5DEC4A5F5DEC454
:1004A000A6F5DEC4A7F520EE10F0A251D926A3517F
:1004B000DA22DEC4C8F5DEC4C9F5DEC4CAF5DEC47E
:1004C000CBF5000ED46F000ED56F000ED66F000E68
:1004D000D76F20EE10F0A251D926A351DA22D4C54D
:1004E000DEF4D5C5DEF4D6C5DEF4D7C5DEF4A451FE
:1004F000A511A611A711D8B404D220EE0AF0DF513D
:10050000D926E051DA22DEC4A8F5DDC4A9F5A85148
:10051000AA6FA951AB6FAC6BAD6B090ED890AA371F
:10052000AB37AC37AD37E82EF9D7AAC5DBF5ABC58D
:10053000DCF5ACC5DDF5ADC5DEF5C851C911CA1194
:10054000CB11D8B497D0FF0EA425066EFF0EA521BF
:10055000076EFF0EA621086EFF0EA721096EDBC5F0
:100560000AF5DCC50BF5DDC50CF5DEC50DF584EC33
:10057000CFF006C5A8F507C5A9F508C5AAF509C5B0
:10058000ABF5FF0E0501C825066EFF0EC921076EEB
:10059000FF0ECA21086EFF0ECB21096EDBC50AF5DE
:1005A000DCC50BF5DDC50CF5DEC50DF584ECCFF033
:1005B00006500501A85D0750A9590850AA590950CD
:1005C000AB59D8A057D0FF0EDB25A86FFF0EDC215A
:1005D000A96FFF0EDD21AA6FFF0EDE21AB6FA81DF4
:1005E000AC6FA91DAD6FAA1DAE6FAB1DAF6FFF0E37
:1005F000C825B06FFF0EC921B16FFF0ECA21B26FBF
:10060000FF0ECB21B36FAC51B015B46FAD51B11526
:10061000B56FAE51B215B66FAF51B315B76F20EECF
:1006200010F0A251D926A351DA22B4C5DEF4B5C523
:10063000DEF4B6C5DEF4B7C5DEF420EE10F0A2514C
:10064000D926A351DA22DE50A45FDE50A55BDE502E
:10065000A65BDD50A75B20EE14F0A251D926A35172
:10066000DA22DEC4E5F5DEC4E6F5DEC4E7F5DEC475
:10067000E8F556D020EE06F0A251D926A351DA2291
:10068000DEC4E5F5DEC4E6F5DEC4E7F5DEC4E8F574
:10069000E551E611E711E811D8A434D0A2C585F5DB
:1006A000A3C586F5000E876F000E886F000E896F58
:1006B000000E8A6F13EC9FF085C5E5F586C5E6F55B
:1006C00087C5E7F588C5E8F50501E505E611E711F9
:1006D000E811D8B43DD5E52907E1E62905E1E72988
:1006E00003E1E829D8B447D520EE06F0A251D92677
:1006F000A351DA22E5C5DEF4E6C5DEF4E7C5DEF493
:10070000E8C5DEF420EE14F0A251D926A351DA2276
:10071000E5C5DEF4E6C5DEF4E7C5DEF4E8C5DEF4E3
:10072000E551E611E711E811D8A48BD0EAD0DB51EE
:10073000A45FDC51A55BDD51A65BDE51A75B20EE1B
:1007400010F0A251D926A351DA22DB51DE26DC516A
:10075000DE22DD51DE22DE51DE2220EE0EF0A2513D
:10076000D926A351DA22DFA226D0A2C585F5A3C5DA
:1007700086F5E5C587F5E6C588F5E7C589F5E8C5D9
:100780008AF513EC9FF085C5E5F586C5E6F587C5C6
:10079000E7F588C5E8F50501E551E611E711E8112F
:1007A000D8A41FD0000EA46F000EA56F000EA66F78
:1007B000000EA76F50D0A2C564F5A3C565F5E5C5C9
:1007C00066F5E6C567F5E7C568F5E8C569F538EC8F
:1007D000A5F064C5E5F565C5E6F566C5E7F567C549
:1007E000E8F50501E52907E1E62905E1E72903E147
:1007F000E829D8B4C0D4E851E711E61104E1020EAB
:10080000E55DD8A0A5D420EE16F0DF51D926E05141
:10081000DA22DE50E55DDE50E659DE50E759DE5063
:10082000E859D8B095D420EE14F0A251D926A3519E
:10083000DA22E5C5DEF4E6C5DEF4E7C5DEF4E8C598
:10084000DEF4A451DB5DA551DC59A651DD59A75159
:10085000DE59D8A06CD720EE10F0A251D926A351B2
:10086000DA22A451DE26A551DE22A651DE22A751AE
:10087000DE22FF0EA415A86F010EA515A96F000EAC
:10088000A615AA6F000EA715AB6FA851A911AA1142
:10089000AB11D8B436D0DFC512F5E0C513F5E5C508
:1008A00014F5E6C515F5E7C516F5E8C517F57FECAF
:1008B000C8F012C5D4F513C5D5F514C5D6F515C5C0
:1008C000D7F50501D451D511D611D711D8B440D4DC
:1008D000A4C5A8F5A5C5A9F5A6C5AAF5A7C5ABF5F4
:1008E0000A0E05D0D890AB33AA33A933A833E82E2B
:1008F000F9D7A851D427A951D523AA51D623AB5152
:10090000D72320EE10F0A251D926A351DA2210EEFF
:100910000AF0A251E126A351E222DE50E65CDE504D
:10092000E658DE50E658DE50E658D8B01CD020EE2F
:1009300010F0A251D926A351DA2210EE0AF0A251EA
:10094000E126A351E222DEC4E6F4DEC4E6F4DEC40E
:10095000E6F4DEC4E6F420EE0EF0A251D926A3514F
:10096000DA22000EDB8C20EE10F0A251D926A35122
:10097000DA22FF0EDE14A86F010EDE14A96F000E3E
:10098000DE14AA6F000EDE14AB6FA851A911AA11D4
:10099000AB11D8B41AEF80F020EE18F0A251D9268E
:1009A000A351DA22D451DE180BE1D551DE1808E14B
:1009B000D651DE1805E1D751DE18D8B41AEF80F011
:1009C00020EE18F0A251D926A351DA22D4C5DEF4C4
:1009D000D5C5DEF4D6C5DEF4D7C5DEF41AEF80F057
:1009E00092C5D9F493C5DAF4DE6ADD6A90C506F5DE
:1009F00091C507F5C8ECBFF006C5A1F507C5A2F57E
:100A00000501A2AF02D00B0E1200D890A135D96E0D
:100A1000A235DA6E120ED926060EDA22DEC4BCF535
:100A2000DDC4BDF5BC51BD11D8A402D00C0E12001E
:100A300092C5D9F493C5DAF4BCC5DEF4BDC5DDF4C6
:100A40009491BCC5D9F4BDC5DAF4DF50D8B415D043
:100A500020EE01F0BC51D926BD51DA22DF5075ECF1
:100A6000D8F00501B16FB1B108D09451D8A4B1A5A7
:100A700002D00A0E1200000E1200BCC5D9F4BDC58A
:100A8000DAF4DF6A20EE01F0BC51D926BD51DA223A
:100A9000DF50BEECB1F00501B16FB1A102D0030E81
:100AA00012009451D8B402D0B1B5E3D7BCC572F5E9
:100AB000BDC573F5000E756F000E746FB0ECB8F025
:100AC00072C5BAF573C5BBF5040E0501BA19BB11A1
:100AD000D8A402D0010E1200BB5104E1020EBA5D8F
:100AE000D8A002D00D0E120020EE2EF0BC51D92657
:100AF000BD51DA22DEC4ADF5DEC4AEF5DEC4AFF51D
:100B0000DEC4B0F53D0EBC25066E000EBD21076E9D
:100B1000D9ECD5F0020E07180610D8A4E3D7480E7A
:100B20000501BC25066E000EBD21076ED9ECD5F07F
:100B300006C5B6F507C5B7F50501B86BB96BB65173
:100B4000B711B811B911D8A410D0560EBC25066E35
:100B5000000EBD21076E3FECC9F006C5B6F507C50E
:100B6000B7F508C5B8F509C5B9F5050120EE1AF0C5
:100B7000BC51D926BD51DA22B6C5DEF4B7C5DEF4C4
:100B8000B8C5DEF4B9C5DEF420EE42F0BC51D9267A
:100B9000BD51DA2210EE03F0BC51E126BD51E22234
:100BA000DFC4E7F420EE03F0BC51D926BD51DA22B0
:100BB000DE04D8B40AD020EE03F0BC51D926BD51D2
:100BC000DA22020EDE18D8A48DD7B6C506F5B7C551
:100BD00007F5B8C508F5B9C509F520EE03F0BC5115
:100BE000D926BD51DA22DF50956F95510A6E0B6AF6
:100BF0000C6A0D6A1EECD3F006C5B6F507C5B7F54D
:100C000008C5B8F509C5B9F5050120EE3FF0BC519E
:100C1000D926BD51DA22DF50956F966B20EE0AF08F
:100C2000BC51D926BD51DA2295C5DEF496C5DDF456
:100C300020EE0AF0BC51D926BD51DA22DE50DE107A
:100C4000D8B450D720EE0AF0BC51D926BD51DA22D3
:100C5000DEC495F5DDC496F520EE0AF0BC51D92628
:100C6000BD51DA22DEC497F5DDC498F5FF0E972555
:100C7000996FFF0E98219A6F955199159B6F965118
:100C80009A159C6F9B519C11D8A42CD7430EBC2560
:100C9000066E000EBD21076ED9ECD5F0050120EEE1
:100CA00008F0BC51D926BD51DA2206C5DEF407C5CD
:100CB000DDF420EE08F0BC51D926BD51DA22DEC4A5
:100CC00095F5DDC496F50F0E9517000E9617955104
:100CD0009611D8A407D7450EBC25066E000EBD217F
:100CE000076ED9ECD5F006C5A9F507C5AAF505012B
:100CF000AB6BAC6BA951AA11AB11AC11D8A410D03D
:100D0000520EBC25066E000EBD21076E3FECC9F0E9
:100D100006C5A9F507C5AAF508C5ABF509C5ACF523
:100D2000400E0501BC25066E000EBD21076ED9ECF4
:100D3000D5F006C5A7F507C5A8F50501A751A81167
:100D4000D8B4D0D620EE08F0BC51D926BD51DA2255
:100D5000DEC495F5DDC496F5040E976FD8909633F2
:100D60009533972FFBD7A7519525986FA8519621BA
:100D7000996F9A6BD8B09A2B9B6BB6519825A36F3D
:100D8000B7519921A46FB8519A21A56FB9519B21F0
:100D9000A66FA351A95DA451AA59A551AB59A6515B
:100DA000AC59D8A09FD6A351A95D066EA451AA59EB
:100DB000076EA551AB59086EA651AC59096E20EECD
:100DC0000AF0BC51D926BD51DA22DEC495F5DDC446
:100DD00096F595C50AF596C50BF50C6A0D6A84EC77
:100DE000CFF006C5B2F507C5B3F508C5B4F509C51A
:100DF000B5F50501B251B311B411B511D8B472D61D
:100E0000000EBB6F000EBA6FF60EB25DFF0EB35947
:100E1000FF0EB4590F0EB559D8B004D0000EBB6FF9
:100E2000030EBA6FB551B4110AE1F60EB25DFF0EB2
:100E3000B359D8B004D0000EBB6F020EBA6FB551D3
:100E4000B4110AE1F60EB25D0F0EB359D8B004D05A
:100E5000000EBB6F010EBA6FBA51BB11D8B442D6A7
:100E6000020EB225956F000EB321966F000EB421CD
:100E7000976F000EB521986F20EE16F0BC51D92661
:100E8000BD51DA2295C5DEF496C5DEF497C5DEF4D1
:100E900098C5DEF420EE1EF0BC51D926BD51DA22F1
:100EA000ADC5DEF4AEC5DEF4AFC5DEF4B0C5DEF42C
:100EB000A751AD25956FA851AE21966F000EAF21B9
:100EC000976F000EB021986F20EE22F0BC51D9260A
:100ED000BD51DA2295C5DEF496C5DEF497C5DEF481
:100EE00098C5DEF4A351AD25956FA451AE21966F40
:100EF000A551AF21976FA651B021986F20EE2AF02F
:100F0000BC51D926BD51DA2295C5DEF496C5DEF472
:100F100097C5DEF498C5DEF4030EBA19BB11D8A448
:100F20004DD05C0EBC25066E000EBD21076ED9ECBF
:100F3000D5F006500710D8A4D5D5050120EE08F04D
:100F4000BC51D926BD51DA22DE50DE10D8A4CAD554
:100F50005E0EBC25066E000EBD21076E3FECC9F08B
:100F6000050120EE26F0BC51D926BD51DA2206C576
:100F7000DEF407C5DEF408C5DEF409C5DEF420EEB4
:100F800016F0BC51D926BD51DA22DEC495F5DEC477
:100F900096F5DEC497F5DEC498F5020ED890953725
:100FA000963797379837E82EF9D795C59DF596C5AA
:100FB0009EF597C59FF598C5A0F592D020EE08F054
:100FC000BC51D926BD51DA22DE50DE10D8B48AD504
:100FD00020EE22F0BC51D926BD51DA22DEC495F5AF
:100FE000DEC496F5DEC497F5DEC498F5B6519525B6
:100FF000996FB75196219A6FB85197219B6FB9514C
:1010000098219C6F20EE26F0BC51D926BD51DA22E2
:1010100099C5DEF49AC5DEF49BC5DEF49CC5DEF40A
:10102000020EBA19BB11D8B444D020EE16F0BC5150
:10103000D926BD51DA22DEC495F5DEC496F5DEC4AC
:1010400097F5DEC498F5010E9515996F000E96156B
:101050009A6F000E97159B6F000E98159C6F20EEEF
:1010600016F0BC51D926BD51DA22DEC406F5DEC425
:1010700007F5DEC408F5DEC409F5030E0A6E000E9E
:101080000B6E000E0C6E000E0D6E1EECD3F0D890A1
:1010900009320832073206320501995106249D6F44
:1010A0009A5107209E6F9B5108209F6F9C510920E9
:1010B00016D020EE16F0BC51D926BD51DA22DEC47E
:1010C00095F5DEC496F5DEC497F5DEC498F5D890A4
:1010D00095359D6F96359E6F97359F6F9835A06FAC
:1010E000FF0E9D25956F010E9E21966F000E9F218C
:1010F000976F000EA021986F0A0E05D0D8909833F4
:10110000973396339533E82EF9D720EE1AF0BC5179
:10111000D926BD51DA229551DE5C9651DE589751A1
:10112000DE589851DE58D8A0DDD420EE12F0BC5124
:10113000D926BD51DA22FF0EDE6EFF0EDE6EFF0EE7
:10114000DE6EFF0EDD6EDD52DD5210EE0EF0BC5194
:10115000E126BD51E222DEC4E6F4DEC4E6F4DEC4DC
:10116000E6F4DEC4E6F420EE05F0BC51D926BD510C
:10117000DA22800EDF6E030EBA19BB11D8A494D008
:10118000620EBC25066E000EBD21076ED9ECD5F0AF
:1011900006040710D8A488D0BCC52EF5BDC52FF510
:1011A000010E0501AD25306E000EAE21316E000E30
:1011B000AF21326E000EB021336EA5ECCBF00009EA
:1011C000D8A472D0050120EE05F0BC51D926BD513E
:1011D000DA22DF6A300EBC25066E020EBD21076ED4
:1011E000D9ECD5F0550E06185FE1AA0E0718D8A461
:1011F0005BD0320E0501BC25066E000EBD21076EC8
:101200003FECC9F0520E06184FE1520E07184CE1A0
:10121000610E081849E1410E0918D8A445D0160EF0
:101220000501BC25066E020EBD21076E3FECC9F01C
:10123000720E061839E1720E071836E1410E0818D1
:1012400033E1610E0918D8A42FD01A0E0501BC2570
:10125000066E020EBD21076E3FECC9F0050120EEBF
:1012600012F0BC51D926BD51DA2206C5DEF407C5FD
:10127000DEF408C5DEF409C5DEF41E0EBC25066EDC
:10128000020EBD21076E3FECC9F0050120EE0EF005
:10129000BC51D926BD51DA2206C5DEF407C5DEF4FD
:1012A00008C5DEF409C5DEF4BCC5D9F4BDC5DAF461
:1012B000BAC5DFF40601104B112B050120EE06F034
:1012C000BC51D926BD51DA2210C6DEF411C6DDF4B8
:1012D00020EE0CF0BC51D926BD51DA22800EDE6E14
:1012E000090EDD6E3BEF85F0A4C5BBF5A5C5BCF5C9
:1012F000A8C5D9F4A9C5DAF4DE6ADD6AA2C507F586
:10130000A3C508F5CB0E096E050E0A6EDFECC8F01A
:101310000501BA6FBA51D8A40BD020EE0FF0A2513C
:10132000D926A351DA22DF50BA6FBA51D8B402D00D
:10133000BA51120020EE0EF0A251D926A351DA22A2
:10134000DFB202D0070E120020EE10F0A251D92613
:10135000A351DA2210EE10F0A251E126A351E222AD
:10136000E6C4AEF5E6C4AFF5E6C4B0F5E6C4B1F543
:10137000A651AE25B26FA751AF21B36F000EB021B9
:10138000B46F000EB121B56FDE50B25DDE50B359BF
:10139000DE50B459DE50B559D8B00ED020EE10F062
:1013A000A251D926A351DA22DEC4AAF5DDC4ABF5D9
:1013B000AA1DA66FAB1DA76FA651A711D8B40ED357
:1013C00020EE10F0A251D926A351DA22FF0EDE142E
:1013D000AA6F010EDE14AB6F000EDE14AC6F000EB0
:1013E000DE14AD6FAA51AB11AC11AD11D8A438D237
:1013F00020EE10F0A251D926A351DA22DEC4AAF5BC
:10140000DEC4ABF5DEC4ACF5DEC4ADF50A0E05D026
:10141000D890AD33AC33AB33AA33E82EF9D720EEF6
:101420000AF0CB51D926CC51DA22DEC4AEF5DDC4A8
:10143000AFF5FF0EAE25B06FFF0EAF21B16FAA5111
:10144000B015BD6FAB51B115BE6FBD51BE11D8A463
:10145000C4D020EE10F0A251D926A351DA22DE50DA
:10146000DE10DE10DE10D8A423D020EE06F0A2514C
:10147000D926A351DA22DEC4C7F5DEC4C8F5DEC41E
:10148000C9F5DEC4CAF5C751C811C911CA11D8A41B
:1014900052D0A2C585F5A3C586F5000E876F000E54
:1014A000886F000E896F000E8A6F13EC9FF03BD09F
:1014B00020EE22F0A251D926A351DA22DE50DE100E
:1014C000D8B41DD0A2C513F5A3C514F520EE10F0B5
:1014D000A251D926A351DA22DEC415F5DEC416F5D1
:1014E000DEC417F5DEC418F50DECC1F013C5C7F561
:1014F00014C5C8F515C5C9F516C5CAF51CD0A2C5D1
:1015000085F5A3C586F520EE14F0A251D926A35186
:10151000DA22DEC487F5DEC488F5DEC489F5DEC4D0
:101520008AF513EC9FF085C5C7F586C5C8F587C554
:10153000C9F588C5CAF50501C751C811C911CA1135
:10154000D8B44CD2C705C811C911CA11D8A40AD041
:1015500020EE0FF0A251D926A351DA22020EDF6E3F
:10156000020E1200C72911E1C8290FE1C9290DE1B6
:10157000CA29D8A40AD020EE0FF0A251D926A3512F
:10158000DA22010EDF6E010E120020EE14F0A251DD
:10159000D926A351DA22C7C5DEF4C8C5DEF4C9C511
:1015A000DEF4CAC5DEF420EE06F0A251D926A3511E
:1015B000DA22DE50DE10DE10DE10D8A40ED020EECF
:1015C00006F0A251D926A351DA22C7C5DEF4C8C558
:1015D000DEF4C9C5DEF4CAC5DEF420EE18F0A2516F
:1015E000D926A351DA2210EE2EF0CB51E126CC51B0
:1015F000E222DE50E61813E1DE50E61810E1DE507C
:10160000E6180DE1DE50E618D8A409D0CBC51BF5CD
:10161000CCC51CF563ECBCF00009D8A45AD1CBC5ED
:1016200012F5CCC513F5050120EE14F0A251D92610
:10163000A351DA22DEC414F5DEC415F5DEC416F5B6
:10164000DEC417F57FECC8F012C5C1F513C5C2F5AD
:1016500014C5C3F515C5C4F50501C151C211C311A7
:10166000C411D8B475D7BD51C127BE51C223000ED5
:10167000C323000EC423A6C5AAF5A7C5ABF5090E62
:10168000AC6FD890AB33AA33AC2FFBD7AAC5BFF54C
:10169000ABC5C0F5BF51C011D8B4A6D0BF51BD2550
:1016A000AA6FC051BE21AB6F20EE0AF0CB51D926F4
:1016B000CC51DA22AA51DE5CAB51DE58D8B010D042
:1016C00020EE0AF0CB51D926CC51DA22DEC4AAF59D
:1016D000DDC4ABF5BD51AA5DBF6FBE51AB59C06F44
:1016E000BBC512F5BCC513F5C1C514F5C2C515F5CA
:1016F000C3C516F5C4C517F5BFC518F5C0C519F59E
:1017000020EE01F0CB51D926CC51DA22DF5098ECF3
:10171000CCF00009D8A4DDD00501BF51AA6FC0519B
:10172000AB6FAC6BAD6B20EE2EF0CB51D926CC510C
:10173000DA22DEC4AEF5DEC4AFF5DEC4B0F5DEC439
:10174000B1F5C151AE5DB26FC251AF59B36FC35164
:10175000B059B46FC451B159B56FAA51B25DAB5114
:10176000B359AC51B459AD51B559D8B02ED0320E91
:10177000CB25066E000ECC21076E20EE2EF0CB514D
:10178000D926CC51DA22DEC4AAF5DDC4ABF5C151AD
:10179000AA5FC251AB5B090ED890AA37AB37E82ECF
:1017A000FBD7AA51BB25086EAB51BC21096E020EB6
:1017B0000B6E000E0A6E9EECD4F0050120EE04F0D4
:1017C000CB51D926CC51DA22DF6ABFC5AAF5C0C5F4
:1017D000ABF5090ED890AA37AB37E82EFBD7AAC5D0
:1017E000C5F5ABC5C6F5A7D020EE0AF0A251D926A3
:1017F000A351DA2210EE10F0A251E126A351E22209
:10180000DE50E65CDE50E658DE50E658DE50E65824
:10181000D8A018D0CBC51BF5CCC51CF563ECBCF02B
:101820000009D8A456D0050120EE2EF0CB51D926C0
:10183000CC51DA22C1C5DEF4C2C5DEF4C3C5DEF484
:10184000C4C5DEF420EE18F0A251D926A351DA2245
:10185000C1C5DEF4C2C5DEF4C3C5DEF4C4C5DEF422
:1018600020EE10F0A251D926A351DA22DEC4AAF547
:10187000DDC4ABF5FF0EAA15AC6F010EAB15AD6F55
:10188000AC510008C56FAD51D8A0E82A0208C66F58
:10189000C551A65DC651A759D8B004D0A6C5C5F597
:1018A000A7C5C6F5CBC52EF5CCC52FF520EE18F093
:1018B000A251D926A351DA22DEC430F5DEC431F5B7
:1018C000DEC432F5DEC433F5A5ECCBF00009D8B4A4
:1018D00002D0050150D6050120EE10F0A251D92604
:1018E000A351DA22DEC4AAF5DDC4ABF5FF0EAA15BA
:1018F000AC6F010EAB15AD6FAC51CB25AE6FAD51DA
:10190000CC21AF6F320EAE25066E000EAF21076EF2
:10191000BBC508F5BCC509F5C5C50AF5C6C50BF5B7
:101920009EECD4F0050120EE04F0CB51D926CC5129
:10193000DA22010EDF6EC551A65FC651A75BA8C5AE
:10194000D9F4A9C5DAF4C551DE26C651DD22C55148
:10195000BB27C651BC2320EE10F0A251D926A351BB
:10196000DA22C551DE26C651DE22000EDE22DE223C
:1019700020EE10F0A251D926A351DA2210EE0AF07F
:10198000A251E126A351E222DE50E65CDE50E65889
:10199000DE50E658DE50E658D8A003D020EE0AF01C
:1019A00002D020EE10F0A251D926A351DA22DEC4D3
:1019B000B6F5DEC4B7F5DEC4B8F5DEC4B9F520EE81
:1019C0000AF0A251D926A351DA22B6C5DEF4B7C572
:1019D000DEF4B8C5DEF4B9C5DEF4EED420EE0EF0C8
:1019E000A251D926A351DA22000EDB8C000E120080
:1019F0000501EB51EC11D8A402D0090E12003F0EE4
:101A0000EF17ED0E906F050E916F9B0E926F060E05
:101A1000936FEFC594F5F0EC84F006019D6F9D5136
:101A2000D8A4E7D29BC69EF69CC69FF69E0E0501E3
:101A3000C96F060ECA6FEDC5CBF5EEC5CCF50DEC42
:101A4000B7F006019D6F9D51D8B4C5AF02D0060E08
:101A50009D6FEFC5F0F51C0E0501F017D8B4F5D059
:101A600006019D51D8B410D0040E9D19D8A409D0F8
:101A70009E0E0501C96F060ECA6F7BECA3F006012E
:101A80009D6F0501EF870ED0A2C6F0F5110E05017E
:101A9000F017D8B402D0070E03D0EFA503D0080E7C
:101AA00006019D6F06019D51D8A4DFD00501EFA767
:101AB000DCD00E0E0601B825066E000EB921076EA9
:101AC000000E086E000E096E210E0A6E540E0B6E8B
:101AD0005FECD1F0160E0601B825066E000EB92196
:101AE000076E000E086E000E096E210E0A6E540E6F
:101AF0000B6E5FECD1F09BC60DF59CC60EF5B8C61B
:101B00000FF5B9C610F57EECD0F00DC58BF60EC5FD
:101B10008CF60FC58DF610C58EF6060120EE0BF083
:101B2000B851D926B951DA22200EDF6E9BC60AF5CC
:101B30009CC60BF5B8C60CF5B9C60DF5000E0E6EB9
:101B4000000E0F6E000E106E000E116E25ECD5F01B
:101B50001C0E0601B825066E000EB921076E000E98
:101B6000086E000E096E000E0A6E000E0B6E5FEC22
:101B7000D1F0060120EE04F09B51D9269C51DA22C7
:101B8000010EDF6E8B518C118D118E11D8B46DD07A
:101B900020EE2EF09B51D9269C51DA22DEC48FF61E
:101BA000DEC490F6DEC491F6DEC492F69E0E050108
:101BB000856F060E866F8BC687F58CC688F58DC639
:101BC00089F58EC68AF5000E8B6F000E8C6F000EA5
:101BD0008D6F000E8E6F57ECB5F006019D6F9D5115
:101BE000D8A443D09BC62EF59CC62FF58FC630F5E2
:101BF00090C631F591C632F592C633F5A5ECCBF01F
:101C000006019D6FFF0E8B250501F06FFF0E06018B
:101C10008C210501F16FFF0E06018D210501F26F88
:101C2000FF0E06018E210501F36F060120EE0EF076
:101C30009B51D9269C51DA22F0C5DEF4F1C5DEF4C1
:101C4000F2C5DEF4F3C5DEF410D006019D51D8A430
:101C50000CD0A2A902D0040E07D00501EFA305D035
:101C60000601A2A102D0070E9D6F06019D51D8A4C6
:101C700023D00501EFB7EF8D060120EE2EF09B512A
:101C8000D9269C51DA22050110EE1CF0EB51E12619
:101C9000EC51E222DEC4E6F4DEC4E6F4DEC4E6F48F
:101CA000DEC4E6F420EE20F0EB51D926EC51DA2226
:101CB000B8C6DEF4B9C6DDF406019D51D8A499D1A9
:101CC0009BC60DF59CC60EF5B8C60FF5B9C610F546
:101CD0007EECD0F0050120EE06F0EB51D926EC5158
:101CE000DA220DC5DEF40EC5DEF40FC5DEF410C534
:101CF000DEF41C0E0601B825066E000EB921076E33
:101D00003FECC9F0050120EE0AF0EB51D926EC5169
:101D1000DA2206C5DEF407C5DEF408C5DEF409C51F
:101D2000DEF420EE22F0EB51D926EC51DA22DE6A05
:101D3000DD6AEBC5D9F4ECC5DAF49BC6DEF49CC6CB
:101D4000DDF4060120EE06F09B51D9269C51DA22E3
:101D5000050110EE02F0EB51E126EC51E222DEC467
:101D6000E6F4DDC4E5F420EE0EF0EB51D926EC519B
:101D7000DA22EFC5DFF420EE0FF0EB51D926EC515B
:101D8000DA22DF6A20EE18F0EB51D926EC51DA2284
:101D9000DE6ADE6ADE6ADD6A20EE10F0EB51D926DB
:101DA000EC51DA22DE6ADE6ADE6ADD6AEFAB21D14F
:101DB00020EE0AF0EB51D926EC51DA22DE50DE108B
:101DC000DE10DE10D8B415D120EE0AF0EB51D92682
:101DD000EC51DA2210EE10F0EB51E126EC51E22248
:101DE000DEC4E6F4DEC4E6F4DEC4E6F4DEC4E6F403
:101DF000060120EE0AF09B51D9269C51DA22DEC45E
:101E0000F0F5DDC4F1F50501F051F26FF151F36F1A
:101E1000F46BF56B090ED890F237F337F437F537DA
:101E2000E82EF9D7F2C587F6F3C588F6F4C589F62A
:101E3000F5C58AF620EE06F0EB51D926EC51DA22F0
:101E4000DEC497F6DEC498F6DEC499F6DEC49AF6D0
:101E500020EE0AF0EB51D926EC51DA22DEC493F6DB
:101E6000DEC494F6DEC495F6DEC496F634D0EBC537
:101E700064F5ECC565F597C666F598C667F599C62D
:101E800068F59AC669F538ECA5F064C597F665C59E
:101E900098F666C599F667C59AF606019A519911A2
:101EA000981106E1020E975DD8B002D0020E9D6F28
:101EB000972909E1982907E1992905E19A29D8A4E8
:101EC00002D0010E9D6F8751935F8851945B8951B9
:101ED000955B8A51965B06019D51D8A40AD0935117
:101EE000875D945188599551895996518A59D8A03E
:101EF000BED7050120EE14F0EB51D926EC51DA22C1
:101F000097C6DEF498C6DEF499C6DEF49AC6DEF40F
:101F100006019D51D8A46DD0FF0E93150501F06FF9
:101F2000010E060194150501F16F000E06019515CD
:101F30000501F26F000E060196150501F36FF051D1
:101F4000F111F211F311D8B454D09BC612F59CC60E
:101F500013F597C614F598C615F599C616F59AC6E1
:101F600017F57FECC8F012C58FF613C590F614C5AF
:101F700091F615C592F606018F51901191119211AB
:101F8000D8A403D0020E9D6F34D093C6F0F594C64A
:101F9000F1F595C6F2F596C6F3F50A0E06D00501E1
:101FA000D890F333F233F133F033E82EF8D706014B
:101FB0008F510501F025F46F060190510501F121C3
:101FC000F56F060191510501F221F66F060192515C
:101FD0000501F321F76F20EE18F0EB51D926EC51F3
:101FE000DA22F4C5DEF4F5C5DEF4F6C5DEF4F7C595
:101FF000DEF406019D51D8B406D0EBC5D9F4ECC58A
:10200000DAF4DE6ADD6A9D51120080C597F581C55C
:1020100098F584C5D9F485C5DAF4DE6ADD6A7EC533
:1020200007F57FC508F5A70E096E050E0A6EDFECF1
:10203000C8F00501966F9651D8A40BD020EE0FF092
:102040007E51D9267F51DA22DF50966F9651D8B44F
:1020500002D09651120020EE0EF07E51D9267F510B
:10206000DA22DFB002D0070E120020EE10F07E510F
:10207000D9267F51DA22DEC486F5DEC487F5DEC4B8
:1020800088F5DEC489F520EE0AF07E51D9267F510D
:10209000DA22DEC48AF5DEC48BF5DEC48CF5DEC43C
:1020A0008DF586518A5D926F87518B59936F885158
:1020B0008C59946F89518D59956F8251866F8351D8
:1020C000876F886B896B8651925D875193598851D0
:1020D000945989519559D8B004D092C582F593C5C9
:1020E00083F582518311D8B450D220EE10F07E5186
:1020F000D9267F51DA22FF0EDE14866F010EDE1420
:10210000876F000EDE14886F000EDE14896F865113
:10211000871188118911D8A4B7D120EE10F07E5113
:10212000D9267F51DA22DEC486F5DEC487F5DEC407
:1021300088F5DEC489F50A0E05D0D8908933883336
:1021400087338633E82EF9D720EE0AF0A751D92637
:10215000A851DA22DEC48AF5DDC48BF5FF0E8A258C
:102160008C6FFF0E8B218D6F86518C159D6F875163
:102170008D159E6F9D519E11D8A492D020EE10F027
:102180007E51D9267F51DA22DE50DE10DE10DE10BD
:10219000D8A40FD020EE06F07E51D9267F51DA2246
:1021A000DEC499F5DEC49AF5DEC49BF5DEC49CF569
:1021B00043D020EE22F07E51D9267F51DA22DE5024
:1021C000DE10D8B41DD07EC513F57FC514F520EE02
:1021D00010F07E51D9267F51DA22DEC415F5DEC417
:1021E00016F5DEC417F5DEC418F50DECC1F013C505
:1021F00099F514C59AF515C59BF516C59CF51CD027
:102200007EC564F57FC565F520EE14F07E51D926B4
:102210007F51DA22DEC466F5DEC467F5DEC468F5F8
:10222000DEC469F538ECA5F064C599F565C59AF585
:1022300066C59BF567C59CF505019C519B119A11DC
:102240000EE1020E995DD8B00AD020EE0FF07E515B
:10225000D9267F51DA22020EDF6E020E1200992972
:1022600011E19A290FE19B290DE19C29D8A40AD0FC
:1022700020EE0FF07E51D9267F51DA22010EDF6E5B
:10228000010E120020EE14F07E51D9267F51DA2281
:1022900099C5DEF49AC5DEF49BC5DEF49CC5DEF478
:1022A000A7C512F5A8C513F520EE14F07E51D92666
:1022B0007F51DA22DEC414F5DEC415F5DEC416F54E
:1022C000DEC417F57FECC8F012C59FF513C5A0F565
:1022D00014C5A1F515C5A2F505019F51A011A111C5
:1022E000A211D8B4B2D79D519F279E51A023000EB2
:1022F000A123000EA22382C586F583C587F5090EAA
:10230000886FD89087338633882FFBD786C5A3F58F
:1023100087C5A4F5A351A411D8B4A8D0A3519D2575
:10232000866FA4519E21876F20EE0AF0A751D9260F
:10233000A851DA228651DE5C8751DE58D8B010D021
:1023400020EE0AF0A751D926A851DA22DEC486F57C
:10235000DDC487F59D51865DA36F9E518759A46F9B
:1023600097C512F598C513F59FC514F5A0C515F5C9
:10237000A1C516F5A2C517F5A3C518F5A4C519F58D
:1023800020EE01F0A751D926A851DA22DF5035EC12
:10239000CDF00009D8A4B1D0050120EE04F0A7517A
:1023A000D926A851DA22DF50D8B450D0A351866F75
:1023B000A451876F886B896B20EE2EF0A751D92628
:1023C000A851DA22DEC48AF5DEC48BF5DEC48CF5B2
:1023D000DEC48DF59F518A5D8E6FA0518B598F6F32
:1023E000A1518C59906FA2518D59916F86518E5D7C
:1023F00087518F598851905989519159D8B026D019
:1024000020EE2EF0A751D926A851DA22DEC486F597
:10241000DDC487F59F51865FA051875B090ED89078
:1024200086378737E82EFBD786519725066E87516A
:102430009821076E320EA725086E000EA821096E9E
:10244000020E0B6E000E0A6E9EECD4F0A3C586F54C
:10245000A4C587F5090ED890050186378737E82E81
:10246000FAD786C5A5F587C5A6F570D020EE18F079
:102470007E51D9267F51DA229FC5DEF4A0C5DEF455
:10248000A1C5DEF4A2C5DEF420EE10F07E51D926FF
:102490007F51DA22DEC486F5DDC487F5FF0E86158E
:1024A000886F010E8715896F88510008A56F8951C3
:1024B000D8A0E82A0208A66FA551825DA6518359CB
:1024C000D8B004D082C5A5F583C5A6F5A7C52EF55D
:1024D000A8C52FF520EE18F07E51D9267F51DA22BB
:1024E000DEC430F5DEC431F5DEC432F5DEC433F5CA
:1024F000A5ECCBF00009D8B402D00501B9D697C538
:1025000006F598C507F5050120EE10F07E51D92695
:102510007F51DA22DEC486F5DDC487F5FF0E86150D
:10252000886F010E8715896F8851A7258A6F895199
:10253000A8218B6F320E8A25086E000E8B21096E42
:10254000A5C50AF5A6C50BF59EECD4F00501A5516D
:10255000825FA651835B84C5D9F485C5DAF4A551A1
:10256000DE26A651DD22A5519727A651982320EEFD
:1025700010F07E51D9267F51DA22A551DE26A651D0
:10258000DE22000EDE22DE22ACD5000E120025C5B2
:10259000D9F426C5DAF4DEC46CF5DDC46DF523C5C7
:1025A000D9F424C5DAF410EE0CF0DE50E126DD504B
:1025B000E222E6C46EF5E5C46FF5000E0501736F07
:1025C000000E726F6C0E146E050E156E69ECC5F080
:1025D00014C562F515C563F516C564F517C565F52F
:1025E0000501622909E1632907E1642905E16529FB
:1025F000D8A402D0060E1200655103E16405D8A0EC
:102600000FD0D8907235D96E7335DA6E6E51D926E7
:102610006F51DA2264C5DEF465C5DDF4724B732BAD
:1026200062C574F563C575F5755104E1200E745DDE
:10263000D8A035D02F0E74197511D8B430D05C0ED7
:1026400074197511D8B42BD0755112E1800E745DD8
:10265000D8B00ED0E60E066EFF0E076E74C508F5F4
:1026600075C509F57CECD4F006500710D8A4C2D784
:1026700005017351BFE1170E725DD8B0BBD7D8907A
:102680007235D96E7335DA6E6E51D9266F51DA22F2
:1026900074C5DEF475C5DDF4724B732B93D7755199
:1026A0000AE1200E745DD8B006D0040E6B6F4CD0DA
:1026B00005016C4B6D2B6CC5F6F46DC5F7F4000E7F
:1026C000F86E360EF76403D00800F55005D0F6C456
:1026D000E9F4F7C4EAF4EF502F0AD8B4E9D76CC58F
:1026E000F6F46DC5F7F4000EF86E360EF76403D0FD
:1026F0000800F55005D0F6C4E9F4F7C4EAF4EF5049
:102700005C0AD8B4D5D7000E05016B6F000E616F5F
:10271000200E606F6CC5F6F46DC5F7F4000EF86E10
:10272000360EF76403D00800F55005D0F6C4E9F47E
:10273000F7C4EAF4EF50276E286A05016051275C60
:1027400061512858D8A0B1D725C5D9F426C5DAF4E7
:102750006CC5DEF46DC5DDF424D072C527F573C5F4
:1027600028F5D8902736283627506E25296E285010
:102770006F212A6EFE0E2924D96EFF0E2A20DA6EF2
:10278000DEC474F5DDC475F5200E74197511D8B466
:1027900005D02E0E74197511D8A407D07207D8A0D1
:1027A000730772517311D8A4D8D7D8907235D96EE7
:1027B0007335DA6E6E51D9266F51DA22DE6ADD6A20
:1027C00072517311D8B416D7000E716F000E706F6E
:1027D00002D0704B712BD8907035D96E7135DA6E8E
:1027E0006E51D9266F51DA22200EDE18DE10D8B4D1
:1027F000F0D770517111D8A40ED0D8907035D96E21
:102800007135DA6E6E51D9266F51DA222E0EDE182E
:10281000DE10D8A406D0030E6B1303D07207D8A025
:10282000730772517311D8B418D072C527F573C5E8
:1028300028F5D8902736283627506E25296E28503F
:102840006F212A6EFE0E2924D96EFF0E2A20DA6E21
:102850002E0EDE18DE10D8A4E1D71C0E2324066E3F
:10286000000E2420076E000E096E200E086E000E6A
:102870000B6E0B0E0A6E03ECD7F0000E05016A6FAB
:102880006AC566F5676B000E696F080E686FD890B1
:102890007035D96E7135DA6E6E51D9266F51DA22E4
:1028A000DEC474F5DDC475F5704B712B7451751170
:1028B000D8B4E6D0200E74197511D8B40CD02E0EF1
:1028C00074197511D8A40AD07251701904E17351AA
:1028D0007119D8B403D0030E6B13D9D76851665D54
:1028E00069516759D8B007D0725170192CE17351F2
:1028F0007119D8A428D00B0E68196911D8A403D077
:10290000030E6B13BDD07251701904E1735171192C
:10291000D8B402D0030E6B137051725D71517359AC
:10292000D8A0AED072C570F573C571F5000E676F93
:10293000080E666F000E696F0B0E686FD8906A37CD
:10294000D8906A37A4D7755104E1800E745DD8A081
:1029500027D06B8374C506F575C507F5086A096A43
:10296000010E0B6EB50E0A6E9BECC9F006C574F530
:1029700007C575F5050174AF13D07F0E7415276E6A
:10298000000E7515286E0D0E2724F66EFB0E2820FE
:10299000F76EF86A000EF8220800F550746F756B38
:1029A0007505D8A024D0FF0E6825276EFF0E69217B
:1029B000286E2750665D28506759D8A007D0030EAF
:1029C0006B1368C566F569C567F561D76651232441
:1029D000276E67512420286E1C0E2724D96E000E06
:1029E0002820DA6E7551DF6E664B672B38D0745134
:1029F0007511D8B40ED0F70E066EFF0E076E74C5B3
:102A000008F575C509F57CECD4F006500710D8B46C
:102A100008D0000E0501756F5F0E746F030E6B1307
:102A20001ED00501755104E1410E745DD8A006D099
:102A3000755104E15B0E745DD8A06A83755104E1A1
:102A4000610E745DD8A00BD0755109E17B0E745DE9
:102A5000D8B005D06A81200E745F000E755B665198
:102A60002324276E67512420286E1C0E2724D96E3C
:102A7000000E2820DA6E74C5DFF4664B672B07D78B
:102A800020EE1CF02350D9262450DA22E50EDE1861
:102A9000D8A408D020EE1CF02350D9262450DA22E6
:102AA000050EDF6E080E68196911D8A404D0D890FD
:102AB0006A37D8906A376A510C0B0C0AD8B404D024
:102AC0006A51030B030AD8B46B836BB304D06AB1A9
:102AD0006B896AB56B8720EE27F02350D9262450E6
:102AE000DA226BC5DFF4000E1200CE505E6216D003
:102AF000C96ABF86CFA2FED7B490C968BF96B1A0FD
:102B0000FED7600000F243F50001010E826FFF0E58
:102B1000816F61000CF5C1F43F8E1100B4905466D2
:102B20007BD05E2808E0B1A0FED7600000F242F53D
:102B3000BE8AFF0E5E6ECE501F0B5D6206D0D1388E
:102B40000F0B4A6E376A386A1F0F05EC96F014EFC8
:102B500096F01EEF96F0F8EF96F06AEF96F0CDEF54
:102B600097F066EF96F07CEF96F072EF96F019EF23
:102B700096F057EF96F05CEF96F06EEF96F052EF0E
:102B800096F061EF96F07CEF96F0E7EF96F0E7EFC6
:102B900096F097EF96F0B3EF97F02DEF97F0C2EF26
:102BA00096F025EF97F0CBEF97F035EF97F07DEFAC
:102BB00096F0E7EF96F0C5EF97F031EF97F05AEF08
:102BC00097F029EF97F0CBEF97F0E7EF96F060EFF3
:102BD00097F06BEF97F078EF97F091EF97F09EEF0B
:102BE00097F09EEF97F091EF97F09EEF97F0A8EF98
:102BF00097F09EEF97F09EEF97F09EEF97F09EEF85
:102C000097F09EEF97F09EEF97F0E844E844FD269A
:102C1000E86AFE22FF221200CEB8E7EF96F06100CC
:102C20004CF5C1F4E6EF96F061002CF5C1F4E6EF47
:102C300096F0610044F5C1F4E6EF96F06100A4F36C
:102C400000F06100A8F301F003EEB2F03750E9267E
:102C50003850EA22EFC4C1F4374A382A3750355C7D
:102C600002E0E0EF96F03850365C02E0E0EF96F0DC
:102C70000001030E866F010E826F500E816F536E3E
:102C8000DBEF96F06100A4F300F06100A8F301F01F
:102C900001EE00F3610018F5E9F4462AEFC4C1F42F
:102CA000E0EF96F06100ECF4C1F4E6EF96F061001D
:102CB00040F5C1F4E6EF96F061001CF5C1F4E6EFD3
:102CC00096F0610038F5C1F4E6EF96F061003CF54E
:102CD000C1F47CD06100E4F4C1F478D06100E8F480
:102CE000C1F474D04944E838406E4D44E844E844A7
:102CF0004C104010C16E6AD06AD0D150516EE8B607
:102D000066D052660BD00001030E866F010E826FF3
:102D1000510E816F536E100E506E5FD00001030E86
:102D2000866F010E826F500E816F536F56D04A50DE
:102D3000030A4DE16100A4F300F06100A8F301F083
:102D400003EEB2F03750E9263850EA22D1C4EFF44E
:102D5000600000F0E9F4600004F0EAF4374A382A31
:102D60003750355C34E13850365C31E10001030EF8
:102D7000866F010E826F820E816F536E030E566E48
:102D800057842BD06100A4F300F06100A8F301F098
:102D900001EE00F3610018F5E9F4D1C4EFF460002E
:102DA00000F0E9F4600004F0EAF4462A3B50466281
:102DB0000ED0400EDDD0B1A0FED7C0808051C090B3
:102DC000600000F0E9F4600004F0EAF4C96ABF862C
:102DD000CFA2FED7C968BF961100B1A0FED7C080B0
:102DE000BF86CFA2FED7C9688051C090BF961100A0
:102DF000020E456204D0610010F5C1F424D06100D8
:102E0000D8F300F06100DCF301F06100E0F302F0C0
:102E10006100D4F340F5000E4524F66EF76A000E0B
:102E2000F722F86A380EF8220800F550C16E6000EB
:102E300000F0F6F4600004F0F7F4600008F0F8F435
:102E4000610000F5F5F4452AC1D7610044F34FF560
:102E5000BED7610044F34EF5BAD7610044F339F5AB
:102E6000B6D7D150030B3A6EB2D70001030E866F6E
:102E7000010E826F500E816F536E356A366AD140F3
:102E8000E838030B496E02E1362A0CD0010A03E14F
:102E9000020E366E07D0030A03E1040E366E02D02E
:102EA000800E356ED144E838030B4D6ED150070BC0
:102EB0004C6E93D73C6AD1503B6E89E13C2A87D750
:102EC0000001030E866F010E826F500E816F536EEC
:102ED000396A3A6A82D70001030E866F010E826F4B
:102EE000820E816F536E020E566E5784EDEF96F090
:102EF000D150040B0AE10001030E866F010E826FB0
:102F0000580E816F536EEDEF96F00001030E866F41
:102F1000010E826F510E816F536E040E506EEDEFF5
:102F200096F00001030E866F010E826F820E816F94
:102F3000536E010E566E5784EDEF96F00001030EAE
:102F4000866F010E826F500E816F536EEDEF96F01B
:102F5000506A0001030E866F010E826F400E816F72
:102F6000536EEDEF96F0610044F348F5466A800E2B
:102F70004810566E0001030E866F010E826F820E9E
:102F8000816F536E5784EDEF96F0610044F344F582
:102F9000456AE7EF96F0E7EF96F041A073D661003F
:102FA0000CF5C1F4C96ABF86CE501F0B5E6ECFA26E
:102FB000FED7B490C968BF96BE9A0001020E896F11
:102FC000610008F543F5030E866F010E826FFF0E58
:102FD000816F61000CF5C1F43F8E110006018D6F09
:102FE00006018D51240DCB0EF324996F0E0EF420A3
:102FF0009A6F20EE06F09951D9269A51DA22DE50C6
:103000000501F85DD8A002D0010E01D0000E060126
:10301000956F9551D8B409D020EE06F09951D92674
:103020009A51DA22DF500501F85F060120EE02F026
:103030009951D9269A51DA220501F751DE18D8A400
:103040000BD0060120EE03F09951D9269A51DA22CD
:103050009551DE18D8B40FD0F7C5E9F595C6EAF555
:1030600006018D51F2ECBAF00501E95106019E6F9F
:103070009E51D8A429D2000E966F000E9625D96EC7
:10308000DA6A080EDA22DF500501F96F010E060137
:103090009625D96EDA6A080EDA22DF500501FA6F3A
:1030A000F9510601976FFAC598F697519811D8B45F
:1030B0000BD298AF02D0010E01D0000E8E6FFF0E22
:1030C00097173F0E981720EE05F09951D9269A517F
:1030D000DA22DF50D8A407D08E51D8A404D0000E35
:1030E000886F020E03D0000E886F010E876F87C6AF
:1030F000A0F62F0E0501A26F060EA36F060120EEAB
:1031000007F09951D9269A51DA22DEC4F9F5DEC4C6
:10311000FAF5DEC4FBF5DEC4FCF597510501F9258F
:10312000A46F060198510501FA21A56F000EFB213D
:10313000A66F000EFC21A76F00EC80F006019E6FC9
:103140009E51D8A415D02F0E05017E6F060E7F6FFD
:10315000000E806F070E816F000E836F0E0E826F60
:103160009C0E846F060E856F05EC90F006019E6F35
:103170009E51D8A4A9D19D5104E10E0E9C5DD8A00A
:10318000A3D1000E9B6F000E9B25D96EDA6A070E45
:10319000DA22FE0EDE18D8A491D1A0519B27000E92
:1031A0009B25D96EDA6A070EDA220501F751DE187F
:1031B000D8A484D10601A0519B27000E9B25D96E6F
:1031C000DA6A070EDA22DF50010B9519D8A476D1FE
:1031D000A0519B27000E9B25D96EDA6A070EDA22D2
:1031E0000501F851DE18D8A469D10601A0519B272A
:1031F000A0519B27A0519B27A0519B278E51D8A45B
:1032000004D0000E8A6F1E0E03D0000E8A6F2B0EA4
:10321000896F89C693F6A0519303F350936F2F0ED5
:103220000501A26F060EA36F060120EE07F099516B
:10323000D9269A51DA22DEC4F9F5DEC4FAF5DEC4E5
:10324000FBF5DEC4FCF59B5197250501FD6F000ED3
:10325000060198210501FE6FFD51F925A46FFE516D
:10326000FA21A56F000EFB21A66F000EFC21A76FAF
:1032700000EC80F006019E6F9E51D8A414D02F0E52
:1032800005017E6F060E7F6F000E806F070E816F47
:1032900093C682F5836B9C0E846F060E856F05ECDA
:1032A00090F006019E6F9E51D8A40ED193519C5D63
:1032B000000E9D59D8A008D19469000E9F6F1DD0B3
:1032C000000E9F25D96EDA6A070EDA22F70EDF6448
:1032D00012D0000E9F25D96EDA6A070EDA22FC0E94
:1032E000DF6009D0000E9F25D96EDA6A070EDA2258
:1032F000DF50946F06D0A0519F2793519F5DD8A0B7
:10330000DFD79429D8B4E0D0A0519F272F0E050114
:10331000A26F060EA36F060120EE07F09951D92681
:103320009A51DA22DEC4F9F5DEC4FAF5DEC4FBF503
:10333000DEC4FCF59F519BC6FDF50501FE6BFD2724
:10334000000EFE23060197510501FD270601985145
:103350000501FE23FD51F925A46FFE51FA21A56F49
:10336000000EFB21A66F000EFC21A76F00EC80F081
:1033700006019E6F9E51D8A4A7D0A005D8A414D052
:103380002F0E05017E6F060E7F6F000E806F070EF9
:10339000816F010E836F000E826F9C0E846F060E8C
:1033A000856F05EC90F072D0000E8F6F070E906F56
:1033B0002F0E05017E6F060E7F6FB20E806F0C0E12
:1033C000816F010E836F000E826F9C0E846F060E5C
:1033D000856F05EC90F006019E6F9E51D8A474D0C5
:1033E0009D05D8A071D0B20E916F0C0E926F000E99
:1033F0009F6F7F0E9F6501D012D091C6D9F492C6FF
:10340000DAF48FC6E1F490C6E2F4DFC4E7F4914B3E
:10341000922B8F4B902B914B922B9F2BEAD72F0EF9
:1034200005017E6F060E7F6FB20E806F0C0E816FEE
:10343000010E836F000E826F9C0E846F060E856FE7
:1034400005EC90F006019E6F9E51D8A43DD09D05DD
:10345000D8A03AD0B20E916F0C0E926F000E9F6FF3
:103460007F0E9F6501D012D091C6D9F492C6DAF4CE
:103470008FC6E1F490C6E2F4DFC4E7F4914B922BDF
:103480008F4B902B914B922B9F2BEAD7F80E060176
:103490009419D8B408D0FA0E9419D8B404D0000EF8
:1034A0008C6F000E03D0000E8C6F060E8B6F8BC6D8
:1034B00047F5010E3C6E000E3B6E1200020E060137
:1034C00096273F0E9665D9D5050E476E1200050169
:1034D000726F13C560F514C561F505017251D8B45A
:1034E00002D0040E12005FA002D0030E1200010EE3
:1034F000776F2CD2BE9ADBECD7F0FF0AD8A443D268
:10350000000E050121D2000E0D6E000E0E6E000E93
:103510000F6E000E106E490EE2ECD4F00009D8A434
:1035200032D2620E076E050E086E000E0A6E100E85
:10353000096E3FECCFF00009D8B425D205016245F1
:10354000E846030BE806D8A448D069C515F53F0E38
:10355000151615C516F5176A186A196A17C519F5EB
:1035600016C518F5176A166A6A511B6E6B511A6EEA
:103570001A5016241C6E1B5017201D6E000E1820AA
:103580001E6E000E19201F6E010E1C24736F000E9C
:103590001D20746F000E1E20756F000E1F20766FA9
:1035A00073C515F574C516F575C517F576C518F507
:1035B0000A0ED8901536163617361836E82EF9D773
:1035C00013C5D9F414C5DAF415C5DEF416C5DEF456
:1035D00017C5DEF418C5DEF493D7156A6CAF01D0B9
:1035E000152A010E151667C516F50F0E16166B5126
:1035F000030B020DF35016241524020F786F685147
:10360000030B156E166A0A0ED89015361636E82E7C
:10361000FBD76951176E186AD89017361836D890AC
:10362000173618366AC519F5060E1A6ED890193273
:103630001A2EFCD7195017241B6E000E18201C6E72
:1036400015501B241D6E16501C201E6E010E1D26CB
:10365000000E1E221DC573F51EC574F5756B766BC5
:1036600078C515F5F70E152673C516F574C517F54B
:1036700075C518F576C519F5152A05D0D8901636F2
:10368000173618361936152EF9D748D013C5D9F480
:1036900014C5DAF4000EDE6E020EDD6E31D759A4C9
:1036A0004AD0000E0D6E000E0E6E000E0F6E000E54
:1036B000106ECD0EE2ECD4F00009D8A464D1FF0E58
:1036C0003BECD8F0620E076E050E086E000E0A6E17
:1036D000100E096E3FECCFF00009D8B454D1300E73
:1036E0000501786F05D0FF0E3BECD8F00501780797
:1036F0007851D8A4F8D76CC515F5153A0F0E1516E4
:10370000100E166E176A186A196A152A05D0D89015
:103710001636173618361936152EF9D713C5D9F4BB
:1037200014C5DAF416C5DEF417C5DEF418C5DEF4E8
:1037300019C5DEF4E5D6000E0D6E000E0E6E000EFD
:103740000F6E000E106E490EE2ECD4F00009D8A402
:103750001AD1620E076E050E086E000E0A6E100E6C
:10376000096E3FECCFF00009D8B40DD159A22BD08F
:103770006FC515F5060E166ED8901532162EFCD7AD
:10378000FF0E152605016C513F0B176E186AD89075
:1037900017361836196A6DAF01D0192A010E19169D
:1037A00019501726000E1822010E1726000E182297
:1037B000152A03D0D89017361836152EFBD7175078
:1037C0001A6E185035D06CC515F5D8901532D890B2
:1037D00015321F0E1516010E1524066E076A000E0F
:1037E000072205016D51030B166E176AD890163625
:1037F0001736D89016361736D890163617366DC548
:1038000018F5050E196ED8901832192EFCD7070E30
:10381000181618501626000E1722010E1624086ED0
:10382000000E1720096E7FECD7F006501A6E075075
:103830001B6E1C6A1D6A13C5D9F414C5DAF41AC5C7
:10384000DEF41BC5DEF41CC5DEF41DC5DEF458D65F
:1038500060C5D9F461C5DAF459C5DFF451D6000E5C
:103860000D6E000E0E6E000E0F6E000E106E490EE5
:10387000E2ECD4F00009D8A486D013C507F514C52E
:1038800008F5000E0A6E100E096E3FECCFF000092D
:10389000D8A436D678D0000E0D6E000E0E6E000E37
:1038A0000F6E000E106E4A0EE2ECD4F00009D8A4A0
:1038B0006AD013C507F514C508F5000E0A6E100E80
:1038C000096E3FECCFF0E3D7000E0D6E000E0E6ECA
:1038D000000E0F6E000E106E7A0EE2ECD4F00009AE
:1038E000D8A451D0000E0501786F78511324D96EF9
:1038F000000E1420DA6EFF0E3BECD8F0DF6E0501EF
:10390000782B030E7865F1D7FBD559A43CD0000E77
:103910000D6E000E0E6E000E0F6E000E106ECD0EB0
:10392000E2ECD4F00009D8A42ED0FF0E3BECD8F086
:1039300013C507F514C508F5000E0A6E400E096E92
:103940003FECCFF0A4D7040E776F1DD01250000AC1
:10395000D8B4D0D5010AD8B4D6D5030AD8B496D6EF
:10396000010AD8B49CD6090AD8B472D7010AD8B4CF
:1039700076D7070AD8B48FD7010AD8B4A5D7030AD7
:10398000D8B4C3D7E0D7A9ECD8F00501775112001D
:103990001EC5D9F41FC5DAF4DEC429F5DDC42AF545
:1039A00020EE16F02050D9262150DA22DF6A20EED0
:1039B00016F01E50D9261F50DA22DE50DE10DE101F
:1039C000DE10D8B4120020EE28F01E50D9261F5069
:1039D000DA22DE2807E1DE2805E1DE2803E1DE2821
:1039E000D8B4A3D0000E346E000E336E33C52FF55D
:1039F00034C530F56AD020EE0CF02950D9262A5073
:103A0000DA22DEC422F5DDC423F5D8902F34D96E36
:103A10003034DA6E2250D9262350DA22DEC431F552
:103A2000DDC432F52F4A302A2D502E10D8A40DD0E7
:103A3000D80E325CD8A009D0E00E325CD8B005D0E8
:103A400031C52DF532C52EF544D02D50226E2E50A5
:103A5000236E246A256A23C525F522C524F5236A29
:103A6000226A31502210146E32502310156E000E4F
:103A70002410166E000E2510176E33502024266E6B
:103A800034502120276E160E2624186E000E272093
:103A9000196E33500601DC5D1A6E3450D8A03428FC
:103AA0001B6A1B5EAEECCEF014C52BF515C52CF5CC
:103AB0002B502C10D8A405D0000E346E000E336E9F
:103AC0001FD02B5033262C503422000E2E6E000EA9
:103AD0002D6E20EE0CF02950D9262A50DA22DEC4B1
:103AE00022F5DDC423F5D8902F34D96E3034DA6E48
:103AF0002250D9262350DA22DE50DE10D8A47BD7FC
:103B00002D502E10D8B404D0000E346E000E336E3B
:103B100033502024226E34502120236E160E22248E
:103B2000D96E000E2320DA6EDF6A000E346E000EAE
:103B3000336E33C52FF534C530F550D020EE1AF072
:103B40001E50D9261F50DA22DEC422F5DDC423F52B
:103B50002F502224D96E30502320DA6EDF50246E8D
:103B60002450316E326A2F4A302A200E311832101A
:103B7000D8B434D0050E31183210D8A404D0000EB9
:103B8000326EE50E316E090E2F183010D8A416D003
:103B9000345014E10C0E335CD8B010D033502024D4
:103BA000226E34502120236E090E2224D96E000E7D
:103BB0002320DA6E2E0EDF6E334A342A335020244F
:103BC000226E34502120236E090E2224D96E000E5D
:103BD0002320DA6E31C5DFF4334A342A305004E151
:103BE0000B0E2F5CD8A0AAD733502024226E34505D
:103BF0002120236E090E2224D96E000E2320DA6EB6
:103C0000DF6A20EE16F02050D9262150DA22DF504C
:103C1000D8A49DD033503410D8A411D033502024D0
:103C2000226E34502120236E160E2224D96E000EEF
:103C30002320DA6E3F0EDF6E334A342A65D0000E41
:103C4000346E000E336E33C52FF534C530F5080ED3
:103C5000286E4BD02F502024226E30502120236E0E
:103C6000090E2224D96E000E2320DA6EDF50246E56
:103C70002450316E326A2E0E31183210D8A402D080
:103C8000100E286E325004E1410E315CD8A01BD0DA
:103C9000325019E15B0E315CD8B015D020EE1AF02D
:103CA0001E50D9261F50DA2210EE0CF0DE50E1260D
:103CB000DD50E222E75028140009D8B404D0200EC9
:103CC0003126000E322233502024226E345021201F
:103CD000236E160E2224D96E000E2320DA6E31C513
:103CE000DFF42F4A302A334A342A2F502024226E00
:103CF00030502120236E090E2224D96E000E23207D
:103D0000DA6EDF50D8A4A6D733502024226E345068
:103D10002120236E160E2224D96E000E2320DA6E87
:103D2000DF6A20EE1AF01E50D9261F50DA2210EE5C
:103D30000CF0DE50E126DD50E222E750D8A407D097
:103D400020EE09F02050D9262150DA22DF6A20EE39
:103D500008F02050D9262150DA2210EE1AF01E5019
:103D6000E1261F50E22200EE0BF0E650E926E55076
:103D7000EA22EF503F0BDF6E20EE1AF01E50D926DC
:103D80001F50DA22DEC422F5DDC423F51C0E2224E6
:103D9000066E000E2320076E3FECC9F020C5D9F453
:103DA00021C5DAF406C5DEF407C5DEF408C5DEF485
:103DB00009C5DEF420EE1AF01E50D9261F50DA2273
:103DC000DEC422F5DDC423F5160E2224066E000E95
:103DD0002320076ED9ECD5F020EE06F02050D9262E
:103DE0002150DA2206C5DEF407C5DDF420EE1AF014
:103DF0001E50D9261F50DA22DEC422F5DDC423F579
:103E0000180E2224066E000E2320076ED9ECD5F082
:103E100020EE04F02050D9262150DA2206C5DEF427
:103E200007C5DDF4120085C5D9F486C5DAF4DEC411
:103E30009CF5DDC49DF505018751881189118A1112
:103E4000D8A42DD020EE0EF09C51D9269D51DA2217
:103E5000DEC494F5DEC495F5DEC496F5DEC497F5B0
:103E60009451951196119711D8B410D020EE16F0F8
:103E70009C51D9269D51DA22DE50945DDE50955931
:103E8000DE509659DE509759D8A05BD0010E946F42
:103E9000000E956F000E966F000E976F52D085C57D
:103EA00064F586C565F587C566F588C567F589C576
:103EB00068F58AC569F538ECA5F064C59EF565C559
:103EC0009FF566C5A0F567C5A1F50501A151A01133
:103ED0009F110DE1020E9E5DD8B009D0010E856FD5
:103EE000000E866F000E876F000E886F12009E29ED
:103EF00010E19F290EE1A0290CE1A129D8A409D045
:103F00009EC585F59FC586F5A0C587F5A1C588F531
:103F1000120020EE16F09C51D9269D51DA22DE5077
:103F20009E5DDE509F59DE50A059DE50A159D8A0A9
:103F3000E7D787C594F588C595F589C596F58AC5EF
:103F400097F520EE12F09C51D9269D51DA22DE50D1
:103F5000DE10DE10DE10D8A409D0000E856F000E32
:103F6000866F000E876F000E886F1200000E986F2C
:103F7000000E996F000E9A6F000E9B6F8751941977
:103F800009E18851951906E18951961903E18A5191
:103F90009719D8A486D0010E9425986F000E95210C
:103FA000996F000E96219A6F000E97219B6F20EE5D
:103FB00016F09C51D9269D51DA22DE50985DDE50D4
:103FC0009959DE509A59DE509B59D8A008D0020E5C
:103FD000986F000E996F000E9A6F000E9B6F85C54B
:103FE00064F586C565F598C566F599C567F59AC502
:103FF00068F59BC569F538ECA5F064C59EF565C507
:104000009FF566C5A0F567C5A1F505019E059F1141
:10401000A011A111D8B474D79E2907E19F2905E109
:10402000A02903E1A129D8B46BD79E519F11A011FB
:10403000A111D8B436D020EE0EF09C51D9269D5156
:10404000DA22DEC49EF5DEC49FF5DEC4A0F5DEC430
:10405000A1F5A151A0119F1104E1020E9E5DD8A00F
:1040600018D020EE16F09C51D9269D51DA22DE5050
:104070009E5DDE509F59DE50A059DE50A159D8B048
:1040800008D09EC594F59FC595F5A0C596F5A1C528
:1040900097F5000E986F000E996F000E9A6F000E44
:1040A0009B6F985199119A119B11D8A468D094C50F
:1040B00098F595C599F596C59AF597C59BF5010EA6
:1040C0009827000E99239A239B2320EE16F09C51EB
:1040D000D9269D51DA22DE50985DDE509959DE5086
:1040E0009A59DE509B59D8A010D0020E986F000E3E
:1040F000996F000E9A6F000E9B6F97519611951154
:1041000004E1020E945DD8A028D785C564F586C564
:1041100065F598C566F599C567F59AC568F59BC5B7
:1041200069F538ECA5F064C59EF565C59FF566C5D3
:10413000A0F567C5A1F505019E519F11A011A11120
:10414000D8B41DD09E059F11A011A111D8B4D8D606
:104150009E2907E19F2905E1A02903E1A129D8B4FF
:10416000CFD694519819ABE195519919A8E1965180
:104170009A19A5E197519B19D8B4EFD6A0D79CC541
:1041800064F59DC565F598C566F599C567F59AC549
:1041900068F59BC569F5FF0E6A6FFF0E6B6FFF0E2A
:1041A0006C6FFF0E6D6F58ECA1F00501936F93518A
:1041B000D8A41ED08751881189118A11D8B418D07B
:1041C0009CC564F59DC565F587C566F588C567F529
:1041D00089C568F58AC569F598C56AF599C56BF50D
:1041E0009AC56CF59BC56DF558ECA1F00501936F70
:1041F0009351D8A444D020EE0EF09C51D9269D5165
:10420000DA2298C5DEF499C5DEF49AC5DEF49BC5C2
:10421000DEF420EE12F09C51D9269D51DA2210EEE8
:1042200016F09C51E1269D51E222FE0EE6248F6F8E
:10423000FF0EE620906FFF0EE620916FFF0EE62046
:10424000926FDE508F5DDE509059DE509159DE50F6
:104250009259D8A00BD020EE12F09C51D9269D5136
:10426000DA22DE06000EDE5ADE5ADE5A20EE05F0B5
:104270009C51D9269D51DA22000EDB8010D0930587
:10428000D8B409D0010E986F000E996F000E9A6F86
:10429000000E9B6F04D0986999699A699B6998C5CB
:1042A00085F599C586F59AC587F59BC588F51200F1
:1042B000020E0501846F69516811671104E1020E55
:1042C000665DD8A016D220EE16F06451D92665514D
:1042D000DA22DE50665DDE506759DE506859DE50E6
:1042E0006959D8A0F8D105D266C582F567C583F5AE
:1042F000D89083316F6F82316E6F6E5182276F510C
:10430000832364C52EF565C52FF520EE22F0645198
:10431000D9266551DA22DEC46EF5DEC46FF5DEC43F
:1043200070F5DEC471F582C572F583C573F5090EAB
:10433000746FD89073337233742FFBD772516E251C
:10434000306E73516F21316E000E7021326E000E8F
:104350007121336EA5ECCBF00501846F8451D8A494
:10436000C8D1FF0E82156E6F010E83156F6F6E51EF
:104370006425706F6F516521716F320E7025806FEB
:10438000000E7121816F824B832B66B104D06AC508
:104390007CF57D6B1AD06A516E6F6F6B6E3B6F3B15
:1043A000F00E6F176E510F0B6F13F00E6E1780C566
:1043B000D9F481C5DAF4DF500F0B706F716B6E5159
:1043C00070117C6F6F5171117D6F80C5D9F481C5FB
:1043D000DAF47CC5DFF420EE04F06451D92665518F
:1043E000DA22010EDF6E64C52EF565C52FF520EECD
:1043F00022F06451D9266551DA22DEC46EF5DEC49E
:104400006FF5DEC470F5DEC471F582C572F583C543
:1044100073F5090E746FD89073337233742FFBD712
:1044200072516E25306E73516F21316E000E702106
:10443000326E000E7121336EA5ECCBF00501846F56
:104440008451D8A456D1FF0E82156E6F010E8315CC
:104450006F6F6E516425706F6F516521716F320EF1
:104460007025806F000E7121816F66B11BD06AC507
:104470006EF56BC56FF56CC570F56DC571F56FC5E3
:104480006EF570C56FF571C570F5716B0F0E6E1717
:1044900080C5D9F481C5DAF4DF50F00B6E11726F6C
:1044A000725112D06AC56EF56BC56FF56CC570F5AB
:1044B0006DC571F5050E05D0D890713370336F332B
:1044C0006E33E82EF9D76E517E6F7F6B80C5D9F4BD
:1044D00081C5DAF47EC5DFF454D064C52EF565C518
:1044E0002FF520EE22F06451D9266551DA22DEC480
:1044F0006EF5DEC46FF5DEC470F5DEC471F566C519
:1045000072F567C573F568C574F569C575F573C54A
:1045100072F574C573F575C574F5756B6E517225BA
:10452000306E6F517321316E70517421326E715142
:104530007521336EA5ECCBF00501846F8451D8A4AE
:10454000D8D066C56EF567C56FF5D8906E376F37F2
:10455000FF0E6E15706F010E6F15716F705164252F
:10456000726F71516521736F320E7225066E000EE7
:104570007321076E6AC508F56BC509F558ECD7F0CD
:10458000A8D020EE04F06451D9266551DA22010E3C
:10459000DF6EAFD064C52EF565C52FF520EE22F095
:1045A0006451D9266551DA22DEC46EF5DEC46FF59A
:1045B000DEC470F5DEC471F566C572F567C573F5C6
:1045C00068C574F569C575F5080E05D0D8907533C2
:1045D000743373337233E82EF9D76E517225306E0F
:1045E0006F517321316E70517421326E715175218A
:1045F000336EA5ECCBF00501846F8451D8A479D03B
:1046000066C56EF567C56FF5D8906E376F37D89071
:104610006E376F37FF0E6E15706F010E6F15716F6D
:1046200070516425726F71516521736F320E72255E
:10463000066E000E7321076E3FECC9F0000E0614E3
:104640000501746F000E0714756F000E0814766F65
:10465000F00E0914776FFF0E6A15786FFF0E6B1559
:10466000796FFF0E6C157A6F0F0E6D157B6F74519D
:1046700078116A6F755179116B6F76517A116C6F81
:1046800077517B116D6F66C56EF567C56FF5D89074
:104690006E376F37D8906E376F37FF0E6E15706FAD
:1046A000010E6F15716F70516425726F7151652124
:1046B000736F320E7225066E000E7321076E6AC587
:1046C00008F56BC509F56CC50AF56DC50BF55FEC12
:1046D000D1F0050156D764C5D9F465C5DAF4DF50C9
:1046E000010AD8B401D6030AD8B4F7D6010AD8B45F
:1046F00051D784511200C9C5D9F4CAC5DAF4DEC451
:10470000E8F5DDC4E9F5050120EE27F0C951D92609
:10471000CA51DA22DF50CB6FA00ECB17D8B402D02B
:10472000060E1200000EE36F000EE26F02D0E24BA5
:10473000E32B20EE0CF0E851D926E951DA22DEC451
:10474000CBF5DDC4CCF5D890E235D96EE335DA6E21
:10475000CB51D926CC51DA22DE50DE10D8A4E7D7CF
:10476000D50E066E050E076E1C0EC925086E000ECE
:10477000CA21096E000E0B6E0C0E0A6E9EECD4F070
:104780000501E0A14ED020EE27F0C951D926CA512B
:10479000DA22400EDF6E000EE56F010EE46F1C0E94
:1047A000C925116E000ECA21126ED50E136E050EAC
:1047B000146E20EE0CF0E851D926E951DA22DEC45D
:1047C00015F5DDC416F5E4C517F5E5C518F5C9EC12
:1047D000B0F0C9C5BCF5CAC5BDF54BECADF00501DF
:1047E000EA6FEA51D8A408D0E44BE52BE55104E187
:1047F000640EE45DD8A0D3D7640EE419E511D8A403
:1048000002D0070E1200040EEA19D8B402D0EA5101
:10481000120020EE27F0C951D926CA51DA22E0C58C
:10482000DFF4E0B305D0000EE76F010EE66F13D0A2
:104830000C0EE225066E000EE321076E000E096ED7
:104840000D0E086E9DECD3F0010E06240501E66FF7
:10485000000E0720E76FC9C5BCF5CAC5BDF5E6C5A2
:10486000BEF5E7C5BFF5F0ECC3F00501EA6FEA510C
:10487000D8A498D0E607D8A0E707E651E711D8B446
:1048800091D0C9C57EF5CAC57FF5E6C5CBF5E7C5AC
:10489000CCF5050ED890CB37CC37E82EFBD7CB51D3
:1048A000CD6FCC51CE6FCF6BD06B20EE0EF0C951D7
:1048B000D926CA51DA22DEC4D1F5DEC4D2F5DEC46F
:1048C000D3F5DEC4D4F5CD51D15D806FCE51D25930
:1048D000816FCF51D359826FD051D459836F4FEC30
:1048E000AAF00501EA6FEA51D8A45CD01C0EC925D4
:1048F000066E000ECA21076E66ECD5F00501E16F69
:10490000E8C52EF5E9C52FF520EE16F0C951D926D8
:10491000CA51DA22DEC430F5DEC431F5DEC432F528
:10492000DEC433F5A5ECCBF00501EA6FEA51D8A45B
:1049300039D020EE0CF0E851D926E951DA22DEC454
:104940000CF5DDC40DF520EE1AF0C951D926CA5177
:10495000DA22DEC40EF5DDC40FF5E6C510F5E1C5BB
:1049600011F562ECC3F0050120EE04F0E851D92600
:10497000E951DA22010EDF6EC9C5A2F5CAC5A3F559
:10498000000EA56F000EA46FF1ECA6F00501EA6F12
:10499000EA51D8A407D0E607D8A0E707E651E71107
:1049A000D8A4AED7EA51D8A432D7E8C52EF5E9C5C8
:1049B0002FF520EE16F0C951D926CA51DA22DEC4ED
:1049C00030F5DEC431F5DEC432F5DEC433F5A5ECD6
:1049D000CBF00501EA6FEA51D8A419D720EE1AF0FE
:1049E000C951D926CA51DA22DEC406F5DDC407F55D
:1049F000000E096E000E086E000E0B6E200E0A6E81
:104A000003ECD7F0050120EE1AF0C951D926CA519E
:104A1000DA22DEC406F5DDC407F51C0EC925086ED2
:104A2000000ECA21096E000E0B6E0B0E0A6E9EEC74
:104A3000D4F0050120EE1AF0C951D926CA51DA2264
:104A400010EE0CF0DE50E126DD50E22220EE27F0E1
:104A5000C951D926CA51DA22DF50180BE76E20EE71
:104A600004F0E851D926E951DA22010EDF6ECFD6E3
:104A700064C5D9F465C5DAF4DEC47CF5DDC47DF522
:104A8000050169516811671104E1020E665DD8A045
:104A900010D020EE16F07C51D9267D51DA22DE505E
:104AA000665DDE506759DE506859DE506959D8A0FE
:104AB00008D0010E746F000E756F000E766F000E39
:104AC00076D1746975697669776973D166C57AF547
:104AD00067C57BF5D8907B316B6F7A316A6F6A510D
:104AE0007A276B517B237CC52EF57DC52FF520EEF3
:104AF00022F07C51D9267D51DA22DEC46AF5DEC46B
:104B00006BF5DEC46CF5DEC46DF57AC56EF57BC55C
:104B10006FF5090E706FD8906F336E33702FFBD71F
:104B20006E516A25306E6F516B21316E000E6C2113
:104B3000326E000E6D21336EA5ECCBF00009D8A4C7
:104B400047D1FF0E05017A156A6F010E7B156B6F59
:104B50006A517C256C6F6B517D216D6F320E6C2517
:104B6000D96E000E6D21DA6EDF506E6F6E51786F68
:104B7000796B7A4B7B2B7CC52EF57DC52FF520EE0E
:104B800022F07C51D9267D51DA22DEC46AF5DEC4DA
:104B90006BF5DEC46CF5DEC46DF57AC56EF57BC5CC
:104BA0006FF5090E706FD8906F336E33702FFBD78F
:104BB0006E516A25306E6F516B21316E000E6C2183
:104BC000326E000E6D21336EA5ECCBF00009D8A437
:104BD000FFD0FF0E05017A156A6F010E7B156B6F12
:104BE0006A517C256C6F6B517D216D6F320E6C2587
:104BF000D96E000E6D21DA6EDF506E6F6E51706FE0
:104C00006F6B6F5178137051791366B107D0FF0E37
:104C10007815726F0F0E7915736F0FD078C56AF51E
:104C200079C56BF5040E6C6FD8906B336A336C2FBB
:104C3000FBD76AC572F56BC573F572C574F573C59C
:104C400075F553D07CC52EF57DC52FF520EE22F0ED
:104C50007C51D9267D51DA22DEC46AF5DEC46BF5BB
:104C6000DEC46CF5DEC46DF566C56EF567C56FF51F
:104C700068C570F569C571F56FC56EF570C56FF5DE
:104C800071C570F5716B6A516E25306E6B516F2175
:104C9000316E6C517021326E6D517121336EA5EC05
:104CA000CBF00009D8A494D066C56AF567C56BF54A
:104CB000D89005016A376B37FF0E6A156C6F010ECD
:104CC0006B156D6F6C517C256E6F6D517D216F6F13
:104CD000320E6E25066E000E6F21076ED9ECD5F0F0
:104CE00006C574F507C575F50501766B776B70D051
:104CF0007CC52EF57DC52FF520EE22F07C51D926FE
:104D00007D51DA22DEC46AF5DEC46BF5DEC46CF5D3
:104D1000DEC46DF566C56EF567C56FF568C570F5DF
:104D200069C571F5080E05D0D890713370336F33B3
:104D30006E33E82EF9D76A516E25306E6B516F21B4
:104D4000316E6C517021326E6D517121336EA5EC54
:104D5000CBF00009D8A43CD066C56AF567C56BF5F1
:104D60000501D8906A376B37D8906A376B37FF0EDA
:104D70006A156C6F010E6B156D6F6C517C256E6F33
:104D80006D517D216F6F320E6E25066E000E6F2104
:104D9000076E3FECC9F0FF0E06140501746FFF0E9D
:104DA0000714756FFF0E0814766F0F0E0914776FD6
:104DB0000FD07CC5D9F47DC5DAF4DF50010AD8B430
:104DC00085D6030AD8B43ED7010AD8B491D771D694
:104DD00074C564F575C565F576C566F577C567F57F
:104DE0001200A2C5D9F4A3C5DAF4DEC4B6F5DDC459
:104DF000B7F5050120EE0EF0A251D926A351DA2213
:104E0000DEC4A6F5DEC4A7F5DEC4A8F5DEC4A9F5A8
:104E1000200EA625B26F000EA721B36F000EA821A9
:104E2000B46F000EA921B56FB55104E1200EB45D39
:104E3000D8A00AD020EE16F0A251D926A351DA222A
:104E4000DE6ADE6ADE6ADD6A20EE16F0A251D9263D
:104E5000A351DA22DE50DE10DE10DE10D8A402D01C
:104E6000040E1200FF0EB215A66F010EB315A76F48
:104E7000000EB415A86F000EB515A96FA651A711A5
:104E8000A811A911D8A438D120EE16F0A251D92624
:104E9000A351DA22DE2A000EDE22DE22DE2220EEFE
:104EA00012F0A251D926A351DA22DE50DE10DE1014
:104EB000DE10D8A42CD020EE08F0B651D926B75178
:104EC000DA22DEC4A6F5DDC4A7F5A651A86FA75166
:104ED000A96FAA6BAB6BB2C5ACF5B3C5ADF5B4C5E4
:104EE000AEF5B5C5AFF5060E05D0D890AF33AE33ED
:104EF000AD33AC33E82EF9D7A851AC5DA951AD590B
:104F0000AA51AE59AB51AF59D8A0F6D079D020EE06
:104F10000AF0B651D926B751DA22DEC4A6F5DDC4AF
:104F2000A7F5FF0EA625A86FFF0EA721A96FB2C592
:104F3000AAF5B3C5ABF5B4C5ACF5B5C5ADF50A0E6C
:104F400005D0D890AD33AC33AB33AA33E82EF9D7C4
:104F5000A851AA15AE6FA951AB15AF6F000EAC15D5
:104F6000B06F000EAD15B16FAE51AF11B011B111F0
:104F7000D8A4C2D0A2C564F5A3C565F520EE12F091
:104F8000A251D926A351DA22DEC466F5DEC467F544
:104F9000DEC468F5DEC469F538ECA5F064C5B8F583
:104FA00065C5B9F566C5BAF567C5BBF50501BB5161
:104FB000BA11B91106E1020EB85DD8B002D0020EE6
:104FC0001200B82909E1B92907E1BA2905E1BB298D
:104FD000D8A402D0010E120020EE16F0B651D92648
:104FE000B751DA22DE50B85DDE50B959DE50BA59F9
:104FF000DE50BB59D8A054D0A451A511D8A40BD0D1
:1050000020EE16F0A251D926A351DA22DE6ADE6A1A
:10501000DE6ADD6A25D7A2C585F5A3C586F520EE33
:1050200012F0A251D926A351DA22DEC487F5DEC4DC
:1050300088F5DEC489F5DEC48AF513EC9FF085C5DA
:10504000B8F586C5B9F587C5BAF588C5BBF50501BC
:10505000B851B911BA11BB11D8A402D0070E120071
:10506000B805B911BA11BB11D8B4A9D7B82907E14D
:10507000B92905E1BA2903E1BB29D8B4ABD7B6C534
:105080002EF5B7C52FF5B8C530F5B9C531F5BAC598
:1050900032F5BBC533F5D0ECC2F00009D8A49AD7DD
:1050A000050120EE12F0A251D926A351DA22B8C58B
:1050B000DEF4B9C5DEF4BAC5DEF4BBC5DEF4B6C5B0
:1050C00012F5B7C513F5B8C514F5B9C515F5BAC5C8
:1050D00016F5BBC517F57FECC8F0050120EE16F0FC
:1050E000A251D926A351DA2212C5DEF413C5DEF48B
:1050F00014C5DEF415C5DEF420EE0EF0A251D9265B
:10510000A351DA22B2C5DEF4B3C5DEF4B4C5DEF4D1
:10511000B5C5DEF4FF0EB215A66F010EB315A76F6D
:10512000A651B625A86FA751B721A96F320EA8279F
:10513000000EA92320EE1AF0A251D926A351DA229B
:10514000A8C5DEF4A9C5DDF4000E12000601CF6F7C
:105150000601CF51440DD20EF324D56F0F0EF4206B
:10516000D66F20EE3CF0D551D926D651DA22DF5049
:10517000D8B402D0000E1200CF51440DF60EF32425
:10518000D06F0F0EF420D16FD0C6D9F4D1C6DAF4A7
:10519000DF50D8A41BD0D0C606F5D1C607F5EF0E58
:1051A000086EFF0E096EEDECD3F0060120EE07F05D
:1051B000D051D926D151DA22CF51300FDF6E20EEF7
:1051C00008F0D051D926D151DA22DF6A030ECA6F16
:1051D0000501F8A302D0070E03D0F8A503D0010EF5
:1051E0000601CA6FD5C6EBF5D6C6ECF5D0C6EDF50F
:1051F000D1C6EEF5CAC6EFF5F8EC8CF00601D26F19
:10520000D251D8B403D00601D25112000501F8A33F
:105210000BD0D5C6E9F5D6C6EAF5E2ECB7F0060143
:10522000D26FD251D8A434D1D5C67EF5D6C67FF57B
:10523000B20E0501806F0C0E816F010E836F000EA0
:10524000826FCD0E846F060E856F05EC90F006011F
:10525000D26FD251D8A41CD1CE05CD11D8B404D070
:10526000090E0601D26F14D1B20ED36F0C0ED46F9B
:10527000D3C6D9F4D4C6DAF4560EDE18D8A4F0D7C3
:1052800020EE01F0D351D926D451DA22CB0EDE180C
:10529000D8A4E6D720EE02F0D351D926D451DA2291
:1052A000100EDE18D8B40AD020EE02F0D351D92661
:1052B000D451DA22110EDE18D8A4D2D70501F8A5F0
:1052C00009D0060120EE3FF0D551D926D651DA2279
:1052D000010E12D0060120EE3FF0D551D926D6514D
:1052E000DA2210EE07F0D351E126D451E222E7AEE4
:1052F00002D0010E01D0000EDF6E20EE1BF0D35164
:10530000D926D451DA22DF500501F96F030EF917BF
:10531000F951FB6FFA6B060120EE40F0D551D9260A
:10532000D651DA22FAC5DEF4FBC5DDF420EE40F0FA
:10533000D551D926D651DA2210EE1CF0D351E126F0
:10534000D451E222E7500501F96FF951DE26000E33
:10535000DD22060120EE1DF0D351D926D451DA22E8
:10536000DF50D8A405D0010ECC6F000ECB6F0DD04E
:1053700020EE1DF0D351D926D451DA22DF50050199
:10538000F96FF9510601CB6FCC6B20EE1AF0D351B7
:10539000D926D451DA22DF50D8A421D020EE43F010
:1053A000D551D926D651DA22200EDF6E20EE42F0FA
:1053B000D551D926D651DA22CBC606F5CCC607F58B
:1053C00010EE43F0D551E126D651E222E750050117
:1053D000F96FF951086E096A9DECD3F026D020EEE2
:1053E0001AF0D351D926D451DA2210EE42F0D55119
:1053F000E126D651E222DFC4E7F420EE43F0D55196
:10540000D926D651DA22CBC606F5CCC607F510EE62
:1054100042F0D551E126D651E222E7500501F96F5D
:10542000F951086E096A9DECD3F00650DF6E060153
:1054300020EE43F0D551D926D651DA22DF50066E40
:1054400020EE1DF0D351D926D451DA22DF502EECB4
:10545000D7F00009D8A404D7060120EE42F0D551B8
:10546000D926D651DA22080EDF6401D0F9D620EE13
:105470003DF0D551D926D651DA22DE6ADD6A20EE1A
:105480003CF0D551D926D651DA22000EDB8072D6F7
:10549000D5C688F5D6C689F5C0ECD4F0B4D67EC59D
:1054A000D9F47FC5DAF4DEC496F5DDC497F50501BD
:1054B000835116E1200E825DD8B012D01F0E8015E8
:1054C000846F000E8115856F000E8215866F000EA9
:1054D0008315876F8451851186118711D8B402D046
:1054E000020E120020EE0EF07E51D9267F51DA22F4
:1054F00080C5DEF481C5DEF482C5DEF483C5DEF44A
:1055000020EE06F07E51D9267F51DA22DEC492F5D4
:10551000DEC493F5DEC494F5DEC495F59251931183
:1055200094119511D8A415D096C5D9F497C5DAF47D
:10553000020EDF640ED020EE26F09651D926975148
:10554000DA22DEC492F5DEC493F5DEC494F5DEC43F
:1055500095F59251931194119511D8A440D020EE55
:1055600008F09651D9269751DA22DEC484F5DDC4BD
:1055700085F58451866F8551876F886B896B80C5EF
:105580008AF581C58BF582C58CF583C58DF5060E30
:1055900005D0D8908D338C338B338A33E82EF9D7EE
:1055A00086518A5D87518B5988518C5989518D5903
:1055B000D8B096D720EE26F09651D9269751DA2208
