:040000000EEF00F00F
:0400080010EF00F005
:1000180023EFD3F0C4EFC9F0CE505E6216D0C96AA0
:10002800BF86CFA2FED7B490C968BF96B1A0FED74D
:10003800600000F243F50001010E826FFF0E816F30
:1000480061000CF5C1F43F8E1100B49054667BD06A
:100058005E2808E0B1A0FED7600000F242F5BE8A33
:10006800FF0E5E6ECE501F0B5D6206D0D1380F0BAF
:100078004A6E376A386A1F0FA0EC00F0AFEF00F045
:10008800B9EF00F093EF01F005EF01F068EF02F02F
:1000980001EF01F017EF01F00DEF01F0B4EF00F000
:1000A800F2EF00F0F7EF00F009EF01F0EDEF00F0EC
:1000B800FCEF00F017EF01F082EF01F082EF01F0A2
:1000C80032EF01F04EEF02F0C8EF01F05DEF01F002
:1000D800C0EF01F066EF02F0D0EF01F018EF01F089
:1000E80082EF01F060EF02F0CCEF01F0F5EF01F0E4
:1000F800C4EF01F066EF02F082EF01F0FBEF01F0D0
:1001080006EF02F013EF02F02CEF02F039EF02F0E5
:1001180039EF02F02CEF02F039EF02F043EF02F072
:1001280039EF02F039EF02F039EF02F039EF02F05F
:1001380039EF02F039EF02F0E844E844FD26E86AB6
:10014800FE22FF221200CEB882EF01F061004CF5CA
:10015800C1F481EF01F061002CF5C1F481EF01F0E9
:10016800610044F5C1F481EF01F06100A4F312F5D8
:100178006100A8F313F503EEB2F03750E9263850C2
:10018800EA22EFC4C1F4374A382A3750355C02E016
:100198007BEF01F03850365C02E07BEF01F00001A4
:1001A800030E866F010E826F500E816F536E76EFCD
:1001B80001F06100A4F312F56100A8F313F501EE54
:1001C80000F3610018F5E9F4462AEFC4C1F47BEFA7
:1001D80001F06100ECF4C1F481EF01F0610040F539
:1001E800C1F481EF01F061001CF5C1F481EF01F069
:1001F800610038F5C1F481EF01F061003CF5C1F40C
:100208007CD06100E4F4C1F478D06100E8F4C1F472
:1002180074D04944E838406E4D44E844E8444C10F2
:100228004010C16E6AD06AD0D150516EE8B666D01F
:1002380052660BD00001030E866F010E826F510EBD
:10024800816F536E100E506E5FD00001030E866FE3
:10025800010E826F500E816F536F56D04A50030AB9
:100268004DE16100A4F312F56100A8F313F503EE64
:10027800B2F03750E9263850EA22D1C4EFF46100D1
:1002880048F4E9F461004CF4EAF4374A382A375064
:10029800355C34E13850365C31E10001030E866F7D
:1002A800010E826F820E816F536E030E566E578455
:1002B8002BD06100A4F312F56100A8F313F501EE49
:1002C80000F3610018F5E9F4D1C4EFF4610048F4D3
:1002D800E9F461004CF4EAF4462A3B5046620ED039
:1002E800400EDDD0B1A0FED7C0808051C090610023
:1002F80048F4E9F461004CF4EAF4C96ABF86CFA275
:10030800FED7C968BF961100B1A0FED7C080BF86CE
:10031800CFA2FED7C9688051C090BF961100020EC7
:10032800456204D0610010F5C1F424D06100D8F30F
:1003380012F56100DCF313F56100E0F314F56100D8
:10034800D4F340F5FB0E4524F66EF76AF90EF72252
:10035800F86A000EF8220800F550C16E610048F4F2
:10036800F6F461004CF4F7F4610050F4F8F461001D
:1003780000F5F5F4452AC1D7610044F34FF5BED71F
:10038800610044F34EF5BAD7610044F339F5B6D7A6
:10039800D150030B3A6EB2D70001030E866F010EDF
:1003A800826F500E816F536E356A366AD140E838D5
:1003B800030B496E02E1362A0CD0010A03E1020E52
:1003C800366E07D0030A03E1040E366E02D0800EA3
:1003D800356ED144E838030B4D6ED150070B4C6E87
:1003E80093D73C6AD1503B6E89E13C2A87D70001FC
:1003F800030E866F010E826F500E816F536E396A3D
:100408003A6A82D70001030E866F010E826F820E50
:10041800816F536E020E566E578488EF01F0D150EB
:10042800040B0AE10001030E866F010E826F580E5D
:10043800816F536E88EF01F00001030E866F010E85
:10044800826F510E816F536E040E506E88EF01F06B
:100458000001030E866F010E826F820E816F536E4C
:10046800010E566E578488EF01F00001030E866F67
:10047800010E826F500E816F536E88EF01F0506A43
:100488000001030E866F010E826F400E816F536E5E
:1004980088EF01F0610044F348F5466A800E481081
:1004A800566E0001030E866F010E826F820E816FF9
:1004B800536E578488EF01F0610044F344F5456AB0
:1004C80082EF01F082EF01F041A073D661000CF5D4
:1004D800C1F4C96ABF86CE501F0B5E6ECFA2FED78D
:1004E800B490C968BF96BE9A0001020E896F610078
:1004F80008F543F5030E866F010E826FFF0E816FBC
:0A05080061000CF5C1F43F8E1100F4
:10F9FA0000FEFEFF180218193A4038E680C01116B8
:10FA0A00500609CD1F50C0E946524548442E524F70
:10FA1A004D21000039E5DDE1EB3E03D3C4CDA4500E
:10FA2A00783C3CD3C30EC23E01ED79EDB3AFED791C
:10FA3A00CDA450C00EFFCD7F503D200CCD7050CDCF
:10FA4A007F50772310F918EE3D280BCD7F5047CD14
:10FA5A007F5010FB18E0CD70503E06D3C4CDA450A1
:10FA6A00AFC9CD7F5047CD7F506F05CD7F50670519
:10FA7A00C90C2003CD8850DBC2C9AFD3C33E04D31F
:10FA8A00C4CDA4502005DBCFE608C03E06D3C4CDC2
:10FA9A00A450DDF93CC9DBCF0738FBDBCFE601C94F
:10FAAA00FFFFFFFFFFFFFFFFFFFFFFFFFFFFFFFF5C
:10FABA00FFFFFFFFFFFFFFFFFFFFFFFFFFFFFFFF4C
:10FACA00FFFFFFFFFFFFFFFFFFFFFFFFFFFFFFFF3C
:10FADA00FFFFFFFFFFFFFFFFFFFFFFFFFFFFFFFF2C
:10FAEA00FFFFFFFFFFFFFFFFFFFFFFFFFFFFFFFF1C
:10FAFA00FF809A45418E418F804545454949498E47
:10FB0A008F9092924F994F555559999A9B9C9D9EC9
:10FB1A009F41494F55A5A5A6A7A8A9AAABACADAECA
:10FB2A00AFB0B1B2B3B4B5B6B7B8B9BABBBCBDBE63
:10FB3A00BFC0C1C2C3C4C5C6C7C8C9CACBCCCDCE53
:10FB4A00CFD0D1D2D3D4D5D6D7D8D9DADBDCDDDE43
:10FB5A00DFE0E1E2E3E4E5E6E7E8E9EAEBECEDEE33
:10FB6A00EFF0F1F2F3F4F5F6F7F8F9FAFBFCFDFE23
:10FB7A00FF00A3010AA8019CA401848901B49F0182
:10FB8A00869E01DEA7014CAB0114A001229701EE6B
:10FB9A009E0124940144750160AB01B897018C96CB
:10FBAA0001AEA701FCAB01000000000000BEAB01E2
:10FBBA0000000001030507090E10121416181C1E76
:10FBCA0061001A03E0001703F8000703FF000100B1
:10FBDA0078010001300132010601390110014A01A0
:10FBEA002E017901060180014D0043028101820143
:10FBFA0082018401840186018701870189018A01C2
:10FC0A008B018B018D018E018F0190019101910170
:10FC1A0093019401F60196019701980198013D021A
:10FC2A009B019C019D0120029F01A001A001A2014C
:10FC3A00A201A401A401A601A701A701A901AA0181
:10FC4A00AB01AC01AC01AE01AF01AF01B101B20130
:10FC5A00B301B301B501B501B701B801B801BA01E1
:10FC6A00BB01BC01BC01BE01F701C001C101C20157
:10FC7A00C301C401C501C401C701C801C701CA0142
:10FC8A00CB01CA01CD011001DD0101008E01DE01A7
:10FC9A001201F3010300F101F401F401F801280152
:10FCAA00220212013A020900652C3B023B023D0284
:10FCBA00662C3F0240024102410246020A015302F7
:10FCCA00400081018601550289018A0158028F018B
:10FCDA005A0290015C025D025E025F0293016102B8
:10FCEA006202940164026502660267029701960144
:10FCFA006A02622C6C026D026E029C017002710231
:10FD0A009D01730274029F017602770278027902DA
:10FD1A007A027B027C02642C7E027F02A6018102A7
:10FD2A008202A9018402850286028702AE01440288
:10FD3A00B101B20145028D028E028F029002910238
:10FD4A00B7017B030300FD03FE03FF03AC030400BA
:10FD5A008603880389038A03B1031103C2030200DD
:10FD6A00A303A303C4030803CC0303008C038E0379
:10FD7A008F03D8031801F2030A00F903F303F4030B
:10FD8A00F503F603F703F703F903FA03FA0330045A
:10FD9A00200350041007600422018A043601C104BA
:10FDAA000E01CF040100C004D004440161052604F9
:10FDBA000000C700FC00E900E200E400E000E50002
:10FDCA00E700EA00EB00E800EF00EE00EC00C400F8
:10FDDA00C500C900E600C600F400F600F200FB0008
:10FDEA00F900FF00D600DC00A200A300A500A720AE
:10FDFA009201E100ED00F300FA00F100D100AA003F
:10FE0A00BA00BF001023AC00BD00BC00A100AB00CB
:10FE1A00BB0091259225932502252425612562257B
:10FE2A00562555256325512557255D255C255B25D6
:10FE3A001025142534252C251C2500253C255E2556
:10FE4A005F255A25542569256625602550256C2588
:10FE5A006725682564256525592558255225532582
:10FE6A006B256A2518250C25882584258C2590253F
:10FE7A008025B103DF009303C003A303C303B500C6
:10FE8A00C403A6039803A903B4031E22C603B50339
:10FE9A0029226122B1006522642220232123F7004E
:10FEAA004822B0001922B7001A227F20B200A025EA
:10FEBA00A0007D1D0100632C001E9601A01E5A01A0
:10FECA00001F0806101F0606201F0806301F080616
:10FEDA00401F0606511F0700591F521F5B1F541F60
:10FEEA005D1F561F5F1F601F0806701F0E00BA1F96
:10FEFA00BB1FC81FC91FCA1FCB1FDA1FDB1FF81F72
:10FF0A00F91FEA1FEB1FFA1FFB1F801F0806901F2D
:10FF1A000806A01F0806B01F0400B81FB91FB21FA9
:10FF2A00BC1FCC1F0100C31FD01F0206E01F020620
:10FF3A00E51F0100EC1FF31F0100FC1F4E21010009
:10FF4A00322170211002842101008321D0241A0554
:10FF5A00302C2F04602C0201672C0601752C02013B
:10FF6A00802C6401002D260841FF1A03000043611A
:10FF7A00726420696E697469616C697A65642100CA
:10FF8A004361726420696E6974206661696C656494
:10FF9A002E004361726420696E7365727465642110
:10FFAA0000447269766573206D6F756E74656400BE
:10FFBA00436172642072656D6F7665642100464103
:10FFCA0054206D6F756E7465640065747273686130
:10FFDA007264004641543332202020002A3A3C3EC3
:10FFEA007C223F7F002F68617264342D002B2C3BEA
:05FFFA003D5B5D00000D
:020000040001F9
:10000000A3C507F5A4C508F5E00E096E050E0A6E36
:100010005FECC6F00501DB6FDB51D8A408D020EE01
:100020000FF0A351D926A451DA22DF50DB6FDB5148
:10003000D8B402D0DB51120020EE22F0A351D92611
:10004000A451DA22DE50DE10D8B407D2A52906E189
:10005000A62904E1A72902E1A829D8A415D120EEF8
:1000600022F0A351D926A451DA22DEC4D9F5DDC489
:10007000DAF5D9C5D9F4DAC5DAF4DEC4C5F5DEC4DB
:10008000C6F5DEC4C7F5DEC4C8F5040ED927000ED8
:10009000DA23020ECD6F000ECE6F000ECF6F000E72
:1000A000D06F20EE06F0A351D926A451DA22DEC487
:1000B000E2F5DEC4E3F5DEC4E4F5DEC4E5F5E251C5
:1000C000E311E411E511D8B4B3D0E2C5BDF5E3C541
:1000D000BEF5E4C5BFF5E5C5C0F5000EC16F000E65
:1000E000C26F000EC36F000EC46F020ECD27000E4C
:1000F000CE23CF23D023E2C5B9F5E3C5BAF5E4C5D5
:10010000BBF5E5C5BCF5010EC127000EC223C32314
:10011000C423A3C565F5A4C566F5E2C567F5E3C5C7
:1001200068F5E4C569F5E5C56AF5BFECA2F065C5FB
:10013000E2F566C5E3F567C5E4F568C5E5F50501D3
:10014000E551E411E3110EE1020EE25DD8B00AD0F0
:1001500020EE0FF0A351D926A451DA22020EDF6E51
:10016000020E1200E22911E1E3290FE1E4290DE179
:10017000E529D8A40AD020EE0FF0A351D926A45126
:10018000DA22010EDF6E010E1200010EB925A96FF1
:10019000000EBA21AA6F000EBB21AB6F000EBC216E
:1001A000AC6FE251A9190AE1E351AA1907E1E45140
:1001B000AB1904E1E551AC19D8B49DD7CD51C55D5B
:1001C000CE51C659CF51C759D051C859D8A020D007
:1001D000D9C5D9F4DAC5DAF4C1C5DEF4C2C5DEF496
:1001E000C3C5DEF4C4C5DEF4040ED927000EDA233D
:1001F000D9C5D9F4DAC5DAF4BDC5DEF4BEC5DEF47E
:10020000BFC5DEF4C0C5DEF4040ED927000EDA2324
:1002100020EE16F0E051D926E151DA22DE50E25DFF
:10022000DE50E359DE50E459DE50E559D8A04DD7F1
:1002300020EE22F0A351D926A451DA22DEC4A9F57A
:10024000DDC4AAF5A9C5D9F4AAC5DAF4CDC5DEF492
:10025000CEC5DEF4CFC5DEF4D0C5DEF4CD51C55D2C
:10026000CE51C659CF51C759D051C859D8A009D07D
:10027000D9C5D9F4DAC5DAF4DE6ADE6ADE6ADD6A87
:10028000D9D6110EDB6FD6D620EE0AF0A351D926AF
:10029000A451DA22A551DE5CA651DE58A751DE58E2
:1002A000A851DE58D8B00ED020EE0AF0A351D926BE
:1002B000A451DA22DEC4A5F5DEC4A6F5DEC4A7F596
:1002C000DEC4A8F520EE10F0A351D926A451DA22FD
:1002D000A5C5DEF4A6C5DEF4A7C5DEF4A8C5DEF428
:1002E000A551A611A711A811D8B4A4D6A3C513F57A
:1002F000A4C514F5FF0EA525156EFF0EA621166EDA
:10030000FF0EA721176EFF0EA821186E90ECBEF00D
:10031000050120EE14F0A351D926A451DA2213C509
:10032000DEF414C5DEF415C5DEF416C5DEF4E0C552
:1003300012F5E1C513F520EE14F0A351D926A4510E
:10034000DA22DEC414F5DEC415F5DEC416F5DEC40B
:1003500017F5FFECC5F012C5D1F513C5D2F514C5DC
:10036000D3F515C5D4F50501D151D211D311D4114E
:10037000D8B4EED620EE0AF0E051D926E151DA22C7
:10038000DEC4A9F5DDC4AAF5FF0EA925AB6FFF0EEB
:10039000AA21AC6FFF0EA525AD6FFF0EA621AE6F93
:1003A000FF0EA721AF6FFF0EA821B06F0A0E05D078
:1003B000D890B033AF33AE33AD33E82EF9D7AB516D
:1003C000AD15B16FAC51AE15B26F000EAF15B36F76
:1003D000000EB015B46FB151D127B251D223B35131
:1003E000D323B451D42320EE10F0A351D926A45125
:1003F000DA22FF0EDE14A96F010EDE14AA6F000EC2
:10040000DE14AB6F000EDE14AC6FA951AA11AB1154
:10041000AC11D8B40FD620EE18F0A351D926A451B0
:10042000DA22D151DE180AE1D251DE1807E1D351A8
:10043000DE1804E1D451DE18D8B4FCD520EE18F053
:10044000A351D926A451DA22D1C5DEF4D2C5DEF4F7
:10045000D3C5DEF4D4C5DEF4EDD520EE0AF0A35109
:10046000D926A451DA22A551DE5CA651DE58A75147
:10047000DE58A851DE58D8B016D020EE0EF0A351A9
:10048000D926A451DA22DFB20ED020EE0AF0A35111
:10049000D926A451DA22DEC4A5F5DEC4A6F5DEC451
:1004A000A7F5DEC4A8F520EE10F0A351D926A4517B
:1004B000DA22DEC4C9F5DEC4CAF5DEC4CBF5DEC47B
:1004C000CCF5000ED56F000ED66F000ED76F000E64
:1004D000D86F20EE10F0A351D926A451DA22D5C549
:1004E000DEF4D6C5DEF4D7C5DEF4D8C5DEF4A551FA
:1004F000A611A711A811D8B404D220EE0AF0E05139
:10050000D926E151DA22DEC4A9F5DDC4AAF5A95144
:10051000AB6FAA51AC6FAD6BAE6B090ED890AB3719
:10052000AC37AD37AE37E82EF9D7ABC5DCF5ACC587
:10053000DDF5ADC5DEF5AEC5DFF5C951CA11CB118C
:10054000CC11D8B497D0FF0EA525066EFF0EA621BC
:10055000076EFF0EA721086EFF0EA821096EDCC5ED
:100560000AF5DDC50BF5DEC50CF5DFC50DF5FAECBA
:10057000CCF006C5A9F507C5AAF508C5ABF509C5B0
:10058000ACF5FF0E0501C925066EFF0ECA21076EE8
:10059000FF0ECB21086EFF0ECC21096EDCC50AF5DB
:1005A000DDC50BF5DEC50CF5DFC50DF5FAECCCF0BD
:1005B00006500501A95D0750AA590850AB590950CA
:1005C000AC59D8A057D0FF0EDC25A96FFF0EDD2156
:1005D000AA6FFF0EDE21AB6FFF0EDF21AC6FA91DEE
:1005E000AD6FAA1DAE6FAB1DAF6FAC1DB06FFF0E30
:1005F000C925B16FFF0ECA21B26FFF0ECB21B36FB9
:10060000FF0ECC21B46FAD51B115B56FAE51B2151F
:10061000B66FAF51B315B76FB051B415B86F20EEC8
:1006200010F0A351D926A451DA22B5C5DEF4B6C51F
:10063000DEF4B7C5DEF4B8C5DEF420EE10F0A35149
:10064000D926A451DA22DE50A55FDE50A65BDE502B
:10065000A75BDD50A85B20EE14F0A351D926A4516E
:10066000DA22DEC4E6F5DEC4E7F5DEC4E8F5DEC472
:10067000E9F556D020EE06F0A351D926A451DA228E
:10068000DEC4E6F5DEC4E7F5DEC4E8F5DEC4E9F570
:10069000E651E711E811E911D8A434D0A3C586F5D5
:1006A000A4C587F5000E886F000E896F000E8A6F53
:1006B000000E8B6F9AEC9CF086C5E6F587C5E7F5D2
:1006C00088C5E8F589C5E9F50501E605E711E811F2
:1006D000E911D8B43DD5E62907E1E72905E1E82984
:1006E00003E1E929D8B447D520EE06F0A351D92675
:1006F000A451DA22E6C5DEF4E7C5DEF4E8C5DEF48F
:10070000E9C5DEF420EE14F0A351D926A451DA2273
:10071000E6C5DEF4E7C5DEF4E8C5DEF4E9C5DEF4DF
:10072000E651E711E811E911D8A48BD0EAD0DC51E9
:10073000A55FDD51A65BDE51A75BDF51A85B20EE14
:1007400010F0A351D926A451DA22DC51DE26DD5166
:10075000DE22DE51DE22DF51DE2220EE0EF0A3513A
:10076000D926A451DA22DFA226D0A3C586F5A4C5D6
:1007700087F5E6C588F5E7C589F5E8C58AF5E9C5D1
:100780008BF59AEC9CF086C5E6F587C5E7F588C53C
:10079000E8F589C5E9F50501E651E711E811E91128
:1007A000D8A41FD0000EA56F000EA66F000EA76F75
:1007B000000EA86F50D0A3C565F5A4C566F5E6C5C3
:1007C00067F5E7C568F5E8C569F5E9C56AF5BFEC01
:1007D000A2F065C5E6F566C5E7F567C5E8F568C545
:1007E000E9F50501E62907E1E72905E1E82903E143
:1007F000E929D8B4C0D4E951E811E71104E1020EA7
:10080000E65DD8A0A5D420EE16F0E051D926E1513E
:10081000DA22DE50E65DDE50E759DE50E859DE5060
:10082000E959D8B095D420EE14F0A351D926A4519B
:10083000DA22E6C5DEF4E7C5DEF4E8C5DEF4E9C594
:10084000DEF4A551DC5DA651DD59A751DE59A85152
:10085000DF59D8A06CD720EE10F0A351D926A451AF
:10086000DA22A551DE26A651DE22A751DE22A851AA
:10087000DE22FF0EA515A96F010EA615AA6F000EA8
:10088000A715AB6F000EA815AC6FA951AA11AB113B
:10089000AC11D8B436D0E0C512F5E1C513F5E6C504
:1008A00014F5E7C515F5E8C516F5E9C517F5FFEC2C
:1008B000C5F012C5D5F513C5D6F514C5D7F515C5C0
:1008C000D8F50501D551D611D711D811D8B440D4D7
:1008D000A5C5A9F5A6C5AAF5A7C5ABF5A8C5ACF5EC
:1008E0000A0E05D0D890AC33AB33AA33A933E82E27
:1008F000F9D7A951D527AA51D623AB51D723AC514B
:10090000D82320EE10F0A351D926A451DA2210EEFC
:100910000AF0A351E126A451E222DE50E65CDE504B
:10092000E658DE50E658DE50E658D8B01CD020EE2F
:1009300010F0A351D926A451DA2210EE0AF0A351E7
:10094000E126A451E222DEC4E6F4DEC4E6F4DEC40D
:10095000E6F4DEC4E6F420EE0EF0A351D926A4514D
:10096000DA22000EDB8C20EE10F0A351D926A45120
:10097000DA22FF0EDE14A96F010EDE14AA6F000E3C
:10098000DE14AB6F000EDE14AC6FA951AA11AB11CF
:10099000AC11D8B41AEF80F020EE18F0A351D9268C
:1009A000A451DA22D551DE180BE1D651DE1808E148
:1009B000D751DE1805E1D851DE18D8B41AEF80F00F
:1009C00020EE18F0A351D926A451DA22D5C5DEF4C1
:1009D000D6C5DEF4D7C5DEF4D8C5DEF41AEF80F054
:1009E00093C5D9F494C5DAF4DE6ADD6A91C506F5DB
:1009F00092C507F5A8ECBCF006C5A2F507C5A3F59E
:100A00000501A3AF02D00B0E1200D890A235D96E0B
:100A1000A335DA6E180ED926060EDA22DEC4BDF52D
:100A2000DDC4BEF5BD51BE11D8A402D00C0E12001B
:100A300093C5D9F494C5DAF4BDC5DEF4BEC5DDF4C2
:100A40009591BDC5D9F4BEC5DAF4DF50D8B415D040
:100A500020EE01F0BD51D926BE51DA22DF50C2ECA2
:100A6000D5F00501B26FB2B108D09551D8A4B2A5A6
:100A700002D00A0E1200000E1200BDC5D9F4BEC588
:100A8000DAF4DF6A20EE01F0BD51D926BE51DA2238
:100A9000DF5045ECAFF00501B26FB2A102D0030EFA
:100AA00012009551D8B402D0B2B5E3D7BDC573F5E5
:100AB000BEC574F5000E766F000E756F37ECB6F09C
:100AC00073C5BBF574C5BCF5040E0501BB19BC119B
:100AD000D8A402D0010E1200BC5104E1020EBB5D8D
:100AE000D8A002D00D0E120020EE2EF0BD51D92656
:100AF000BE51DA22DEC4AEF5DEC4AFF5DEC4B0F519
:100B0000DEC4B1F53D0EBD25066E000EBE21076E9A
:100B100007ECD3F0020E07180610D8A4E3D7480E4E
:100B20000501BD25066E000EBE21076E07ECD3F051
:100B300006C5B7F507C5B8F50501B96BBA6BB7516E
:100B4000B811B911BA11D8A410D0560EBD25066E31
:100B5000000EBE21076EBFECC6F006C5B7F507C58F
:100B6000B8F508C5B9F509C5BAF5050120EE1AF0C2
:100B7000BD51D926BE51DA22B7C5DEF4B8C5DEF4C0
:100B8000B9C5DEF4BAC5DEF420EE42F0BD51D92677
:100B9000BE51DA2210EE03F0BD51E126BE51E22231
:100BA000DFC4E7F420EE03F0BD51D926BE51DA22AE
:100BB000DE04D8B40AD020EE03F0BD51D926BE51D0
:100BC000DA22020EDE18D8A48DD7B7C506F5B8C54F
:100BD00007F5B9C508F5BAC509F520EE03F0BD5112
:100BE000D926BE51DA22DF50966F96510A6E0B6AF3
:100BF0000C6A0D6A66ECD0F006C5B7F507C5B8F506
:100C000008C5B9F509C5BAF5050120EE3FF0BD519B
:100C1000D926BE51DA22DF50966F976B20EE0AF08C
:100C2000BD51D926BE51DA2296C5DEF497C5DDF452
:100C300020EE0AF0BD51D926BE51DA22DE50DE1078
:100C4000D8B450D720EE0AF0BD51D926BE51DA22D1
:100C5000DEC496F5DDC497F520EE0AF0BD51D92625
:100C6000BE51DA22DEC498F5DDC499F5FF0E982551
:100C70009A6FFF0E99219B6F96519A159C6F975111
:100C80009B159D6F9C519D11D8A42CD7430EBD255B
:100C9000066E000EBE21076E07ECD3F0050120EEB4
:100CA00008F0BD51D926BE51DA2206C5DEF407C5CB
:100CB000DDF420EE08F0BD51D926BE51DA22DEC4A3
:100CC00096F5DDC497F50F0E9617000E97179651FF
:100CD0009711D8A407D7450EBD25066E000EBE217C
:100CE000076E07ECD3F006C5AAF507C5ABF50501FD
:100CF000AC6BAD6BAA51AB11AC11AD11D8A410D037
:100D0000520EBD25066E000EBE21076EBFECC6F06A
:100D100006C5AAF507C5ABF508C5ACF509C5ADF51F
:100D2000400E0501BD25066E000EBE21076E07ECC4
:100D3000D3F006C5A8F507C5A9F50501A851A91165
:100D4000D8B4D0D620EE08F0BD51D926BE51DA2253
:100D5000DEC496F5DDC497F5040E986FD8909733EE
:100D60009633982FFBD7A8519625996FA9519721B3
:100D70009A6F9B6BD8B09B2B9C6BB7519925A46F36
:100D8000B8519A21A56FB9519B21A66FBA519C21E8
:100D9000A76FA451AA5DA551AB59A651AC59A75153
:100DA000AD59D8A09FD6A451AA5D066EA551AB59E6
:100DB000076EA651AC59086EA751AD59096E20EEC9
:100DC0000AF0BD51D926BE51DA22DEC496F5DDC443
:100DD00097F596C50AF597C50BF50C6A0D6AFAECFE
:100DE000CCF006C5B3F507C5B4F508C5B5F509C51A
:100DF000B6F50501B351B411B511B611D8B472D618
:100E0000000EBC6F000EBB6FF60EB35DFF0EB45943
:100E1000FF0EB5590F0EB659D8B004D0000EBC6FF6
:100E2000030EBB6FB651B5110AE1F60EB35DFF0EAE
:100E3000B459D8B004D0000EBC6F020EBB6FB651CF
:100E4000B5110AE1F60EB35D0F0EB459D8B004D057
:100E5000000EBC6F010EBB6FBB51BC11D8B442D6A3
:100E6000020EB325966F000EB421976F000EB521C8
:100E7000986F000EB621996F20EE16F0BD51D9265D
:100E8000BE51DA2296C5DEF497C5DEF498C5DEF4CD
:100E900099C5DEF420EE1EF0BD51D926BE51DA22EE
:100EA000AEC5DEF4AFC5DEF4B0C5DEF4B1C5DEF428
:100EB000A851AE25966FA951AF21976F000EB021B2
:100EC000986F000EB121996F20EE22F0BD51D92606
:100ED000BE51DA2296C5DEF497C5DEF498C5DEF47D
:100EE00099C5DEF4A451AE25966FA551AF21976F39
:100EF000A651B021986FA751B121996F20EE2AF029
:100F0000BD51D926BE51DA2296C5DEF497C5DEF46E
:100F100098C5DEF499C5DEF4030EBB19BC11D8A444
:100F20004DD05C0EBD25066E000EBE21076E07EC8F
:100F3000D3F006500710D8A4D5D5050120EE08F04F
:100F4000BD51D926BE51DA22DE50DE10D8A4CAD552
:100F50005E0EBD25066E000EBE21076EBFECC6F00C
:100F6000050120EE26F0BD51D926BE51DA2206C574
:100F7000DEF407C5DEF408C5DEF409C5DEF420EEB4
:100F800016F0BD51D926BE51DA22DEC496F5DEC474
:100F900097F5DEC498F5DEC499F5020ED890963721
:100FA000973798379937E82EF9D796C59EF597C5A4
:100FB0009FF598C5A0F599C5A1F592D020EE08F04F
:100FC000BD51D926BE51DA22DE50DE10D8B48AD502
:100FD00020EE22F0BD51D926BE51DA22DEC496F5AC
:100FE000DEC497F5DEC498F5DEC499F5B7519625B1
:100FF0009A6FB85197219B6FB95198219C6FBA5144
:1010000099219D6F20EE26F0BD51D926BE51DA22DE
:101010009AC5DEF49BC5DEF49CC5DEF49DC5DEF406
:10102000020EBB19BC11D8B444D020EE16F0BD514D
:10103000D926BE51DA22DEC496F5DEC497F5DEC4A9
:1010400098F5DEC499F5010E96159A6F000E971566
:101050009B6F000E98159C6F000E99159D6F20EEEA
:1010600016F0BD51D926BE51DA22DEC406F5DEC423
:1010700007F5DEC408F5DEC409F5030E0A6E000E9E
:101080000B6E000E0C6E000E0D6E66ECD0F0D8905C
:10109000093208320732063205019A5106249E6F42
:1010A0009B5107209F6F9C510820A06F9D510920E4
:1010B00016D020EE16F0BD51D926BE51DA22DEC47C
:1010C00096F5DEC497F5DEC498F5DEC499F5D890A0
:1010D00096359E6F97359F6F9835A06F9935A16FA4
:1010E000FF0E9E25966F010E9F21976F000EA02187
:1010F000986F000EA121996F0A0E05D0D8909933F0
:10110000983397339633E82EF9D720EE1AF0BD5175
:10111000D926BE51DA229651DE5C9751DE5898519D
:10112000DE589951DE58D8A0DDD420EE12F0BD5122
:10113000D926BE51DA22FF0EDE6EFF0EDE6EFF0EE6
:10114000DE6EFF0EDD6EDD52DD5210EE0EF0BD5193
:10115000E126BE51E222DEC4E6F4DEC4E6F4DEC4DB
:10116000E6F4DEC4E6F420EE05F0BD51D926BE510A
:10117000DA22800EDF6E030EBB19BC11D8A494D006
:10118000620EBD25066E000EBE21076E07ECD3F081
:1011900006040710D8A488D0BDC52FF5BEC530F50C
:1011A000010E0501AE25316E000EAF21326E000E2C
:1011B000B021336E000EB121346ECCECC7F00009C3
:1011C000D8A472D0050120EE05F0BD51D926BE513C
:1011D000DA22DF6A300EBD25066E020EBE21076ED2
:1011E00007ECD3F0550E06185FE1AA0E0718D8A435
:1011F0005BD0320E0501BD25066E000EBE21076EC6
:10120000BFECC6F0520E06184FE1520E07184CE123
:10121000610E081849E1410E0918D8A445D0160EF0
:101220000501BD25066E020EBE21076EBFECC6F09D
:10123000720E061839E1720E071836E1410E0818D1
:1012400033E1610E0918D8A42FD01A0E0501BD256F
:10125000066E020EBE21076EBFECC6F0050120EE41
:1012600012F0BD51D926BE51DA2206C5DEF407C5FB
:10127000DEF408C5DEF409C5DEF41E0EBD25066EDB
:10128000020EBE21076EBFECC6F0050120EE0EF087
:10129000BD51D926BE51DA2206C5DEF407C5DEF4FB
:1012A00008C5DEF409C5DEF4BDC5D9F4BEC5DAF45F
:1012B000BBC5DFF40601164B172B050120EE06F027
:1012C000BD51D926BE51DA2216C6DEF417C6DDF4AA
:1012D00020EE0CF0BD51D926BE51DA22800EDE6E12
:1012E000090EDD6E3BEF85F0A5C5BCF5A6C5BDF5C5
:1012F000A9C5D9F4AAC5DAF4DE6ADD6AA3C507F583
:10130000A4C508F5CC0E096E050E0A6E5FECC6F09A
:101310000501BB6FBB51D8A40BD020EE0FF0A35139
:10132000D926A451DA22DF50BB6FBB51D8B402D00A
:10133000BB51120020EE0EF0A351D926A451DA229F
:10134000DFB202D0070E120020EE10F0A351D92612
:10135000A451DA2210EE10F0A351E126A451E222AA
:10136000E6C4AFF5E6C4B0F5E6C4B1F5E6C4B2F53F
:10137000A751AF25B36FA851B021B46F000EB121B2
:10138000B56F000EB221B66FDE50B35DDE50B459BA
:10139000DE50B559DE50B659D8B00ED020EE10F060
:1013A000A351D926A451DA22DEC4ABF5DDC4ACF5D5
:1013B000AB1DA76FAC1DA86FA751A811D8B40ED351
:1013C00020EE10F0A351D926A451DA22FF0EDE142C
:1013D000AB6F010EDE14AC6F000EDE14AD6F000EAD
:1013E000DE14AE6FAB51AC11AD11AE11D8A438D232
:1013F00020EE10F0A351D926A451DA22DEC4ABF5B9
:10140000DEC4ACF5DEC4ADF5DEC4AEF50A0E05D023
:10141000D890AE33AD33AC33AB33E82EF9D720EEF2
:101420000AF0CC51D926CD51DA22DEC4AFF5DDC4A5
:10143000B0F5FF0EAF25B16FFF0EB021B26FAB510B
:10144000B115BE6FAC51B215BF6FBE51BF11D8A45C
:10145000C4D020EE10F0A351D926A451DA22DE50D8
:10146000DE10DE10DE10D8A423D020EE06F0A3514B
:10147000D926A451DA22DEC4C8F5DEC4C9F5DEC41B
:10148000CAF5DEC4CBF5C851C911CA11CB11D8A415
:1014900052D0A3C586F5A4C587F5000E886F000E4F
:1014A000896F000E8A6F000E8B6F9AEC9CF03BD018
:1014B00020EE22F0A351D926A451DA22DE50DE100C
:1014C000D8B41DD0A3C513F5A4C514F520EE10F0B3
:1014D000A351D926A451DA22DEC415F5DEC416F5CF
:1014E000DEC417F5DEC418F590ECBEF013C5C8F5E0
:1014F00014C5C9F515C5CAF516C5CBF51CD0A3C5CD
:1015000086F5A4C587F520EE14F0A351D926A45181
:10151000DA22DEC488F5DEC489F5DEC48AF5DEC4CD
:101520008BF59AEC9CF086C5C8F587C5C9F588C5CA
:10153000CAF589C5CBF50501C851C911CA11CB112E
:10154000D8B44CD2C805C911CA11CB11D8A40AD03D
:1015500020EE0FF0A351D926A451DA22020EDF6E3D
:10156000020E1200C82911E1C9290FE1CA290DE1B3
:10157000CB29D8A40AD020EE0FF0A351D926A4512C
:10158000DA22010EDF6E010E120020EE14F0A351DC
:10159000D926A451DA22C8C5DEF4C9C5DEF4CAC50D
:1015A000DEF4CBC5DEF420EE06F0A351D926A4511B
:1015B000DA22DE50DE10DE10DE10D8A40ED020EECF
:1015C00006F0A351D926A451DA22C8C5DEF4C9C554
:1015D000DEF4CAC5DEF4CBC5DEF420EE18F0A3516C
:1015E000D926A451DA2210EE2EF0CC51E126CD51AD
:1015F000E222DE50E61813E1DE50E61810E1DE507C
:10160000E6180DE1DE50E618D8A409D0CCC51CF5CB
:10161000CDC51DF5EAECB9F00009D8A45AD1CCC566
:1016200012F5CDC513F5050120EE14F0A351D9260E
:10163000A451DA22DEC414F5DEC415F5DEC416F5B5
:10164000DEC417F5FFECC5F012C5C2F513C5C3F52E
:1016500014C5C4F515C5C5F50501C251C311C411A2
:10166000C511D8B475D7BE51C227BF51C323000ED0
:10167000C423000EC523A7C5ABF5A8C5ACF5090E5C
:10168000AD6FD890AC33AB33AD2FFBD7ABC5C0F546
:10169000ACC5C1F5C051C111D8B4A6D0C051BE254A
:1016A000AB6FC151BF21AC6F20EE0AF0CC51D926EF
:1016B000CD51DA22AB51DE5CAC51DE58D8B010D03F
:1016C00020EE0AF0CC51D926CD51DA22DEC4ABF59A
:1016D000DDC4ACF5BE51AB5DC06FBF51AC59C16F3D
:1016E000BCC513F5BDC514F5C2C515F5C3C516F5C2
:1016F000C4C517F5C5C518F5C0C519F5C1C51AF596
:1017000020EE01F0CC51D926CD51DA22DF5075EC14
:10171000C9F00009D8A4DDD00501C051AB6FC1519B
:10172000AC6FAD6BAE6B20EE2EF0CC51D926CD5107
:10173000DA22DEC4AFF5DEC4B0F5DEC4B1F5DEC436
:10174000B2F5C251AF5DB36FC351B059B46FC4515C
:10175000B159B56FC551B259B66FAB51B35DAC510C
:10176000B459AD51B559AE51B659D8B02ED0320E8C
:10177000CC25066E000ECD21076E20EE2EF0CC514A
:10178000D926CD51DA22DEC4ABF5DDC4ACF5C251A9
:10179000AB5FC351AC5B090ED890AB37AC37E82ECA
:1017A000FBD7AB51BC25086EAC51BD21096E020EB2
:1017B0000B6E000E0A6EE8ECD1F0050120EE04F08D
:1017C000CC51D926CD51DA22DF6AC0C5ABF5C1C5EF
:1017D000ACF5090ED890AB37AC37E82EFBD7ABC5CC
:1017E000C6F5ACC5C7F5A7D020EE0AF0A351D9269F
:1017F000A451DA2210EE10F0A351E126A451E22206
:10180000DE50E65CDE50E658DE50E658DE50E65824
:10181000D8A018D0CCC51CF5CDC51DF5EAECB9F0A3
:101820000009D8A456D0050120EE2EF0CC51D926BF
:10183000CD51DA22C2C5DEF4C3C5DEF4C4C5DEF480
:10184000C5C5DEF420EE18F0A351D926A451DA2242
:10185000C2C5DEF4C3C5DEF4C4C5DEF4C5C5DEF41E
:1018600020EE10F0A351D926A451DA22DEC4ABF544
:10187000DDC4ACF5FF0EAB15AD6F010EAC15AE6F50
:10188000AD510008C66FAE51D8A0E82A0208C76F54
:10189000C651A75DC751A859D8B004D0A7C5C6F591
:1018A000A8C5C7F5CCC52FF5CDC530F520EE18F08D
:1018B000A351D926A451DA22DEC431F5DEC432F5B3
:1018C000DEC433F5DEC434F5CCECC7F00009D8B47F
:1018D00002D0050150D6050120EE10F0A351D92603
:1018E000A451DA22DEC4ABF5DDC4ACF5FF0EAB15B6
:1018F000AD6F010EAC15AE6FAD51CC25AF6FAE51D3
:10190000CD21B06F320EAF25066E000EB021076EEE
:10191000BCC508F5BDC509F5C6C50AF5C7C50BF5B3
:10192000E8ECD1F0050120EE04F0CC51D926CD51E0
:10193000DA22010EDF6EC651A75FC751A85BA9C5A9
:10194000D9F4AAC5DAF4C651DE26C751DD22C65144
:10195000BC27C751BD2320EE10F0A351D926A451B6
:10196000DA22C651DE26C751DE22000EDE22DE223A
:1019700020EE10F0A351D926A451DA2210EE0AF07D
:10198000A351E126A451E222DE50E65CDE50E65887
:10199000DE50E658DE50E658D8A003D020EE0AF01C
:1019A00002D020EE10F0A351D926A451DA22DEC4D1
:1019B000B7F5DEC4B8F5DEC4B9F5DEC4BAF520EE7D
:1019C0000AF0A351D926A451DA22B7C5DEF4B8C56E
:1019D000DEF4B9C5DEF4BAC5DEF4EED420EE0EF0C6
:1019E000A351D926A451DA22000EDB8C000E12007E
:1019F0000501EC51ED11D8A402D0090E12003F0EE2
:101A0000F017EE0E916F050E926FA10E936F060EFA
:101A1000946FF0C595F5F0EC84F00601A36FA35127
:101A2000D8A4E7D2A1C6A4F6A2C6A5F6A40E0501C5
:101A3000CA6F060ECB6FEEC5CCF5EFC5CDF594ECB5
:101A4000B4F00601A36FA351D8B4CBAF02D0060EF9
:101A5000A36FF0C5F1F51C0E0501F117D8B4F5D050
:101A60000601A351D8B410D0040EA319D8A409D0EC
:101A7000A40E0501CA6F060ECB6F02ECA1F00601A1
:101A8000A36F0501F0870ED0A8C6F1F5110E050170
:101A9000F117D8B402D0070E03D0F0A503D0080E7A
:101AA0000601A36F0601A351D8A4DFD00501F0A75A
:101AB000DCD00E0E0601BE25066E000EBF21076E9D
:101AC000000E086E000E096E210E0A6E540E0B6E8B
:101AD000D8ECCEF0160E0601BE25066E000EBF2114
:101AE000076E000E086E000E096E210E0A6E540E6F
:101AF0000B6ED8ECCEF0A1C60DF5A2C60EF5BEC693
:101B00000FF5BFC610F5F7ECCDF00DC591F60EC57B
:101B100092F60FC593F610C594F6060120EE0BF071
:101B2000BE51D926BF51DA22200EDF6EA1C60AF5BA
:101B3000A2C60BF5BEC60CF5BFC60DF5000E0E6EA7
:101B4000000E0F6E000E106E000E116E6FECD2F0D4
:101B50001C0E0601BE25066E000EBF21076E000E8C
:101B6000086E000E096E000E0A6E000E0B6ED8ECA9
:101B7000CEF0060120EE04F0A151D926A251DA22BE
:101B8000010EDF6E9151921193119411D8B46DD062
:101B900020EE2EF0A151D926A251DA22DEC495F60C
:101BA000DEC496F6DEC497F6DEC498F6A40E0501F0
:101BB000866F060E876F91C688F592C689F593C623
:101BC0008AF594C68BF5000E8C6F000E8D6F000E9B
:101BD0008E6F000E8F6FDEECB2F00601A36FA35183
:101BE000D8A443D0A1C62FF5A2C630F595C631F5CD
:101BF00096C632F597C633F598C634F5CCECC7F0E7
:101C00000601A36FFF0E91250501F16FFF0E06017E
:101C100092210501F26FFF0E060193210501F36F7A
:101C2000FF0E060194210501F46F060120EE0EF06F
:101C3000A151D926A251DA22F1C5DEF4F2C5DEF4B3
:101C4000F3C5DEF4F4C5DEF410D00601A351D8A428
:101C50000CD0A8A902D0040E07D00501F0A305D02E
:101C60000601A8A102D0070EA36F0601A351D8A4B4
:101C700023D00501F0B7F08D060120EE2EF0A15122
:101C8000D926A251DA22050110EE1CF0EC51E12612
:101C9000ED51E222DEC4E6F4DEC4E6F4DEC4E6F48E
:101CA000DEC4E6F420EE20F0EC51D926ED51DA2224
:101CB000BEC6DEF4BFC6DDF40601A351D8A499D197
:101CC000A1C60DF5A2C60EF5BEC60FF5BFC610F52E
:101CD000F7ECCDF0050120EE06F0EC51D926ED51E0
:101CE000DA220DC5DEF40EC5DEF40FC5DEF410C534
:101CF000DEF41C0E0601BE25066E000EBF21076E27
:101D0000BFECC6F0050120EE0AF0EC51D926ED51EA
:101D1000DA2206C5DEF407C5DEF408C5DEF409C51F
:101D2000DEF420EE22F0EC51D926ED51DA22DE6A03
:101D3000DD6AECC5D9F4EDC5DAF4A1C6DEF4A2C6BD
:101D4000DDF4060120EE06F0A151D926A251DA22D7
:101D5000050110EE02F0EC51E126ED51E222DEC465
:101D6000E6F4DDC4E5F420EE0EF0EC51D926ED5199
:101D7000DA22F0C5DFF420EE0FF0EC51D926ED5158
:101D8000DA22DF6A20EE18F0EC51D926ED51DA2282
:101D9000DE6ADE6ADE6ADD6A20EE10F0EC51D926DA
:101DA000ED51DA22DE6ADE6ADE6ADD6AF0AB21D14D
:101DB00020EE0AF0EC51D926ED51DA22DE50DE1089
:101DC000DE10DE10D8B415D120EE0AF0EC51D92681
:101DD000ED51DA2210EE10F0EC51E126ED51E22245
:101DE000DEC4E6F4DEC4E6F4DEC4E6F4DEC4E6F403
:101DF000060120EE0AF0A151D926A251DA22DEC452
:101E0000F1F5DDC4F2F50501F151F36FF251F46F14
:101E1000F56BF66B090ED890F337F437F537F637D4
:101E2000E82EF9D7F3C58DF6F4C58EF6F5C58FF615
:101E3000F6C590F620EE06F0EC51D926ED51DA22E7
:101E4000DEC49DF6DEC49EF6DEC49FF6DEC4A0F6B8
:101E500020EE0AF0EC51D926ED51DA22DEC499F6D3
:101E6000DEC49AF6DEC49BF6DEC49CF634D0ECC524
:101E700065F5EDC566F59DC667F59EC668F59FC616
:101E800069F5A0C66AF5BFECA2F065C59DF666C50A
:101E90009EF667C59FF668C5A0F60601A0519F1182
:101EA0009E1106E1020E9D5DD8B002D0020EA36F16
:101EB0009D2909E19E2907E19F2905E1A029D8A4D0
:101EC00002D0010EA36F8D51995F8E519A5B8F5195
:101ED0009B5B90519C5B0601A351D8A40AD09951F9
:101EE0008D5D9A518E599B518F599C519059D8A014
:101EF000BED7050120EE14F0EC51D926ED51DA22BF
:101F00009DC6DEF49EC6DEF49FC6DEF4A0C6DEF4F7
:101F10000601A351D8A46DD0FF0E99150501F16FEC
:101F2000010E06019A150501F26F000E06019B15C0
:101F30000501F36F000E06019C150501F46FF151C8
:101F4000F211F311F411D8B454D0A1C612F5A2C6FF
:101F500013F59DC614F59EC615F59FC616F5A0C6C9
:101F600017F5FFECC5F012C595F613C596F614C526
:101F700097F615C598F60601955196119711981187
:101F8000D8A403D0020EA36F34D099C6F1F59AC637
:101F9000F2F59BC6F3F59CC6F4F50A0E06D00501D2
:101FA000D890F433F333F233F133E82EF8D7060147
:101FB00095510501F125F56F060196510501F221B4
:101FC000F66F060197510501F321F76F060198514D
:101FD0000501F421F86F20EE18F0EC51D926ED51EF
:101FE000DA22F5C5DEF4F6C5DEF4F7C5DEF4F8C591
:101FF000DEF40601A351D8B406D0ECC5D9F4EDC582
:10200000DAF4DE6ADD6AA351120081C598F582C553
:1020100099F585C5D9F486C5DAF4DE6ADD6A7FC52F
:1020200007F580C508F5A80E096E050E0A6E5FEC6F
:10203000C6F00501976F9751D8A40BD020EE0FF092
:102040007F51D9268051DA22DF50976F9751D8B44B
:1020500002D09751120020EE0EF07F51D926805108
:10206000DA22DFB002D0070E120020EE10F07F510E
:10207000D9268051DA22DEC487F5DEC488F5DEC4B5
:1020800089F5DEC48AF520EE0AF07F51D926805109
:10209000DA22DEC48BF5DEC48CF5DEC48DF5DEC439
:1020A0008EF587518B5D936F88518C59946F895150
:1020B0008D59956F8A518E59966F8351876F8451D0
:1020C000886F896B8A6B8751935D885194598951C8
:1020D00095598A519659D8B004D093C583F594C5C3
:1020E00084F583518411D8B450D220EE10F07F5182
:1020F000D9268051DA22FF0EDE14876F010EDE141E
:10210000886F000EDE14896F000EDE148A6F87510F
:10211000881189118A11D8A4B7D120EE10F07F510F
:10212000D9268051DA22DEC487F5DEC488F5DEC404
:1021300089F5DEC48AF50A0E05D0D8908A33893332
:1021400088338733E82EF9D720EE0AF0A851D92634
:10215000A951DA22DEC48BF5DDC48CF5FF0E8B2588
:102160008D6FFF0E8C218E6F87518D159E6F88515C
:102170008E159F6F9E519F11D8A492D020EE10F023
:102180007F51D9268051DA22DE50DE10DE10DE10BB
:10219000D8A40FD020EE06F07F51D9268051DA2244
:1021A000DEC49AF5DEC49BF5DEC49CF5DEC49DF565
:1021B00043D020EE22F07F51D9268051DA22DE5022
:1021C000DE10D8B41DD07FC513F580C514F520EE00
:1021D00010F07F51D9268051DA22DEC415F5DEC415
:1021E00016F5DEC417F5DEC418F590ECBEF013C585
:1021F0009AF514C59BF515C59CF516C59DF51CD023
:102200007FC565F580C566F520EE14F07F51D926AF
:102210008051DA22DEC467F5DEC468F5DEC469F5F4
:10222000DEC46AF5BFECA2F065C59AF566C59BF5FC
:1022300067C59CF568C59DF505019D519C119B11D5
:102240000EE1020E9A5DD8B00AD020EE0FF07F5159
:10225000D9268051DA22020EDF6E020E12009A2970
:1022600011E19B290FE19C290DE19D29D8A40AD0F9
:1022700020EE0FF07F51D9268051DA22010EDF6E59
:10228000010E120020EE14F07F51D9268051DA227F
:102290009AC5DEF49BC5DEF49CC5DEF49DC5DEF474
:1022A000A8C512F5A9C513F520EE14F07F51D92663
:1022B0008051DA22DEC414F5DEC415F5DEC416F54D
:1022C000DEC417F5FFECC5F012C5A0F513C5A1F5E6
:1022D00014C5A2F515C5A3F50501A051A111A211C0
:1022E000A311D8B4B2D79E51A0279F51A123000EAD
:1022F000A223000EA32383C587F584C588F5090EA4
:10230000896FD89088338733892FFBD787C5A4F589
:1023100088C5A5F5A451A511D8B4A8D0A4519E256F
:10232000876FA5519F21886F20EE0AF0A851D9260A
:10233000A951DA228751DE5C8851DE58D8B010D01E
:1023400020EE0AF0A851D926A951DA22DEC487F579
:10235000DDC488F59E51875DA46F9F518859A56F94
:1023600098C513F599C514F5A0C515F5A1C516F5C1
:10237000A2C517F5A3C518F5A4C519F5A5C51AF585
:1023800020EE01F0A851D926A951DA22DF50ADEC98
:10239000CAF00009D8A4B1D0050120EE04F0A8517C
:1023A000D926A951DA22DF50D8B450D0A451876F72
:1023B000A551886F896B8A6B20EE2EF0A851D92623
:1023C000A951DA22DEC48BF5DEC48CF5DEC48DF5AE
:1023D000DEC48EF5A0518B5D8F6FA1518C59906F2B
:1023E000A2518D59916FA3518E59926F87518F5D74
:1023F00088519059895191598A519259D8B026D013
:1024000020EE2EF0A851D926A951DA22DEC487F594
:10241000DDC488F5A051875FA151885B090ED89073
:1024200087378837E82EFBD787519825066E885165
:102430009921076E320EA825086E000EA921096E9B
:10244000020E0B6E000E0A6EE8ECD1F0A4C587F503
:10245000A5C588F5090ED890050187378837E82E7D
:10246000FAD787C5A6F588C5A7F570D020EE18F075
:102470007F51D9268051DA22A0C5DEF4A1C5DEF451
:10248000A2C5DEF4A3C5DEF420EE10F07F51D926FC
:102490008051DA22DEC487F5DDC488F5FF0E87158A
:1024A000896F010E88158A6F89510008A66F8A51BD
:1024B000D8A0E82A0208A76FA651835DA7518459C6
:1024C000D8B004D083C5A6F584C5A7F5A8C52FF557
:1024D000A9C530F520EE18F07F51D9268051DA22B7
:1024E000DEC431F5DEC432F5DEC433F5DEC434F5C6
:1024F000CCECC7F00009D8B402D00501B9D698C514
:1025000006F599C507F5050120EE10F07F51D92693
:102510008051DA22DEC487F5DDC488F5FF0E871509
:10252000896F010E88158A6F8951A8258B6F8A5192
:10253000A9218C6F320E8B25086E000E8C21096E3E
:10254000A6C50AF5A7C50BF5E8ECD1F00501A65123
:10255000835FA751845B85C5D9F486C5DAF4A6519B
:10256000DE26A751DD22A6519827A751992320EEF8
:1025700010F07F51D9268051DA22A651DE26A751CC
:10258000DE22000EDE22DE22ACD5000E120025C5B2
:10259000D9F426C5DAF4DEC46CF5DDC46DF523C5C7
:1025A000D9F424C5DAF410EE0CF0DE50E126DD504B
:1025B000E222E6C46EF5E5C46FF5000E0501736F07
:1025C000000E726F6C0E146E050E156EECECC2F000
:1025D00014C562F515C563F516C564F517C565F52F
:1025E0000501622909E1632907E1642905E16529FB
:1025F000D8A402D0060E1200655103E16405D8A0EC
:102600000FD0D8907235D96E7335DA6E6E51D926E7
:102610006F51DA2264C5DEF465C5DDF4724B732BAD
:1026200062C574F563C575F5755104E1200E745DDE
:10263000D8A035D02F0E74197511D8B430D05C0ED7
:1026400074197511D8B42BD0755112E1800E745DD8
:10265000D8B00ED0E60E066EFF0E076E74C508F5F4
:1026600075C509F5C6ECD1F006500710D8A4C2D73D
:1026700005017351BFE1170E725DD8B0BBD7D8907A
:102680007235D96E7335DA6E6E51D9266F51DA22F2
:1026900074C5DEF475C5DDF4724B732B93D7755199
:1026A0000AE1200E745DD8B006D0040E6B6F4CD0DA
:1026B00005016C4B6D2B6CC5F6F46DC5F7F4000E7F
:1026C000F86E360EF76403D00800F55005D0F6C456
:1026D000E9F4F7C4EAF4EF502F0AD8B4E9D76CC58F
:1026E000F6F46DC5F7F4000EF86E360EF76403D0FD
:1026F0000800F55005D0F6C4E9F4F7C4EAF4EF5049
:102700005C0AD8B4D5D7000E05016B6F000E616F5F
:10271000200E606F6CC5F6F46DC5F7F4000EF86E10
:10272000360EF76403D00800F55005D0F6C4E9F47E
:10273000F7C4EAF4EF50276E286A05016051275C60
:1027400061512858D8A0B1D725C5D9F426C5DAF4E7
:102750006CC5DEF46DC5DDF424D072C527F573C5F4
:1027600028F5D8902736283627506E25296E285010
:102770006F212A6EFE0E2924D96EFF0E2A20DA6EF2
:10278000DEC474F5DDC475F5200E74197511D8B466
:1027900005D02E0E74197511D8A407D07207D8A0D1
:1027A000730772517311D8A4D8D7D8907235D96EE7
:1027B0007335DA6E6E51D9266F51DA22DE6ADD6A20
:1027C00072517311D8B416D7000E716F000E706F6E
:1027D00002D0704B712BD8907035D96E7135DA6E8E
:1027E0006E51D9266F51DA22200EDE18DE10D8B4D1
:1027F000F0D770517111D8A40ED0D8907035D96E21
:102800007135DA6E6E51D9266F51DA222E0EDE182E
:10281000DE10D8A406D0030E6B1303D07207D8A025
:10282000730772517311D8B418D072C527F573C5E8
:1028300028F5D8902736283627506E25296E28503F
:102840006F212A6EFE0E2924D96EFF0E2A20DA6E21
:102850002E0EDE18DE10D8A4E1D71C0E2324066E3F
:10286000000E2420076E000E096E200E086E000E6A
:102870000B6E0B0E0A6E31ECD4F0000E05016A6F80
:102880006AC566F5676B000E696F080E686FD890B1
:102890007035D96E7135DA6E6E51D9266F51DA22E4
:1028A000DEC474F5DDC475F5704B712B7451751170
:1028B000D8B4E6D0200E74197511D8B40CD02E0EF1
:1028C00074197511D8A40AD07251701904E17351AA
:1028D0007119D8B403D0030E6B13D9D76851665D54
:1028E00069516759D8B007D0725170192CE17351F2
:1028F0007119D8A428D00B0E68196911D8A403D077
:10290000030E6B13BDD07251701904E1735171192C
:10291000D8B402D0030E6B137051725D71517359AC
:10292000D8A0AED072C570F573C571F5000E676F93
:10293000080E666F000E696F0B0E686FD8906A37CD
:10294000D8906A37A4D7755104E1800E745DD8A081
:1029500027D06B8374C506F575C507F5086A096A43
:10296000010E0B6EB50E0A6E1BECC7F006C574F5B2
:1029700007C575F5050174AF13D07F0E7415276E6A
:10298000000E7515286EFB0E2724F66EFA0E282011
:10299000F76EF86A000EF8220800F550746F756B38
:1029A0007505D8A024D0FF0E6825276EFF0E69217B
:1029B000286E2750665D28506759D8A007D0030EAF
:1029C0006B1368C566F569C567F561D76651232441
:1029D000276E67512420286E1C0E2724D96E000E06
:1029E0002820DA6E7551DF6E664B672B38D0745134
:1029F0007511D8B40ED0F70E066EFF0E076E74C5B3
:102A000008F575C509F5C6ECD1F006500710D8B425
:102A100008D0000E0501756F5F0E746F030E6B1307
:102A20001ED00501755104E1410E745DD8A006D099
:102A3000755104E15B0E745DD8A06A83755104E1A1
:102A4000610E745DD8A00BD0755109E17B0E745DE9
:102A5000D8B005D06A81200E745F000E755B665198
:102A60002324276E67512420286E1C0E2724D96E3C
:102A7000000E2820DA6E74C5DFF4664B672B07D78B
:102A800020EE1CF02350D9262450DA22E50EDE1861
:102A9000D8A408D020EE1CF02350D9262450DA22E6
:102AA000050EDF6E080E68196911D8A404D0D890FD
:102AB0006A37D8906A376A510C0B0C0AD8B404D024
:102AC0006A51030B030AD8B46B836BB304D06AB1A9
:102AD0006B896AB56B8720EE27F02350D9262450E6
:102AE000DA226BC5DFF4000E12000601936F0601B7
:102AF0009351240DCB0EF3249F6F0E0EF420A06F84
:102B000020EE06F09F51D926A051DA22DE500501B1
:102B1000F95DD8A002D0010E01D0000E06019B6F16
:102B20009B51D8B409D020EE06F09F51D926A05170
:102B3000DA22DF500501F95F060120EE02F09F5115
:102B4000D926A051DA220501F851DE18D8A40BD0FD
:102B5000060120EE03F09F51D926A051DA229B51A5
:102B6000DE18D8B40FD0F8C5EAF59BC6EBF5060120
:102B7000935179ECB8F00501EA510601A46FA45114
:102B8000D8A429D2000E9C6F000E9C25D96EDA6A5B
:102B9000080EDA22DF500501FA6F010E06019C25AE
:102BA000D96EDA6A080EDA22DF500501FB6FFA519E
:102BB00006019D6FFBC59EF69D519E11D8B40BD2A8
:102BC0009EAF02D0010E01D0000E946FFF0E9D1734
:102BD0003F0E9E1720EE05F09F51D926A051DA2214
:102BE000DF50D8A407D09451D8A404D0000E8E6F23
:102BF000020E03D0000E8E6F010E8D6F8DC6A6F6ED
:102C0000350E0501A36F060EA46F060120EE07F036
:102C10009F51D926A051DA22DEC4FAF5DEC4FBF5B5
:102C2000DEC4FCF5DEC4FDF59D510501FA25A56F56
:102C300006019E510501FB21A66F000EFC21A76F26
:102C4000000EFD21A86F00EC80F00601A46FA451D6
:102C5000D8A415D0350E05017F6F060E806F000ECB
:102C6000816F070E826F000E846F0E0E836FA20EAF
:102C7000856F060E866F05EC90F00601A46FA451D7
:102C8000D8A4A9D1A35104E10E0EA25DD8A0A3D16E
:102C9000000EA16F000EA125D96EDA6A070EDA22A6
:102CA000FE0EDE18D8A491D1A651A127000EA125B1
:102CB000D96EDA6A070EDA220501F851DE18D8A4B7
:102CC00084D10601A651A127000EA125D96EDA6A8A
:102CD000070EDA22DF50010B9B19D8A476D1A6513A
:102CE000A127000EA125D96EDA6A070EDA220501A6
:102CF000F951DE18D8A469D10601A651A127A65121
:102D0000A127A651A127A651A1279451D8A404D048
:102D1000000E906F1E0E03D0000E906F2B0E8F6F63
:102D20008FC699F6A6519903F350996F350E050198
:102D3000A36F060EA46F060120EE07F09F51D9265F
:102D4000A051DA22DEC4FAF5DEC4FBF5DEC4FCF5E0
:102D5000DEC4FDF5A1519D250501FE6F000E0601A3
:102D60009E210501FF6FFE51FA25A56FFF51FB2142
:102D7000A66F000EFC21A76F000EFD21A86F00ECCE
:102D800080F00601A46FA451D8A414D0350E05011B
:102D90007F6F060E806F000E816F070E826F99C6DF
:102DA00083F5846BA20E856F060E866F05EC90F09E
:102DB0000601A46FA451D8A40ED19951A25D000EB2
:102DC000A359D8A008D19A69000EA56F1DD0000E96
:102DD000A525D96EDA6A070EDA22F70EDF6412D063
:102DE000000EA525D96EDA6A070EDA22FC0EDF6026
:102DF00009D0000EA525D96EDA6A070EDA22DF5057
:102E00009A6F06D0A651A5279951A55DD8A0DFD706
:102E10009A29D8B4E0D0A651A527350E0501A36F95
:102E2000060EA46F060120EE07F09F51D926A0518F
:102E3000DA22DEC4FAF5DEC4FBF5DEC4FCF5DEC43E
:102E4000FDF5A551A1C6FEF50501FF6BFE27000E9D
:102E5000FF2306019D510501FE2706019E51050134
:102E6000FF23FE51FA25A56FFF51FB21A66F000E2F
:102E7000FC21A76F000EFD21A86F00EC80F0060179
:102E8000A46FA451D8A4A7D0A605D8A414D0350EF9
:102E900005017F6F060E806F000E816F070E826F37
:102EA000010E846F000E836FA20E856F060E866F73
:102EB00005EC90F072D0000E956F070E966F350EF0
:102EC00005017F6F060E806FB20E816F0C0E826F50
:102ED000010E846F000E836FA20E856F060E866F43
:102EE00005EC90F00601A46FA451D8A474D0A305FA
:102EF000D8A071D0B20E976F0C0E986F000EA56F10
:102F00007F0EA56501D012D097C6D9F498C6DAF421
:102F100095C6E1F496C6E2F4DFC4E7F4974B982B2C
:102F2000954B962B974B982BA52BEAD7350E050181
:102F30007F6F060E806FB20E816F0C0E826F010ED6
:102F4000846F000E836FA20E856F060E866F05ECF0
:102F500090F00601A46FA451D8A43DD0A305D8A039
:102F60003AD0B20E976F0C0E986F000EA56F7F0EC1
:102F7000A56501D012D097C6D9F498C6DAF495C6E3
:102F8000E1F496C6E2F4DFC4E7F4974B982B954B37
:102F9000962B974B982BA52BEAD7F80E06019A197A
:102FA000D8B408D0FA0E9A19D8B404D0000E926F93
:102FB000000E03D0000E926F060E916F91C647F57A
:102FC000010E3C6E000E3B6E1200020E06019C27A5
:102FD0003F0E9C65D9D5050E476E12000501726F34
:102FE00014C560F515C561F505017251D8B402D05C
:102FF000040E12005FA002D0030E1200010E776FC4
:103000002CD2BE9A1EECD5F0FF0AD8A443D2000EF3
:10301000050121D2000E0E6E000E0F6E000E106E16
:10302000000E116E490E2CECD2F00009D8A432D259
:10303000620E0A6E050E0B6E000E0D6E100E0C6EFB
:10304000B5ECCCF00009D8B425D205016245E846BC
:10305000030BE806D8A448D069C516F53F0E16162E
:1030600016C517F5186A196A1A6A18C51AF517C528
:1030700019F5186A176A6A511C6E6B511B6E1B504A
:1030800017241D6E1C5018201E6E000E19201F6E76
:10309000000E1A20206E010E1D24736F000E1E20DC
:1030A000746F000E1F20756F000E2020766F73C5A1
:1030B00016F574C517F575C518F576C519F50A0E18
:1030C000D8901636173618361936E82EF9D714C5A3
:1030D000D9F415C5DAF416C5DEF417C5DEF418C543
:1030E000DEF419C5DEF493D7166A6CAF01D0162A48
:1030F000010E161667C517F50F0E17166B51030B49
:10310000020DF35017241624020F786F6851030B39
:10311000166E176A0A0ED89016361736E82EFBD7A9
:103120006951186E196AD89018361936D890183621
:1031300019366AC51AF5060E1B6ED8901A321B2E68
:10314000FCD71A5018241C6E000E19201D6E165044
:103150001C241E6E17501D201F6E010E1E26000E11
:103160001F221EC573F51FC574F5756B766B78C588
:1031700016F5F70E162673C517F574C518F575C53F
:1031800019F576C51AF5162A05D0D89017361836CF
:1031900019361A36162EF9D748D014C5D9F415C5E4
:1031A000DAF4000EDE6E020EDD6E31D759A44AD07D
:1031B000000E0E6E000E0F6E000E106E000E116EE1
:1031C000CD0E2CECD2F00009D8A464D1FF0E7EEC19
:1031D000D5F0620E0A6E050E0B6E000E0D6E100E0F
:1031E0000C6EB5ECCCF00009D8B454D1300E05010A
:1031F000786F05D0FF0E7EECD5F005017807785189
:10320000D8A4F8D76CC516F5163A0F0E1616100E80
:10321000176E186A196A1A6A162A05D0D8901736D6
:10322000183619361A36162EF9D714C5D9F415C51D
:10323000DAF417C5DEF418C5DEF419C5DEF41AC5D4
:10324000DEF4E5D6000E0E6E000E0F6E000E106E50
:10325000000E116E490E2CECD2F00009D8A41AD140
:10326000620E0A6E050E0B6E000E0D6E100E0C6EC9
:10327000B5ECCCF00009D8B40DD159A22BD06FC554
:1032800016F5060E176ED8901632172EFCD7FF0EC5
:10329000162605016C513F0B186E196AD890183626
:1032A00019361A6A6DAF01D01A2A010E1A161A5071
:1032B0001826000E1922010E1826000E1922162AB1
:1032C00003D0D89018361936162EFBD718501B6E1F
:1032D000195035D06CC516F5D8901632D8901632E4
:1032E0001F0E1616010E1624066E076A000E072220
:1032F00005016D51030B176E186AD89017361836F2
:10330000D89017361836D890173618366DC519F577
:10331000050E1A6ED89019321A2EFCD7070E191600
:1033200019501726000E1822010E1724086E000EE1
:103330001820096EC2ECD4F006501B6E07501C6EAC
:103340001D6A1E6A14C5D9F415C5DAF41BC5DEF46E
:103350001CC5DEF41DC5DEF41EC5DEF458D660C5FE
:10336000D9F461C5DAF459C5DFF451D6000E0E6EFA
:10337000000E0F6E000E106E000E116E490E2CEC3A
:10338000D2F00009D8A486D014C50AF515C50BF5EE
:10339000000E0D6E100E0C6EB5ECCCF00009D8A42A
:1033A00036D678D0000E0E6E000E0F6E000E106E28
:1033B000000E116E4A0E2CECD2F00009D8A46AD08F
:1033C00014C50AF515C50BF5000E0D6E100E0C6E2A
:1033D000B5ECCCF0E3D7000E0E6E000E0F6E000EB3
:1033E000106E000E116E7A0E2CECD2F00009D8A4EB
:1033F00051D0000E0501786F78511424D96E000E5B
:103400001520DA6EFF0E7EECD5F0DF6E0501782B0D
:10341000030E7865F1D7FBD559A43CD0000E0E6E93
:10342000000E0F6E000E106E000E116ECD0E2CEC05
:10343000D2F00009D8A42ED0FF0E7EECD5F014C532
:103440000AF515C50BF5000E0D6E400E0C6EB5ECB1
:10345000CCF0A4D7040E776F1DD01350000AD8B457
:10346000D0D5010AD8B4D6D5030AD8B496D6010A65
:10347000D8B49CD6090AD8B472D7010AD8B476D782
:10348000070AD8B48FD7010AD8B4A5D7030AD8B48D
:10349000C3D7E0D7F6ECD5F00501775112001EC571
:1034A000D9F41FC5DAF4DEC429F5DDC42AF520EE0F
:1034B00016F02050D9262150DA22DF6A20EE16F0CD
:1034C0001E50D9261F50DA22DE50DE10DE10DE102C
:1034D000D8B4120020EE28F01E50D9261F50DA2250
:1034E000DE2807E1DE2805E1DE2803E1DE28D8B486
:1034F000A3D0000E346E000E336E33C52FF534C5E5
:1035000030F56AD020EE0CF02950D9262A50DA2264
:10351000DEC422F5DDC423F5D8902F34D96E3034C3
:10352000DA6E2250D9262350DA22DEC431F5DDC40A
:1035300032F52F4A302A2D502E10D8A40DD0D80E97
:10354000325CD8A009D0E00E325CD8B005D031C5CD
:103550002DF532C52EF544D02D50226E2E50236EFF
:10356000246A256A23C525F522C524F5236A226A23
:1035700031502210146E32502310156E000E24109C
:10358000166E000E2510176E33502024266E345010
:103590002120276E160E2624186E000E2720196E85
:1035A00033500601E35D1A6E3450D8A034281B6AEC
:1035B0001B5E26ECCCF014C52BF515C52CF52B5055
:1035C0002C10D8A405D0000E346E000E336E1FD020
:1035D0002B5033262C503422000E2E6E000E2D6EF2
:1035E00020EE0CF02950D9262A50DA22DEC422F52A
:1035F000DDC423F5D8902F34D96E3034DA6E2250E2
:10360000D9262350DA22DE50DE10D8A47BD72D50E5
:103610002E10D8B404D0000E346E000E336E33502A
:103620002024226E34502120236E160E2224D96EBF
:10363000000E2320DA6EDF6A000E346E000E336E49
:1036400033C52FF534C530F550D020EE1AF01E509A
:10365000D9261F50DA22DEC422F5DDC423F52F500F
:103660002224D96E30502320DA6EDF50246E24508D
:10367000316E326A2F4A302A200E31183210D8B4F7
:1036800034D0050E31183210D8A404D0000E326E9A
:10369000E50E316E090E2F183010D8A416D0345014
:1036A00014E10C0E335CD8B010D033502024226EBD
:1036B00034502120236E090E2224D96E000E2320BF
:1036C000DA6E2E0EDF6E334A342A33502024226EF7
:1036D00034502120236E090E2224D96E000E23209F
:1036E000DA6E31C5DFF4334A342A305004E10B0E70
:1036F0002F5CD8A0AAD733502024226E345021202A
:10370000236E090E2224D96E000E2320DA6EDF6AA2
:1037100020EE16F02050D9262150DA22DF50D8A40E
:103720009DD033503410D8A411D033502024226EB1
:1037300034502120236E160E2224D96E000E232031
:10374000DA6E3F0EDF6E334A342A65D0000E346ED7
:10375000000E336E33C52FF534C530F5080E286ED4
:103760004BD02F502024226E30502120236E090E82
:103770002224D96E000E2320DA6EDF50246E2450EE
:10378000316E326A2E0E31183210D8A402D0100ECB
:10379000286E325004E1410E315CD8A01BD032506B
:1037A00019E15B0E315CD8B015D020EE1AF01E5036
:1037B000D9261F50DA2210EE0CF0DE50E126DD5043
:1037C000E222E75028140009D8B404D0200E312694
:1037D000000E322233502024226E34502120236EDA
:1037E000160E2224D96E000E2320DA6E31C5DFF4C6
:1037F0002F4A302A334A342A2F502024226E305048
:103800002120236E090E2224D96E000E2320DA6EA9
:10381000DF50D8A4A6D733502024226E3450212064
:10382000236E160E2224D96E000E2320DA6EDF6A74
:1038300020EE1AF01E50D9261F50DA2210EE0CF09E
:10384000DE50E126DD50E222E750D8A407D020EE7A
:1038500009F02050D9262150DA22DF6A20EE08F044
:103860002050D9262150DA2210EE1AF01E50E126FF
:103870001F50E22200EE0BF0E650E926E550EA2266
:10388000EF503F0BDF6E20EE1AF01E50D9261F506E
:10389000DA22DEC422F5DDC423F51C0E2224066ED6
:1038A000000E2320076EBFECC6F020C5D9F421C559
:1038B000DAF406C5DEF407C5DEF408C5DEF409C592
:1038C000DEF420EE1AF01E50D9261F50DA22DEC494
:1038D00022F5DDC423F5160E2224066E000E2320E9
:1038E000076E07ECD3F020EE06F02050D9262150C9
:1038F000DA2206C5DEF407C5DDF420EE1AF01E500C
:10390000D9261F50DA22DEC422F5DDC423F5180EB5
:103910002224066E000E2320076E07ECD3F020EE63
:1039200004F02050D9262150DA2206C5DEF407C55E
:10393000DDF4120086C5D9F487C5DAF4DEC49DF53E
:10394000DDC49EF50501885189118A118B11D8A417
:103950002DD020EE0EF09D51D9269E51DA22DEC4E4
:1039600095F5DEC496F5DEC497F5DEC498F595515D
:10397000961197119811D8B410D020EE16F09D51E1
:10398000D9269E51DA22DE50955DDE509659DE50E2
:103990009759DE509859D8A05BD0010E956F000E54
:1039A000966F000E976F000E986F52D086C565F522
:1039B00087C566F588C567F589C568F58AC569F55F
:1039C0008BC56AF5BFECA2F065C59FF566C5A0F58D
:1039D00067C5A1F568C5A2F50501A251A111A01105
:1039E0000DE1020E9F5DD8B009D0010E866F000E6A
:1039F000876F000E886F000E896F12009F2910E1FB
:103A0000A0290EE1A1290CE1A229D8A409D09FC5C3
:103A100086F5A0C587F5A1C588F5A2C589F5120070
:103A200020EE16F09D51D9269E51DA22DE509F5D80
:103A3000DE50A059DE50A159DE50A259D8A0E7D7D8
:103A400088C595F589C596F58AC597F58BC598F50E
:103A500020EE12F09D51D9269E51DA22DE50DE1062
:103A6000DE10DE10D8A409D0000E866F000E876F1E
:103A7000000E886F000E896F1200000E996F000E05
:103A80009A6F000E9B6F000E9C6F8851951909E18B
:103A90008951961906E18A51971903E18B519819BA
:103AA000D8A486D0010E9525996F000E96219A6FA5
:103AB000000E97219B6F000E98219C6F20EE16F050
:103AC0009D51D9269E51DA22DE50995DDE509A59D9
:103AD000DE509B59DE509C59D8A008D0020E996F39
:103AE000000E9A6F000E9B6F000E9C6F86C565F5E9
:103AF00087C566F599C567F59AC568F59BC569F5EB
:103B00009CC56AF5BFECA2F065C59FF566C5A0F53A
:103B100067C5A1F568C5A2F505019F05A011A11112
:103B2000A211D8B474D79F2907E1A02905E1A129E2
:103B300003E1A229D8B46BD79F51A011A111A21102
:103B4000D8B436D020EE0EF09D51D9269E51DA22FF
:103B5000DEC49FF5DEC4A0F5DEC4A1F5DEC4A2F587
:103B6000A251A111A01104E1020E9F5DD8A018D0AE
:103B700020EE16F09D51D9269E51DA22DE509F5D2F
:103B8000DE50A059DE50A159DE50A259D8B008D05D
:103B90009FC595F5A0C596F5A1C597F5A2C598F561
:103BA000000E996F000E9A6F000E9B6F000E9C6FB7
:103BB00099519A119B119C11D8A468D095C599F57B
:103BC00096C59AF597C59BF598C59CF5010E992762
:103BD000000E9A239B239C2320EE16F09D51D9269C
:103BE0009E51DA22DE50995DDE509A59DE509B5983
:103BF000DE509C59D8A010D0020E996F000E9A6F1B
:103C0000000E9B6F000E9C6F98519711961104E166
:103C1000020E955DD8A028D786C565F587C566F5DF
:103C200099C567F59AC568F59BC569F59CC56AF5A0
:103C3000BFECA2F065C59FF566C5A0F567C5A1F507
:103C400068C5A2F505019F51A011A111A211D8B418
:103C50001DD09F05A011A111A211D8B4D8D69F29BB
:103C600007E1A02905E1A12903E1A229D8B4CFD613
:103C700095519919ABE196519A19A8E197519B1961
:103C8000A5E198519C19D8B4EFD6A0D79DC565F58C
:103C90009EC566F599C567F59AC568F59BC569F532
:103CA0009CC56AF5FF0E6B6FFF0E6C6FFF0E6D6F9C
:103CB000FF0E6E6FDFEC9EF00501946F9451D8A457
:103CC0001ED0885189118A118B11D8B418D09DC586
:103CD00065F59EC566F588C567F589C568F58AC529
:103CE00069F58BC56AF599C56BF59AC56CF59BC5E9
:103CF0006DF59CC56EF5DFEC9EF00501946F945157
:103D0000D8A444D020EE0EF09D51D9269E51DA223F
:103D100099C5DEF49AC5DEF49BC5DEF49CC5DEF4DD
:103D200020EE12F09D51D9269E51DA2210EE16F0A7
:103D30009D51E1269E51E222FE0EE624906FFF0E79
:103D4000E620916FFF0EE620926FFF0EE620936F44
:103D5000DE50905DDE509159DE509259DE509359FD
:103D6000D8A00BD020EE12F09D51D9269E51DA2218
:103D7000DE06000EDE5ADE5ADE5A20EE05F09D51B8
:103D8000D9269E51DA22000EDB8010D09405D8B4DB
:103D900009D0010E996F000E9A6F000E9B6F000EF6
:103DA0009C6F04D099699A699B699C6999C586F54D
:103DB0009AC587F59BC588F59CC589F51200020E4A
:103DC0000501856F6A516911681104E1020E675D92
:103DD000D8A016D220EE16F06551D9266651DA2207
:103DE000DE50675DDE506859DE506959DE506A5911
:103DF000D8A0F8D105D267C583F568C584F5D890F9
:103E00008431706F83316F6F6F51832770518423BA
:103E100065C52FF566C530F520EE22F06551D9262F
:103E20006651DA22DEC46FF5DEC470F5DEC471F5CA
:103E3000DEC472F583C573F584C574F5090E756F1C
:103E4000D89074337333752FFBD773516F25316E50
:103E500074517021326E000E7121336E000E72218A
:103E6000346ECCECC7F00501856F8551D8A4C8D15C
:103E7000FF0E83156F6F010E8415706F6F516525EE
:103E8000716F70516621726F320E7125816F000E55
:103E90007221826F834B842B67B104D06BC57DF593
:103EA0007E6B1AD06B516F6F706B6F3B703BF00E77
:103EB00070176F510F0B7013F00E6F1781C5D9F487
:103EC00082C5DAF4DF500F0B716F726B6F51711195
:103ED0007D6F705172117E6F81C5D9F482C5DAF49D
:103EE0007DC5DFF420EE04F06551D9266651DA2253
:103EF000010EDF6E65C52FF566C530F520EE22F0A8
:103F00006551D9266651DA22DEC46FF5DEC470F53C
:103F1000DEC471F5DEC472F583C573F584C574F52E
:103F2000090E756FD89074337333752FFBD77351A7
:103F30006F25316E74517021326E000E7121336E17
:103F4000000E7221346ECCECC7F00501856F8551EF
:103F5000D8A456D1FF0E83156F6F010E8415706FB4
:103F60006F516525716F70516621726F320E712528
:103F7000816F000E7221826F67B11BD06BC56FF528
:103F80006CC570F56DC571F56EC572F570C56FF5D0
:103F900071C570F572C571F5726B0F0E6F1781C523
:103FA000D9F482C5DAF4DF50F00B6F11736F7351DF
:103FB00012D06BC56FF56CC570F56DC571F56EC52A
:103FC00072F5050E05D0D8907233713370336F33AC
:103FD000E82EF9D76F517F6F806B81C5D9F482C508
:103FE000DAF47FC5DFF454D065C52FF566C530F52A
:103FF00020EE22F06551D9266651DA22DEC46FF533
:10400000DEC470F5DEC471F5DEC472F567C573F504
:1040100068C574F569C575F56AC576F574C573F537
:1040200075C574F576C575F5766B6F517325316E70
:1040300070517421326E71517521336E7251762137
:10404000346ECCECC7F00501856F8551D8A4D8D06B
:1040500067C56FF568C570F5D8906F377037FF0E7C
:104060006F15716F010E7015726F71516525736F49
:1040700072516621746F320E7325066E000E742124
:10408000076E6BC508F56CC509F59BECD4F0A8D09C
:1040900020EE04F06551D9266651DA22010EDF6E5A
:1040A000AFD065C52FF566C530F520EE22F065511D
:1040B000D9266651DA22DEC46FF5DEC470F5DEC49F
:1040C00071F5DEC472F567C573F568C574F569C529
:1040D00075F56AC576F5080E05D0D8907633753338
:1040E00074337333E82EF9D76F517325316E7051E5
:1040F0007421326E71517521336E72517621346E96
:10410000CCECC7F00501856F8551D8A479D067C57F
:104110006FF568C570F5D8906F377037D8906F37E6
:104120007037FF0E6F15716F010E7015726F715140
:104130006525736F72516621746F320E7325066E9A
:10414000000E7421076EBFECC6F0000E06140501C8
:10415000756F000E0714766F000E0814776FF00E5F
:104160000914786FFF0E6B15796FFF0E6C157A6F5F
:10417000FF0E6D157B6F0F0E6E157C6F75517911EB
:104180006B6F76517A116C6F77517B116D6F78512F
:104190007C116E6F67C56FF568C570F5D8906F3785
:1041A0007037D8906F377037FF0E6F15716F010E33
:1041B0007015726F71516525736F72516621746F3E
:1041C000320E7325066E000E7421076E6BC508F55E
:1041D0006CC509F56DC50AF56EC50BF5D8ECCEF0CA
:1041E000050156D765C5D9F466C5DAF4DF50010A72
:1041F000D8B401D6030AD8B4F7D6010AD8B451D737
:1042000085511200CAC5D9F4CBC5DAF4DEC4E9F58C
:10421000DDC4EAF5050120EE27F0CA51D926CB51BD
:10422000DA22DF50CC6FA00ECC17D8B402D0060E25
:104230001200000EE46F000EE36F02D0E34BE42B9C
:1042400020EE0CF0E951D926EA51DA22DEC4CCF591
:10425000DDC4CDF5D890E335D96EE435DA6ECC51B6
:10426000D926CD51DA22DE50DE10D8A4E7D7D60EFB
:10427000066E050E076E1C0ECA25086E000ECB21B9
:10428000096E000E0B6E0C0E0A6EE8ECD1F0050103
:10429000E1A14ED020EE27F0CA51D926CB51DA2227
:1042A000400EDF6E000EE66F010EE56F1C0ECA2594
:1042B000116E000ECB21126ED60E136E050E146E0B
:1042C00020EE0CF0E951D926EA51DA22DEC415F5C8
:1042D000DDC416F5E5C517F5E6C518F550ECAEF0EA
:1042E000CAC5BDF5CBC5BEF5D2ECAAF00501EB6F92
:1042F000EB51D8A408D0E54BE62BE65104E1640E5F
:10430000E55DD8A0D3D7640EE519E611D8A402D094
:10431000070E1200040EEB19D8B402D0EB511200B4
:1043200020EE27F0CA51D926CB51DA22E1C5DFF4BD
:10433000E1B305D0000EE86F010EE76F13D00C0E4D
:10434000E325066E000EE421076E000E096E0D0EC9
:10435000086EE5ECD0F0010E06240501E76F000EB3
:104360000720E86FCAC5BDF5CBC5BEF5E7C5BFF5EB
:10437000E8C5C0F573ECC1F00501EB6FEB51D8A4B3
:1043800098D0E707D8A0E807E751E811D8B491D052
:10439000CAC57FF5CBC580F5E7C5CCF5E8C5CDF539
:1043A000050ED890CC37CD37E82EFBD7CC51CE6F49
:1043B000CD51CF6FD06BD16B20EE0EF0CA51D92604
:1043C000CB51DA22DEC4D2F5DEC4D3F5DEC4D4F597
:1043D000DEC4D5F5CE51D25D816FCF51D359826FF6
:1043E000D051D459836FD151D559846FD6ECA7F0F1
:1043F0000501EB6FEB51D8A45CD01C0ECA25066EEC
:10440000000ECB21076EB0ECD2F00501E26FE9C5DA
:104410002FF5EAC530F520EE16F0CA51D926CB515A
:10442000DA22DEC431F5DEC432F5DEC433F5DEC493
:1044300034F5CCECC7F00501EB6FEB51D8A439D0C3
:1044400020EE0CF0E951D926EA51DA22DEC40CF54F
:10445000DDC40DF520EE1AF0CA51D926CB51DA226F
:10446000DEC40EF5DDC40FF5E7C510F5E2C511F5A4
:10447000E5ECC0F0050120EE04F0E951D926EA513F
:10448000DA22010EDF6ECAC5A3F5CBC5A4F5000E76
:10449000A66F000EA56F78ECA4F00501EB6FEB5151
:1044A000D8A407D0E707D8A0E807E751E811D8A4B7
:1044B000AED7EB51D8A432D7E9C52FF5EAC530F510
:1044C00020EE16F0CA51D926CB51DA22DEC431F5DE
:1044D000DEC432F5DEC433F5DEC434F5CCECC7F00F
:1044E0000501EB6FEB51D8A419D720EE1AF0CA5191
:1044F000D926CB51DA22DEC406F5DDC407F5000E5D
:10450000096E000E086E000E0B6E200E0A6E31EC66
:10451000D4F0050120EE1AF0CA51D926CB51DA2287
:10452000DEC406F5DDC407F51C0ECA25086E000EB4
:10453000CB21096E000E0B6E0B0E0A6EE8ECD1F06B
:10454000050120EE1AF0CA51D926CB51DA2210EE1D
:104550000CF0DE50E126DD50E22220EE27F0CA51B9
:10456000D926CB51DA22DF50180BE76E20EE04F08B
:10457000E951D926EA51DA22010EDF6ECFD665C5A0
:10458000D9F466C5DAF4DEC47DF5DDC47EF5050137
:104590006A516911681104E1020E675DD8A010D05C
:1045A00020EE16F07D51D9267E51DA22DE50675D6D
:1045B000DE506859DE506959DE506A59D8A008D0DB
:1045C000010E756F000E766F000E776F000E76D1BC
:1045D000756976697769786973D167C57BF568C550
:1045E0007CF5D8907C316C6F7B316B6F6B517B2786
:1045F0006C517C237DC52FF57EC530F520EE22F071
:104600007D51D9267E51DA22DEC46BF5DEC46CF50D
:10461000DEC46DF5DEC46EF57BC56FF57CC570F547
:10462000090E716FD89070336F33712FFBD76F51B4
:104630006B25316E70516C21326E000E6D21336E20
:10464000000E6E21346ECCECC7F00009D8A447D11F
:10465000FF0E05017B156B6F010E7C156C6F6B51A6
:104660007D256D6F6C517E216E6F320E6D25D96E7A
:10467000000E6E21DA6EDF506F6F6F51796F7A6BBB
:104680007B4B7C2B7DC52FF57EC530F520EE22F0CF
:104690007D51D9267E51DA22DEC46BF5DEC46CF57D
:1046A000DEC46DF5DEC46EF57BC56FF57CC570F5B7
:1046B000090E716FD89070336F33712FFBD76F5124
:1046C0006B25316E70516C21326E000E6D21336E90
:1046D000000E6E21346ECCECC7F00009D8A4FFD0D8
:1046E000FF0E05017B156B6F010E7C156C6F6B5116
:1046F0007D256D6F6C517E216E6F320E6D25D96EEA
:10470000000E6E21DA6EDF506F6F6F51716F706B3C
:104710007051791371517A1367B107D0FF0E791573
:10472000736F0F0E7A15746F0FD079C56BF57AC55C
:104730006CF5040E6D6FD8906C336B336D2FFBD717
:104740006BC573F56CC574F573C575F574C576F5F1
:1047500053D07DC52FF57EC530F520EE22F07D517A
:10476000D9267E51DA22DEC46BF5DEC46CF5DEC4D8
:104770006DF5DEC46EF567C56FF568C570F569C582
:1047800071F56AC572F570C56FF571C570F572C5C2
:1047900071F5726B6B516F25316E6C517021326EF9
:1047A0006D517121336E6E517221346ECCECC7F0B5
:1047B0000009D8A494D067C56BF568C56CF5D8908E
:1047C00005016B376C37FF0E6B156D6F010E6C15A5
:1047D0006E6F6D517D256F6F6E517E21706F320E41
:1047E0006F25066E000E7021076E07ECD3F006C52C
:1047F00075F507C576F50501776B786B70D07DC5CB
:104800002FF57EC530F520EE22F07D51D9267E5160
:10481000DA22DEC46BF5DEC46CF5DEC46DF5DEC4F1
:104820006EF567C56FF568C570F569C571F56AC540
:1048300072F5080E05D0D8907233713370336F3330
:10484000E82EF9D76B516F25316E6C517021326EA5
:104850006D517121336E6E517221346ECCECC7F004
:104860000009D8A43CD067C56BF568C56CF5050197
:10487000D8906B376C37D8906B376C37FF0E6B1551
:104880006D6F010E6C156E6F6D517D256F6F6E51E2
:104890007E21706F320E6F25066E000E7021076E3E
:1048A000BFECC6F0FF0E06140501756FFF0E07146E
:1048B000766FFF0E0814776F0F0E0914786F0FD004
:1048C0007DC5D9F47EC5DAF4DF50010AD8B485D6A7
:1048D000030AD8B43ED7010AD8B491D771D675C5AA
:1048E00065F576C566F577C567F578C568F5120094
:1048F000A3C5D9F4A4C5DAF4DEC4B7F5DDC4B8F5B0
:10490000050120EE0EF0A351D926A451DA22DEC40F
:10491000A7F5DEC4A8F5DEC4A9F5DEC4AAF5200E0D
:10492000A725B36F000EA821B46F000EA921B56FA3
:10493000000EAA21B66FB65104E1200EB55DD8A0D5
:104940000AD020EE16F0A351D926A451DA22DE6A4D
:10495000DE6ADE6ADD6A20EE16F0A351D926A45184
:10496000DA22DE50DE10DE10DE10D8A402D0040EF3
:104970001200FF0EB315A76F010EB415A86F000E3D
:10498000B515A96F000EB615AA6FA751A811A911E8
:10499000AA11D8A438D120EE16F0A351D926A451DB
:1049A000DA22DE2A000EDE22DE22DE2220EE12F0E5
:1049B000A351D926A451DA22DE50DE10DE10DE101B
:1049C000D8A42CD020EE08F0B751D926B851DA225D
:1049D000DEC4A7F5DDC4A8F5A751A96FA851AA6F39
:1049E000AB6BAC6BB3C5ADF5B4C5AEF5B5C5AFF546
:1049F000B6C5B0F5060E05D0D890B033AF33AE33A0
:104A0000AD33E82EF9D7A951AD5DAA51AE59AB51DE
:104A1000AF59AC51B059D8A0F6D079D020EE0AF0F9
:104A2000B751D926B851DA22DEC4A7F5DDC4A8F5FE
:104A3000FF0EA725A96FFF0EA821AA6FB3C5ABF57E
:104A4000B4C5ACF5B5C5ADF5B6C5AEF50A0E05D025
:104A5000D890AE33AD33AC33AB33E82EF9D7A95190
:104A6000AB15AF6FAA51AC15B06F000EAD15B16F9D
:104A7000000EAE15B26FAF51B011B111B211D8A482
:104A8000C2D0A3C565F5A4C566F520EE12F0A3510A
:104A9000D926A451DA22DEC467F5DEC468F5DEC487
:104AA00069F5DEC46AF5BFECA2F065C5B9F566C567
:104AB000BAF567C5BBF568C5BCF50501BC51BB11AE
:104AC000BA1106E1020EB95DD8B002D0020E120092
:104AD000B92909E1BA2907E1BB2905E1BC29D8A414
:104AE00002D0010E120020EE16F0B751D926B851AF
:104AF000DA22DE50B95DDE50BA59DE50BB59DE50C5
:104B0000BC59D8A054D0A551A611D8A40BD020EEE2
:104B100016F0A351D926A451DA22DE6ADE6ADE6AD3
:104B2000DD6A25D7A3C586F5A4C587F520EE12F06A
:104B3000A351D926A451DA22DEC488F5DEC489F552
:104B4000DEC48AF5DEC48BF59AEC9CF086C5B9F517
:104B500087C5BAF588C5BBF589C5BCF50501B9514E
:104B6000BA11BB11BC11D8A402D0070E1200B905AE
:104B7000BA11BB11BC11D8B4A9D7B92907E1BA2918
:104B800005E1BB2903E1BC29D8B4ABD7B7C52FF5E4
:104B9000B8C530F5B9C531F5BAC532F5BBC533F581
:104BA000BCC534F553ECC0F00009D8A49AD7050170
:104BB00020EE12F0A351D926A451DA22B9C5DEF4B1
:104BC000BAC5DEF4BBC5DEF4BCC5DEF4B7C512F56C
:104BD000B8C513F5B9C514F5BAC515F5BBC516F5B5
:104BE000BCC517F5FFECC5F0050120EE16F0A3518A
:104BF000D926A451DA2212C5DEF413C5DEF414C599
:104C0000DEF415C5DEF420EE0EF0A351D926A45132
:104C1000DA22B3C5DEF4B4C5DEF4B5C5DEF4B6C53C
:104C2000DEF4FF0EB315A76F010EB415A86FA751E0
:104C3000B725A96FA851B821AA6F320EA927000E77
:104C4000AA2320EE1AF0A351D926A451DA22A9C52D
:104C5000DEF4AAC5DDF4000E12000601D56F0601D0
:104C6000D551440DD20EF324DB6F0F0EF420DC6F10
:104C700020EE3CF0DB51D926DC51DA22DF50D8B4EB
:104C800002D0000E1200D551440DF60EF324D66F5B
:104C90000F0EF420D76FD6C6D9F4D7C6DAF4DF509A
:104CA000D8A41BD0D6C606F5D7C607F5EF0E086EFA
:104CB000FF0E096E35ECD1F0060120EE07F0D6515B
:104CC000D926D751DA22D551300FDF6E20EE08F009
:104CD000D651D926D751DA22DF6A030ED06F0501EB
:104CE000F9A302D0070E03D0F9A503D0010E0601E7
:104CF000D06FDBC6ECF5DCC6EDF5D6C6EEF5D7C653
:104D0000EFF5D0C6F0F5F8EC8CF00601D86FD8516D
:104D1000D8B403D00601D85112000501F9A30BD075
:104D2000DBC6EAF5DCC6EBF569ECB5F00601D86F39
:104D3000D851D8A434D1DBC67FF5DCC680F5B20EDD
:104D40000501816F0C0E826F010E846F000E836F60
:104D5000D30E856F060E866F05EC90F00601D86FB6
:104D6000D851D8A41CD1D405D311D8B404D0090E7D
:104D70000601D86F14D1B20ED96F0C0EDA6FD9C6F6
:104D8000D9F4DAC6DAF4560EDE18D8A4F0D720EE3D
:104D900001F0D951D926DA51DA22CB0EDE18D8A487
:104DA000E6D720EE02F0D951D926DA51DA22100ED8
:104DB000DE18D8B40AD020EE02F0D951D926DA5143
:104DC000DA22110EDE18D8A4D2D70501F9A509D030
:104DD000060120EE3FF0DB51D926DC51DA22010E2C
:104DE00012D0060120EE3FF0DB51D926DC51DA2249
:104DF00010EE07F0D951E126DA51E222E7AE02D0F7
:104E0000010E01D0000EDF6E20EE1BF0D951D92625
:104E1000DA51DA22DF500501FA6F030EFA17FA5160
:104E2000FC6FFB6B060120EE40F0DB51D926DC5114
:104E3000DA22FBC5DEF4FCC5DDF420EE40F0DB51E8
:104E4000D926DC51DA2210EE1CF0D951E126DA51D4
:104E5000E222E7500501FA6FFA51DE26000EDD224C
:104E6000060120EE1DF0D951D926DA51DA22DF50A1
:104E7000D8A405D0010ED26F000ED16F0DD020EE58
:104E80001DF0D951D926DA51DA22DF500501FA6F27
:104E9000FA510601D16FD26B20EE1AF0D951D92602
:104EA000DA51DA22DF50D8A421D020EE43F0DB51D2
:104EB000D926DC51DA22200EDF6E20EE42F0DB51E3
:104EC000D926DC51DA22D1C606F5D2C607F510EE96
:104ED00043F0DB51E126DC51E222E7500501FA6F95
:104EE000FA51086E096AE5ECD0F026D020EE1AF0EF
:104EF000D951D926DA51DA2210EE42F0DB51E126FF
:104F0000DC51E222DFC4E7F420EE43F0DB51D92686
:104F1000DC51DA22D1C606F5D2C607F510EE42F012
:104F2000DB51E126DC51E222E7500501FA6FFA512C
:104F3000086E096AE5ECD0F00650DF6E060120EE3F
:104F400043F0DB51D926DC51DA22DF50066E20EE29
:104F50001DF0D951D926DA51DA22DF505CECD4F0B9
:104F60000009D8A404D7060120EE42F0DB51D9266F
:104F7000DC51DA22080EDF6401D0F9D620EE3DF0D4
:104F8000DB51D926DC51DA22DE6ADD6A20EE3CF004
:104F9000DB51D926DC51DA22000EDB8072D6DBC66B
:104FA00088F5DCC689F50AECD2F0B4D67FC5D9F411
:104FB00080C5DAF4DEC497F5DDC498F505018451A7
:104FC00016E1200E835DD8B012D01F0E8115856FBB
