:040000000EEF08F007
:041000000EEF08F0F7
:04100800F4EF97F07A
:0810180036EFD6F005EFCFF032
:10FAFA0000809A45418E418F804545454949498E46
:10FB0A008F9092924F994F555559999A9B9C9D9EC9
:10FB1A009F41494F55A5A5A6A7A8A9AAABACADAECA
:10FB2A00AFB0B1B2B3B4B5B6B7B8B9BABBBCBDBE63
:10FB3A00BFC0C1C2C3C4C5C6C7C8C9CACBCCCDCE53
:10FB4A00CFD0D1D2D3D4D5D6D7D8D9DADBDCDDDE43
:10FB5A00DFE0E1E2E3E4E5E6E7E8E9EAEBECEDEE33
:10FB6A00EFF0F1F2F3F4F5F6F7F8F9FAFBFCFDFE23
:10FB7A00FF7EA40130AE0182AA019E8E0140A5013A
:10FB8A00B0A30104AE01E4A801A0A5014C9C011890
:10FB9A00A4014E99015E7A0172B101E29C01B69B01
:10FBAA0001D4AD0134B201000000000000E2B1014D
:10FBBA0000000001030507090E10121416181C1E76
:10FBCA0061001A03E0001703F8000703FF000100B1
:10FBDA0078010001300132010601390110014A01A0
:10FBEA002E017901060180014D0043028101820143
:10FBFA0082018401840186018701870189018A01C2
:10FC0A008B018B018D018E018F0190019101910170
:10FC1A0093019401F60196019701980198013D021A
:10FC2A009B019C019D0120029F01A001A001A2014C
:10FC3A00A201A401A401A601A701A701A901AA0181
:10FC4A00AB01AC01AC01AE01AF01AF01B101B20130
:10FC5A00B301B301B501B501B701B801B801BA01E1
:10FC6A00BB01BC01BC01BE01F701C001C101C20157
:10FC7A00C301C401C501C401C701C801C701CA0142
:10FC8A00CB01CA01CD011001DD0101008E01DE01A7
:10FC9A001201F3010300F101F401F401F801280152
:10FCAA00220212013A020900652C3B023B023D0284
:10FCBA00662C3F0240024102410246020A015302F7
:10FCCA00400081018601550289018A0158028F018B
:10FCDA005A0290015C025D025E025F0293016102B8
:10FCEA006202940164026502660267029701960144
:10FCFA006A02622C6C026D026E029C017002710231
:10FD0A009D01730274029F017602770278027902DA
:10FD1A007A027B027C02642C7E027F02A6018102A7
:10FD2A008202A9018402850286028702AE01440288
:10FD3A00B101B20145028D028E028F029002910238
:10FD4A00B7017B030300FD03FE03FF03AC030400BA
:10FD5A008603880389038A03B1031103C2030200DD
:10FD6A00A303A303C4030803CC0303008C038E0379
:10FD7A008F03D8031801F2030A00F903F303F4030B
:10FD8A00F503F603F703F703F903FA03FA0330045A
:10FD9A00200350041007600422018A043601C104BA
:10FDAA000E01CF040100C004D004440161052604F9
:10FDBA000000C700FC00E900E200E400E000E50002
:10FDCA00E700EA00EB00E800EF00EE00EC00C400F8
:10FDDA00C500C900E600C600F400F600F200FB0008
:10FDEA00F900FF00D600DC00A200A300A500A720AE
:10FDFA009201E100ED00F300FA00F100D100AA003F
:10FE0A00BA00BF001023AC00BD00BC00A100AB00CB
:10FE1A00BB0091259225932502252425612562257B
:10FE2A00562555256325512557255D255C255B25D6
:10FE3A001025142534252C251C2500253C255E2556
:10FE4A005F255A25542569256625602550256C2588
:10FE5A006725682564256525592558255225532582
:10FE6A006B256A2518250C25882584258C2590253F
:10FE7A008025B103DF009303C003A303C303B500C6
:10FE8A00C403A6039803A903B4031E22C603B50339
:10FE9A0029226122B1006522642220232123F7004E
:10FEAA004822B0001922B7001A227F20B200A025EA
:10FEBA00A0007D1D0100632C001E9601A01E5A01A0
:10FECA00001F0806101F0606201F0806301F080616
:10FEDA00401F0606511F0700591F521F5B1F541F60
:10FEEA005D1F561F5F1F601F0806701F0E00BA1F96
:10FEFA00BB1FC81FC91FCA1FCB1FDA1FDB1FF81F72
:10FF0A00F91FEA1FEB1FFA1FFB1F801F0806901F2D
:10FF1A000806A01F0806B01F0400B81FB91FB21FA9
:10FF2A00BC1FCC1F0100C31FD01F0206E01F020620
:10FF3A00E51F0100EC1FF31F0100FC1F4E21010009
:10FF4A00322170211002842101008321D0241A0554
:10FF5A00302C2F04602C0201672C0601752C02013B
:10FF6A00802C6401002D260841FF1A03000043611A
:10FF7A00726420696E697469616C697A65642100CA
:10FF8A004361726420696E6974206661696C656494
:10FF9A002E004361726420696E7365727465642110
:10FFAA0000447269766573206D6F756E74656400BE
:10FFBA00436172642072656D6F7665642100464103
:10FFCA0054206D6F756E7465640065747273686130
:10FFDA007264004641543332202020002A3A3C3EC3
:10FFEA007C223F7F002F68617264342D002B2C3BEA
:05FFFA003D5B5D00000D
:020000040001F9
:10000000A5C507F5A6C508F5E20E096E050E0A6E30
:10001000ECECC8F00501DD6FDD51D8A408D020EE6E
:100020000FF0A551D926A651DA22DF50DD6FDD5140
:10003000D8B402D0DD51120020EE22F0A551D9260D
:10004000A651DA22DE50DE10D8B407D2A72906E185
:10005000A82904E1A92902E1AA29D8A415D120EEF2
:1000600022F0A551D926A651DA22DEC4DBF5DDC483
:10007000DCF5DBC5D9F4DCC5DAF4DEC4C7F5DEC4D3
:10008000C8F5DEC4C9F5DEC4CAF5040EDB27000ED0
:10009000DC23020ECF6F000ED06F000ED16F000E6A
:1000A000D26F20EE06F0A551D926A651DA22DEC481
:1000B000E4F5DEC4E5F5DEC4E6F5DEC4E7F5E451BB
:1000C000E511E611E711D8B4B3D0E4C5BFF5E5C535
:1000D000C0F5E6C5C1F5E7C5C2F5000EC36F000E59
:1000E000C46F000EC56F000EC66F020ECF27000E44
:1000F000D023D123D223E4C5BBF5E5C5BCF5E6C5C5
:10010000BDF5E7C5BEF5010EC327000EC423C52308
:10011000C623A5C567F5A6C568F5E4C569F5E5C5B7
:100120006AF5E6C56BF5E7C56CF542ECA5F067C569
:10013000E4F568C5E5F569C5E6F56AC5E7F50501C5
:10014000E751E611E5110EE1020EE45DD8B00AD0E8
:1001500020EE0FF0A551D926A651DA22020EDF6E4D
:10016000020E1200E42911E1E5290FE1E6290DE173
:10017000E729D8A40AD020EE0FF0A551D926A65120
:10018000DA22010EDF6E010E1200010EBB25AB6FED
:10019000000EBC21AC6F000EBD21AD6F000EBE2164
:1001A000AE6FE451AB190AE1E551AC1907E1E65134
:1001B000AD1904E1E751AE19D8B49DD7CF51C75D51
:1001C000D051C859D151C959D251CA59D8A020D0FB
:1001D000DBC5D9F4DCC5DAF4C3C5DEF4C4C5DEF48E
:1001E000C5C5DEF4C6C5DEF4040EDB27000EDC2335
:1001F000DBC5D9F4DCC5DAF4BFC5DEF4C0C5DEF476
:10020000C1C5DEF4C2C5DEF4040EDB27000EDC231C
:1002100020EE16F0E251D926E351DA22DE50E45DF9
:10022000DE50E559DE50E659DE50E759D8A04DD7EB
:1002300020EE22F0A551D926A651DA22DEC4ABF574
:10024000DDC4ACF5ABC5D9F4ACC5DAF4CFC5DEF48A
:10025000D0C5DEF4D1C5DEF4D2C5DEF4CF51C75D22
:10026000D051C859D151C959D251CA59D8A009D071
:10027000DBC5D9F4DCC5DAF4DE6ADE6ADE6ADD6A83
:10028000D9D6110EDD6FD6D620EE0AF0A551D926AB
:10029000A651DA22A751DE5CA851DE58A951DE58DA
:1002A000AA51DE58D8B00ED020EE0AF0A551D926BA
:1002B000A651DA22DEC4A7F5DEC4A8F5DEC4A9F58E
:1002C000DEC4AAF520EE10F0A551D926A651DA22F7
:1002D000A7C5DEF4A8C5DEF4A9C5DEF4AAC5DEF420
:1002E000A751A811A911AA11D8B4A4D6A5C513F570
:1002F000A6C514F5FF0EA725156EFF0EA821166ED4
:10030000FF0EA921176EFF0EAA21186E1BECC1F07B
:10031000050120EE14F0A551D926A651DA2213C505
:10032000DEF414C5DEF415C5DEF416C5DEF4E2C550
:1003300012F5E3C513F520EE14F0A551D926A65108
:10034000DA22DEC414F5DEC415F5DEC416F5DEC40B
:1003500017F58CECC8F012C5D3F513C5D4F514C548
:10036000D5F515C5D6F50501D351D411D511D61142
:10037000D8B4EED620EE0AF0E251D926E351DA22C3
:10038000DEC4ABF5DDC4ACF5FF0EAB25AD6FFF0EE3
:10039000AC21AE6FFF0EA725AF6FFF0EA821B06F87
:1003A000FF0EA921B16FFF0EAA21B26F0A0E05D070
:1003B000D890B233B133B033AF33E82EF9D7AD5163
:1003C000AF15B36FAE51B015B46F000EB115B56F68
:1003D000000EB215B66FB351D327B451D423B55123
:1003E000D523B651D62320EE10F0A551D926A6511B
:1003F000DA22FF0EDE14AB6F010EDE14AC6F000EBE
:10040000DE14AD6F000EDE14AE6FAB51AC11AD114A
:10041000AE11D8B40FD620EE18F0A551D926A651AA
:10042000DA22D351DE180AE1D451DE1807E1D551A2
:10043000DE1804E1D651DE18D8B4FCD520EE18F051
:10044000A551D926A651DA22D3C5DEF4D4C5DEF4EF
:10045000D5C5DEF4D6C5DEF4EDD520EE0AF0A55103
:10046000D926A651DA22A751DE5CA851DE58A9513F
:10047000DE58AA51DE58D8B016D020EE0EF0A551A5
:10048000D926A651DA22DFB20ED020EE0AF0A5510D
:10049000D926A651DA22DEC4A7F5DEC4A8F5DEC44B
:1004A000A9F5DEC4AAF520EE10F0A551D926A65173
:1004B000DA22DEC4CBF5DEC4CCF5DEC4CDF5DEC475
:1004C000CEF5000ED76F000ED86F000ED96F000E5C
:1004D000DA6F20EE10F0A551D926A651DA22D7C541
:1004E000DEF4D8C5DEF4D9C5DEF4DAC5DEF4A751F2
:1004F000A811A911AA11D8B404D220EE0AF0E25131
:10050000D926E351DA22DEC4ABF5DDC4ACF5AB513C
:10051000AD6FAC51AE6FAF6BB06B090ED890AD370D
:10052000AE37AF37B037E82EF9D7ADC5DEF5AEC57B
:10053000DFF5AFC5E0F5B0C5E1F5CB51CC11CD117C
:10054000CE11D8B497D0FF0EA725066EFF0EA821B6
:10055000076EFF0EA921086EFF0EAA21096EDEC5E7
:100560000AF5DFC50BF5E0C50CF5E1C50DF591EC1D
:10057000CFF006C5ABF507C5ACF508C5ADF509C5A7
:10058000AEF5FF0E0501CB25066EFF0ECC21076EE2
:10059000FF0ECD21086EFF0ECE21096EDEC50AF5D5
:1005A000DFC50BF5E0C50CF5E1C50DF591ECCFF01D
:1005B00006500501AB5D0750AC590850AD590950C4
:1005C000AE59D8A057D0FF0EDE25AB6FFF0EDF214E
:1005D000AC6FFF0EE021AD6FFF0EE121AE6FAB1DE2
:1005E000AF6FAC1DB06FAD1DB16FAE1DB26FFF0E22
:1005F000CB25B36FFF0ECC21B46FFF0ECD21B56FAD
:10060000FF0ECE21B66FAF51B315B76FB051B41511
:10061000B86FB151B515B96FB251B615BA6F20EEBA
:1006200010F0A551D926A651DA22B7C5DEF4B8C517
:10063000DEF4B9C5DEF4BAC5DEF420EE10F0A55143
:10064000D926A651DA22DE50A75FDE50A85BDE5025
:10065000A95BDD50AA5B20EE14F0A551D926A65166
:10066000DA22DEC4E8F5DEC4E9F5DEC4EAF5DEC46C
:10067000EBF556D020EE06F0A551D926A651DA2288
:10068000DEC4E8F5DEC4E9F5DEC4EAF5DEC4EBF568
:10069000E851E911EA11EB11D8A434D0A5C588F5C9
:1006A000A6C589F5000E8A6F000E8B6F000E8C6F49
:1006B000000E8D6F1DEC9FF088C5E8F589C5E9F542
:1006C0008AC5EAF58BC5EBF50501E805E911EA11E4
:1006D000EB11D8B43DD5E82907E1E92905E1EA297C
:1006E00003E1EB29D8B447D520EE06F0A551D92671
:1006F000A651DA22E8C5DEF4E9C5DEF4EAC5DEF487
:10070000EBC5DEF420EE14F0A551D926A651DA226D
:10071000E8C5DEF4E9C5DEF4EAC5DEF4EBC5DEF4D7
:10072000E851E911EA11EB11D8A48BD0EAD0DE51DF
:10073000A75FDF51A85BE051A95BE151AA5B20EE06
:1007400010F0A551D926A651DA22DE51DE26DF515E
:10075000DE22E051DE22E151DE2220EE0EF0A55134
:10076000D926A651DA22DFA226D0A5C588F5A6C5CE
:1007700089F5E8C58AF5E9C58BF5EAC58CF5EBC5C1
:100780008DF51DEC9FF088C5E8F589C5E9F58AC5AA
:10079000EAF58BC5EBF50501E851E911EA11EB111A
:1007A000D8A41FD0000EA76F000EA86F000EA96F6F
:1007B000000EAA6F50D0A5C567F5A6C568F5E8C5B7
:1007C00069F5E9C56AF5EAC56BF5EBC56CF542EC70
:1007D000A5F067C5E8F568C5E9F569C5EAF56AC534
:1007E000EBF50501E82907E1E92905E1EA2903E13B
:1007F000EB29D8B4C0D4EB51EA11E91104E1020E9F
:10080000E85DD8A0A5D420EE16F0E251D926E35138
:10081000DA22DE50E85DDE50E959DE50EA59DE505A
:10082000EB59D8B095D420EE14F0A551D926A65195
:10083000DA22E8C5DEF4E9C5DEF4EAC5DEF4EBC58C
:10084000DEF4A751DE5DA851DF59A951E059AA5144
:10085000E159D8A06CD720EE10F0A551D926A651A9
:10086000DA22A751DE26A851DE22A951DE22AA51A2
:10087000DE22FF0EA715AB6F010EA815AC6F000EA0
:10088000A915AD6F000EAA15AE6FAB51AC11AD112D
:10089000AE11D8B436D0E2C512F5E3C513F5E8C5FC
:1008A00014F5E9C515F5EAC516F5EBC517F58CEC99
:1008B000C8F012C5D7F513C5D8F514C5D9F515C5B7
:1008C000DAF50501D751D811D911DA11D8B440D4CD
:1008D000A7C5ABF5A8C5ACF5A9C5ADF5AAC5AEF5DC
:1008E0000A0E05D0D890AE33AD33AC33AB33E82E1F
:1008F000F9D7AB51D727AC51D823AD51D923AE513D
:10090000DA2320EE10F0A551D926A651DA2210EEF6
:100910000AF0A551E126A651E222DE50E65CDE5047
:10092000E658DE50E658DE50E658D8B01CD020EE2F
:1009300010F0A551D926A651DA2210EE0AF0A551E1
:10094000E126A651E222DEC4E6F4DEC4E6F4DEC40B
:10095000E6F4DEC4E6F420EE0EF0A551D926A65149
:10096000DA22000EDB8C20EE10F0A551D926A6511C
:10097000DA22FF0EDE14AB6F010EDE14AC6F000E38
:10098000DE14AD6F000EDE14AE6FAB51AC11AD11C5
:10099000AE11D8B41AEF80F020EE18F0A551D92688
:1009A000A651DA22D751DE180BE1D851DE1808E142
:1009B000D951DE1805E1DA51DE18D8B41AEF80F00B
:1009C00020EE18F0A551D926A651DA22D7C5DEF4BB
:1009D000D8C5DEF4D9C5DEF4DAC5DEF41AEF80F04E
:1009E00095C5D9F496C5DAF4DE6ADD6A93C506F5D5
:1009F00094C507F535ECBFF006C5A4F507C5A5F508
:100A00000501A5AF02D00B0E1200D890A435D96E07
:100A1000A535DA6E180ED926060EDA22DEC4BFF529
:100A2000DDC4C0F5BF51C011D8A402D00C0E120015
:100A300095C5D9F496C5DAF4BFC5DEF4C0C5DDF4BA
:100A40009791BFC5D9F4C0C5DAF4DF50D8B415D03A
:100A500020EE01F0BF51D926C051DA22DF50D4EC8C
:100A6000D8F00501B46FB4B108D09751D8A4B4A59B
:100A700002D00A0E1200000E1200BFC5D9F4C0C584
:100A8000DAF4DF6A20EE01F0BF51D926C051DA2234
:100A9000DF50B6ECB2F00501B46FB4A102D0030E82
:100AA00012009751D8B402D0B4B5E3D7BFC575F5DD
:100AB000C0C576F5000E786F000E776FC4ECB8F005
:100AC00075C5BDF576C5BEF5040E0501BD19BE118F
:100AD000D8A402D0010E1200BE5104E1020EBD5D89
:100AE000D8A002D00D0E120020EE2EF0BF51D92654
:100AF000C051DA22DEC4B0F5DEC4B1F5DEC4B2F511
:100B0000DEC4B3F53D0EBF25066E000EC021076E94
:100B10001AECD6F0020E07180610D8A4E3D7480E38
:100B20000501BF25066E000EC021076E1AECD6F037
:100B300006C5B9F507C5BAF50501BB6BBC6BB95164
:100B4000BA11BB11BC11D8A410D0560EBF25066E29
:100B5000000EC021076E4CECC9F006C5B9F507C5FB
:100B6000BAF508C5BBF509C5BCF5050120EE1AF0BC
:100B7000BF51D926C051DA22B9C5DEF4BAC5DEF4B8
:100B8000BBC5DEF4BCC5DEF420EE42F0BF51D92671
:100B9000C051DA2210EE03F0BF51E126C051E2222B
:100BA000DFC4E7F420EE03F0BF51D926C051DA22AA
:100BB000DE04D8B40AD020EE03F0BF51D926C051CC
:100BC000DA22020EDE18D8A48DD7B9C506F5BAC54B
:100BD00007F5BBC508F5BCC509F520EE03F0BF510C
:100BE000D926C051DA22DF50986F98510A6E0B6AED
:100BF0000C6A0D6A58ECD3F006C5B9F507C5BAF50D
:100C000008C5BBF509C5BCF5050120EE3FF0BF5195
:100C1000D926C051DA22DF50986F996B20EE0AF086
:100C2000BF51D926C051DA2298C5DEF499C5DDF44A
:100C300020EE0AF0BF51D926C051DA22DE50DE1074
:100C4000D8B450D720EE0AF0BF51D926C051DA22CD
:100C5000DEC498F5DDC499F520EE0AF0BF51D9261F
:100C6000C051DA22DEC49AF5DDC49BF5FF0E9A2549
:100C70009C6FFF0E9B219D6F98519C159E6F995103
:100C80009D159F6F9E519F11D8A42CD7430EBF2551
:100C9000066E000EC021076E1AECD6F0050120EE9C
:100CA00008F0BF51D926C051DA2206C5DEF407C5C7
:100CB000DDF420EE08F0BF51D926C051DA22DEC49F
:100CC00098F5DDC499F50F0E9817000E99179851F5
:100CD0009911D8A407D7450EBF25066E000EC02176
:100CE000076E1AECD6F006C5ACF507C5ADF50501E3
:100CF000AE6BAF6BAC51AD11AE11AF11D8A410D02B
:100D0000520EBF25066E000EC021076E4CECC9F0D6
:100D100006C5ACF507C5ADF508C5AEF509C5AFF517
:100D2000400E0501BF25066E000EC021076E1AECAD
:100D3000D6F006C5AAF507C5ABF50501AA51AB115A
:100D4000D8B4D0D620EE08F0BF51D926C051DA224F
:100D5000DEC498F5DDC499F5040E9A6FD8909933E6
:100D600098339A2FFBD7AA5198259B6FAB519921A5
:100D70009C6F9D6BD8B09D2B9E6BB9519B25A66F28
:100D8000BA519C21A76FBB519D21A86FBC519E21D8
:100D9000A96FA651AC5DA751AD59A851AE59A95143
:100DA000AF59D8A09FD6A651AC5D066EA751AD59DC
:100DB000076EA851AE59086EA951AF59096E20EEC1
:100DC0000AF0BF51D926C051DA22DEC498F5DDC43D
:100DD00099F598C50AF599C50BF50C6A0D6A91EC61
:100DE000CFF006C5B5F507C5B6F508C5B7F509C511
:100DF000B8F50501B551B611B711B811D8B472D60E
:100E0000000EBE6F000EBD6FF60EB55DFF0EB6593B
:100E1000FF0EB7590F0EB859D8B004D0000EBE6FF0
:100E2000030EBD6FB851B7110AE1F60EB55DFF0EA6
:100E3000B659D8B004D0000EBE6F020EBD6FB851C7
:100E4000B7110AE1F60EB55D0F0EB659D8B004D051
:100E5000000EBE6F010EBD6FBD51BE11D8B442D69B
:100E6000020EB525986F000EB621996F000EB721BE
:100E70009A6F000EB8219B6F20EE16F0BF51D92655
:100E8000C051DA2298C5DEF499C5DEF49AC5DEF4C5
:100E90009BC5DEF420EE1EF0BF51D926C051DA22E8
:100EA000B0C5DEF4B1C5DEF4B2C5DEF4B3C5DEF420
:100EB000AA51B025986FAB51B121996F000EB221A4
:100EC0009A6F000EB3219B6F20EE22F0BF51D926FE
:100ED000C051DA2298C5DEF499C5DEF49AC5DEF475
:100EE0009BC5DEF4A651B025986FA751B121996F2B
:100EF000A851B2219A6FA951B3219B6F20EE2AF01D
:100F0000BF51D926C051DA2298C5DEF499C5DEF466
:100F10009AC5DEF49BC5DEF4030EBD19BE11D8A43C
:100F20004DD05C0EBF25066E000EC021076E1AEC78
:100F3000D6F006500710D8A4D5D5050120EE08F04C
:100F4000BF51D926C051DA22DE50DE10D8A4CAD54E
:100F50005E0EBF25066E000EC021076E4CECC9F078
:100F6000050120EE26F0BF51D926C051DA2206C570
:100F7000DEF407C5DEF408C5DEF409C5DEF420EEB4
:100F800016F0BF51D926C051DA22DEC498F5DEC46E
:100F900099F5DEC49AF5DEC49BF5020ED890983719
:100FA00099379A379B37E82EF9D798C5A0F599C598
:100FB000A1F59AC5A2F59BC5A3F592D020EE08F045
:100FC000BF51D926C051DA22DE50DE10D8B48AD5FE
:100FD00020EE22F0BF51D926C051DA22DEC498F5A6
:100FE000DEC499F5DEC49AF5DEC49BF5B9519825A7
:100FF0009C6FBA5199219D6FBB519A219E6FBC5134
:101000009B219F6F20EE26F0BF51D926C051DA22D6
:101010009CC5DEF49DC5DEF49EC5DEF49FC5DEF4FE
:10102000020EBD19BE11D8B444D020EE16F0BF5147
:10103000D926C051DA22DEC498F5DEC499F5DEC4A3
:101040009AF5DEC49BF5010E98159C6F000E99155C
:101050009D6F000E9A159E6F000E9B159F6F20EEE0
:1010600016F0BF51D926C051DA22DEC406F5DEC41F
:1010700007F5DEC408F5DEC409F5030E0A6E000E9E
:101080000B6E000E0C6E000E0D6E58ECD3F0D89067
:10109000093208320732063205019C510624A06F3E
:1010A0009D510720A16F9E510820A26F9F510920DA
:1010B00016D020EE16F0BF51D926C051DA22DEC478
:1010C00098F5DEC499F5DEC49AF5DEC49BF5D89098
:1010D0009835A06F9935A16F9A35A26F9B35A36F94
:1010E000FF0EA025986F010EA121996F000EA2217D
:1010F0009A6F000EA3219B6F0A0E05D0D8909B33E8
:101100009A3399339833E82EF9D720EE1AF0BF516D
:10111000D926C051DA229851DE5C9951DE589A5195
:10112000DE589B51DE58D8A0DDD420EE12F0BF511E
:10113000D926C051DA22FF0EDE6EFF0EDE6EFF0EE4
:10114000DE6EFF0EDD6EDD52DD5210EE0EF0BF5191
:10115000E126C051E222DEC4E6F4DEC4E6F4DEC4D9
:10116000E6F4DEC4E6F420EE05F0BF51D926C05106
:10117000DA22800EDF6E030EBD19BE11D8A494D002
:10118000620EBF25066E000EC021076E1AECD6F067
:1011900006040710D8A488D0BFC560F5C0C561F5A6
:1011A000010E0501B025626F000EB121636F000EC4
:1011B000B221646F000EB321656F59ECCAF00009CB
:1011C000D8A472D0050120EE05F0BF51D926C05138
:1011D000DA22DF6A300EBF25066E020EC021076ECE
:1011E0001AECD6F0550E06185FE1AA0E0718D8A41F
:1011F0005BD0320E0501BF25066E000EC021076EC2
:101200004CECC9F0520E06184FE1520E07184CE193
:10121000610E081849E1410E0918D8A445D0160EF0
:101220000501BF25066E020EC021076E4CECC9F009
:10123000720E061839E1720E071836E1410E0818D1
:1012400033E1610E0918D8A42FD01A0E0501BF256D
:10125000066E020EC021076E4CECC9F0050120EEAF
:1012600012F0BF51D926C051DA2206C5DEF407C5F7
:10127000DEF408C5DEF409C5DEF41E0EBF25066ED9
:10128000020EC021076E4CECC9F0050120EE0EF0F5
:10129000BF51D926C051DA2206C5DEF407C5DEF4F7
:1012A00008C5DEF409C5DEF4BFC5D9F4C0C5DAF45B
:1012B000BDC5DFF40601164B172B050120EE06F025
:1012C000BF51D926C051DA2216C6DEF417C6DDF4A6
:1012D00020EE0CF0BF51D926C051DA22800EDE6E0E
:1012E000090EDD6E3BEF85F0A7C5BEF5A8C5BFF5BD
:1012F000ABC5D9F4ACC5DAF4DE6ADD6AA5C507F57D
:10130000A6C508F5CE0E096E050E0A6EECECC8F007
:101310000501BD6FBD51D8A40BD020EE0FF0A55133
:10132000D926A651DA22DF50BD6FBD51D8B402D004
:10133000BD51120020EE0EF0A551D926A651DA2299
:10134000DFB202D0070E120020EE10F0A551D92610
:10135000A651DA2210EE10F0A551E126A651E222A4
:10136000E6C4B1F5E6C4B2F5E6C4B3F5E6C4B4F537
:10137000A951B125B56FAA51B221B66F000EB321A4
:10138000B76F000EB421B86FDE50B55DDE50B659B0
:10139000DE50B759DE50B859D8B00ED020EE10F05C
:1013A000A551D926A651DA22DEC4ADF5DDC4AEF5CD
:1013B000AD1DA96FAE1DAA6FA951AA11D8B40ED345
:1013C00020EE10F0A551D926A651DA22FF0EDE1428
:1013D000AD6F010EDE14AE6F000EDE14AF6F000EA7
:1013E000DE14B06FAD51AE11AF11B011D8A438D228
:1013F00020EE10F0A551D926A651DA22DEC4ADF5B3
:10140000DEC4AEF5DEC4AFF5DEC4B0F50A0E05D01D
:10141000D890B033AF33AE33AD33E82EF9D720EEEA
:101420000AF0CE51D926CF51DA22DEC4B1F5DDC49F
:10143000B2F5FF0EB125B36FFF0EB221B46FAD51FF
:10144000B315C06FAE51B415C16FC051C111D8A44E
:10145000C4D020EE10F0A551D926A651DA22DE50D4
:10146000DE10DE10DE10D8A423D020EE06F0A55149
:10147000D926A651DA22DEC4CAF5DEC4CBF5DEC415
:10148000CCF5DEC4CDF5CA51CB11CC11CD11D8A409
:1014900052D0A5C588F5A6C589F5000E8A6F000E45
:1014A0008B6F000E8C6F000E8D6F1DEC9FF03BD08C
:1014B00020EE22F0A551D926A651DA22DE50DE1008
:1014C000D8B41DD0A5C513F5A6C514F520EE10F0AF
:1014D000A551D926A651DA22DEC415F5DEC416F5CB
:1014E000DEC417F5DEC418F51BECC1F013C5CAF550
:1014F00014C5CBF515C5CCF516C5CDF51CD0A5C5C5
:1015000088F5A6C589F520EE14F0A551D926A65177
:10151000DA22DEC48AF5DEC48BF5DEC48CF5DEC4C7
:101520008DF51DEC9FF088C5CAF589C5CBF58AC538
:10153000CCF58BC5CDF50501CA51CB11CC11CD1120
:10154000D8B44CD2CA05CB11CC11CD11D8A40AD035
:1015500020EE0FF0A551D926A651DA22020EDF6E39
:10156000020E1200CA2911E1CB290FE1CC290DE1AD
:10157000CD29D8A40AD020EE0FF0A551D926A65126
:10158000DA22010EDF6E010E120020EE14F0A551DA
:10159000D926A651DA22CAC5DEF4CBC5DEF4CCC505
:1015A000DEF4CDC5DEF420EE06F0A551D926A65115
:1015B000DA22DE50DE10DE10DE10D8A40ED020EECF
:1015C00006F0A551D926A651DA22CAC5DEF4CBC54C
:1015D000DEF4CCC5DEF4CDC5DEF420EE18F0A55166
:1015E000D926A651DA2210EE2EF0CE51E126CF51A7
:1015F000E222DE50E61813E1DE50E61810E1DE507C
:10160000E6180DE1DE50E618D8A409D0CEC51CF5C9
:10161000CFC51DF577ECBCF00009D8A45AD1CEC5D2
:1016200012F5CFC513F5050120EE14F0A551D9260A
:10163000A651DA22DEC414F5DEC415F5DEC416F5B3
:10164000DEC417F58CECC8F012C5C4F513C5C5F59A
:1016500014C5C6F515C5C7F50501C451C511C61198
:10166000C711D8B475D7C051C427C151C523000EC6
:10167000C623000EC723A9C5ADF5AAC5AEF5090E50
:10168000AF6FD890AE33AD33AF2FFBD7ADC5C2F53A
:10169000AEC5C3F5C251C311D8B4A6D0C251C0253E
:1016A000AD6FC351C121AE6F20EE0AF0CE51D926E5
:1016B000CF51DA22AD51DE5CAE51DE58D8B010D039
:1016C00020EE0AF0CE51D926CF51DA22DEC4ADF594
:1016D000DDC4AEF5C051AD5DC26FC151AE59C36F2F
:1016E000BEC513F5BFC514F5C4C515F5C5C516F5BA
:1016F000C6C517F5C7C518F5C2C519F5C3C51AF58E
:1017000020EE01F0CE51D926CF51DA22DF5058EC2D
:10171000CCF00009D8A4DDD00501C251AD6FC35192
:10172000AE6FAF6BB06B20EE2EF0CE51D926CF51FD
:10173000DA22DEC4B1F5DEC4B2F5DEC4B3F5DEC430
:10174000B4F5C451B15DB56FC551B259B66FC6514C
:10175000B359B76FC751B459B86FAD51B55DAE51FC
:10176000B659AF51B759B051B859D8B02ED0320E82
:10177000CE25066E000ECF21076E20EE2EF0CE5144
:10178000D926CF51DA22DEC4ADF5DDC4AEF5C451A1
:10179000AD5FC551AE5B090ED890AD37AE37E82EC0
:1017A000FBD7AD51BE25086EAE51BF21096E020EAA
:1017B0000B6E000E0A6EDBECD4F0050120EE04F097
:1017C000CE51D926CF51DA22DF6AC2C5ADF5C3C5E5
:1017D000AEF5090ED890AD37AE37E82EFBD7ADC5C4
:1017E000C8F5AEC5C9F5A7D020EE0AF0A551D92697
:1017F000A651DA2210EE10F0A551E126A651E22200
:10180000DE50E65CDE50E658DE50E658DE50E65824
:10181000D8A018D0CEC51CF5CFC51DF577ECBCF00F
:101820000009D8A456D0050120EE2EF0CE51D926BD
:10183000CF51DA22C4C5DEF4C5C5DEF4C6C5DEF478
:10184000C7C5DEF420EE18F0A551D926A651DA223C
:10185000C4C5DEF4C5C5DEF4C6C5DEF4C7C5DEF416
:1018600020EE10F0A551D926A651DA22DEC4ADF53E
:10187000DDC4AEF5FF0EAD15AF6F010EAE15B06F46
:10188000AF510008C86FB051D8A0E82A0208C96F4C
:10189000C851A95DC951AA59D8B004D0A9C5C8F585
:1018A000AAC5C9F5CEC560F5CFC561F520EE18F023
:1018B000A551D926A651DA22DEC462F5DEC463F54D
:1018C000DEC464F5DEC465F559ECCAF00009D8B48D
:1018D00002D0050150D6050120EE10F0A551D92601
:1018E000A651DA22DEC4ADF5DDC4AEF5FF0EAD15AE
:1018F000AF6F010EAE15B06FAF51CE25B16FB051C5
:10190000CF21B26F320EB125066E000EB221076EE6
:10191000BEC508F5BFC509F5C8C50AF5C9C50BF5AB
:10192000DBECD4F0050120EE04F0CE51D926CF51E6
:10193000DA22010EDF6EC851A95FC951AA5BABC59F
:10194000D9F4ACC5DAF4C851DE26C951DD22C8513C
:10195000BE27C951BF2320EE10F0A551D926A651AC
:10196000DA22C851DE26C951DE22000EDE22DE2236
:1019700020EE10F0A551D926A651DA2210EE0AF079
:10198000A551E126A651E222DE50E65CDE50E65883
:10199000DE50E658DE50E658D8A003D020EE0AF01C
:1019A00002D020EE10F0A551D926A651DA22DEC4CD
:1019B000B9F5DEC4BAF5DEC4BBF5DEC4BCF520EE75
:1019C0000AF0A551D926A651DA22B9C5DEF4BAC566
:1019D000DEF4BBC5DEF4BCC5DEF4EED420EE0EF0C2
:1019E000A551D926A651DA22000EDB8C000E12007A
:1019F0000501EE51EF11D8A402D0090E12003F0EDE
:101A0000F217F00E936F050E946FA10E956F060EF0
:101A1000966FF2C597F5F0EC84F00601A36FA35121
:101A2000D8A4E7D2A1C6A4F6A2C6A5F6A40E0501C5
:101A3000CC6F060ECD6FF0C5CEF5F1C5CFF521EC1C
:101A4000B7F00601A36FA351D8B4CBAF02D0060EF6
:101A5000A36FF2C5F3F51C0E0501F317D8B4F5D04A
:101A60000601A351D8B410D0040EA319D8A409D0EC
:101A7000A40E0501CC6F060ECD6F85ECA3F0060118
:101A8000A36F0501F2870ED0A8C6F3F5110E05016C
:101A9000F317D8B402D0070E03D0F2A503D0080E76
:101AA0000601A36F0601A351D8A4DFD00501F2A758
:101AB000DCD00E0E0601BE25066E000EBF21076E9D
:101AC000000E086E000E096E210E0A6E540E0B6E8B
:101AD0006DECD1F0160E0601BE25066E000EBF217C
:101AE000076E000E086E000E096E210E0A6E540E6F
:101AF0000B6E6DECD1F0A1C60DF5A2C60EF5BEC6FB
:101B00000FF5BFC610F58CECD0F00DC591F60EC5E3
:101B100092F60FC593F610C594F6060120EE0BF071
:101B2000BE51D926BF51DA22200EDF6EA1C60AF5BA
:101B3000A2C60BF5BEC60CF5BFC60DF5000E0E6EA7
:101B4000000E0F6E000E106E000E116E62ECD5F0DE
:101B50001C0E0601BE25066E000EBF21076E000E8C
:101B6000086E000E096E000E0A6E000E0B6E6DEC14
:101B7000D1F0060120EE04F0A151D926A251DA22BB
:101B8000010EDF6E9151921193119411D8B46DD062
:101B900020EE2EF0A151D926A251DA22DEC495F60C
:101BA000DEC496F6DEC497F6DEC498F6A40E0501F0
:101BB000886F060E896F91C68AF592C68BF593C61B
:101BC0008CF594C68DF5000E8E6F000E8F6F000E93
:101BD000906F000E916F6BECB5F00601A36FA351EF
:101BE000D8A443D0A1C660F5A2C661F595C662F53A
:101BF00096C663F597C664F598C665F559ECCAF0C4
:101C00000601A36FFF0E91250501F36FFF0E06017C
:101C100092210501F46FFF0E060193210501F56F76
:101C2000FF0E060194210501F66F060120EE0EF06D
:101C3000A151D926A251DA22F3C5DEF4F4C5DEF4AF
:101C4000F5C5DEF4F6C5DEF410D00601A351D8A424
:101C50000CD0A8A902D0040E07D00501F2A305D02C
:101C60000601A8A102D0070EA36F0601A351D8A4B4
:101C700023D00501F2B7F28D060120EE2EF0A1511E
:101C8000D926A251DA22050110EE1CF0EE51E12610
:101C9000EF51E222DEC4E6F4DEC4E6F4DEC4E6F48C
:101CA000DEC4E6F420EE20F0EE51D926EF51DA2220
:101CB000BEC6DEF4BFC6DDF40601A351D8A499D197
:101CC000A1C60DF5A2C60EF5BEC60FF5BFC610F52E
:101CD0008CECD0F0050120EE06F0EE51D926EF5144
:101CE000DA220DC5DEF40EC5DEF40FC5DEF410C534
:101CF000DEF41C0E0601BE25066E000EBF21076E27
:101D00004CECC9F0050120EE0AF0EE51D926EF5156
:101D1000DA2206C5DEF407C5DEF408C5DEF409C51F
:101D2000DEF420EE22F0EE51D926EF51DA22DE6AFF
:101D3000DD6AEEC5D9F4EFC5DAF4A1C6DEF4A2C6B9
:101D4000DDF4060120EE06F0A151D926A251DA22D7
:101D5000050110EE02F0EE51E126EF51E222DEC461
:101D6000E6F4DDC4E5F420EE0EF0EE51D926EF5195
:101D7000DA22F2C5DFF420EE0FF0EE51D926EF5152
:101D8000DA22DF6A20EE18F0EE51D926EF51DA227E
:101D9000DE6ADE6ADE6ADD6A20EE10F0EE51D926D8
:101DA000EF51DA22DE6ADE6ADE6ADD6AF2AB21D149
:101DB00020EE0AF0EE51D926EF51DA22DE50DE1085
:101DC000DE10DE10D8B415D120EE0AF0EE51D9267F
:101DD000EF51DA2210EE10F0EE51E126EF51E2223F
:101DE000DEC4E6F4DEC4E6F4DEC4E6F4DEC4E6F403
:101DF000060120EE0AF0A151D926A251DA22DEC452
:101E0000F3F5DDC4F4F50501F351F56FF451F66F08
:101E1000F76BF86B090ED890F537F637F737F837C8
:101E2000E82EF9D7F5C58DF6F6C58EF6F7C58FF60F
:101E3000F8C590F620EE06F0EE51D926EF51DA22E1
:101E4000DEC49DF6DEC49EF6DEC49FF6DEC4A0F6B8
:101E500020EE0AF0EE51D926EF51DA22DEC499F6CF
:101E6000DEC49AF6DEC49BF6DEC49CF634D0EEC522
:101E700067F5EFC568F59DC669F59EC66AF59FC60C
:101E80006BF5A0C66CF542ECA5F067C59DF668C57C
:101E90009EF669C59FF66AC5A0F60601A0519F117E
:101EA0009E1106E1020E9D5DD8B002D0020EA36F16
:101EB0009D2909E19E2907E19F2905E1A029D8A4D0
:101EC00002D0010EA36F8D51995F8E519A5B8F5195
:101ED0009B5B90519C5B0601A351D8A40AD09951F9
:101EE0008D5D9A518E599B518F599C519059D8A014
:101EF000BED7050120EE14F0EE51D926EF51DA22BB
:101F00009DC6DEF49EC6DEF49FC6DEF4A0C6DEF4F7
:101F10000601A351D8A46DD0FF0E99150501F36FEA
:101F2000010E06019A150501F46F000E06019B15BE
:101F30000501F56F000E06019C150501F66FF351C2
:101F4000F411F511F611D8B454D0A1C612F5A2C6F9
:101F500013F59DC614F59EC615F59FC616F5A0C6C9
:101F600017F58CECC8F012C595F613C596F614C596
:101F700097F615C598F60601955196119711981187
:101F8000D8A403D0020EA36F34D099C6F3F59AC635
:101F9000F4F59BC6F5F59CC6F6F50A0E06D00501CC
:101FA000D890F633F533F433F333E82EF8D706013F
:101FB00095510501F325F76F060196510501F421AE
:101FC000F86F060197510501F521F96F0601985147
:101FD0000501F621FA6F20EE18F0EE51D926EF51E7
:101FE000DA22F7C5DEF4F8C5DEF4F9C5DEF4FAC589
:101FF000DEF40601A351D8B406D0EEC5D9F4EFC57E
:10200000DAF4DE6ADD6AA351120083C59AF584C54D
:102010009BF587C5D9F488C5DAF4DE6ADD6A81C527
:1020200007F582C508F5AA0E096E050E0A6EECECDE
:10203000C8F00501996F9951D8A40BD020EE0FF08C
:102040008151D9268251DA22DF50996F9951D8B443
:1020500002D09951120020EE0EF08151D926825102
:10206000DA22DFB002D0070E120020EE10F081510C
:10207000D9268251DA22DEC489F5DEC48AF5DEC4AF
:102080008BF5DEC48CF520EE0AF08151D926825101
:10209000DA22DEC48DF5DEC48EF5DEC48FF5DEC433
:1020A00090F589518D5D956F8A518E59966F8B5140
:1020B0008F59976F8C519059986F8551896F8651C0
:1020C0008A6F8B6B8C6B8951955D8A5196598B51B8
:1020D00097598C519859D8B004D095C585F596C5B7
:1020E00086F585518611D8B450D220EE10F081517A
:1020F000D9268251DA22FF0EDE14896F010EDE141A
:102100008A6F000EDE148B6F000EDE148C6F895107
:102110008A118B118C11D8A4B7D120EE10F0815107
:10212000D9268251DA22DEC489F5DEC48AF5DEC4FE
:102130008BF5DEC48CF50A0E05D0D8908C338B332A
:102140008A338933E82EF9D720EE0AF0AA51D9262E
:10215000AB51DA22DEC48DF5DDC48EF5FF0E8D2580
:102160008F6FFF0E8E21906F89518F15A06F8A514E
:102170009015A16FA051A111D8A492D020EE10F01B
:102180008151D9268251DA22DE50DE10DE10DE10B7
:10219000D8A40FD020EE06F08151D9268251DA2240
:1021A000DEC49CF5DEC49DF5DEC49EF5DEC49FF55D
:1021B00043D020EE22F08151D9268251DA22DE501E
:1021C000DE10D8B41DD081C513F582C514F520EEFC
:1021D00010F08151D9268251DA22DEC415F5DEC411
:1021E00016F5DEC417F5DEC418F51BECC1F013C5F7
:1021F0009CF514C59DF515C59EF516C59FF51CD01B
:1022000081C567F582C568F520EE14F08151D926A5
:102210008251DA22DEC469F5DEC46AF5DEC46BF5EC
:10222000DEC46CF542ECA5F067C59CF568C59DF56C
:1022300069C59EF56AC59FF505019F519E119D11C7
:102240000EE1020E9C5DD8B00AD020EE0FF0815155
:10225000D9268251DA22020EDF6E020E12009C296C
:1022600011E19D290FE19E290DE19F29D8A40AD0F3
:1022700020EE0FF08151D9268251DA22010EDF6E55
:10228000010E120020EE14F08151D9268251DA227B
:102290009CC5DEF49DC5DEF49EC5DEF49FC5DEF46C
:1022A000AAC512F5ABC513F520EE14F08151D9265D
:1022B0008251DA22DEC414F5DEC415F5DEC416F54B
:1022C000DEC417F58CECC8F012C5A2F513C5A3F552
:1022D00014C5A4F515C5A5F50501A251A311A411B6
:1022E000A511D8B4B2D7A051A227A151A323000EA3
:1022F000A423000EA52385C589F586C58AF5090E98
:102300008B6FD8908A3389338B2FFBD789C5A6F57D
:102310008AC5A7F5A651A711D8B4A8D0A651A02563
:10232000896FA751A1218A6F20EE0AF0AA51D92600
:10233000AB51DA228951DE5C8A51DE58D8B010D018
:1023400020EE0AF0AA51D926AB51DA22DEC489F573
:10235000DDC48AF5A051895DA66FA1518A59A76F86
:102360009AC513F59BC514F5A2C515F5A3C516F5B9
:10237000A4C517F5A5C518F5A6C519F5A7C51AF57D
:1023800020EE01F0AA51D926AB51DA22DF5042ECFF
:10239000CDF00009D8A4B1D0050120EE04F0AA5177
:1023A000D926AB51DA22DF50D8B450D0A651896F6C
:1023B000A7518A6F8B6B8C6B20EE2EF0AA51D92619
:1023C000AB51DA22DEC48DF5DEC48EF5DEC48FF5A6
:1023D000DEC490F5A2518D5D916FA3518E59926F1D
:1023E000A4518F59936FA5519059946F8951915D64
:1023F0008A5192598B5193598C519459D8B026D007
:1024000020EE2EF0AA51D926AB51DA22DEC489F58E
:10241000DDC48AF5A251895FA3518A5B090ED89069
:1024200089378A37E82EFBD789519A25066E8A515B
:102430009B21076E320EAA25086E000EAB21096E95
:10244000020E0B6E000E0A6EDBECD4F0A6C589F509
:10245000A7C58AF5090ED890050189378A37E82E75
:10246000FAD789C5A8F58AC5A9F570D020EE18F06D
:102470008151D9268251DA22A2C5DEF4A3C5DEF449
:10248000A4C5DEF4A5C5DEF420EE10F08151D926F6
:102490008251DA22DEC489F5DDC48AF5FF0E891582
:1024A0008B6F010E8A158C6F8B510008A86F8C51B1
:1024B000D8A0E82A0208A96FA851855DA9518659BC
:1024C000D8B004D085C5A8F586C5A9F5AAC560F51C
:1024D000ABC561F520EE18F08151D9268251DA2280
:1024E000DEC462F5DEC463F5DEC464F5DEC465F502
:1024F00059ECCAF00009D8B402D00501B9D69AC582
:1025000006F59BC507F5050120EE10F08151D9268F
:102510008251DA22DEC489F5DDC48AF5FF0E891501
:102520008B6F010E8A158C6F8B51AA258D6F8C5184
:10253000AB218E6F320E8D25086E000E8E21096E36
:10254000A8C50AF5A9C50BF5DBECD4F00501A85127
:10255000855FA951865B87C5D9F488C5DAF4A8518F
:10256000DE26A951DD22A8519A27A9519B2320EEEE
:1025700010F08151D9268251DA22A851DE26A951C4
:10258000DE22000EDE22DE22ACD5000E120025C5B2
:10259000D9F426C5DAF4DEC46CF5DDC46DF523C5C7
:1025A000D9F424C5DAF410EE0CF0DE50E126DD504B
:1025B000E222E6C46EF5E5C46FF5000E0501736F07
:1025C000000E726F6C0E146E050E156E78ECC5F071
:1025D00014C562F515C563F516C564F517C565F52F
:1025E0000501622909E1632907E1642905E16529FB
:1025F000D8A402D0060E1200655103E16405D8A0EC
:102600000FD0D8907235D96E7335DA6E6E51D926E7
:102610006F51DA2264C5DEF465C5DDF4724B732BAD
:1026200062C574F563C575F5755104E1200E745DDE
:10263000D8A035D02F0E74197511D8B430D05C0ED7
:1026400074197511D8B42BD0755112E1800E745DD8
:10265000D8B00ED0E60E066EFF0E076E74C508F5F4
:1026600075C509F5B9ECD4F006500710D8A4C2D747
:1026700005017351BFE1170E725DD8B0BBD7D8907A
:102680007235D96E7335DA6E6E51D9266F51DA22F2
:1026900074C5DEF475C5DDF4724B732B93D7755199
:1026A0000AE1200E745DD8B006D0040E6B6F4CD0DA
:1026B00005016C4B6D2B6CC5F6F46DC5F7F4000E7F
:1026C000F86E360EF76403D00800F55005D0F6C456
:1026D000E9F4F7C4EAF4EF502F0AD8B4E9D76CC58F
:1026E000F6F46DC5F7F4000EF86E360EF76403D0FD
:1026F0000800F55005D0F6C4E9F4F7C4EAF4EF5049
:102700005C0AD8B4D5D7000E05016B6F000E616F5F
:10271000200E606F6CC5F6F46DC5F7F4000EF86E10
:10272000360EF76403D00800F55005D0F6C4E9F47E
:10273000F7C4EAF4EF50276E286A05016051275C60
:1027400061512858D8A0B1D725C5D9F426C5DAF4E7
:102750006CC5DEF46DC5DDF424D072C527F573C5F4
:1027600028F5D8902736283627506E25296E285010
:102770006F212A6EFE0E2924D96EFF0E2A20DA6EF2
:10278000DEC474F5DDC475F5200E74197511D8B466
:1027900005D02E0E74197511D8A407D07207D8A0D1
:1027A000730772517311D8A4D8D7D8907235D96EE7
:1027B0007335DA6E6E51D9266F51DA22DE6ADD6A20
:1027C00072517311D8B416D7000E716F000E706F6E
:1027D00002D0704B712BD8907035D96E7135DA6E8E
:1027E0006E51D9266F51DA22200EDE18DE10D8B4D1
:1027F000F0D770517111D8A40ED0D8907035D96E21
:102800007135DA6E6E51D9266F51DA222E0EDE182E
:10281000DE10D8A406D0030E6B1303D07207D8A025
:10282000730772517311D8B418D072C527F573C5E8
:1028300028F5D8902736283627506E25296E28503F
:102840006F212A6EFE0E2924D96EFF0E2A20DA6E21
:102850002E0EDE18DE10D8A4E1D71C0E2324066E3F
:10286000000E2420076E000E096E200E086E000E6A
:102870000B6E0B0E0A6E44ECD7F0000E05016A6F6A
:102880006AC566F5676B000E696F080E686FD890B1
:102890007035D96E7135DA6E6E51D9266F51DA22E4
:1028A000DEC474F5DDC475F5704B712B7451751170
:1028B000D8B4E6D0200E74197511D8B40CD02E0EF1
:1028C00074197511D8A40AD07251701904E17351AA
:1028D0007119D8B403D0030E6B13D9D76851665D54
:1028E00069516759D8B007D0725170192CE17351F2
:1028F0007119D8A428D00B0E68196911D8A403D077
:10290000030E6B13BDD07251701904E1735171192C
:10291000D8B402D0030E6B137051725D71517359AC
:10292000D8A0AED072C570F573C571F5000E676F93
:10293000080E666F000E696F0B0E686FD8906A37CD
:10294000D8906A37A4D7755104E1800E745DD8A081
:1029500027D06B8374C506F575C507F5086A096A43
:10296000010E0B6EB50E0A6EA8ECC9F006C574F523
:1029700007C575F5050174AF13D07F0E7415276E6A
:10298000000E7515286EFB0E2724F66EFA0E282011
:10299000F76EF86A000EF8220800F550746F756B38
:1029A0007505D8A024D0FF0E6825276EFF0E69217B
:1029B000286E2750665D28506759D8A007D0030EAF
:1029C0006B1368C566F569C567F561D76651232441
:1029D000276E67512420286E1C0E2724D96E000E06
:1029E0002820DA6E7551DF6E664B672B38D0745134
:1029F0007511D8B40ED0F70E066EFF0E076E74C5B3
:102A000008F575C509F5B9ECD4F006500710D8B42F
:102A100008D0000E0501756F5F0E746F030E6B1307
:102A20001ED00501755104E1410E745DD8A006D099
:102A3000755104E15B0E745DD8A06A83755104E1A1
:102A4000610E745DD8A00BD0755109E17B0E745DE9
:102A5000D8B005D06A81200E745F000E755B665198
:102A60002324276E67512420286E1C0E2724D96E3C
:102A7000000E2820DA6E74C5DFF4664B672B07D78B
:102A800020EE1CF02350D9262450DA22E50EDE1861
:102A9000D8A408D020EE1CF02350D9262450DA22E6
:102AA000050EDF6E080E68196911D8A404D0D890FD
:102AB0006A37D8906A376A510C0B0C0AD8B404D024
:102AC0006A51030B030AD8B46B836BB304D06AB1A9
:102AD0006B896AB56B8720EE27F02350D9262450E6
:102AE000DA226BC5DFF4000E12000601996F0601B1
:102AF0009951240DCB0EF324A56F0E0EF420A66F72
:102B000020EE06F0A551D926A651DA22DE500501A5
:102B1000FB5DD8A002D0010E01D0000E0601A16F0E
:102B2000A151D8B409D020EE06F0A551D926A6515E
:102B3000DA22DF500501FB5F060120EE02F0A5510D
:102B4000D926A651DA220501FA51DE18D8A40BD0F5
:102B5000060120EE03F0A551D926A651DA22A15193
:102B6000DE18D8B40FD0FAC5ECF5A1C6EDF5060114
:102B7000995106ECBBF00501EC510601AA6FAA5170
:102B8000D8A42FD2000EA26F000EA225D96EDA6A49
:102B9000080EDA22DF508D6F010EA225D96EDA6A97
:102BA000080EDA22DF508E6F8D51A36F8EC6A4F609
:102BB000A351A411D8B415D2A4AF02D0010E01D0F4
:102BC000000E9A6FFF0EA3173F0EA41720EE05F01C
:102BD000A551D926A651DA22DF50D8A407D09A51A0
:102BE000D8A404D0000E946F020E03D0000E946F90
:102BF000010E936F93C6ACF6350E0501A56F060E58
:102C0000A66F060120EE07F0A551D926A651DA22BB
:102C1000DEC48DF6DEC48EF6DEC48FF6DEC490F61A
:102C2000A3518D250501A76F0601A4518E21050131
:102C3000A86F000E06018F210501A96F000E060185
:102C400090210501AA6F00EC80F00601AA6FAA513D
:102C5000D8A415D0350E0501816F060E826F000EC7
:102C6000836F070E846F000E866F0E0E856FA80EA1
:102C7000876F060E886F05EC90F00601AA6FAA51C7
:102C8000D8A4AFD1A95104E10E0EA85DD8A0A9D156
:102C9000000EA76F000EA725D96EDA6A070EDA229A
:102CA000FE0EDE18D8A497D1AC51A727000EA72599
:102CB000D96EDA6A070EDA220501FA51DE18D8A4B5
:102CC0008AD10601AC51A727000EA725D96EDA6A72
:102CD000070EDA22DF50010BA119D8A47CD1AC5128
:102CE000A727000EA725D96EDA6A070EDA2205019A
:102CF000FB51DE18D8A46FD10601AC51A727AC5107
:102D0000A727AC51A727AC51A7279A51D8A404D024
:102D1000000E966F1E0E03D0000E966F2B0E956F51
:102D200095C69FF6AC519F03F3509F6F350E05017A
:102D3000A56F060EA66F060120EE07F0A551D92655
:102D4000A651DA22DEC48DF6DEC48EF6DEC48FF61E
:102D5000DEC490F6A751A325916F000EA421926FB7
:102D600091518D250501A76F060192518E21050114
:102D7000A86F000E06018F210501A96F000E060144
:102D800090210501AA6F00EC80F00601AA6FAA51FC
:102D9000D8A414D0350E0501816F060E826F000E87
:102DA000836F070E846F9FC685F5866BA80E876FAD
:102DB000060E886F05EC90F00601AA6FAA51D8A400
:102DC00010D19F51A85D000EA959D8A00AD1A069C1
:102DD000000EAB6F1DD0000EAB25D96EDA6A070E60
:102DE000DA22F70EDF6412D0000EAB25D96EDA6A54
:102DF000070EDA22FC0EDF6009D0000EAB25D96E7B
:102E0000DA6A070EDA22DF50A06F06D0AC51AB278A
:102E10009F51AB5DD8A0DFD7A029D8B4E2D0AC5188
:102E2000AB27350E0501A56F060EA66F060120EE35
:102E300007F0A551D926A651DA22DEC48DF6DEC4EC
:102E40008EF6DEC48FF6DEC490F6AB51A7C691F6BF
:102E5000926B9127000E9223A3519127A4519223A4
:102E600091518D250501A76F060192518E21050113
:102E7000A86F000E06018F210501A96F000E060143
:102E800090210501AA6F00EC80F00601AA6FAA51FB
:102E9000D8A4A7D0AC05D8A414D0350E0501816FF5
:102EA000060E826F000E836F070E846F010E866F11
:102EB000000E856FA80E876F060E886F05EC90F0E8
:102EC00072D0000E9B6F070E9C6F350E0501816F4F
:102ED000060E826FB20E836F0C0E846F010E866F2A
:102EE000000E856FA80E876F060E886F05EC90F0B8
:102EF0000601AA6FAA51D8A474D0A905D8A071D090
:102F0000B20E9D6F0C0E9E6F000EAB6F7F0EAB6509
:102F100001D012D09DC6D9F49EC6DAF49BC6E1F466
:102F20009CC6E2F4DFC4E7F49D4B9E2B9B4B9C2B8D
:102F30009D4B9E2BAB2BEAD7350E0501816F060EFC
:102F4000826FB20E836F0C0E846F010E866F000EBF
:102F5000856FA80E876F060E886F05EC90F006014E
:102F6000AA6FAA51D8A43DD0A905D8A03AD0B20ED4
:102F70009D6F0C0E9E6F000EAB6F7F0EAB6501D088
:102F800012D09DC6D9F49EC6DAF49BC6E1F49CC665
:102F9000E2F4DFC4E7F49D4B9E2B9B4B9C2B9D4B97
:102FA0009E2BAB2BEAD7F80E0601A019D8B408D097
:102FB000FA0EA019D8B404D0000E986F000E03D0FA
:102FC000000E986F060E976F97C645F5010E3A6E84
:102FD000000E396E1200020E0601A2273F0EA265F6
:102FE000D3D5050E456E1200CE505E6216D0C96A6A
:102FF000BF86CFA2FED7B490C968BF96B1A0FED756
:10300000600000F241F50001010E826FFF0E816F3A
:10301000610004F5C1F43D8E1100B49052667BD07E
:103020005E2808E0B1A0FED7600000F240F5BE8A3D
:10303000FF0E5E6ECE501F0B5D6206D0D1380F0BB7
:10304000486E356A366A1F0F84EC98F093EF98F05B
:103050009DEF98F077EF99F0E9EF98F04CEF9AF048
:10306000E5EF98F0FBEF98F0F1EF98F098EF98F01B
:10307000D6EF98F0DBEF98F0EDEF98F0D1EF98F005
:10308000E0EF98F0FBEF98F066EF99F066EF99F0BB
:1030900016EF99F032EF9AF0ACEF99F041EF99F01A
:1030A000A4EF99F04AEF9AF0B4EF99F0FCEF98F0A2
:1030B00066EF99F044EF9AF0B0EF99F0D9EF99F0FC
:1030C000A8EF99F04AEF9AF066EF99F0DFEF99F0E8
:1030D000EAEF99F0F7EF99F010EF9AF01DEF9AF000
:1030E0001DEF9AF010EF9AF01DEF9AF027EF9AF08B
:1030F0001DEF9AF01DEF9AF01DEF9AF01DEF9AF078
:103100001DEF9AF01DEF9AF0E844E844FD26E86AC6
:10311000FE22FF221200CEB866EF99F0610044F55E
:10312000C1F465EF99F0610024F5C1F465EF99F001
:1031300061003CF5C1F465EF99F06100A4F300F083
:103140006100A8F301F003EEB2F03550E9263650E5
:10315000EA22EFC4C1F4354A362A3550335C02E026
:103160005FEF99F03650345C02E05FEF99F00001B8
:10317000030E866F010E826F500E816F516E5AEFF3
:1031800099F06100A4F300F06100A8F301F001EEF2
:1031900000F3610010F5E9F4442AEFC4C1F45FEFD5
:1031A00099F06100E4F4C1F465EF99F0610038F53D
:1031B000C1F465EF99F0610014F5C1F465EF99F081
:1031C000610030F5C1F465EF99F0610034F5C1F4A8
:1031D0007CD06100DCF4C1F478D06100E0F4C1F48B
:1031E00074D04744E8383E6E4B44E844E8444A1003
:1031F0003E10C16E6AD06AD0D1504F6EE8B666D02C
:1032000050660BD00001030E866F010E826F510EC7
:10321000816F516E100E4E6E5FD00001030E866FEF
:10322000010E826F500E816F516F56D04850030AC5
:103230004DE16100A4F300F06100A8F301F003EE9A
:10324000B2F03550E9263650EA22D1C4EFF46000DE
:1032500000F0E9F4600004F0EAF4354A362A35500B
:10326000335C34E13650345C31E10001030E866F8B
:10327000010E826F820E816F516E030E546E558463
:103280002BD06100A4F300F06100A8F301F001EE7F
:1032900000F3610010F5E9F4D1C4EFF4600000F030
:1032A000E9F4600004F0EAF4442A395044620ED094
:1032B000400EDDD0B1A0FED7C0808051C09060002C
:1032C00000F0E9F4600004F0EAF4C96ABF86CFA216
:1032D000FED7C968BF961100B1A0FED7C080BF86D7
:1032E000CFA2FED7C9688051C090BF961100020ED0
:1032F000436204D0610008F5C1F424D06100D8F322
:1033000000F06100DCF301F06100E0F302F0610025
:10331000D4F33EF5000E4324F66EF76A000EF72252
:10332000F86A380EF8220800F550C16E600000F00F
:10333000F6F4600004F0F7F4600008F0F8F46100BF
:10334000F8F4F5F4432AC1D7610044F34DF5BED734
:10335000610044F34CF5BAD7610044F337F5B6D7B2
:10336000D150030B386EB2D70001030E866F010EE9
:10337000826F500E816F516E336A346AD140E838E3
:10338000030B476E02E1342A0CD0010A03E1020E5E
:10339000346E07D0030A03E1040E346E02D0800EAF
:1033A000336ED144E838030B4B6ED150070B4A6E95
:1033B00093D73A6AD150396E89E13A2A87D700010A
:1033C000030E866F010E826F500E816F516E376A49
:1033D000386A82D70001030E866F010E826F820E5B
:1033E000816F516E020E546E55846CEF99F0D1507E
:1033F000040B0AE10001030E866F010E826F580E66
:10340000816F516E6CEF99F00001030E866F010E13
:10341000826F510E816F516E040E4E6E6CEF99F0FB
:103420000001030E866F010E826F820E816F516E56
:10343000010E546E55846CEF99F00001030E866FF7
:10344000010E826F500E816F516E6CEF99F04E6AD3
:103450000001030E866F010E826F400E816F516E68
:103460006CEF99F0610044F346F5446A800E461013
:10347000546E0001030E866F010E826F820E816F03
:10348000516E55846CEF99F0610044F342F5436A44
:1034900066EF99F066EF99F03FA073D6610004F5EE
:1034A000C1F4C96ABF86CE501F0B5E6ECFA2FED795
:1034B000B490C968BF96BE9A0001020E896F610080
:1034C00000F541F5030E866F010E826FFF0E816FCE
:1034D000610004F5C1F43D8E11000501726F14C541
:1034E00060F515C561F505017251D8B402D0040E1E
:1034F00012005FA002D0030E1200010E776F2CD2D3
:10350000BE9A31ECD8F0FF0AD8A443D2000E0501D0
:1035100021D2000E0E6E000E0F6E000E106E000E09
:10352000116E490E1FECD5F00009D8A432D2620EFC
:103530000A6E050E0B6E000E0D6E100E0C6E4CEC2E
:10354000CFF00009D8B425D205016245E846030B47
:10355000E806D8A448D069C516F53F0E161616C55C
:1035600017F5186A196A1A6A18C51AF517C519F5F0
:10357000186A176A6A511C6E6B511B6E1B50172418
:103580001D6E1C5018201E6E000E19201F6E000E9E
:103590001A20206E010E1D24736F000E1E20746F02
:1035A000000E1F20756F000E2020766F73C516F574
:1035B00074C517F575C518F576C519F50A0ED890B6
:1035C0001636173618361936E82EF9D714C5D9F439
:1035D00015C5DAF416C5DEF417C5DEF418C5DEF439
:1035E00019C5DEF493D7166A6CAF01D0162A010E06
:1035F000161667C517F50F0E17166B51030B020D44
:10360000F35017241624020F786F6851030B166EBF
:10361000176A0A0ED89016361736E82EFBD769516E
:10362000186E196AD89018361936D8901836193687
:103630006AC51AF5060E1B6ED8901A321B2EFCD7DF
:103640001A5018241C6E000E19201D6E16501C24D2
:103650001E6E17501D201F6E010E1E26000E1F220B
:103660001EC573F51FC574F5756B766B78C516F5B9
:10367000F70E162673C517F574C518F575C519F537
:1036800076C51AF5162A05D0D89017361836193689
:103690001A36162EF9D748D014C5D9F415C5DAF460
:1036A000000EDE6E020EDD6E31D759A44AD0000E38
:1036B0000E6E000E0F6E000E106E000E116ECD0E0F
:1036C0001FECD5F00009D8A464D1FF0E91ECD8F01E
:1036D000620E0A6E050E0B6E000E0D6E100E0C6E55
:1036E0004CECCFF00009D8B454D1300E0501786FFE
:1036F00005D0FF0E91ECD8F0050178077851D8A4D9
:10370000F8D76CC516F5163A0F0E1616100E176E72
:10371000186A196A1A6A162A05D0D8901736183608
:1037200019361A36162EF9D714C5D9F415C5DAF498
:1037300017C5DEF418C5DEF419C5DEF41AC5DEF4CB
:10374000E5D6000E0E6E000E0F6E000E106E000E0F
:10375000116E490E1FECD5F00009D8A41AD1620EE3
:103760000A6E050E0B6E000E0D6E100E0C6E4CECFC
:10377000CFF00009D8B40DD159A22BD06FC516F5E2
:10378000060E176ED8901632172EFCD7FF0E16268F
:1037900005016C513F0B186E196AD890183619360E
:1037A0001A6A6DAF01D01A2A010E1A161A5018267D
:1037B000000E1922010E1826000E1922162A03D017
:1037C000D89018361936162EFBD718501B6E195084
:1037D00035D06CC516F5D8901632D89016321F0E1B
:1037E0001616010E1624066E076A000E0722050142
:1037F0006D51030B176E186AD89017361836D8908B
:1038000017361836D890173618366DC519F5050EC7
:103810001A6ED89019321A2EFCD7070E19161950A5
:103820001726000E1822010E1724086E000E18200D
:10383000096ED5ECD7F006501B6E07501C6E1D6A42
:103840001E6A14C5D9F415C5DAF41BC5DEF41CC50F
:10385000DEF41DC5DEF41EC5DEF458D660C5D9F40D
:1038600061C5DAF459C5DFF451D6000E0E6E000EB4
:103870000F6E000E106E000E116E490E1FECD5F08B
:103880000009D8A486D014C50AF515C50BF5000E9D
:103890000D6E100E0C6E4CECCFF00009D8A436D68D
:1038A00078D0000E0E6E000E0F6E000E106E000E21
:1038B000116E4A0E1FECD5F00009D8A46AD014C5C9
:1038C0000AF515C50BF5000E0D6E100E0C6E4CECC6
:1038D000CFF0E3D7000E0E6E000E0F6E000E106ECE
:1038E000000E116E7A0E1FECD5F00009D8A451D04D
:1038F000000E0501786F78511424D96E000E152042
:10390000DA6EFF0E91ECD8F0DF6E0501782B030E16
:103910007865F1D7FBD559A43CD0000E0E6E000E91
:103920000F6E000E106E000E116ECD0E1FECD5F056
:103930000009D8A42ED0FF0E91ECD8F014C50AF5DA
:1039400015C50BF5000E0D6E400E0C6E4CECCFF055
:10395000A4D7040E776F1DD01350000AD8B4D0D569
:10396000010AD8B4D6D5030AD8B496D6010AD8B479
:103970009CD6090AD8B472D7010AD8B476D7070AF8
:10398000D8B48FD7010AD8B4A5D7030AD8B4C3D7FF
:10399000E0D712ECD9F00501775112001EC5D9F419
:1039A0001FC5DAF4DEC461F5DDC462F520EE16F061
:1039B0002050D9262150DA22DF6A20EE16F01E5060
:1039C000D9261F50DA22DE50DE10DE10DE10D8B409
:1039D000120020EE28F01E50D9261F50DA22DE28D1
:1039E00007E1DE2805E1DE2803E1DE28D8B4A6D011
:1039F000000E05016C6F000E6B6F6BC567F56CC533
:103A000068F56CD020EE0CF06151D9266251DA22B3
:103A1000DEC422F5DDC423F5D8906735D96E68354C
:103A2000DA6E2250D9262350DA22DEC469F5DDC4CD
:103A30006AF5674B682B65516611D8A40DD0D80E76
:103A40006A5DD8A009D0E00E6A5DD8B005D069C51E
:103A500065F56AC566F546D06551226E6651236EDE
:103A6000246A256A23C525F522C524F5236A226A1E
:103A700069512210146E6A512310156E000E241025
:103A8000166E000E2510176E6B512024266E6C5199
:103A90002120276E160E2624186E000E2720196E80
:103AA0006B510601E55D1A6E05016C51D8A06C29B9
:103AB0001B6A1B5EBBECCEF014C563F515C564F53F
:103AC000050163516411D8A405D0000E6C6F000E7F
:103AD0006B6F1FD063516B2764516C23000E666FB0
:103AE000000E656F20EE0CF06151D9266251DA228A
:103AF000DEC422F5DDC423F5D8906735D96E68356C
:103B0000DA6E2250D9262350DA22DE50DE10D8A4F5
:103B100079D765516611D8B404D0000E6C6F000ED1
:103B20006B6F6B512024226E6C512120236E160E78
:103B30002224D96E000E2320DA6EDF6A000E050102
:103B40006C6F000E6B6F6BC567F56CC568F550D078
:103B500020EE1AF01E50D9261F50DA22DEC422F5BC
:103B6000DDC423F567512224D96E68512320DA6E13
:103B7000DF50246E2450696F6A6B674B682B200EF0
:103B800069196A11D8B434D0050E69196A11D8A41C
:103B900004D0000E6A6FE50E696F090E671968118F
:103BA000D8A416D06C5114E10C0E6B5DD8B010D0B7
:103BB0006B512024226E6C512120236E090E222489
:103BC000D96E000E2320DA6E2E0EDF6E6B4B6C2B3F
:103BD0006B512024226E6C512120236E090E222469
:103BE000D96E000E2320DA6E69C5DFF46B4B6C2BA7
:103BF000685104E10B0E675DD8A0AAD76B51202451
:103C0000226E6C512120236E090E2224D96E000EE3
:103C10002320DA6EDF6A20EE16F02050D9262150DC
:103C2000DA22DF50D8A49DD06B516C11D8A411D0EA
:103C30006B512024226E6C512120236E160E2224FB
:103C4000D96E000E2320DA6E3F0EDF6E6B4B6C2BAD
:103C500065D0000E6C6F000E6B6F6BC567F56CC5A1
:103C600068F5080E606F4BD067512024226E6851B2
:103C70002120236E090E2224D96E000E2320DA6E35
:103C8000DF50246E2450696F6A6B2E0E69196A1119
:103C9000D8A402D0100E606F6A5104E1410E695D34
:103CA000D8A01BD06A5119E15B0E695DD8B015D060
:103CB00020EE1AF01E50D9261F50DA2210EE0CF01A
:103CC000DE50E126DD50E222E75060150009D8B44D
:103CD00004D0200E6927000E6A236B512024226E27
:103CE0006C512120236E160E2224D96E000E232043
:103CF000DA6E69C5DFF4674B682B6B4B6C2B675131
:103D00002024226E68512120236E090E2224D96EB0
:103D1000000E2320DA6EDF50D8A4A6D76B512024E2
:103D2000226E6C512120236E160E2224D96E000EB5
:103D30002320DA6EDF6A20EE1AF01E50D9261F50BB
:103D4000DA2210EE0CF0DE50E126DD50E222E750E0
:103D5000D8A407D020EE09F02050D9262150DA222D
:103D6000DF6A20EE08F02050D9262150DA2210EE2A
:103D70001AF01E50E1261F50E22200EE0BF0E65032
:103D8000E926E550EA22EF503F0BDF6E20EE1AF0F5
:103D90001E50D9261F50DA22DEC422F5DDC423F5D9
:103DA0001C0E2224066E000E2320076E4CECC9F078
:103DB00020C5D9F421C5DAF406C5DEF407C5DEF462
:103DC00008C5DEF409C5DEF420EE1AF01E50D9262F
:103DD0001F50DA22DEC422F5DDC423F5160E22249C
:103DE000066E000E2320076E1AECD6F020EE06F0C9
:103DF0002050D9262150DA2206C5DEF407C5DDF4AD
:103E000020EE1AF01E50D9261F50DA22DEC422F509
:103E1000DDC423F5180E2224066E000E2320076E43
:103E20001AECD6F020EE04F02050D9262150DA22E8
:103E300006C5DEF407C5DDF4120088C5D9F489C5CE
:103E4000DAF4DEC49FF5DDC4A0F505018A518B11BB
:103E50008C118D11D8A42DD020EE0EF09F51D926B3
:103E6000A051DA22DEC497F5DEC498F5DEC499F5D8
:103E7000DEC49AF59751981199119A11D8B410D0BF
:103E800020EE16F09F51D926A051DA22DE50975D20
:103E9000DE509859DE509959DE509A59D8A05BD01F
:103EA000010E976F000E986F000E996F000E9A6FBB
:103EB00052D088C567F589C568F58AC569F58BC58F
:103EC0006AF58CC56BF58DC56CF542ECA5F067C540
:103ED000A1F568C5A2F569C5A3F56AC5A4F50501F4
:103EE000A451A311A2110DE1020EA15DD8B009D019
:103EF000010E886F000E896F000E8A6F000E8B6FA7
:103F00001200A12910E1A2290EE1A3290CE1A429A4
:103F1000D8A409D0A1C588F5A2C589F5A3C58AF59D
:103F2000A4C58BF5120020EE16F09F51D926A051A2
:103F3000DA22DE50A15DDE50A259DE50A359DE50D8
:103F4000A459D8A0E7D78AC597F58BC598F58CC535
:103F500099F58DC59AF520EE12F09F51D926A05102
:103F6000DA22DE50DE10DE10DE10D8A409D0000EFA
:103F7000886F000E896F000E8A6F000E8B6F120023
:103F8000000E9B6F000E9C6F000E9D6F000E9E6FCB
:103F90008A51971909E18B51981906E18C519919A9
:103FA00003E18D519A19D8A486D0010E97259B6FF5
:103FB000000E98219C6F000E99219D6F000E9A2192
:103FC0009E6F20EE16F09F51D926A051DA22DE50C6
:103FD0009B5DDE509C59DE509D59DE509E59D8A005
:103FE00008D0020E9B6F000E9C6F000E9D6F000E9E
:103FF0009E6F88C567F589C568F59BC569F59CC541
:104000006AF59DC56BF59EC56CF542ECA5F067C5DC
:10401000A1F568C5A2F569C5A3F56AC5A4F50501B2
:10402000A105A211A311A411D8B474D7A12907E145
:10403000A22905E1A32903E1A429D8B46BD7A15192
:10404000A211A311A411D8B436D020EE0EF09F51C6
:10405000D926A051DA22DEC4A1F5DEC4A2F5DEC461
:10406000A3F5DEC4A4F5A451A311A21104E1020E2C
:10407000A15DD8A018D020EE16F09F51D926A051EE
:10408000DA22DE50A15DDE50A259DE50A359DE5087
:10409000A459D8B008D0A1C597F5A2C598F5A3C575
:1040A00099F5A4C59AF5000E9B6F000E9C6F000E4B
:1040B0009D6F000E9E6F9B519C119D119E11D8A467
:1040C00068D097C59BF598C59CF599C59DF59AC58F
:1040D0009EF5010E9B27000E9C239D239E2320EE20
:1040E00016F09F51D926A051DA22DE509B5DDE509A
:1040F0009C59DE509D59DE509E59D8A010D0020E1A
:104100009B6F000E9C6F000E9D6F000E9E6F9A516C
:104110009911981104E1020E975DD8A028D788C59F
:1041200067F589C568F59BC569F59CC56AF59DC5A8
:104130006BF59EC56CF542ECA5F067C5A1F568C5A9
:10414000A2F569C5A3F56AC5A4F50501A151A2119F
:10415000A311A411D8B41DD0A105A211A311A411BB
:10416000D8B4D8D6A12907E1A22905E1A32903E102
:10417000A429D8B4CFD697519B19ABE198519C197B
:10418000A8E199519D19A5E19A519E19D8B4EFD68D
:10419000A0D79FC567F5A0C568F59BC569F59CC507
:1041A0006AF59DC56BF59EC56CF5FF0E6D6FFF0E34
:1041B0006E6FFF0E6F6FFF0E706F62ECA1F0050166
:1041C000966F9651D8A41ED08A518B118C118D11E7
:1041D000D8B418D09FC567F5A0C568F58AC569F53C
:1041E0008BC56AF58CC56BF58DC56CF59BC56DF5FA
:1041F0009CC56EF59DC56FF59EC570F562ECA1F08E
:104200000501966F9651D8A444D020EE0EF09F5130
:10421000D926A051DA229BC5DEF49CC5DEF49DC5EB
:10422000DEF49EC5DEF420EE12F09F51D926A05197
:10423000DA2210EE16F09F51E126A051E222FE0E86
:10424000E624926FFF0EE620936FFF0EE620946F38
:10425000FF0EE620956FDE50925DDE509359DE50E2
:104260009459DE509559D8A00BD020EE12F09F51F2
:10427000D926A051DA22DE06000EDE5ADE5ADE5AB8
:1042800020EE05F09F51D926A051DA22000EDB80E6
:1042900010D09605D8B409D0010E9B6F000E9C6F0C
:1042A000000E9D6F000E9E6F04D09B699C699D69F6
:1042B0009E699BC588F59CC589F59DC58AF59EC5F7
:1042C0008BF51200020E0501876F6C516B116A119C
:1042D00004E1020E695DD8A016D220EE16F06751F7
:1042E000D9266851DA22DE50695DDE506A59DE5007
:1042F0006B59DE506C59D8A0F8D105D269C585F547
:104300006AC586F5D8908631726F8531716F7151AB
:1043100085277251862367C560F568C561F520EE73
:1043200022F06751D9266851DA22DEC471F5DEC465
:1043300072F5DEC473F5DEC474F585C575F586C502
:1043400076F5090E776FD89076337533772FFBD7D4
:1043500075517125626F76517221636F000E732162
:10436000646F000E7421656F59ECCAF00501876F08
:104370008751D8A4C8D1FF0E8515716F010E86151F
:10438000726F71516725736F72516821746F320EAD
:104390007325836F000E7421846F854B862B69B162
:1043A00004D06DC57FF5806B1AD06D51716F726B43
:1043B000713B723BF00E721771510F0B7213F00EBE
:1043C000711783C5D9F484C5DAF4DF500F0B736F0E
:1043D000746B715173117F6F72517411806F83C54B
:1043E000D9F484C5DAF47FC5DFF420EE04F0675118
:1043F000D9266851DA22010EDF6E67C560F568C5FF
:1044000061F520EE22F06751D9266851DA22DEC428
:1044100071F5DEC472F5DEC473F5DEC474F585C5CE
:1044200075F586C576F5090E776FD89076337533B6
:10443000772FFBD775517125626F76517221636FAB
:10444000000E7321646F000E7421656F59ECCAF081
:104450000501876F8751D8A456D1FF0E8515716F5E
:10446000010E8615726F71516725736F7251682145
:10447000746F320E7325836F000E7421846F69B1DF
:104480001BD06DC571F56EC572F56FC573F570C53E
:1044900074F572C571F573C572F574C573F5746BF7
:1044A0000F0E711783C5D9F484C5DAF4DF50F00B11
:1044B0007111756F755112D06DC571F56EC572F5BC
:1044C0006FC573F570C574F5050E05D0D8907433BB
:1044D000733372337133E82EF9D77151816F826B68
:1044E00083C5D9F484C5DAF481C5DFF454D067C537
:1044F00060F568C561F520EE22F06751D926685154
:10450000DA22DEC471F5DEC472F5DEC473F5DEC4F2
:1045100074F569C575F56AC576F56BC577F56CC533
:1045200078F576C575F577C576F578C577F5786B46
:1045300071517525626F72517621636F73517721C6
:10454000646F74517821656F59ECCAF00501876F6B
:104550008751D8A4D8D069C571F56AC572F5D890CD
:1045600071377237FF0E7115736F010E7215746F0C
:1045700073516725756F74516821766F320E7525FA
:10458000066E000E7621076E6DC508F56EC509F53D
:10459000AEECD7F0A8D020EE04F06751D9266851D0
:1045A000DA22010EDF6EAFD067C560F568C561F530
:1045B00020EE22F06751D9266851DA22DEC471F567
:1045C000DEC472F5DEC473F5DEC474F569C575F535
:1045D0006AC576F56BC577F56CC578F5080E05D01C
:1045E000D8907833773376337533E82EF9D7715115
:1045F0007525626F72517621636F73517721646FF5
:1046000074517821656F59ECCAF00501876F8751A5
:10461000D8A479D069C571F56AC572F5D89071379B
:104620007237D89071377237FF0E7115736F010EA4
:104630007215746F73516725756F74516821766FA9
:10464000320E7525066E000E7621076E4CECC9F011
:10465000000E06140501776F000E0714786F000E28
:104660000814796FF00E09147A6FFF0E6D157B6FC9
:10467000FF0E6E157C6FFF0E6F157D6F0F0E7015A0
:104680007E6F77517B116D6F78517C116E6F795110
:104690007D116F6F7A517E11706F69C571F56AC5B2
:1046A00072F5D89071377237D89071377237FF0E24
:1046B0007115736F010E7215746F73516725756FE5
:1046C00074516821766F320E7525066E000E7621C4
:1046D000076E6DC508F56EC509F56FC50AF570C59D
:1046E0000BF56DECD1F0050156D767C5D9F468C557
:1046F000DAF4DF50010AD8B401D6030AD8B4F7D6E9
:10470000010AD8B451D787511200CCC5D9F4CDC510
:10471000DAF4DEC4EBF5DDC4ECF5050120EE27F09C
:10472000CC51D926CD51DA22DF50CE6FA00ECE1754
:10473000D8B402D0060E1200000EE66F000EE56F30
:1047400002D0E54BE62B20EE0CF0EB51D926EC51D4
:10475000DA22DEC4CEF5DDC4CFF5D890E535D96ECA
:10476000E635DA6ECE51D926CF51DA22DE50DE1090
:10477000D8A4E7D7D80E066E050E076E1C0ECC2502
:10478000086E000ECD21096E000E0B6E0C0E0A6E27
:10479000DBECD4F00501E3A14ED020EE27F0CC51A4
:1047A000D926CD51DA22400EDF6E000EE86F010EE1
:1047B000E76F1C0ECC25116E000ECD21126ED80EA7
:1047C000136E050E146E20EE0CF0EB51D926EC5151
:1047D000DA22DEC415F5DDC416F5E7C517F5E8C520
:1047E00018F5CBECB0F0CCC5BFF5CDC5C0F54DECA0
:1047F000ADF00501ED6FED51D8A408D0E74BE82BE3
:10480000E85104E1640EE75DD8A0D3D7640EE71940
:10481000E811D8A402D0070E1200040EED19D8B486
:1048200002D0ED51120020EE27F0CC51D926CD5107
:10483000DA22E3C5DFF4E3B305D0000EEA6F010E20
:10484000E96F13D00C0EE525066E000EE621076E0B
:10485000000E096E0D0E086ED7ECD3F0010E062483
:104860000501E96F000E0720EA6FCCC5BFF5CDC585
:10487000C0F5E9C5C1F5EAC5C2F5FFECC3F0050115
:10488000ED6FED51D8A498D0E907D8A0EA07E95117
:10489000EA11D8B491D0CCC581F5CDC582F5E9C572
:1048A000CEF5EAC5CFF5050ED890CE37CF37E82E36
:1048B000FBD7CE51D06FCF51D16FD26BD36B20EEDF
:1048C0000EF0CC51D926CD51DA22DEC4D4F5DEC4A7
:1048D000D5F5DEC4D6F5DEC4D7F5D051D45D836FEF
:1048E000D151D559846FD251D659856FD351D759EB
:1048F000866F59ECAAF00501ED6FED51D8A45CD09C
:104900001C0ECC25066E000ECD21076EC3ECD5F033
:104910000501E46FEBC560F5ECC561F520EE16F01E
:10492000CC51D926CD51DA22DEC462F5DEC463F55E
:10493000DEC464F5DEC465F559ECCAF00501ED6F1F
:10494000ED51D8A439D020EE0CF0EB51D926EC5122
:10495000DA22DEC40CF5DDC40DF520EE1AF0CC51E0
:10496000D926CD51DA22DEC40EF5DDC40FF5E9C536
:1049700010F5E4C511F571ECC3F0050120EE04F06B
:10498000EB51D926EC51DA22010EDF6ECCC5A5F52C
:10499000CDC5A6F5000EA86F000EA76FFBECA6F024
:1049A0000501ED6FED51D8A407D0E907D8A0EA07BB
:1049B000E951EA11D8A4AED7ED51D8A432D7EBC54E
:1049C00060F5ECC561F520EE16F0CC51D926CD513D
:1049D000DA22DEC462F5DEC463F5DEC464F5DEC44B
:1049E00065F559ECCAF00501ED6FED51D8A419D762
:1049F00020EE1AF0CC51D926CD51DA22DEC406F5CC
:104A0000DDC407F5000E096E000E086E000E0B6E79
:104A1000200E0A6E44ECD7F0050120EE1AF0CC51BE
:104A2000D926CD51DA22DEC406F5DDC407F51C0E09
:104A3000CC25086E000ECD21096E000E0B6E0B0EFC
:104A40000A6EDBECD4F0050120EE1AF0CC51D92629
:104A5000CD51DA2210EE0CF0DE50E126DD50E222DC
:104A600020EE27F0CC51D926CD51DA22DF50180B99
:104A7000E76E20EE04F0EB51D926EC51DA22010E5C
:104A8000DF6ECFD667C5D9F468C5DAF4DEC47FF52A
:104A9000DDC480F505016C516B116A1104E1020E51
:104AA000695DD8A010D020EE16F07F51D926805134
:104AB000DA22DE50695DDE506A59DE506B59DE50F5
:104AC0006C59D8A008D0010E776F000E786F000ED9
:104AD000796F000E76D17769786979697A6973D1CF
:104AE00069C57DF56AC57EF5D8907E316E6F7D31E2
:104AF0006D6F6D517D276E517E237FC560F580C53A
:104B000061F520EE22F07F51D9268051DA22DEC4F1
:104B10006DF5DEC46EF5DEC46FF5DEC470F57DC5DF
:104B200071F57EC572F5090E736FD89072337133CB
:104B3000732FFBD771516D25626F72516E21636FB8
:104B4000000E6F21646F000E7021656F59ECCAF082
:104B50000009D8A447D1FF0E05017D156D6F010E28
:104B60007E156E6F6D517F256F6F6E518021706F56
:104B7000320E6F25D96E000E7021DA6EDF50716F24
:104B800071517B6F7C6B7D4B7E2B7FC560F580C543
:104B900061F520EE22F07F51D9268051DA22DEC461
:104BA0006DF5DEC46EF5DEC46FF5DEC470F57DC54F
:104BB00071F57EC572F5090E736FD890723371333B
:104BC000732FFBD771516D25626F72516E21636F28
:104BD000000E6F21646F000E7021656F59ECCAF0F2
:104BE0000009D8A4FFD0FF0E05017D156D6F010EE1
:104BF0007E156E6F6D517F256F6F6E518021706FC6
:104C0000320E6F25D96E000E7021DA6EDF50716F93
:104C10007151736F726B72517B1373517C1369B155
:104C200007D0FF0E7B15756F0F0E7C15766F0FD0BA
:104C30007BC56DF57CC56EF5040E6F6FD8906E3335
:104C40006D336F2FFBD76DC575F56EC576F575C5E0
:104C500077F576C578F553D07FC560F580C561F5E9
:104C600020EE22F07F51D9268051DA22DEC46DF584
:104C7000DEC46EF5DEC46FF5DEC470F569C571F58E
:104C80006AC572F56BC573F56CC574F572C571F5BF
:104C900073C572F574C573F5746B6D517125626FD0
:104CA0006E517221636F6F517321646F7051742163
:104CB000656F59ECCAF00009D8A494D069C56DF5A8
:104CC0006AC56EF5D89005016D376E37FF0E6D150C
:104CD0006F6F010E6E15706F6F517F25716F705180
:104CE0008021726F320E7125066E000E7221076EE2
:104CF0001AECD6F006C577F507C578F50501796B8E
:104D00007A6B70D07FC560F580C561F520EE22F02A
:104D10007F51D9268051DA22DEC46DF5DEC46EF5EE
:104D2000DEC46FF5DEC470F569C571F56AC572F54C
:104D30006BC573F56CC574F5080E05D0D890743347
:104D4000733372337133E82EF9D76D517125626F69
:104D50006E517221636F6F517321646F70517421B2
:104D6000656F59ECCAF00009D8A43CD069C56DF54F
:104D70006AC56EF50501D8906D376E37D8906D37DE
:104D80006E37FF0E6D156F6F010E6E15706F6F51E0
:104D90007F25716F70518021726F320E7125066E02
:104DA000000E7221076E4CECC9F0FF0E06140501CF
:104DB000776FFF0E0714786FFF0E0814796F0F0ED0
:104DC00009147A6F0FD07FC5D9F480C5DAF4DF50AB
:104DD000010AD8B485D6030AD8B43ED7010AD8B49C
:104DE00091D771D677C567F578C568F579C569F546
:104DF0007AC56AF51200A5C5D9F4A6C5DAF4DEC4F1
:104E0000B9F5DDC4BAF5050120EE0EF0A551D9269D
:104E1000A651DA22DEC4A9F5DEC4AAF5DEC4ABF5DC
:104E2000DEC4ACF5200EA925B56F000EAA21B66F21
:104E3000000EAB21B76F000EAC21B86FB85104E182
:104E4000200EB75DD8A00AD020EE16F0A551D926C5
:104E5000A651DA22DE6ADE6ADE6ADD6A20EE16F02C
:104E6000A551D926A651DA22DE50DE10DE10DE1062
:104E7000D8A402D0040E1200FF0EB515A96F010EC2
:104E8000B615AA6F000EB715AB6F000EB815AC6F54
:104E9000A951AA11AB11AC11D8A438D120EE16F04B
:104EA000A551D926A651DA22DE2A000EDE22DE2204
:104EB000DE2220EE12F0A551D926A651DA22DE50CC
:104EC000DE10DE10DE10D8A42CD020EE08F0B95190
:104ED000D926BA51DA22DEC4A9F5DDC4AAF5A95152
:104EE000AB6FAA51AC6FAD6BAE6BB5C5AFF5B6C5C8
:104EF000B0F5B7C5B1F5B8C5B2F5060E05D0D89076
:104F0000B233B133B033AF33E82EF9D7AB51AF5D25
:104F1000AC51B059AD51B159AE51B259D8A0F6D03B
:104F200079D020EE0AF0B951D926BA51DA22DEC47E
:104F3000A9F5DDC4AAF5FF0EA925AB6FFF0EAA21C6
:104F4000AC6FB5C5ADF5B6C5AEF5B7C5AFF5B8C56F
:104F5000B0F50A0E05D0D890B033AF33AE33AD33D1
:104F6000E82EF9D7AB51AD15B16FAC51AE15B26F9C
:104F7000000EAF15B36F000EB015B46FB151B21182
:104F8000B311B411D8A4C2D0A5C567F5A6C568F5FC
:104F900020EE12F0A551D926A651DA22DEC469F519
:104FA000DEC46AF5DEC46BF5DEC46CF542ECA5F038
:104FB00067C5BBF568C5BCF569C5BDF56AC5BEF575
:104FC0000501BE51BD11BC1106E1020EBB5DD8B09A
:104FD00002D0020E1200BB2909E1BC2907E1BD295C
:104FE00005E1BE29D8A402D0010E120020EE16F071
:104FF000B951D926BA51DA22DE50BB5DDE50BC5918
:10500000DE50BD59DE50BE59D8A054D0A751A811CA
:10501000D8A40BD020EE16F0A551D926A651DA223D
:10502000DE6ADE6ADE6ADD6A25D7A5C588F5A6C513
:1050300089F520EE12F0A551D926A651DA22DEC458
:105040008AF5DEC48BF5DEC48CF5DEC48DF51DEC6F
:105050009FF088C5BBF589C5BCF58AC5BDF58BC574
:10506000BEF50501BB51BC11BD11BE11D8A402D0C3
:10507000070E1200BB05BC11BD11BE11D8B4A9D7D3
:10508000BB2907E1BC2905E1BD2903E1BE29D8B44C
:10509000ABD7B9C560F5BAC561F5BBC562F5BCC58E
:1050A00063F5BDC564F5BEC565F5DEECC2F000096B
:1050B000D8A49AD7050120EE12F0A551D926A65101
:1050C000DA22BBC5DEF4BCC5DEF4BDC5DEF4BEC568
:1050D000DEF4B9C512F5BAC513F5BBC514F5BCC5E8
:1050E00015F5BDC516F5BEC517F58CECC8F0050164
:1050F00020EE16F0A551D926A651DA2212C5DEF40B
:1051000013C5DEF414C5DEF415C5DEF420EE0EF092
:10511000A551D926A651DA22B5C5DEF4B6C5DEF40E
:10512000B7C5DEF4B8C5DEF4FF0EB515A96F010EE4
:10513000B615AA6FA951B925AB6FAA51BA21AC6FA8
:10514000320EAB27000EAC2320EE1AF0A551D92663
:10515000A651DA22ABC5DEF4ACC5DDF4000E1200B8
:105160000601D56F0601D551440DD20EF324DB6F35
:105170000F0EF420DC6F20EE3CF0DB51D926DC5121
:10518000DA22DF50D8B402D0000E1200D551440DFF
:10519000F60EF324D66F0F0EF420D76FD6C6D9F4CF
:1051A000D7C6DAF4DF50D8A41BD0D6C606F5D7C6CA
:1051B00007F5EF0E086EFF0E096E27ECD4F006011E
:1051C00020EE07F0D651D926D751DA22D551300F2B
:1051D000DF6E20EE08F0D651D926D751DA22DF6AE9
:1051E000030ED06F0501FBA302D0070E03D0FBA571
:1051F00003D0010E0601D06FDBC6EEF5DCC6EFF57D
:10520000D6C6F0F5D7C6F1F5D0C6F2F5F8EC8CF0BD
:105210000601D86FD851D8B403D00601D851120076
:105220000501FBA30BD0DBC6ECF5DCC6EDF5F6EC17
:10523000B7F00601D86FD851D8A434D1DBC681F5B8
:10524000DCC682F5B20E0501836F0C0E846F010E71
:10525000866F000E856FD30E876F060E886F05EC84
:1052600090F00601D86FD851D8A41CD1D405D31121
:10527000D8B404D0090E0601D86F14D1B20ED96F7C
:105280000C0EDA6FD9C6D9F4DAC6DAF4560EDE1887
:10529000D8A4F0D720EE01F0D951D926DA51DA227C
:1052A000CB0EDE18D8A4E6D720EE02F0D951D926CD
:1052B000DA51DA22100EDE18D8B40AD020EE02F04D
:1052C000D951D926DA51DA22110EDE18D8A4D2D754
:1052D0000501FBA509D0060120EE3FF0DB51D926E0
:1052E000DC51DA22010E12D0060120EE3FF0DB5134
:1052F000D926DC51DA2210EE07F0D951E126DA5135
:10530000E222E7AE02D0010E01D0000EDF6E20EEE9
:105310001BF0D951D926DA51DA22DF500501FC6F92
:10532000030EFC17FC51FE6FFD6B060120EE40F0F2
:10533000DB51D926DC51DA22FDC5DEF4FEC5DDF4F1
:1053400020EE40F0DB51D926DC51DA2210EE1CF0C1
:10535000D951E126DA51E222E7500501FC6FFC51F8
:10536000DE26000EDD22060120EE1DF0D951D926E1
:10537000DA51DA22DF50D8A405D0010ED26F000E28
:10538000D16F0DD020EE1DF0D951D926DA51DA2295
:10539000DF500501FC6FFC510601D16FD26B20EE8E
:1053A0001AF0D951D926DA51DA22DF50D8A421D007
:1053B00020EE43F0DB51D926DC51DA22200EDF6EDD
:1053C00020EE42F0DB51D926DC51DA22D1C606F5B7
:1053D000D2C607F510EE43F0DB51E126DC51E222A4
:1053E000E7500501FC6FFC51086E096AD7ECD3F059
:1053F00026D020EE1AF0D951D926DA51DA2210EE51
:1054000042F0DB51E126DC51E222DFC4E7F420EE7A
:1054100043F0DB51D926DC51DA22D1C606F5D2C6DB
:1054200007F510EE42F0DB51E126DC51E222E750B5
:105430000501FC6FFC51086E096AD7ECD3F00650E9
:10544000DF6E060120EE43F0DB51D926DC51DA2273
:10545000DF50066E20EE1DF0D951D926DA51DA223E
:10546000DF506FECD7F00009D8A404D7060120EE76
:1054700042F0DB51D926DC51DA22080EDF6401D07C
:10548000F9D620EE3DF0DB51D926DC51DA22DE6A76
:10549000DD6A20EE3CF0DB51D926DC51DA22000E29
:1054A000DB8072D6DBC688F5DCC689F5FDECD4F06E
:1054B000B4D681C5D9F482C5DAF4DEC499F5DDC469
:1054C0009AF50501865116E1200E855DD8B012D0FF
:1054D0001F0E8315876F000E8415886F000E8515CB
:1054E000896F000E86158A6F8751881189118A117C
:1054F000D8B402D0020E120020EE0EF08151D9264F
:105500008251DA2283C5DEF484C5DEF485C5DEF47B
:1055100086C5DEF420EE06F08151D9268251DA22CA
:10552000DEC495F5DEC496F5DEC497F5DEC498F5C5
:105530009551961197119811D8A415D099C5D9F401
:105540009AC5DAF4020EDF640ED020EE26F09951EF
:10555000D9269A51DA22DEC495F5DEC496F5DEC46A
:1055600097F5DEC498F59551961197119811D8A426
:1055700040D020EE08F09951D9269A51DA22DEC4A3
:1055800087F5DDC488F58751896F88518A6F8B6BE9
:105590008C6B83C58DF584C58EF585C58FF586C565
:1055A00090F5060E05D0D89090338F338E338D331F
